:1000000000020020E9040000290500002905000085
:1000100000000000000000000000000000000000E0
:1000200000000000000000000000000029050000A2
:10003000000000000000000029050000C1070000CA
:1000400029050000290500002905000029050000F8
:1000500029050000290500002905000029050000E8
:10006000A50B0000B90B0000A50C0000B90C0000A6
:10007000990D0000AD0D0000C10D0000550B0000F2
:100080002D0B0000690B00007D0B0000910B0000A0
:10009000850C0000410B0000290C00004D0C0000F5
:1000A000CD0B0000ED0B0000290500002905000024
:1000B000D50D0000710C0000290500002905000085
:10040000FFFFFFFFFFFFFFFFFFFFFFFFFFFFFEFFFD
:1004100010B5064C2378002B07D1054B002B02D0DA
:10042000044800E000BF0123237010BD10F9FF1F36
:1004300000000000CC20000008B5084B002B03D0C2
:100440000748084900E000BF07480368002B00D1B7
:1004500008BD064B002BFBD09847F9E700000000D1
:10046000CC20000014F9FF1F0CF9FF1F0000000052
:10047000164B002B00D1144B9D46402292029A1A33
:10048000924600218B460F461348144A121A01F077
:1004900029FC0F4B002B00D098470E4B002B00D0AF
:1004A00098470020002104000D000D48002802D0CC
:1004B0000C4801F04FFD01F001F92000290000F087
:1004C00039FF00F0C3FFC046000008000002002012
:1004D000000000000000000010F9FF1FE4F9FF1FFA
:1004E000551F0000651F000072B6094809490A4AF5
:1004F00002600A6000F034F962B60849084A094B04
:100500009B1A03DD043BC858D050FBDCFFF7B0FF5B
:1005100080E100E080E200E0FFFFFFFF0821000033
:1005200000F0FF1F10F9FF1FFEE7C046002243083E
:100530008B4274D303098B425FD3030A8B4244D3AB
:10054000030B8B4228D3030C8B420DD3FF220902ED
:1005500012BA030C8B4202D31212090265D0030BAC
:100560008B4219D300E0090AC30B8B4201D3CB03A2
:10057000C01A5241830B8B4201D38B03C01A5241E4
:10058000430B8B4201D34B03C01A5241030B8B42E6
:1005900001D30B03C01A5241C30A8B4201D3CB02D1
:1005A000C01A5241830A8B4201D38B02C01A5241B6
:1005B000430A8B4201D34B02C01A5241030A8B42B9
:1005C00001D30B02C01A5241CDD2C3098B4201D3D1
:1005D000CB01C01A524183098B4201D38B01C01A4F
:1005E000524143098B4201D34B01C01A52410309C6
:1005F0008B4201D30B01C01A5241C3088B4201D375
:10060000CB00C01A524183088B4201D38B00C01A21
:10061000524143088B4201D34B00C01A5241411A48
:1006200000D20146524110467047FFE701B5002055
:1006300000F00CF802BDC0460029F7D003B5FFF763
:1006400075FF0EBC4243891A1847C0467047C04622
:10065000024670B50A4392072AD11E4DEE0104C826
:1006600008C9541B9443344017D0D0B2D9B2401AB1
:100670002106014310D190B299B2401A21040143DE
:100680000AD110021902000A090A401A2102014384
:1006900002D1100E190E401A70BD9A42DFD010BA66
:1006A00019BA884201D9012070BD0020C04370BD35
:1006B00002780B7801300131002A09D09A4207D123
:1006C00002780B7801300131002A01D09A42EFD034
:1006D000D01A70BD010101017047C04608B5164B24
:1006E000197802220A431A7090229A70124B1B79D1
:1006F0005B06FBD5104B597820220A435A701979B2
:1007000040220A431A710D4B1868FA218900FFF73D
:100710000DFF01380A4B98420DD80A4A50600A4929
:100720000B6A1B021B0AC020000603430B62002356
:1007300093600733136008BD0040064000F0FF1FC0
:10074000FFFFFF0010E000E000ED00E010B5041C2A
:10075000024B1868FFF7C2FF201C10BD00F0FF1FFE
:1007600010B5124B124A9A8001225A7022321A7026
:10077000104A517820231943C9B2517000200E4904
:100780004862062111705478093121400B43DBB2D5
:1007900053700A4B1870074B1B79DB06FBD5054BD2
:1007A0001A790C231A42FAD110BDC0460020054028
:1007B00003E8FFFF00400640008004400050064070
:1007C00030B505490C684D680122002312196B41B0
:1007D0000A604B6030BDC04630F9FF1FF0B585B0F0
:1007E000002833D001AA1B4C131CE0CCE0C30369E2
:1007F0005C09A400A258847D002C0BD050691F24F2
:10080000251C1D40A8431940231C0B400343536182
:1008100000201CE0007D002802D001204140014062
:10082000002909D054681F210B4001209840031C67
:100830002343536000200AE094681F210B400120ED
:100840009840031C23439360002000E0FE2040B248
:1008500005B0F0BD8C20000070B584B0002823D016
:1008600001AA144B111C70CB70C10369590989008E
:100870008958827D002A04D0086903401F2018404F
:1008800016E0027D002A08D009691F2003400122DA
:100890009A400A420BD000200AE008691F22134048
:1008A0001E3A9A40104003E00120404200E001203F
:1008B00004B070BD8C20000010B5002805D00C1CC1
:1008C000FFF7CAFF2060002000E0FE2040B210BD0C
:1008D000F0B585B0002875D001AB3D4A1C1CE0CABC
:1008E000E0C4046962099500EB58022924D1012A69
:1008F0000ED0002A02D0022A14D03EE0354DAE6858
:100900001F2214401E3AA240141C3443AC6034E051
:10091000304DEE681F2214401E3AA240141C34438E
:10092000EC602AE02B4D2E691F2214401E3AA24093
:10093000141C34432C6120E0012A0DD0002A02D07F
:10094000022A12D019E0234EB2681F252C401E3D0A
:10095000A540AA43B26010E01E4EF2681F252C404D
:100960001E3DA540AA43F26007E01A4E32691F25DA
:100970002C401E3DA540AA433261002911D0012917
:1009800022D19D691F24026922400E1C9640B54366
:100990009D615A6900690440A1408A435A61002060
:1009A00013E05E691F25016929400124221C8A4049
:1009B00032435A619A6901690D40AC40A2439A6181
:1009C000002002E0FE2000E0FB2040B205B0F0BDB8
:1009D0008C2000000090044038B5041C0D1C002140
:1009E0003C2201F07FF9201D291C182201F03CF95E
:1009F000617D201CFFF76CFF201CA169FFF7EEFE54
:100A0000201C38BDF0B589B0051C0C1C00212C221F
:100A100001F068F90026F3009B1B9B003E48181864
:100A2000211CFFF715FE002801D00136F3E7201C3A
:100A30003A49052201F0B2F9071E09D0201C3849B5
:100A4000072201F0ABF9002802D0F5232B7060E0FB
:100A5000002F1AD16479303CE4B2072C02D9F52377
:100A60002B7056E0281C00212C2201F03BF9281D98
:100A7000F1008E1BB600284971181C2201F0F4F811
:100A80002123EC54022C03D805E0FA232B7040E01C
:100A9000FC232B703DE002AB224A191CC1CAC1C124
:100AA000A400E058A862204B1B6801930693AB6931
:100AB0000793AB7F002B11D005A90C7802222243AB
:100AC0000A70022B05D10A1C0B7801218B4313708D
:100AD00004E005AA117801230B4313702B7F002B30
:100AE00005D105AA137810218B43137004E005AAE1
:100AF000117810230B4313706B7F002B03D100225E
:100B000005ABDA7002E0012205ABDA7005A900F04E
:100B1000DDF8281C09B0F0BD04F0FF1FA420000080
:100B2000AC2000009820000000F0FF1F08B5034B28
:100B30001B68002B00D0984708BDC04638F9FF1F3E
:100B400008B5034B5B68002B00D0984708BDC04632
:100B500038F9FF1F08B5034B1B68002B00D09847DE
:100B600008BDC04640F9FF1F08B5034B1B68002BAA
:100B700000D0984708BDC04644F9FF1F08B5034B95
:100B80005B68002B00D0984708BDC04644F9FF1FA2
:100B900008B5034B9B68002B00D0984708BDC046A2
:100BA00044F9FF1F08B5034B1B68002B00D0984782
:100BB00008BDC04650F9FF1F08B5034B5B68002B0A
:100BC00000D0984708BDC04650F9FF1F08B5054A38
:100BD000916804230B439360034B1B68002B00D0E8
:100BE000984708BD0090074058F9FF1F08B5054A0F
:100BF000916804230B439360034B5B68002B00D088
:100C0000984708BD00A0074058F9FF1F1F23184050
:100C10001E3B8340181C034BC022520098501860A2
:100C20007047C04600E100E008B506498622520040
:100C30008858012303438B50034B1B68002B00D0C3
:100C4000984708BD0070034060F9FF1F08B50649CA
:100C50008E2252008858012303438B50034B5B685C
:100C6000002B00D0984708BD0070034060F9FF1FBB
:100C700008B5034B1B68002B00D0984708BDC04641
:100C800068F9FF1F08B5054A116880230B431360FC
:100C9000034B1B68002B00D0984708BD00D00340D1
:100CA0006CF9FF1F08B5034B1B68002B00D0984759
:100CB00008BDC04670F9FF1F08B5034B5B68002BE9
:100CC00000D0984708BDC04670F9FF1F70B5041CDE
:100CD0000D1C486889682C4B9C4205D12B4A5369EE
:100CE0008026760333435361294B9C4205D1274A22
:100CF00053698026B60333435361264B9C4205D18A
:100D0000224A53698026F60333435361E3780C2269
:100D10009343E3702B78A37000094B08C018FFF7CA
:100D200005FC23781F2293431A1CC304DB0E1343D4
:100D30002370C0B26070EB78012B04D122781F338E
:100D40001343237003E02378202293432370AB786E
:100D5000A3716B78E3702A68FF231B031A4211D03A
:100D6000094B9C4202D10C20FFF750FF084B9C42DC
:100D700002D10D20FFF74AFF064B9C4202D10E2004
:100D8000FFF744FF70BDC04600A00640008004404D
:100D900000B0064000C0064008B5024B1B68024880
:100DA000984708BD78F9FF1F00A0064008B5024B20
:100DB0001B680248984708BD78F9FF1F00B006403D
:100DC00008B5024B1B680248984708BD78F9FF1F19
:100DD00000C0064008B5054A517840230B435370C4
:100DE000034B1B68002B00D0984708BD002005402E
:100DF0007CF9FF1F08B500F085FC08BD08B500F0C0
:100E00008BFC08BD10B5041C0068002801D000F060
:100E100083FC201C10BDC04610B5041C00230370C9
:100E200043708370C370037143718371C371012078
:100E3000042100F0CFFA2060201C10BD38B5041C3E
:100E40000368002B11D118E00D4A944663449B00BF
:100E500022689D58002D05D0281CFFF7D3FF281CC1
:100E6000FFF7CCFF6368013B63606368002BEBD145
:100E7000206800F051FC00232360201C38BDC046D0
:100E8000FFFFFF3F38B5041C0D1C012805D1074B9F
:100E9000994202D10648FFF7BFFF002C05D1034B52
:100EA0009D4202D10248FFF7C9FF38BDFFFF000095
:100EB00080F9FF1F08B501200149FFF7E3FF08BDD6
:100EC000FFFF000008B500200149FFF7DBFF08BD68
:100ED000FFFF0000F8B5061C0F1C00250D4BDB685A
:100EE000002B07D0AA00D458002C03D02379002B64
:100EF00000D003D100233B60F52009E0201D311C08
:100F0000FFF7A6FB002801D00135E7E73C60002091
:100F100040B2F8BD88F9FF1FF8B5061C0F1C00256C
:100F20000F4B1B69002B0BD0AA00D458002C07D004
:100F3000201C2430002803D02423E35C002B03D1A1
:100F400000233B60F52008E0311CFFF781FB0028FF
:100F500001D00135E4E73C60002040B2F8BDC04656
:100F600088F9FF1FF8B5061C0F1C00250E4B5B69A6
:100F7000002B09D0AA00D458002C05D0201D002831
:100F800002D02379002B03D100233B60F52008E039
:100F9000311CFFF75DFB002801D00135E6E73C601E
:100FA000002040B2F8BDC04688F9FF1FF8B5061C06
:100FB0000F1C00250E4B9B69002B09D0AA00D458AA
:100FC000002C05D0201D002802D02379002B03D14E
:100FD00000233B60F52008E0311CFFF739FB0028B7
:100FE00001D00135E6E73C60002040B2F8BDC046C4
:100FF00088F9FF1FF0B5474680B4051C00211C226C
:1010000000F070FE002407E063001B19DB00314A8A
:101010009B5C002B03D001342F4B9C42F4D9611C04
:101020008900012000F0D6F9E86000261AE073007C
:101030009B19DB00274A9B5C002B12D03C20FFF75A
:10104000D9FE8046B700EB689C466744002806D06E
:1010500073009B19DB001F495918FFF7BDFC43467D
:101060003B600136A642E2D3002407E0E3001B1BED
:101070009B001A4A9B5C002B03D00134164B9C4208
:10108000F4D9611C8900012000F0A4F9A8610026B0
:101090001AE0F3009B1B9B00104A9B5C002B12D0B4
:1010A0002C20FFF7A7FE8046B700AB699C4667443B
:1010B000002806D0F3009B1B9B0008495918FFF736
:1010C000A1FC43463B600136A642E2D3281C04BC87
:1010D0009046F0BD3CF0FF1FFF01000004F0FF1F31
:1010E00038B5041C0D1C012808D1094B994205D1C3
:1010F0000848FFF72BFB0848FFF77CFF002C05D1C1
:10110000034B9D4202D10348FFF7E6FA38BDC046C3
:10111000FFFF0000A4F9FF1F88F9FF1F7047C046BA
:1011200008B501200149FFF7DBFF08BDFFFF000004
:1011300008B500200149FFF7D3FF08BDFFFF0000FD
:1011400030B585B0041C0D1C002303704370837000
:10115000C370037143718371C371037243728372ED
:10116000C372081C6946FFF7B5FE002804D1009B36
:1011700063600123637023E0281C01A9FFF7CCFE04
:10118000002804D1019B63600323637018E0281CCE
:1011900002A9FFF7E7FE002804D1029B6360042345
:1011A00063700DE0281C03A9FFF700FF002804D19D
:1011B000039B63600223637002E00023637063603B
:1011C000201C05B030BDC04600234370436070470B
:1011D00008B54268002A08D04378002B07D0012BBD
:1011E00007D1101CFFF7FAFA04E0EF2002E0EF202D
:1011F00000E0F82040B208BD10B584B0031C0C1C00
:1012000001A8191CFFF79CFF01A8211CFFF7E0FFB4
:10121000041C01A8FFF7D8FF201C04B010BDC04675
:1012200010B582B04268002A12D04378002B11D04A
:10123000012B11D10C1C101C01A9FFF73DFB019BD8
:10124000002B02D00123237007E00023237004E069
:10125000EF2002E0EF2000E0F82040B202B010BD25
:1012600010B584B0031C0C1C01A8191CFFF768FF03
:1012700001A8211CFFF7D4FF041C01A8FFF7A4FF5D
:10128000201C04B010BDC04630B500290CD0094B5D
:101290001A685B680468456812196B41111C5B0091
:1012A0005B088160C36004E080231B06C2681343AF
:1012B000C36030BD30F9FF1F70B5041C161C1D1C27
:1012C0000021102200F00EFD6D006D0826606560A3
:1012D000201C0121FFF7D8FF201C70BD08B55B0062
:1012E0005B08026043600121FFF7CEFF08BDC046E6
:1012F000F8B58468C168002916DB221C49004B0838
:101300000B490E684F68341C79004D08121BAB4125
:1013100001246442E51712196B41002B06DA012102
:10132000FFF7B2FF012002E0002000E00020F8BD3E
:1013300030F9FF1F08B500F003F8002008BDC046D3
:1013400030B58DB004A814220023FFF7B5FF08A81C
:1013500064220023FFF7B0FF01A81B49FFF7F0FE4E
:1013600000251A48FFF7DAFE04A8FFF7C1FF08A816
:10137000FFF7BEFF0028F4D06B46DC1C1448211C8C
:10138000FFF76EFF2378002B14D0002D07D008A89C
:10139000C32292000023FFF7A1FF002505E008A863
:1013A000B4220023FFF79AFF012509480021FFF727
:1013B00023FFD6E708A814220023FFF78FFF044875
:1013C0000121FFF719FFCCE7B420000088F9FF1FC7
:1013D000BC20000008B5031C0A1C03490868191C3E
:1013E00000F004F808BDC046F8F4FF1F10B55143E3
:1013F00000F09CF9041E27D0031C083B5A68032305
:101400009A43043A242A15D8031C132A05D800222B
:10141000201C1A605A609A6010BD002108330160D8
:1014200041601B2AF3D98160C160242A07D0031CC4
:101430001033ECE7002100F055FC201CECE7031C06
:10144000016118334161E2E70020E5E710B50021B2
:10145000041C00F0FBFC044B1868C36B002B00D08D
:101460009847201C00F010FEC8200000F8B50C1CA6
:10147000061C00F07DFC204FBB685D6803239D4384
:101480001E4B2C1B9C466444240B1D4B013C240327
:101490009C4207DD301C002100F06EFCBB685B192C
:1014A000984204D0301C00F065FC0020F8BD614279
:1014B000301C00F061FC431C0DD001232D1BBA68C9
:1014C0001D43104B55601A68301C141B1C6000F043
:1014D00051FC0120EAE7301C002100F04DFCBB6804
:1014E000C21A0F2ADEDD08490968401A054908605A
:1014F00001210A435A60D5E7FCF4FF1FEF0F0000FB
:10150000FF0F0000B4F9FF1F08F9FF1FF0B54746B1
:1015100080B4002949D00C1C051C00F029FC211CBA
:1015200008394F6801233C1C9C430A1950689846AF
:1015300002339843031C5B488668964252D0464665
:1015400053603E420BD10826B4460F688444C91B41
:10155000E4198F6867455ED0CE68FE60B7600127EA
:10156000D61876683E4208D1E4184F4E9368B342CD
:1015700000D173E0D268DA6093604C4B27434F6030
:101580000C519C4214D8E408FF3BA210FF3B93404F
:101590004268E4001343436000198368C8608B60AD
:1015A0008160D960281C00F0E5FB04BC9046F0BDCA
:1015B000630A042B43D8A30938331A1C5E00B60013
:1015C0008619B3680327B3423FD05A68BA43A24290
:1015D00002D99B689E42F8D1DA68CA608B6091603C
:1015E000D960DFE71C1943463B4206D10B68C91A94
:1015F0008A68E418CB68D3609A6001222C4B22439E
:101600001B684A6081609C42CCD32A4B281C196815
:10161000FFF72CFFC6E74646D0184068304209D194
:101620004646E418D36892682643D3609A604E60B9
:101630000C51B7E7464626434E600C51B2E7142BD7
:1016400014D85B331A1C5E00B9E701249210944051
:10165000221C4468224342601A1CBEE72743D9601B
:101660009960CB608B604F600C519BE7542B04D882
:10167000230B6E331A1C5E00A1E7AA22520093428C
:1016800004D8E30B77331A1C5E0098E70A4A9342AA
:1016900004D8A30C7C331A1C5E0090E7FC267E2243
:1016A0008DE7C046FCF4FF1F04F5FF1FFF0100009B
:1016B00004F9FF1FB0F9FF1F5405000070B50D4E6F
:1016C0000D4D0024AD1BAD1005D0A300F35801341F
:1016D0009847A542F9D100F0F9FC084E084D0024C6
:1016E000AD1BAD1005D0A300F35801349847A542B7
:1016F000F9D170BDEC200000EC200000EC200000CF
:10170000FC20000008B5034B011C186800F00EF81F
:1017100008BDC046F8F4FF1F08B5034B011C18684C
:10172000FFF7F4FE08BDC046F8F4FF1FF0B55F46B2
:101730004D4656464446F0B40D1C0B3583B0071C8D
:10174000162D2DD907239D4300D5C7E0A94200D906
:10175000C4E000F00DFBF823FF339D4228D8E908D0
:10176000CB4ECB00F318DC689C4200D1C1E10323CF
:1017700062689A43131CE268A168CA609160012202
:10178000E3185968381C0A435A6000F0F3FA201C29
:10179000083003B03CBC90469946A246AB46F0BD2B
:1017A000102900D99AE0381C00F0E2FA1025D6E79B
:1017B000690A00D196E0042900D93CE138239C460F
:1017C000A9098C4463465900B14E89007118CC6850
:1017D000A14215D0032362689A43131C521B0F2A9F
:1017E00000DD83E00320002A07DBC4E7636883434E
:1017F0005A1B0F2A7ADC002ABDDAE468A142F5D12F
:10180000614601310091321C34690832944200D1A2
:1018100061E10323616899430B1C481B0F2800DD1D
:1018200048E1726132610028A9DA9A4A914200D9EE
:101830000DE10123C8088210934072681A43C30067
:10184000F3189868E360A0609C60131C7260C46029
:101850000120009A9210904098424CD818420DD125
:1018600003220099400091430A1D0092184205D1BD
:10187000009A4000043200921842F9D0032398469F
:10188000009AD3009946B144CC4692466346DC6840
:10189000A44507D121E1002A00DB33E1E468A44537
:1018A00000D11AE14246636893435A1B0F2AF2DDC6
:1018B000012163190D436560E068A5680836E8609A
:1018C00011438560F360B360381CDE609E60596030
:1018D0009A5000F04FFA201C08305AE70C230020E1
:1018E0003B6056E73F237E219C466DE701235B4228
:1018F0009846C44484E70323B46862689A439046D8
:10190000954203D8521B0F2A00DD86E0231C434476
:10191000614A0193614B93461B681268EB180132D0
:1019200000D15CE15E4A944663441B0B1B030093A9
:10193000381C009900F020FA031C8146013360D066
:10194000019B834200D9F8E0564B009A9A461B68E7
:101950009C46534662441A60019B4B4500D14CE1C2
:101960005B461B68013300D15EE14B4601995B1A6F
:10197000D21853461A6007234A46134000D113E198
:1019800008218946D21A9144474AD21A009B381C32
:101990004B441B051B0DD31A191C9B4600F0ECF998
:1019A000431C00D134E14B46C01A0123584418436C
:1019B00053461B685B441A1C53461A604B46B3607F
:1019C0005860B44213D043460F2B00D8F7E043468B
:1019D000072160680C3B8B43063901400520194301
:1019E0006160E118486088600F2B00D914E12F4B2B
:1019F00019688A4200D91A602D4B19688A4200D9A9
:101A00001A600323B46862689A43131C5A1B9D42F0
:101A100000D9B9E00F2A00DCB6E00123291C6519C2
:101A2000194313436160381CB5606B6000F0A2F984
:101A3000201C0830ADE6142973D9542900D9A8E038
:101A40006E239C46290B8C4463465900BCE64A0A27
:101A5000042A6CD88A093832101C5200920094462D
:101A6000B4446246032192688846624500D19EE0F4
:101A7000414650688843834202D292689445F7D128
:101A8000D0687368E060A2608460D460E0E6C0461D
:101A9000FCF4FF1FFF01000008F9FF1FB0F9FF1F52
:101AA0000F100000B4F9FF1F08100000ACF9FF1F71
:101AB000A8F9FF1F012163190D430143656073619C
:101AC0003361DA609A6059601850381C00F052F99E
:101AD000201C08305DE67368BAE608239B46073B86
:101AE000DC449B46DA4443465246134200D0CDE6DE
:101AF00031E0231C64698A1C08330092A34200D1A0
:101B000081E634E60122E3185968381C0A435A601A
:101B1000E368A268D3609A6000F02CF9201C0830BA
:101B200037E65B239C468C44634659004CE6142AF6
:101B300058D85B32101C520090E7B44200D060E7E6
:101B400002E7009B013B00934B461A68083B914615
:101B50009A4200D080E04346009A1342F1D1736864
:101B6000834373604000984200D9C4E6002800D146
:101B7000C1E6184272D152460092009A40000432E7
:101B800000921842F9D07BE6381C00F0F3F80020F0
:101B9000FFE5AA235B00994217D8DD3B9C46E90B81
:101BA0008C44634659000FE680225201EEE6012381
:101BB000801083407168101C0B43736062E701233F
:101BC0004A464C465360002320E7264B994210D8E2
:101BD0007C239C46A90C8C4463465900F4E51033E1
:101BE0000093A5E6542A23D80A0B6E32101C52002B
:101BF00034E77E23FC219C46E6E51B0500D0AFE6DA
:101C0000009BB1684344181C012303434B60EEE67C
:101C1000002301209B46CBE6211C381C0831FFF72E
:101C200075FC53461A68E2E65B464A461A60A2E62D
:101C3000AA204000824204D8CA0B7732101C5200FE
:101C40000CE70848824204D88A0C7C32101C5200EF
:101C500004E7FC227E2001E7736883E75346009384
:101C60000EE6C0465405000070B50F2A32D9041C98
:101C70000C430B1CA40731D1151C041C103D2D096D
:101C800001352D0149191E6826605E6866609E68F0
:101C9000A660DE681033E66010349942F3D10F235A
:101CA00045191340032B1BD91C1F0023A408013422
:101CB000A400CE58EE500433A342FAD1ED18C9184F
:101CC00003231A4005D00023CC5CEC54013393422B
:101CD000FAD170BD051C002AF5D1FAE7051CF2E720
:101CE0001A1CF8E770B583073FD0541E002A3BD07A
:101CF000CEB2031C032503E0621E002C34D0141C5A
:101D000001335A1E16702B42F6D1032C24D9FF251D
:101D10000D402A0215432A0415430F2C11D9261C05
:101D2000103E3609013636011A1C9B1915605560A4
:101D30009560D56010329342F8D10F221440032CE5
:101D40000AD9261FB6080136B6001A1C9B1920C2F4
:101D50009342FCD103221440002C05D0C9B21C19B7
:101D600019700133A342FBD170BD141C031CCCE7D6
:101D70007047C0467047C04638B50023064C051C66
:101D8000081C236000F072F9431C00D038BD2368A2
:101D9000002BFBD02B60F9E7E0F9FF1F031C30B5E7
:101DA0000020002A3BD01C1C0C43A40720D1032A8E
:101DB0001ED91C680D68AC421AD1043A002A2ED0F4
:101DC0001A4D6519A5432C1C194D2C420CD026E048
:101DD00018680C68A0420BD1043A002A20D0134C9A
:101DE000041984432C421BD104330431032AEFD855
:101DF0001C780878013A844214D1002A10D0002CB3
:101E00000ED04C1C8A1804E0944209D001340029F9
:101E100006D00133197820788142F5D0081A30BDF8
:101E20000020FCE7211C081AF9E7C046FFFEFEFE71
:101E30008080808008B5034B002B02D0024800F060
:101E400089F808BD00000000651F0000F0B5564687
:101E50005F464D464446F0B40E1C3C4B87B01B68B1
:101E6000019003934933FF330493A422039B520050
:101E70009F58002F4CD0049B984600239B46C423B8
:101E80005B009C46BC4463460293C6235B009A46B3
:101E90007C68BA44A5007D19013C08D526E06B1D7D
:101EA000FF331B68B34204D0043D013C1ED3002E17
:101EB000F5D17B686A68013BA3423AD05B466B6010
:101EC000002AF1D07B68029999460123A340096852
:101ED0000591194223D190477B684B45C5D14346B4
:101EE0001B68BB42C1D1043D013CE0D2184B002B22
:101EF0000ED07B68002B23D13B68002B24D04246B8
:101F0000381C1360FFF708FC43461F68002FB6D14A
:101F100007B03CBC90469946A246AB46F0BD514640
:101F20000968194207D12B1C84331968019890471E
:101F3000D2E77C60C4E72B1C843318689047CBE75A
:101F40003B68B8461F1CE1E70023FAE7C820000001
:101F50001917000008B5011C00220020002300F022
:101F60001BF808BD38B5094B094CE41AA41009D078
:101F7000084AA518AD00ED182B68013C9847043DB0
:101F8000002CF9D100F0A8F838BDC046FC200000B4
:101F900008210000FFFFFF3FF8B544465F46564664
:101FA0004D469B462F4BF0B41C68A4235B00051CD8
:101FB000E0580E1C904600284BD043681F2B0DDCC8
:101FC0005C1C002D21D102339B0044601E50002078
:101FD0003CBC90469946A246AB46F8BD224B002B2E
:101FE0003CD0C8204000FFF78DFB002836D0A4224B
:101FF00000235200A15843600160A050403283503A
:10200000043283500124002DDDD09A009146814492
:10201000424688214F467A50C4225200904680445E
:1020200042468739994012688A460A439446424696
:1020300061461160842249465F4652008F50022D4E
:10204000C1D1021C55468D32FF3211680D43156017
:10205000B9E7201C4D30FF30E050AEE70120404290
:10206000B6E7C046C820000005170000044A136800
:10207000002B03D018181060181C7047014BF9E7AB
:10208000DCF9FF1F00FAFF1FFEE7C04600F00F401B
:1020900040F00F4080F00F4000A0064000B0064026
:1020A00000C00640756172742D0000007573626394
:1020B00064632D00756172742D3000006C65642DB1
:1020C0003000000043000000D0F0FF1FF8B5C0460C
:1020D000F8BC08BC9E467047F8B5C046F8BC08BCC2
:0420E0009E46704761
:0820E4008CE3FF7F0100000006
:1020EC00351E000039040000B50E0000211100005F
:0C20FC0011040000C50E000031110000AE
:1021080000004001756172742D320000000000006B
:10211800670000006600000000C201000000000027
:1021280000000000000000000000000000000000A7
:102138000000000000000000000000006C65642D35
:10214800300000000000000038000000010000001E
:10215800000000006C65642D3100000000000000E4
:102168003900000001000000000000006C65642DCB
:1021780032000000000000002700000001000000FD
:10218800000000006862746E2D300000000000003E
:102198002400000001010000000000006862746E65
:1021A8002D310000000000002500000001010000A2
:1021B8000000000000000000000000000000000017
:1021C8000000000000010000000000000000000006
:1021D80000000000BCF3FF1F24F4FF1F8CF4FF1F56
:1021E80000000000000000000000000000000000E7
:1021F80000000000000000000000000000000000D7
:1022080000000000C42000000000000000000000E2
:1022180000000000000000000000000000000000B6
:1022280000000000000000000000000000000000A6
:102238000000000000000000000000000000000096
:102248000000000000000000000000000000000086
:102258000000000000000000000000000000000076
:102268000000000000000000000000000000000066
:102278000000000000000000010000000000000055
:102288000E33CDAB34126DE6ECDE05000B0000001A
:102298000000000000000000000000000000000036
:1022A8000000000000000000000000000000000026
:1022B8000000000000000000000000000000000016
:1022C8000000000000000000000000000000000006
:1025F8000000000000000000D0F0FF1F00000000F5
:1026080000000000FCF4FF1FFCF4FF1F04F5FF1F8F
:1026180004F5FF1F0CF5FF1F0CF5FF1F14F5FF1F36
:1026280014F5FF1F1CF5FF1F1CF5FF1F24F5FF1FE6
:1026380024F5FF1F2CF5FF1F2CF5FF1F34F5FF1F96
:1026480034F5FF1F3CF5FF1F3CF5FF1F44F5FF1F46
:1026580044F5FF1F4CF5FF1F4CF5FF1F54F5FF1FF6
:1026680054F5FF1F5CF5FF1F5CF5FF1F64F5FF1FA6
:1026780064F5FF1F6CF5FF1F6CF5FF1F74F5FF1F56
:1026880074F5FF1F7CF5FF1F7CF5FF1F84F5FF1F06
:1026980084F5FF1F8CF5FF1F8CF5FF1F94F5FF1FB6
:1026A80094F5FF1F9CF5FF1F9CF5FF1FA4F5FF1F66
:1026B800A4F5FF1FACF5FF1FACF5FF1FB4F5FF1F16
:1026C800B4F5FF1FBCF5FF1FBCF5FF1FC4F5FF1FC6
:1026D800C4F5FF1FCCF5FF1FCCF5FF1FD4F5FF1F76
:1026E800D4F5FF1FDCF5FF1FDCF5FF1FE4F5FF1F26
:1026F800E4F5FF1FECF5FF1FECF5FF1FF4F5FF1FD6
:10270800F4F5FF1FFCF5FF1FFCF5FF1F04F6FF1F84
:1027180004F6FF1F0CF6FF1F0CF6FF1F14F6FF1F31
:1027280014F6FF1F1CF6FF1F1CF6FF1F24F6FF1FE1
:1027380024F6FF1F2CF6FF1F2CF6FF1F34F6FF1F91
:1027480034F6FF1F3CF6FF1F3CF6FF1F44F6FF1F41
:1027580044F6FF1F4CF6FF1F4CF6FF1F54F6FF1FF1
:1027680054F6FF1F5CF6FF1F5CF6FF1F64F6FF1FA1
:1027780064F6FF1F6CF6FF1F6CF6FF1F74F6FF1F51
:1027880074F6FF1F7CF6FF1F7CF6FF1F84F6FF1F01
:1027980084F6FF1F8CF6FF1F8CF6FF1F94F6FF1FB1
:1027A80094F6FF1F9CF6FF1F9CF6FF1FA4F6FF1F61
:1027B800A4F6FF1FACF6FF1FACF6FF1FB4F6FF1F11
:1027C800B4F6FF1FBCF6FF1FBCF6FF1FC4F6FF1FC1
:1027D800C4F6FF1FCCF6FF1FCCF6FF1FD4F6FF1F71
:1027E800D4F6FF1FDCF6FF1FDCF6FF1FE4F6FF1F21
:1027F800E4F6FF1FECF6FF1FECF6FF1FF4F6FF1FD1
:10280800F4F6FF1FFCF6FF1FFCF6FF1F04F7FF1F7F
:1028180004F7FF1F0CF7FF1F0CF7FF1F14F7FF1F2C
:1028280014F7FF1F1CF7FF1F1CF7FF1F24F7FF1FDC
:1028380024F7FF1F2CF7FF1F2CF7FF1F34F7FF1F8C
:1028480034F7FF1F3CF7FF1F3CF7FF1F44F7FF1F3C
:1028580044F7FF1F4CF7FF1F4CF7FF1F54F7FF1FEC
:1028680054F7FF1F5CF7FF1F5CF7FF1F64F7FF1F9C
:1028780064F7FF1F6CF7FF1F6CF7FF1F74F7FF1F4C
:1028880074F7FF1F7CF7FF1F7CF7FF1F84F7FF1FFC
:1028980084F7FF1F8CF7FF1F8CF7FF1F94F7FF1FAC
:1028A80094F7FF1F9CF7FF1F9CF7FF1FA4F7FF1F5C
:1028B800A4F7FF1FACF7FF1FACF7FF1FB4F7FF1F0C
:1028C800B4F7FF1FBCF7FF1FBCF7FF1FC4F7FF1FBC
:1028D800C4F7FF1FCCF7FF1FCCF7FF1FD4F7FF1F6C
:1028E800D4F7FF1FDCF7FF1FDCF7FF1FE4F7FF1F1C
:1028F800E4F7FF1FECF7FF1FECF7FF1FF4F7FF1FCC
:10290800F4F7FF1FFCF7FF1FFCF7FF1F04F8FF1F7A
:1029180004F8FF1F0CF8FF1F0CF8FF1F14F8FF1F27
:1029280014F8FF1F1CF8FF1F1CF8FF1F24F8FF1FD7
:1029380024F8FF1F2CF8FF1F2CF8FF1F34F8FF1F87
:1029480034F8FF1F3CF8FF1F3CF8FF1F44F8FF1F37
:1029580044F8FF1F4CF8FF1F4CF8FF1F54F8FF1FE7
:1029680054F8FF1F5CF8FF1F5CF8FF1F64F8FF1F97
:1029780064F8FF1F6CF8FF1F6CF8FF1F74F8FF1F47
:1029880074F8FF1F7CF8FF1F7CF8FF1F84F8FF1FF7
:1029980084F8FF1F8CF8FF1F8CF8FF1F94F8FF1FA7
:1029A80094F8FF1F9CF8FF1F9CF8FF1FA4F8FF1F57
:1029B800A4F8FF1FACF8FF1FACF8FF1FB4F8FF1F07
:1029C800B4F8FF1FBCF8FF1FBCF8FF1FC4F8FF1FB7
:1029D800C4F8FF1FCCF8FF1FCCF8FF1FD4F8FF1F67
:1029E800D4F8FF1FDCF8FF1FDCF8FF1FE4F8FF1F17
:1029F800E4F8FF1FECF8FF1FECF8FF1FF4F8FF1FC7
:102A0800F4F8FF1F00000200FFFFFFFF00000000B6
:102A18000821000000F0FF1F10090000000000005E
:082A28000000000000000000A6
:04000003000004E90C
:00000001FF
