:1000000080FAFF1FE904000029050000290500000F
:1000100000000000000000000000000000000000E0
:1000200000000000000000000000000029050000A2
:100030000000000000000000290500004D0700003E
:1000400029050000290500002905000029050000F8
:1000500029050000290500002905000029050000E8
:10006000E10B0000F50B0000E10C0000F50C0000B6
:10007000D50D0000E90D0000FD0D0000910B000002
:10008000690B0000A50B0000B90B0000CD0B0000B0
:10009000C10C00007D0B0000650C0000890C000005
:1000A000090C0000290C00002905000029050000AA
:1000B000110E0000AD0C000029050000290500000C
:10040000FFFFFFFFFFFFFFFFFFFFFFFFFFFFFEFFFD
:1004100010B5064C2378002B07D1054B002B02D0DA
:10042000044800E000BF0123237010BDC8F1FF1F86
:1004300000000000AC16000008B5084B002B03D0EC
:100440000748084900E000BF07480368002B00D1B7
:1004500008BD064B002BFBD09847F9E700000000D1
:10046000AC160000CCF1FF1FC4F1FF1F000000001C
:10047000164B002B00D1144B9D46402292029A1A33
:10048000924600218B460F461348144A121A00F078
:10049000D3FF0F4B002B00D098470E4B002B00D002
:1004A00098470020002104000D000D48002802D0CC
:1004B0000C4800E000BF00F085FF2000290000F09C
:1004C0000FFF00F069FFC0460000080080FAFF1F20
:1004D0000000000000000000C8F1FF1F64F2FF1FD1
:1004E000000000000000000072B6094809490A4AED
:1004F00002600A6000F0FAF862B60849084A094B3F
:100500009B1A03DD043BC858D050FBDCFFF7B0FF5B
:1005100080E100E080E200E0FFFFFFFFE416000062
:1005200000F0FF1FC8F1FF1FFEE7C046002243088E
:100530008B4274D303098B425FD3030A8B4244D3AB
:10054000030B8B4228D3030C8B420DD3FF220902ED
:1005500012BA030C8B4202D31212090265D0030BAC
:100560008B4219D300E0090AC30B8B4201D3CB03A2
:10057000C01A5241830B8B4201D38B03C01A5241E4
:10058000430B8B4201D34B03C01A5241030B8B42E6
:1005900001D30B03C01A5241C30A8B4201D3CB02D1
:1005A000C01A5241830A8B4201D38B02C01A5241B6
:1005B000430A8B4201D34B02C01A5241030A8B42B9
:1005C00001D30B02C01A5241CDD2C3098B4201D3D1
:1005D000CB01C01A524183098B4201D38B01C01A4F
:1005E000524143098B4201D34B01C01A52410309C6
:1005F0008B4201D30B01C01A5241C3088B4201D375
:10060000CB00C01A524183088B4201D38B00C01A21
:10061000524143088B4201D34B00C01A5241411A48
:1006200000D20146524110467047FFE701B5002055
:1006300000F00CF802BDC0460029F7D003B5FFF763
:1006400075FF0EBC4243891A1847C0467047C04622
:1006500002780B78002A03D0013001319A42F7D09A
:10066000D01A70477047C04608B5164B1978022259
:100670000A431A7090229A70124B1B795B06FBD5C5
:10068000104B597820220A435A70197940220A43A4
:100690001A710D4B1868FA218900FFF747FF0138DE
:1006A0000A4B98420DD80A4A50600A490B6A1B024D
:1006B0001B0AC020000603430B620023936007332C
:1006C000136008BD0040064000F0FF1FFFFFFF0061
:1006D00010E000E000ED00E010B5041C024B1868CB
:1006E000FFF7C2FF201C10BD00F0FF1F10B5124B1A
:1006F000124A9A8001225A7022321A70104A517896
:1007000020231943C9B2517000200E4948620621C6
:1007100011705478093121400B43DBB253700A4BFE
:100720001870074B1B79DB06FBD5054B1A790C2398
:100730001A42FAD110BDC0460020054003E8FFFF71
:1007400000400640008004400050064030B5054996
:100750000C684D680122002312196B410A604B603E
:1007600030BDC046E8F1FF1FF0B585B0002835D098
:1007700043681C6901AA1B48131CE0C8E0C3E36876
:10078000580980008258A07C00280BD050691F2493
:10079000251C1D40A8431940231C0B4003435361F3
:1007A00000201CE0207C002802D0012041400140B4
:1007B000002909D054681F210B4001209840031CD8
:1007C0002343536000200AE094681F210B4001205E
:1007D0009840031C23439360002000E0FE2040B2B9
:1007E00005B0F0BD0C16000070B584B0002825D00F
:1007F0004368186901AA144B111C70CB70C1C368FF
:10080000590989008958827C002A04D0086903406C
:100810001F20184016E0027C002A08D009691F201A
:10082000034001229A400A420BD000200AE00869E6
:100830001F2213401E3A9A40104003E0012040421C
:1008400000E0012004B070BD0C16000010B50028B7
:1008500005D00C1CFFF7C8FF2060002000E0FE2040
:1008600040B210BDF0B585B0002800D187E04368E4
:100870001C69A37C002B00D083E001AB9C46444A5A
:100880001D1CC8CAC8C5E2685509AD006346ED58CD
:100890001F231A401E3B93400361022926D1E268C0
:1008A0005309012B0ED0002B02D0022B14D040E0B4
:1008B000384886681F231A401E3B93401A1C324357
:1008C000826036E03348C6681F231A401E3B9340BF
:1008D0001A1C3243C2602CE02E4806691F231A40BE
:1008E0001E3B93401A1C3243026122E0E268530926
:1008F000012B0DD0002B02D0022B12D019E0254E77
:10090000B3681F2002401E3890408343B36010E05C
:10091000204EF3681F2002401E3890408343F3604E
:1009200007E01C4E33691F2002401E38904083436D
:100930003361002912D0012925D1A8691E31E3684D
:100940000B400122161C9E40B043A8616B69E06811
:1009500001408A4093436B61002015E06E691F20BF
:10096000E268024001210B1C934033436B61AB6989
:10097000E268104081408B43AB61002004E0FE2020
:1009800002E0FB2000E0FB2040B205B0F0BDC04615
:100990000C16000000900440F0B585B0041C0D1C3E
:1009A0000021342200F048FD2B78012B1AD165601C
:1009B0002D69AB7C002B07D1697C201CFFF752FF0F
:1009C000201C6969FFF7D0FE1F23EA6813402373D8
:1009D00001AB064A191CC1CAC1C1EA68520992009A
:1009E000D358A360201C05B0F0BDC0460C16000013
:1009F000F0B589B0041C0D1C0021182200F01CFD6C
:100A00002B78022B00D0A1E06F1C381C5149052225
:100A100000F0D8FD061E09D0381C4F49072200F00F
:100A2000D1FD002802D0F52323708FE0002E10D1D5
:100A3000AE79303EF6B2072E02D9F523237085E059
:100A4000201C0021182200F0F7FC6674022E03D847
:100A500005E0FA23237079E0FC23237076E06560DB
:100A60002D6902AB9C463D4A191C89CA89C1B20056
:100A70006346D358E360012E0BD0002E02D0022E25
:100A80000ED063E0364A5369802149030B4353611A
:100A90000CE0334A5369802189030B43536105E01D
:100AA0002F4A53698021C9030B4353612D4B1B68A7
:100AB000019306936B690793AB7E002B11D005A9B8
:100AC0000878022202430A70022B05D10A1C0B7817
:100AD00001218B43137004E005AA117801230B4315
:100AE00013702B7E002B05D105AA137810218B43A0
:100AF000137004E005AA117810230B4313706B7E6A
:100B0000002B03D1002205ABDA7002E0012205AB15
:100B1000DA70637C9B0002AA985805A900F0F4F8EB
:100B2000EB68002B07D0637C9B0002AA9A58D1780F
:100B300008230B43D3702B69002B07D0637C9B00E9
:100B400002AA9A58D17804230B43D370201C09B011
:100B5000F0BDC046241600002C1600001816000038
:100B60000080044000F0FF1F08B5034B1B68002BFA
:100B700000D0984708BDC046F0F1FF1F08B5034BF1
:100B80005B68002B00D0984708BDC046F0F1FF1FFE
:100B900008B5034B1B68002B00D0984708BDC04622
:100BA000F8F1FF1F08B5034B1B68002B00D09847D6
:100BB00008BDC046FCF1FF1F08B5034B5B68002B66
:100BC00000D0984708BDC046FCF1FF1F08B5034B95
:100BD0009B68002B00D0984708BDC046FCF1FF1F62
:100BE00008B5034B1B68002B00D0984708BDC046D2
:100BF00008F2FF1F08B5034B5B68002B00D0984735
:100C000008BDC04608F2FF1F08B5054A91680423D5
:100C10000B439360034B1B68002B00D0984708BD23
:100C20000090074010F2FF1F08B5054A91680423A1
:100C30000B439360034B5B68002B00D0984708BDC3
:100C400000A0074010F2FF1F1F2318401E3B8340E7
:100C5000181C034BC0225200985018607047C046C1
:100C600000E100E008B506498622520088580123B9
:100C700003438B50034B1B68002B00D0984708BDE3
:100C80000070034018F2FF1F08B506498E2252007B
:100C90008858012303438B50034B5B68002B00D023
:100CA000984708BD0070034018F2FF1F08B5034BBA
:100CB0001B68002B00D0984708BDC04620F2FF1FDC
:100CC00008B5054A116880230B431360034B1B686A
:100CD000002B00D0984708BD00D0034024F2FF1F2E
:100CE00008B5034B1B68002B00D0984708BDC046D1
:100CF00028F2FF1F08B5034B5B68002B00D0984714
:100D000008BDC04628F2FF1F70B5041C0D1C4868C2
:100D100089682C4B9C4205D12B4A53698026760367
:100D200033435361294B9C4205D1274A536980269E
:100D3000B60333435361264B9C4205D1224A536983
:100D40008026F60333435361E3780C229343E37028
:100D50002B78A37000094B08C018FFF7E7FB237836
:100D60001F2293431A1CC304DB0E13432370C0B22B
:100D70006070EB78012B04D122781F33134323706A
:100D800003E02378202293432370AB78A3716B7820
:100D9000E3702A68FF231B031A4211D0094B9C42BF
:100DA00002D10C20FFF750FF084B9C4202D10D20CE
:100DB000FFF74AFF064B9C4202D10E20FFF744FF8B
:100DC00070BDC04600A006400080044000B0064050
:100DD00000C0064008B5024B1B680248984708BD92
:100DE00030F2FF1F00A0064008B5024B1B68024806
:100DF000984708BD30F2FF1F00B0064008B5024B0F
:100E00001B680248984708BD30F2FF1F00C006402B
:100E100008B5054A517840230B435370034B1B68B8
:100E2000002B00D0984708BD0020054034F2FF1F7A
:100E300008B500F0EDFA08BD08B500F0F3FA08BDFA
:100E400010B5041C0068002801D000F0EBFA201C4B
:100E50000021102200F0F0FA201C10BD10B5041C77
:100E60000023037043708370C370037143718371F7
:100E7000C3710120042100F083FA2060201C10BD02
:100E800038B5041C0368002B11D118E00D4A9446B4
:100E900063449B0022689D58002D05D0281CFFF755
:100EA000CFFF281CFFF7C8FF6368013B63606368DE
:100EB000002BEBD1206800F0B5FA00232360201C42
:100EC00038BDC046FFFFFF3F38B5041C0D1C01288C
:100ED00005D1074B994202D10648FFF7BFFF002C0E
:100EE00005D1034B9D4202D10248FFF7C9FF38BD2F
:100EF000FFFF000038F2FF1F08B501200149FFF78E
:100F0000E3FF08BDFFFF000008B500200149FFF71F
:100F1000DBFF08BDFFFF0000F8B5051C0F1C002615
:100F2000B3000D4A9C58002C02D02369002B03D13A
:100F300000233B60F5200DE02378012B05D1601CD8
:100F4000291CFFF785FB002801D00136E8E763691B
:100F50003B60002040B2F8BD34F0FF1FF8B5051C1F
:100F60000F1C0026B3000D4A9C58002C02D02369A8
:100F7000002B03D100233B60F5200DE02378032BE9
:100F800005D1601C291CFFF763FB002801D0013646
:100F9000E8E763693B60002040B2F8BD34F0FF1F12
:100FA000F8B5051C0F1C0026B3000D4A9C58002CF8
:100FB00002D02369002B03D100233B60F5200DE014
:100FC0002378042B05D1601C291CFFF741FB002866
:100FD00001D00136E8E763693B60002040B2F8BD0C
:100FE00034F0FF1FF8B5051C0F1C0026B3000D4A96
:100FF0009C58002C02D02369002B03D100233B60B6
:10100000F5200DE02378022B05D1601C291CFFF789
:101010001FFB002801D00136E8E763693B60002030
:1010200040B2F8BD34F0FF1FF8B5051C00211022B6
:1010300000F002FA00261FE0B300124A9C58236910
:10104000002B1CD02378012B02D0022B0AD012E0F7
:101050003420FFF7EDFE071E02D0211CFFF79CFC99
:10106000676108E01820FFF7E3FE071E02D0211C8D
:10107000FFF7BEFC67610136034B9E42DCD9281C9A
:10108000F8BDC04634F0FF1FFF03000038B5041C54
:101090000D1C012808D1094B994205D10848FFF7DA
:1010A0001BFB0848FFF7C0FF002C05D1034B9D42F6
:1010B00002D10348FFF7D6FA38BDC046FFFF000053
:1010C00050F2FF1F40F2FF1F7047C04608B50120D5
:1010D0000149FFF7DBFF08BDFFFF000008B5002056
:1010E0000149FFF7D3FF08BDFFFF000030B585B011
:1010F000041C0D1C0023037043708370C3700371C4
:1011000043718371C371037243728372C372081C8B
:101110006946FFF701FF002804D1009B63600123AB
:10112000637023E0281C01A9FFF718FF002804D1F1
:10113000019B63600323637018E0281C02A9FFF77A
:101140002FFF002804D1029B6360042363700DE02D
:10115000281C03A9FFF746FF002804D1039B636006
:101160000223637002E0002363706360201C05B0FB
:1011700030BDC046002343704360704708B54268E5
:10118000002A08D04378002B07D0012B07D1101C70
:10119000FFF7EAFA04E0EF2002E0EF2000E0F82099
:1011A00040B208BD10B584B0031C0C1C01A8191C6A
:1011B000FFF79CFF01A8211CFFF7E0FF041C01A81A
:1011C000FFF7D8FF201C04B010BDC04610B582B098
:1011D0004268002A12D04378002B11D0012B11D184
:1011E0000C1C101C01A9FFF731FB019B002B02D046
:1011F0000123237007E00023237004E0EF2002E0C6
:10120000EF2000E0F82040B202B010BD10B584B06D
:10121000031C0C1C01A8191CFFF768FF01A8211C66
:10122000FFF7D4FF041C01A8FFF7A4FF201C04B0A3
:1012300010BDC04630B500290CD0094B1A685B6858
:101240000468456812196B41111C5B005B088160E2
:10125000C36004E080231B06C2681343C36030BD33
:10126000E8F1FF1F70B5041C161C1D1C0021102284
:1012700000F0E2F86D006D0826606560201C012119
:10128000FFF7D8FF201C70BD08B55B005B0802604B
:1012900043600121FFF7CEFF08BDC046F8B5846862
:1012A000C168002916DB221C49004B080B490E6857
:1012B0004F68341C79004D08121BAB410124644275
:1012C000E51712196B41002B06DA0121FFF7B2FF77
:1012D000012002E0002000E00020F8BDE8F1FF1F3F
:1012E00008B500F003F8002008BDC04630B58DB049
:1012F00004A814220023FFF7B5FF08A864220023E6
:10130000FFF7B0FF01A81B49FFF7F0FE00251A48C0
:10131000FFF7DAFE04A8FFF7C1FF08A8FFF7BEFF3A
:101320000028F4D06B46DC1C1448211CFFF76EFF2C
:101330002378002B14D0002D07D008A8C3229200D8
:101340000023FFF7A1FF002505E008A8B422002331
:10135000FFF79AFF012509480021FFF723FFD6E791
:1013600008A814220023FFF78FFF04480121FFF78C
:1013700019FFCCE73416000040F2FF1F3C160000B6
:1013800008B5031C0A1C03490868191C00F05CF826
:1013900008BDC046C0F1FF1F084B10B5041C002B50
:1013A00002D0002100E000BF054B1868836A002BC3
:1013B00000D09847201C00F027F9C046000000002C
:1013C000A81600000E4B70B500251E1C0D4CE41A2B
:1013D000A410A54204D0AB00F35898470135F8E7B4
:1013E00000F064F9084B00251E1C084CE41AA410F8
:1013F000A54204D0AB00F35898470135F8E770BD1B
:10140000CC160000CC160000CC160000D816000048
:1014100008B5034B011C186800F06AF808BDC04607
:10142000C0F1FF1F08B5034B011C186800F01AF843
:1014300008BDC046C0F1FF1F031C8218934202D0B2
:1014400019700133FAE770474A4338B5111C141C70
:1014500000F04EF8051E03D00021221CFFF7ECFF20
:10146000281C38BD30B500293ED004390B68002B4C
:1014700000DAC9181D4A1368141C002B02D14B60F6
:10148000116031E099420DD208680A189A4203D1DE
:101490001368C3180B6053684B60216024E08A42D4
:1014A00003D8131C5A68002AF9D11D685C198C42B4
:1014B0000BD10968691858181960904214D1106846
:1014C0005268091819605A600EE08C4202D90C2348
:1014D000036009E008680C18944203D1146852684C
:1014E000001908604A60596030BDC04658F2FF1FBD
:1014F000032370B5CC1C9C430834051C0C2C01D272
:101500000C2405E0002C03DA0C2300202B6042E0C1
:101510008C42F9D3204A1368101C191C002913D0DF
:101520000A68121B0DD40B2A02D90A608B181FE01F
:101530008B4202D15A6802601BE04A685A600B1C59
:1015400017E00B1C4968E9E7144E3368002B03D100
:10155000281C00F025F83060281C211C00F020F821
:10156000031C421CD0D00322C61C964386420AD1DB
:101570001C60181C07210B301A1D8843821A0AD0E0
:101580005142995007E0311A281C00F009F8431C19
:10159000BAD0331CECE770BD58F2FF1F54F2FF1FA6
:1015A00038B50023064C051C081C236000F01EF80B
:1015B000431C03D12368002B00D02B6038BDC046EC
:1015C00060F2FF1F002330B59A420DD0013AC45C8F
:1015D000CD5CAC4202D1934202D1251C631B03E0D7
:1015E0000133002CF3D1F8E7181C30BD044A13680E
:1015F000002B03D018181060181C7047014BF9E736
:101600005CF2FF1F80F2FF1FFEE7C04600F00F40B4
:1016100040F00F4080F00F4000A0064000B00640B0
:1016200000C00640756172742D000000757362631E
:1016300064632D00756172742D3200006C65642D39
:10164000300000000000000000000000000000006A
:10165000000000000000000000000000000000008A
:10166000000000000000000000000000000000007A
:10167000000000000000000000000000000000006A
:10168000000000000000000000000000000000005A
:10169000000000000000000000000000000000004A
:1016A000000000004300000060F1FF1FF8B5C046D5
:1016B000F8BC08BC9E467047F8B5C046F8BC08BCEC
:0416C0009E4670478B
:0816C400ACEDFF7F0100000006
:0C16CC0039040000F90E0000CD100000F1
:0C16D80011040000090F0000DD100000EC
:1016E40000004001016C65642D3200000000000020
:1016F4000000000084F0FF1F000000006862746EA8
:101704002D31000000000000250000000101000050
:1017140000000000B4F0FF1F6CF0FF1F04F0FF1F77
:1017240018F1FF1F30F1FF1FCCF0FF1F48F1FF1F1E
:10173400FFFFFFFF6C65642D310000000000000016
:10174400390000000100000000000000016C656425
:101754002D310000000000000000000054F0FF1FC5
:10176400000000006C65642D3200000000000000E1
:101774002700000001010000000000006C65642DDA
:1017840030000000000000003800000001000000EC
:1017940000000000016C65642D30000000000000B2
:1017A400000000009CF0FF1F000000000275617241
:1017B400742D32000000000000000000FCF0FF1F48
:1017C400000000006862746E2D300000000000000C
:1017D4002400000001010000000000007561727423
:1017E4002D320000000000006700000066000000C9
:1017F40000C2010000000000016862746E2D300018
:101804000000000000000000E4F0FF1F00000000E2
:10181400016862746E2D31000000000000000000B9
:101824001CF0FF1F0000000000696F5461626C65CA
:10183400456E64000000000000000000000000008D
:101844000000000044160000641600008416000026
:101854000000000000000000000000000000000084
:10186400A4160000000000000000000000000000BA
:101874000000000000000000000000000000000064
:101884000000000000000000000000000000000054
:101894000000000000000000000000000000000044
:0818A40060F1FF1F00000000CD
:1018AC00E416000000F0FF1FC8010000000000005B
:0818BC00000000000000000024
:04000003000004E90C
:00000001FF
