:10000000E0FAFF1FE90400002905000029050000AF
:1000100000000000000000000000000000000000E0
:1000200000000000000000000000000029050000A2
:100030000000000000000000290500002905000064
:1000400029050000290500002905000029050000F8
:1000500029050000290500002905000029050000E8
:10006000810B0000950B0000210E0000350E0000F2
:100070002D0F0000410F0000550F00001D0A000069
:10008000F5090000310A0000450A0000590A000085
:10009000610C0000090A0000050C0000290C00009A
:1000A000A90B0000C90B000029050000290500006C
:1000B000690F00004D0C0000290500002905000013
:10040000FFFFFFFFFFFFFFFFFFFFFFFFFFFFFEFFFD
:1004100010B5064C2378002B07D1054B002B02D0DA
:10042000044800E000BF0123237010BD28F2FF1F25
:10043000000000000021000008B5084B002B03D08D
:100440000748084900E000BF07480368002B03D0B5
:10045000064B002B00D0984708BDC04600000000A6
:10046000002100002CF2FF1F24F2FF1F00000000FB
:10047000164B002B00D1144B9D46402292029A1A33
:10048000924600218B460F461348144A121A00F078
:10049000FDFE0F4B002B00D098470E4B002B00D0D9
:1004A00098470020002104000D000D48002802D0CC
:1004B0000C4800E000BF00F0A5FE2000290000F07D
:1004C00061FE00F089FEC04600000800E0FAFF1F50
:1004D000000000000000000028F2FF1FC4F2FF1F10
:1004E000000000000000000072B6094809490A4AED
:1004F00002600A6000F098F862B60849084A094BA1
:100500009B1A03DD043BC858D050FBDCFFF7B0FF5B
:1005100080E100E080E200E0FFFFFFFF302100000B
:1005200000F0FF1F28F2FF1FFEE7C046002934D06D
:100530000123002210B488422CD301242407A142B5
:1005400004D2814202D209011B01F8E7E400A14272
:1005500004D2814202D249005B00F8E7884201D30D
:10056000401A1A434C08A04202D3001B5C082243E5
:100570008C08A04202D3001B9C082243CC08A04256
:1005800002D3001BDC082243002803D01B0901D042
:100590000909E3E7101C10BC7047002801D00020B7
:1005A000C04307B4024802A14018029003BDC046F0
:1005B000190000000029F0D003B5FFF7B9FF0EBC09
:1005C0004243891A1847C0467047C04602780B78E4
:1005D00001300131002A01D09A42F7D0D01A704779
:1005E0007047C0460A4B197802220A431A709022BB
:1005F0009A70191C40220B791342FCD0044B597895
:1006000020220A435A70197940220A431A7170470E
:100610000040064010B5041C024B1868FFF7E2FFCB
:10062000201C10BD00F0FF1F10B5124B124A9A801B
:1006300001225A7023221A70104B5A7820210A4343
:10064000D2B25A7000220E484262062018705C78BE
:100650000F2020400143C9B259700A4B1A70074954
:1006600010220B791342FCD004490C220B7913425F
:10067000FCD110BD0020054003E8FFFF004006400C
:10068000008004400050064038B5041C0D1C0021B9
:10069000382200F0FBFD201D291C142200F0EDFD86
:1006A000201C38BDF0B589B0071C0D1C0024294E54
:1006B000E3001B1B9B009819291CFFF787FF0028EC
:1006C00001D00134F4E7281C2349042200F02BFF59
:1006D000002803D0F5224423FA5437E00023019385
:1006E000281D1E4901AA00F0E1FE012803D0F522D1
:1006F0004423FA542AE0019D012D03D9F522442315
:10070000FA5423E0381C0021482200F0BFFD381CB9
:100710002430E100091B89000E4BC9181C2200F08F
:10072000ACFD02AB0E4A191C11CA11C1AA00D05867
:1007300038643D7004A9002304934B608B60CB6048
:10074000BC238B8005230B7000F0A2F9381C09B084
:10075000F0BDC046A0F0FF1F541F00005C1F00004A
:10076000281F0000F0B5474680B488B0071C0D1C58
:100770000021442200F08AFD00244E4EE3001B19A4
:100780009B009819291CFFF721FF002801D0013494
:10079000F4E7281C4849042200F0C5FE002802D0D6
:1007A000F5233B7080E001235B4200930193281CFA
:1007B0002D2100F0A5FE061C281C2E2100F0A0FE15
:1007C000051C002E01D0002802D1F5233B706BE000
:1007D000701C3A4E311C6A4600F068FE8046681C68
:1007E000311C01AA00F062FE4044022805D1009DA0
:1007F000012D02D8019E032E02D9F5233B7053E050
:10080000381C0021442200F041FD2923FD542A23F5
:10081000FE54381DE10009198900264BC91824220D
:1008200000F02BFD264B1B685B0802A98B60386A21
:1008300048602423FB5C5810012401221040400131
:100840000D782026B54313401B012A1C02431020BB
:1008500082431A4302231A43D2B208231A43BF2306
:1008600013400B70174800F039FA05AB164A191CF3
:1008700061CA61C1F9694A099200D35858691F22B7
:100880001140251C8D40291C014359619869F96963
:100890001140261C8E40311C014399619968F8690A
:1008A000024094400C439C60381C08B004BC904645
:1008B000F0BDC04658F0FF1F601F00005C1F000025
:1008C00000F0FF1F00600740301F0000F0B587B048
:1008D000071C0D1C00212C2200F0D8FC0024404EE7
:1008E000E3001B1B9B009819291CFFF76FFE0028D3
:1008F00001D00134F4E7281C3A49052200F013FE28
:10090000061E09D0281C3849072200F00CFE0028DA
:1009100002D0F5233B705FE0002E1AD16D79303D97
:10092000EDB2072D02D9F5233B7055E0381C0021AC
:100930002C2200F0ABFC381DE3001C1BA40028494E
:1009400061181C2200F099FC2123FD54022D03D8CC
:1009500005E0FA233B703FE0FC233B703CE06B4634
:10096000224A694651CA51C1AD00E858B862204BCD
:100970001B680493BB690593BB7F002B11D00A1C35
:100980000C78022121431170022B05D1131CCAB22D
:1009900001218A431A7004E003AB197801220A434B
:1009A0001A703B7F002B05D103AB1A7810218A43C4
:1009B0001A7004E003AB197810220A431A707B7F87
:1009C000002B03D1002203ABDA7002E0012203AB5B
:1009D000DA7003A900F038FA381C07B0F0BDC04641
:1009E00004F0FF1F681F0000701F00003C1F000084
:1009F00000F0FF1F08B5034B1B68002B00D0984781
:100A000008BDC04644F2FF1F08B5034B5B68002BCE
:100A100000D0984708BDC04644F2FF1F08B5034BFD
:100A20001B68002B00D0984708BDC0464CF2FF1F42
:100A300008B5034B1B68002B00D0984708BDC04683
:100A400050F2FF1F08B5034B5B68002B00D098479E
:100A500008BDC04650F2FF1F08B5034B9B68002B32
:100A600000D0984708BDC04650F2FF1FCBB20370BC
:100A7000437907229343437143798905890F1943C9
:100A800041717047CBB2C372090A81727047C04688
:100A900038B5051C0C1C374B984206D1364B5969AA
:100AA000802252020A435A6105E0334B5969802281
:100AB00092020A435A6123796B70E188281CFFF780
:100AC000D5FF237BAB716289FE231340EB71E18973
:100AD000281CFFF7D7FF2378D90601D4002300E0B4
:100AE00080232278910601D54022134322785106B3
:100AF00001D5082213436A7913436B712378DB090C
:100B000000D080236278D10701D540221343627858
:100B1000910701D5202213436278110701D50122E4
:100B200013432B7223789A070FD5124B9D4204D1A1
:100B3000082000F059F840230AE0104B9D4206D1EE
:100B4000092000F051F8402302E0002300E0402398
:100B50002278110701D5022213432278510701D5CB
:100B6000202213432278D10701D580221343AB7092
:100B700038BDC0460060064000800440007006405A
:100B800008B5034B1B68002B00D0984708BDC04632
:100B90005CF2FF1F08B5034B5B68002B00D0984741
:100BA00008BDC0465CF2FF1F08B5054B99680422DA
:100BB0000A439A60034B1B68002B00D0984708BD7E
:100BC0000090074064F2FF1F08B5054B99680422A6
:100BD0000A439A60034B5B68002B00D0984708BD1E
:100BE00000A0074064F2FF1F1F2318400123834029
:100BF000181C034BC0225200985018607047C04622
:100C000000E100E008B5064A86235B00D0580121C8
:100C10000143D150034B1B68002B00D0984708BDFF
:100C2000007003406CF2FF1F08B5064A8E235B007C
:100C3000D05801210143D150034B5B68002B00D0F9
:100C4000984708BD007003406CF2FF1F08B5034BC6
:100C50001B68002B00D0984708BDC04674F2FF1FE8
:100C600008B5054B196880220A431A60034B1B68BC
:100C7000002B00D0984708BD00D0034078F2FF1F3A
:100C8000F8B5051C081C111CFFF750FC00260021BC
:100C9000002701239C4611E0631C9A4209D9DCB26B
:100CA00004E03C1C4A1C031CD3401A1C072CF3D93B
:100CB00000E06646002E03D10131C9B20829F0D9FF
:100CC000072C00D90724082900D908212401702302
:100CD0001C400F2319402143A970F8BD38B5041CEE
:100CE0000D1C4D4B984206D14C4B59698022D202C3
:100CF0000A435A6105E0494B5969802212030A43AD
:100D00005A612B78DA070DD522788023134323709C
:100D1000414B9C4203D10A20FFF766FF02E00B2003
:100D2000FFF762FF2B785A070DD522782023134353
:100D30002370394B9C4203D10A20FFF755FF02E094
:100D40000B20FFF751FF2B781A0704D522781023C8
:100D50001343237003E023781022934323702B78EE
:100D6000DA0604D5227808231343237003E023789E
:100D70000822934323702B789A0604D52278042303
:100D80001343237003E023780422934323702B78CA
:100D9000DB0903D022780123134323706B78DA0731
:100DA00003D562788023134363706B789A0703D569
:100DB00062781023134363702B785A0607D5227884
:100DC00002231343237062781023134363706B78FC
:100DD0001A0703D562780123134363706B785A07AF
:100DE00003D562780823134363706B78DA0603D562
:100DF00062780223134363702B781A0704D5201CF2
:100E0000A9686A68FFF73CFF2B789A0703D5227818
:100E100040231343237038BD006007400080044026
:100E200008B5034B1B68002B00D0984708BDC0468F
:100E30007CF2FF1F08B5034B5B68002B00D098477E
:100E400008BDC0467CF2FF1F70B5041C0D1C48682D
:100E50008968324B9C4205D1314B5E698022520336
:100E600032435A612F4B9C4205D12D4B5E69802243
:100E7000920332435A612C4B9C4205D1284B5E6948
:100E80008022D20332435A61E3780C229343E37009
:100E90002B78A37000094B08C018FFF747FB237895
:100EA0001F229343C204D20E13432370C0B260705A
:100EB000EB78012B04D1227820231343237003E025
:100EC0002378202293432370AB78A3716B78E3706F
:100ED0006B78DA060FD49A060DD45A060BD4DB09C8
:100EE000012B08D0AB789A0705D45A0703D41A0708
:100EF00001D4DA0711D5094B9C4202D10C20FFF72F
:100F000073FE084B9C4202D10D20FFF76DFE064B8D
:100F10009C4202D10E20FFF767FE70BD00A0064084
:100F20000080044000B0064000C0064008B5024BF7
:100F30001B680248984708BD84F2FF1F00A00640C6
:100F400008B5024B1B680248984708BD84F2FF1F92
:100F500000B0064008B5024B1B680248984708BD20
:100F600084F2FF1F00C0064008B5054B59784022A7
:100F70000A435A70034B1B68002B00D0984708BDEA
:100F80000020054088F2FF1FF8B557464E46C0B412
:100F9000051C0021202200F079F900245D4A5E49F9
:100FA00006E0A3001B199B005B5C002B02D0013400
:100FB0009442F6D9611C8900012000F001F9E86033
:100FC0000026554F16E0B3009B199B00DB5D002BFC
:100FD0000FD0382000F0D8F88246B1008946891930
:100FE00089004D4A8918FFF74FFB5246EB68494686
:100FF0005A500136A642E6D30024464A474906E045
:10100000E3001B1B9B005B5C002B02D0013494426D
:10101000F6D9611C8900012000F0D2F8A8610026F1
:101020003E4F15E0F3009B1B9B00DB5D002B0ED0B9
:101030002C2000F0A9F88146F100891B8900374B6C
:10104000C918FFF743FCB3004A46A969CA500136E4
:10105000A642E7D300242F4A314906E0E3001B1BD8
:101060009B005B5C002B02D001349442F6D9611CDA
:101070008900012000F0A4F828610026284F15E01F
:10108000F3009B1B9B00DB5D002B0ED0482000F083
:101090007BF88146F100891B8900214BC918FFF7B5
:1010A00001FBB3004A462969CA500136A642E7D37C
:1010B0000021184A1B4806E0CB005B189B001B5C14
:1010C000002B02D001319142F6D901318900012073
:1010D00000F076F868610024124E14E0E3001B195A
:1010E0009B009B5D002B0DD0442000F04DF8071CA9
:1010F000E100091989000B4BC918FFF733FBA30066
:101100006969CF500134012CE8D9281C0CBC9146E8
:101110009A46F8BDFF010000F4F0FF1F04F0FF1F26
:10112000A0F0FF1F58F0FF1F38B5041C0D1C01284C
:1011300008D1094B994205D10848FFF76BFA0848D6
:10114000FFF722FF002C05D1034B9D4202D103483B
:10115000FFF746FA38BDC046FFFF0000ACF2FF1FA4
:101160008CF2FF1F08B501200149FFF7DDFF08BD24
:10117000FFFF000008B500200149FFF7D5FF08BDBB
:10118000FFFF00000020704710B5041E02D10124AB
:1011900000E09847201C00F05BF8002805D1034BC5
:1011A0001B68002BF5D100F003F810BDB0F2FF1F53
:1011B00008B5062000F05AF9012000F0B3FE000047
:1011C00008B50A1C0349031C0868191C00F066F8DE
:1011D00008BDC0461CF2FF1F084B10B5041C002BB5
:1011E00002D0002100E000BF054B1868836A002B85
:1011F00000D09847201C00F095FEC046000000007B
:10120000DC1F000070B50E4B0E4D0024ED1AAD1022
:101210001E1CAC4204D0A300F35898470134F8E7F1
:1012200000F06EFF084B094D0024ED1AAD101E1C96
:10123000AC4204D0A300F35898470134F8E770BDDE
:101240002021000020210000202100002821000092
:1012500008B5034B011C186800F076F808BDC046BD
:101260001CF2FF1FC9B28218904204D003788B424F
:1012700002D00130F8E70020704710B500239342F8
:1012800003D0CC5CC4540133F9E710BD031C8218B1
:10129000934202D019700133FAE7704738B5151C34
:1012A0004D43291C00F050F8041E03D000212A1CD5
:1012B000FFF7ECFF201C38BD30B5002940D00439C1
:1012C0000B68002B00DAC9181E4A1368141C002B87
:1012D00002D14B60116033E099420FD208680A18BE
:1012E0009A4205D113685268C01808604A6000E04D
:1012F0004B60216024E08A4203D8131C5A68002AFC
:10130000F9D11D685C198C420BD10968691858180D
:101310001960904214D114685268091919605A6012
:101320000EE08C4202D90C23036009E008680C1817
:10133000944203D114685268001908604A605960E9
:1013400030BDC046B8F2FF1F70B50323CD1C9D43CE
:101350000835061C0C2D01D20C2501E0002D3FDBC9
:101360008D423DD3204B1C681A1C211C002913D030
:101370000868431B0DD40B2B02D90B60CC181EE060
:101380008C4202D1636813601AE0486860600C1CEC
:1013900016E00C1C4968E9E7144C2068002803D1CA
:1013A000301C00F025F82060301C291C00F020F8CB
:1013B000431C15D0C41C03239C4384420AD12560DE
:1013C000201C0B300722231D9043C31A0BD05A4216
:1013D000E25008E0211A301C00F00AF80130EED18A
:1013E0000C233360002070BDB8F2FF1FB4F2FF1F62
:1013F00038B5074C0023051C081C236000F078FD5D
:10140000431C03D12368002B00D02B6038BDC0469D
:10141000C0F2FF1F38B5041C0D1E1F2D04D9162362
:101420000360012040421FE0436C002B04D08A007F
:101430009A181368002B08D1201C00F033F82A1CDE
:10144000011C201C00F01CF80EE0012B0BD0591CD5
:1014500003D116230360012006E00024281C146039
:101460009847201C00E0002038BD000008B5034B61
:10147000011C1868FFF7CEFF08BDC0461CF2FF1F15
:1014800038B5074C0023051C081C111C236000F014
:1014900027FD431C03D12368002B00D02B6038BDEF
:1014A000C0F2FF1F08B500F013FD08BD0EB430B543
:1014B0009CB01FAD08CD812302AC9B00A38102909C
:1014C000069000F029F80B4B6060636200236363B1
:1014D000A36401235B42E381074B6061211C186810
:1014E0001F9A2B1C019500F01BF91CB030BC08BCE6
:1014F00003B01847FD1400001CF2FF1F00207047C6
:10150000C9B20378002B03D08B4204D00130F8E736
:10151000002900D0181C70470023C25C0133002A48
:10152000FBD1581E7047031C002010B582420FD01B
:101530001C780878A04201D1012A03D118780B78D1
:10154000C01A05E0013A0028F8D001330131EFE775
:1015500010BD0000F0B51D1C424B87B01B68059004
:101560000293039101920B1C1C78029F5E1C3A1996
:10157000517808220A4001D0331CF5E72D2C04D104
:1015800001279E1C5C78009704E000922B2C01D16F
:101590005C789E1C10232A1C9A4311D1302C08D150
:1015A000327820218A43582A07D174781D1C0236CC
:1015B00006E0002D04D10A2502E0002D00D1082507
:1015C000009F291C7B427B4180273F06FF1A381C65
:1015D000FEF7F0FF381C0491291CFEF7A7FF00233B
:1015E000021C181C029F391949784F0701D5303C5D
:1015F00007E003270F4017D05721012F00D13721D3
:10160000641AAC4210DA591C0BD0904207D802D1B0
:10161000049FBC4203DC68430123201801E001233E
:101620005B4234780136DDE7009F591C0BD18020E6
:101630007B427B410006059FC01A22233B60019F2D
:10164000002F09D10BE0002F00D04042019F002F56
:1016500005D0039A002B00D0721E019F3A6007B09C
:10166000F0BDC04620F2FF1F38B5141C4B1C02D140
:101670000120404234E0938920229343A381636B8D
:10168000CDB26268002B0FD0A36B9A4206DA2368B2
:10169000013B23601D70636801331FE0211C00F0D3
:1016A00097F90028F3D0E3E721692368002909D0DE
:1016B0008B4207D9591E0878A84203D10132216014
:1016C00062600DE0E363231C443363630323A3637D
:1016D000231C463322641D70236001236360281C91
:1016E00038BD10B50C1C496B00290ED0231C4433A7
:1016F000994201D0FFF7E0FD236C00206063636036
:10170000834202D0E36B236009E023692022236037
:1017100000236360A38901201343A381404210BDCD
:10172000F0B5A54C071CA5440193002300924693F5
:10173000A24A4793BE235B000C1C43A9CA50A04A8F
:10174000C02303A85B004890CA50009A1578002D6A
:1017500000D128E19B4E306843195A780823134082
:101760001FD0616800290FDD236830681A7882185D
:101770005278110711D5479A0133013247926268B6
:101780002360013A6260ECE7C0235B0043AAD358B0
:10179000381C211C98470028E6D0009E0136009690
:1017A000D3E7009E0136252D4CD1009845934393F5
:1017B00043782A2B03D11023061C43930236351C91
:1017C00029780B1C303B092B07D8459A0A23534331
:1017D000303B591845910135F2E77B4E0322301C0E
:1017E000FFF740FD002806D0861B439B0120B04038
:1017F0001843439001356E1C2D78672D0FD8652D49
:1018000077D25B2D51D005D8002D00D1CDE0252D0C
:1018100018D070E0632D54D0642D3DD06BE0702D56
:101820002FD007D86E2D52D038D8692D63D1002320
:10183000449338E0752D2FD0782D26D0732D5AD1B2
:1018400002233CE0606800280DDD23681A78AA4274
:1018500000D0A8E0013362682360479B013A01335E
:10186000626047939BE7C02343A95B00CB58381CB9
:10187000211C98470028E8D04698002800D08EE028
:1018800093E0439A202313434393439880239B0080
:1018900003434393102302E00A2300E00823449308
:1018A00004236E2D0BDC032309E0311C03A800F098
:1018B00055FA439940230B434393061C0123499354
:1018C0001DE0439A4023134343930023F7E74399D2
:1018D000CB0600D563E7019B479AC80704D5191DBD
:1018E00001911B681A805AE7191D01911B681A6043
:1018F00055E70523E3E7032349930A2344936168EB
:10190000002903DD439A520614D51BE0C02343A8E7
:101910005B00C358211C381C98470028F2D0ABE765
:10192000479A013247926268013A6260002A13DDE9
:1019300001332360236823491A7809688A1852788A
:101940001007EDD4499B022B10DC381C43A9221C44
:1019500001AB00F07BF81CE0C02343A95B00CB582F
:10196000381C211C98470028E4D085E7042B06DCAE
:10197000381C43A9221C01AB00F0CCF809E0134B42
:10198000002B00D10BE7381C43A9221C01AB00E05F
:1019900000BF012807D0022800D000E76CE7A38928
:1019A000590604D501E0469801E001204042A523F4
:1019B0009B009D44F0BDC0466CFDFFFF6916000012
:1019C000E316000020F2FF1FE01F000000000000EF
:1019D000F7B50B1C4D6B44330C1C9D421BD180266C
:1019E000F600311CFFF7B0FC002802D10120404274
:1019F00025E0231C6063A66346331A78104BC2545B
:101A0000231C45331A780F4BC2542A780E4BC2540C
:101A1000C018206012E08E6B291C73001A1C019301
:101A200000F076F9051EE1D08719381C291C321CFC
:101A3000FFF723FC019B27606563A3630020FEBDC5
:101A4000FF030000FE030000FD030000F7B5151CB6
:101A50008A6801900C1C002A06D18A69511E8A41AD
:101A6000524201210A43A2602268D20603D41A68B6
:101A7000111D196017680026A06900281DD1236870
:101A80000136DB0603D42A6813783B7001372A68D5
:101A90006B6801322A60A268013B013A6B60A26068
:101AA000002A25D0002BE7DCC0235B00E358019817
:101AB000291C98470028DFD01AE0012808D12A689D
:101AC00013786269D35C002BD9D1002E1FD00FE0B0
:101AD000022802D0002E09D00AE02A6813780C4AA6
:101AE0001268D3185B781A07C9D5F3E701280ED01E
:101AF00022681023134006D1E2680132E260A26935
:101B0000002A00D03B70236900209E192661FEBD8B
:101B100020F2FF1FF0B5151C8BB0774A049002939A
:101B200007ABC1CAC1C388690C1C032802D1734E1C
:101B3000059601E0724F0597A3680026AE22591E54
:101B400003965200914205D95E3BFF3B03935E230F
:101B5000FF33A3602068D023271C1B011C370343DD
:101B6000019700972360002707AABB0098582A68AE
:101B700011780222FFF776FB00283AD0012F0DD111
:101B80006368002B06D108232668636080239B00CE
:101B9000334323605B4B206803400EE0022F0DD1DE
:101BA0002368C021C900802219409200914223D1AC
:101BB000102262608022520013432360A3685A1EE1
:101BC000A260002B15D02B6800995A1C2A601B7844
:101BD000009E0B706B680136013B6B600096002B1A
:101BE00007DCC0235B00E3580498291C98470028B1
:101BF00043D10137032FB7D16268002A01D10A23EC
:101C0000636063681021C91A3F4B6069C91800F00E
:101C1000A5F8009E0027A368002B2FD02A686169D1
:101C20001078095C002929D0216830280AD10805DC
:101C300008D50399013700290AD0013901330391EE
:101C4000A36005E0314B19402160137833700136F1
:101C50006B68013B6B60002B03DD2B6801332B604D
:101C600007E0C0235B00E3580498291C984700282C
:101C700004D1A368013BA360CDE700272268D20509
:101C80000DD5019B9E4207D9BE23013E5B003178F2
:101C9000E35804982A1C9847019DAE4228D020683A
:101CA000102202401CD132706368059D049801998E
:101CB000A847029D22682B68910601D51A1D09E0EC
:101CC000D50705D5029D1A1D2A601B68188004E0FF
:101CD000029D1A1D2A601B681860E3680133E360E7
:101CE000019D0020761BF7192669F719276100E08E
:101CF00001200BB0F0BDC046481F00005515000084
:101D0000C51D0000FFFAFFFFE41F0000FFF6FFFF04
:101D1000F8B5061C0C1C151C002904D1111CFFF77A
:101D200013FB041C18E0002A03D1FFF7C5FA2C1C92
:101D300012E000F0C3F8A8420ED2301C291CFFF7B5
:101D400003FB071E07D0211C2A1CFFF796FA301C44
:101D5000211CFFF7B1FA3C1C201CF8BDF0B50B7834
:101D60005E2B02D04C1C002102E08C1C4B78012120
:101D700000228154802501326D00AA42F9D1002B46
:101D800001D1601E1CE001277F1AFEB2C654221C3E
:101D90001178541C2D2905D05D290ED000290ED0B4
:101DA0000B1CF2E755785D2DFAD09D42F8DB02322C
:101DB0000133C654AB42FBDBEAE7201C00E0101CF9
:101DC000F0BD0000F0B51D1C3B4B87B01B680590B3
:101DD00002930491171C0B1C02991C785E1C0A19B3
:101DE000517808220A4001D0331CF5E72D2C04D18C
:101DF00001229E1C5C78019204E001922B2C01D1FF
:101E00005C789E1C10232A1C9A4311D1302C08D1D7
:101E1000327820218A43582A07D174781D1C023653
:101E200006E0002D04D10A2502E0002D00D108258E
:101E30000120291C4042FEF779FB0390012040421B
:101E4000291CFEF7B7FB00238C46181C02990A19BF
:101E50005278510701D5303C07E00321114017D0DB
:101E60005722012900D13722A41AAC4210DA002BE4
:101E700009DB039A904206D801D1644503DC68432C
:101E80000123201801E001235B4234780136DDE7AD
:101E9000002B04DA059922220A60012002E0019A4F
:101EA000002A00D04042002F04D0049A002B00D01A
:101EB000721E3A6007B0F0BD20F2FF1F04390B68B4
:101EC000181F002B02DAC8581B18181F7047000093
:101ED000024B5822012040421A607047C0F2FF1F97
:101EE000024B5822012040421A607047C0F2FF1F87
:101EF000094A1368002B0CD018186946884202D88A
:101F00001060181C7047054B0C2201201A604042DB
:101F1000F8E7034B1360EFE7BCF2FF1FC0F2FF1FAF
:101F2000E0F2FF1FFEE7C04600600640007006407A
:101F300000F00F4040F00F4080F00F4000A006403E
:101F400000B0064000C00640F61F0000F91F000068
:101F5000FC1F00006932632D0000000025750000A1
:101F60007370692D00000000756172742D0000000F
:101F70007573626364632D000000000000000000C0
:101F80000000000000000000000000000000000051
:101F90000000000000000000000000000000000041
:101FA0000000000000000000000000000000000031
:101FB0000000000000000000000000000000000021
:101FC0000000000000000000000000000000000011
:101FD000000000000000000043000000BCF1FF1FF3
:101FE000686C4C00412D46612D66383930313233F2
:101FF000343536375D002B2D003030007858000026
:1020000020202020202020202028282828282020A8
:1020100020202020202020202020202020202020C0
:102020008810101010101010101010101010101038
:102030000404040404040404040410101010101018
:1020400010414141414141010101010101010101F1
:102050000101010101010101010101101010101025
:1020600010424242424242020202020202020202C2
:1020700002020202020202020202021010101020EA
:102080000000000000000000000000000000000050
:102090000000000000000000000000000000000040
:1020A0000000000000000000000000000000000030
:1020B0000000000000000000000000000000000020
:1020C0000000000000000000000000000000000010
:1020D0000000000000000000000000000000000000
:1020E00000000000000000000000000000000000F0
:1020F00000000000000000000000000000000000E0
:10210000F8B5C046F8BC08BC9E467047F8B5C04656
:08211000F8BC08BC9E467047B4
:0821180058E3FF7F0100000005
:08212000390400006511000004
:08212800110400007511000014
:1021300000004001756172742D3200000000000043
:102140002A0000002B00000000C201000000000077
:102150007573626364632D300000000000000000AE
:102160000000000000C201000000000000000000AC
:10217000000000000000000000000000000000005F
:1021800000000000000000007370692D312E300047
:1021900000000000050000002500000024000000F1
:1021A0000F00000040787D010000000000000000EA
:1021B000000000000000000000000000000000001F
:1021C000000000000000000000000000000000000F
:1021D0006932632D3000000000000000280000007C
:1021E00029000000A0860100000000006932632D74
:1021F0003200000000000000E4000000E5000000E4
:10220000A0860100000000000000000000000000A7
:1022100000000000000000000000000000000000BE
:10222000000000006C65642D30000000000000001C
:10223000C6000000010000006C65642D3100000044
:102240000000000064000000010000006C65642DC7
:1022500032000000000000006500000001000000E6
:102260006C65642D33000000000000004301000095
:10227000010000006862746E2D3000000000000054
:10228000000000000001000062636B6C6967687405
:10229000000000000300000000000000646973708B
:1022A0007273740000000000E700000000000000EE
:1022B000746F756368697271000000002501000089
:1022C000000100006D6D6373646364000000000032
:1022D000C20000000001000000000000000000003B
:1022E00000000000000000000001000000000000ED
:1022F000781F0000981F0000B81F000000000000B9
:10230000000000000000000000000000D81F0000D6
:1023100000000000000000000000000000000000BD
:1023200000000000000000000000000000000000AD
:10233000000000000000000000000000000000009D
:10234000000000000000000000000000BCF1FF1FC2
:08235000FF1F00000000000067
:102358003021000000F0FF1F2802000000000000EC
:0823680000000000000000006D
:04000003000004E90C
:00000001FF
