:10000000D8060020E90400002905000029050000A9
:1000100000000000000000000000000000000000E0
:1000200000000000000000000000000029050000A2
:10003000000000000000000029050000C1070000CA
:1000400029050000290500002905000029050000F8
:1000500029050000290500002905000029050000E8
:10006000DD0F0000F10F0000051100001911000064
:1000700005120000191200002D120000FD0D0000F5
:10008000D50D0000110E0000250E0000390E0000F5
:10009000BD100000E90D0000611000008510000097
:1000A00005100000251000002905000029050000AA
:1000B00041120000A91000002905000029050000D8
:10040000FFFFFFFFFFFFFFFFFFFFFFFFFFFFFEFFFD
:1004100010B5064C2378002B07D1054B002B02D0DA
:10042000044800E000BF0123237010BD60F9FF1FE6
:1004300000000000D86B000008B5084B002B03D06B
:100440000748084900E000BF07480368002B00D1B7
:1004500008BD064B002BFBD09847F9E700000000D1
:10046000D86B000064F9FF1F5CF9FF1F000000005B
:10047000164B002B00D1144B9D46402292029A1A33
:10048000924600218B460F461348144A121A05F073
:1004900005FB0F4B002B00D098470E4B002B00D0D4
:1004A00098470020002104000D000D48002802D0CC
:1004B0000C4805F0BFFE04F091FF2000290004F075
:1004C000BFFD04F053FEC04600000800D80600201F
:1004D000000000000000000060F9FF1FC0FEFF1FC9
:1004E000356200004562000072B6094809490A4AAF
:1004F00002600A6000F034F962B60849084A094B04
:100500009B1A03DD043BC858D050FBDCFFF7B0FF5B
:1005100080E100E080E200E0FFFFFFFF146C0000DC
:1005200000F0FF1F60F9FF1FFEE7C04600224308EE
:100530008B4274D303098B425FD3030A8B4244D3AB
:10054000030B8B4228D3030C8B420DD3FF220902ED
:1005500012BA030C8B4202D31212090265D0030BAC
:100560008B4219D300E0090AC30B8B4201D3CB03A2
:10057000C01A5241830B8B4201D38B03C01A5241E4
:10058000430B8B4201D34B03C01A5241030B8B42E6
:1005900001D30B03C01A5241C30A8B4201D3CB02D1
:1005A000C01A5241830A8B4201D38B02C01A5241B6
:1005B000430A8B4201D34B02C01A5241030A8B42B9
:1005C00001D30B02C01A5241CDD2C3098B4201D3D1
:1005D000CB01C01A524183098B4201D38B01C01A4F
:1005E000524143098B4201D34B01C01A52410309C6
:1005F0008B4201D30B01C01A5241C3088B4201D375
:10060000CB00C01A524183088B4201D38B00C01A21
:10061000524143088B4201D34B00C01A5241411A48
:1006200000D20146524110467047FFE701B5002055
:1006300000F00CF802BDC0460029F7D003B5FFF763
:1006400075FF0EBC4243891A1847C0467047C04622
:10065000024670B50A4392072AD11E4DEE0104C826
:1006600008C9541B9443344017D0D0B2D9B2401AB1
:100670002106014310D190B299B2401A21040143DE
:100680000AD110021902000A090A401A2102014384
:1006900002D1100E190E401A70BD9A42DFD010BA66
:1006A00019BA884201D9012070BD0020C04370BD35
:1006B00002780B7801300131002A09D09A4207D123
:1006C00002780B7801300131002A01D09A42EFD034
:1006D000D01A70BD010101017047C04608B5164B24
:1006E000197802220A431A7090229A70124B1B79D1
:1006F0005B06FBD5104B597820220A435A701979B2
:1007000040220A431A710D4B1868FA218900FFF73D
:100710000DFF01380A4B98420DD80A4A50600A4929
:100720000B6A1B021B0AC020000603430B62002356
:1007300093600733136008BD0040064000F0FF1FC0
:10074000FFFFFF0010E000E000ED00E010B5041C2A
:10075000024B1868FFF7C2FF201C10BD00F0FF1FFE
:1007600010B5124B124A9A8001225A7022321A7026
:10077000104A517820231943C9B2517000200E4904
:100780004862062111705478093121400B43DBB2D5
:1007900053700A4B1870074B1B79DB06FBD5054BD2
:1007A0001A790C231A42FAD110BDC0460020054028
:1007B00003E8FFFF00400640008004400050064070
:1007C00030B505490C684D680122002312196B41B0
:1007D0000A604B6030BDC04680F9FF1FF0B585B0A0
:1007E000002833D001AA1B4C131CE0CCE0C30369E2
:1007F0005C09A400A258847D002C0BD050691F24F2
:10080000251C1D40A8431940231C0B400343536182
:1008100000201CE0007D002802D001204140014062
:10082000002909D054681F210B4001209840031C67
:100830002343536000200AE094681F210B400120ED
:100840009840031C23439360002000E0FE2040B248
:1008500005B0F0BD6C63000070B584B0002823D0F3
:1008600001AA144B111C70CB70C10369590989008E
:100870008958827D002A04D0086903401F2018404F
:1008800016E0027D002A08D009691F2003400122DA
:100890009A400A420BD000200AE008691F22134048
:1008A0001E3A9A40104003E00120404200E001203F
:1008B00004B070BD6C63000010B5002805D00C1C9E
:1008C000FFF7CAFF2060002000E0FE2040B210BD0C
:1008D000F0B585B0002875D001AB3D4A1C1CE0CABC
:1008E000E0C4046962099500EB58022924D1012A69
:1008F0000ED0002A02D0022A14D03EE0354DAE6858
:100900001F2214401E3AA240141C3443AC6034E051
:10091000304DEE681F2214401E3AA240141C34438E
:10092000EC602AE02B4D2E691F2214401E3AA24093
:10093000141C34432C6120E0012A0DD0002A02D07F
:10094000022A12D019E0234EB2681F252C401E3D0A
:10095000A540AA43B26010E01E4EF2681F252C404D
:100960001E3DA540AA43F26007E01A4E32691F25DA
:100970002C401E3DA540AA433261002911D0012917
:1009800022D19D691F24026922400E1C9640B54366
:100990009D615A6900690440A1408A435A61002060
:1009A00013E05E691F25016929400124221C8A4049
:1009B00032435A619A6901690D40AC40A2439A6181
:1009C000002002E0FE2000E0FB2040B205B0F0BDB8
:1009D0006C6300000090044038B5041C0D1C00211D
:1009E0003C2205F05BF8201D291C182204F0CCFFE6
:1009F000617D201CFFF76CFF201CA169FFF7EEFE54
:100A0000201C38BDF0B557464E46C0B483B00191A6
:100A1000924699460A9D0B9F046C2023C35C002BD1
:100A200017D1201C00F012FA201C019900F052FA94
:100A300000280BD00DE05346995D201C00F04AFAC7
:100A4000002801D0C0B236E0013600E000264E4555
:100A5000F1D3002F04D1201C00F01CFAC0B22AE010
:100A6000201C00F0F3F90121019B0B43191C201CF1
:100A700000F030FA061C201C291C002200F068FA45
:100A8000002E0BD013E0A919201C002200F060FA00
:100A9000002801D0C0B20EE0013600E000267B1E27
:100AA000B342F0D8A919201C012200F051FA201CF1
:100AB00000F0F0F9C0B240B203B00CBC91469A46C7
:100AC000F0BDC04610B582B000280CD01C1C4900F7
:100AD000C9B2002300930193231CFFF793FF002862
:100AE00004D1201C04E00220404201E00D204042DD
:100AF00002B010BDF0B585B0002803D1FE2303700D
:100B000002383CE03823C35C002B12D101AB9C4679
:100B10001C4B6546D0CBD0C5C5696B099B006446AC
:100B20001E5977681F231D400124231CAB403B4303
:100B30007360151C0A1C041C006C2B1C00F0CEFA00
:100B4000002800D0FF203823E35C002B12D101AB3A
:100B50009C460C4B6246C2CBC2C2E26953099B0061
:100B600061465C58A6681F231A4001210B1C934064
:100B70003343A360002801D1281C00E040B205B037
:100B8000F0BDC04678630000F0B589B0051C0C1CB0
:100B900000212C2204F082FF0026F3009B1B9B0007
:100BA0005A481818211CFFF753FD002801D00136C0
:100BB000F3E7201C5649052205F024FA071E09D048
:100BC000201C5449072205F01DFA002802D0F52305
:100BD0002B7098E0002F1AD16479303CE4B2072CD6
:100BE00002D9F5232B708EE0281C00212C2204F062
:100BF00055FF281DF1008E1BB600444971181C22B8
:100C000004F0C2FE2123EC54022C03D805E0FA23A1
:100C10002B7078E0FC232B7075E002AB3E4A191C68
:100C2000C1CAC1C1A200D358AB62012C0BD0002CA9
:100C300002D0022C0ED066E0384A53698021490365
:100C40000B4353610CE0354A5369802189030B4300
:100C5000536105E0314A53698021C9030B43536155
:100C60002F4B1B6801930693AB690793AB7F002B57
:100C700011D005A90878022202430A70022B05D17F
:100C80000A1C0B7801218B43137004E005AA11782C
:100C900001230B4313702B7F002B05D105AA13787A
:100CA00010218B43137004E005AA117810230B4325
:100CB00013706B7F002B03D1002205ABDA7002E0CA
:100CC000012205ABDA702123EB5C9B0002AA985845
:100CD00005A900F02BFA2B69002B08D02123EB5C2F
:100CE0009B0002AA9A58D17808230B43D3706B69F2
:100CF000002B08D02123EB5C9B0002AA9A58D178E4
:100D000004230B43D370281C09B0F0BD04F0FF1F6F
:100D1000906300009863000084630000008004403A
:100D200000F0FF1F38B5041C2123E35C074AD25CA6
:100D3000002AF9D1054D0132EA54A06A00F05CFAAC
:100D40002123E35C0022EA5438BDC04688F9FF1F26
:100D50002123C35C0A4AD25C002AF9D10121084A46
:100D6000D154826A1179890604D40021044AD154ED
:100D7000044803E0D0790021014AD15400B2704701
:100D800088F9FF1FFFFF000070B5051C0C1C002830
:100D90000CD0002605E0C9B2281CFFF7C3FF0134C0
:100DA000013621780029F6D1301C00E0002070BD0A
:100DB000F8B5041C151C131C06E04F1C0978201CF8
:100DC000FFF7B0FF331C391C5E1E002BF5D0A81BAB
:100DD000F8BDC04608B5034B1B68002B00D09847F0
:100DE00008BDC04690F9FF1F08B5034B5B68002B98
:100DF00000D0984708BDC04690F9FF1F08B5034BC7
:100E00001B68002B00D0984708BDC04698F9FF1F0B
:100E100008B5034B1B68002B00D0984708BDC0469F
:100E20009CF9FF1F08B5034B5B68002B00D0984767
:100E300008BDC0469CF9FF1F08B5034B9B68002BFB
:100E400000D0984708BDC0469CF9FF1F8278102348
:100E5000134383708278202313438370002300E0C0
:100E60000133C278920604D4084A934203D900227F
:100E700002E0002200E00122002AF1D1044A93425C
:100E800001D0002000E010207047C0463F0D030055
:100E9000400D03008378202293438370002300E0F9
:100EA0000133C278920604D5084A934203D900223E
:100EB00002E0002200E00122002AF1D1044A93421C
:100EC00001D0002000E020207047C0463F0D030005
:100ED000400D030010B5002200E00132C3785BB280
:100EE000002B04DB194B9A4203D9002302E00023B4
:100EF00000E00123002BF0D1144CA24222D88478C8
:100F00001022224382700171002200E00132C17878
:100F1000890704D40D498A4203D9191C02E0191C1F
:100F200000E001210029F1D1084B9A420CD8C27887
:100F300002231343C370C378DB0701D4002004E00D
:100F4000042002E0012000E0022010BD3F0D03005C
:100F500030B5002400E00134C3785BB2002B04DB21
:100F60001D4B9C4203D9002302E0002300E0012333
:100F7000002BF0D1184DAC4229D884781025AC4311
:100F80008470002A04D0847808222243827003E00F
:100F900082780824A243827002790A70002200E05D
:100FA0000132C178890704D40B498A4203D9191C3C
:100FB00002E0191C00E001210029F1D1064B9A4200
:100FC00007D8C27802231343C370002002E0012037
:100FD00000E0022030BDC0463F0D030008B5034BC2
:100FE0001B68002B00D0984708BDC046A8F9FF1F1A
:100FF00008B5034B5B68002B00D0984708BDC0467E
:10100000A8F9FF1F08B5054A916804230B439360B4
:10101000034B1B68002B00D0984708BD0090074089
:10102000B0F9FF1F08B5054A916804230B4393608C
:10103000034B5B68002B00D0984708BD00A0074019
:10104000B0F9FF1F1F2318401E3B8340181C034BA1
:10105000C0225200985018607047C04600E100E07E
:1010600008B50649862252008858012303438B5055
:10107000034B1B68002B00D0984708BD007003404D
:10108000B8F9FF1F08B506498E225200885801237F
:1010900003438B50034B5B68002B00D0984708BD7F
:1010A00000700340B8F9FF1F08B5034B1B68002B05
:1010B00000D0984708BDC046C0F9FF1F08B5054AD3
:1010C000116880230B431360034B1B68002B00D077
:1010D000984708BD00D00340C4F9FF1F30B5002B6E
:1010E0000ED000250AE0C478A406FCD5545D4471F6
:1010F000C478E409FCD044794C5501359D42F2D3C3
:10110000002030BD08B5034B1B68002B00D098476A
:1011100008BDC046C8F9FF1F08B5034B5B68002B2C
:1011200000D0984708BDC046C8F9FF1F70B5041C21
:101130000D1C486889682C4B9C4205D12B4A536989
:101140008026760333435361294B9C4205D1274ABD
:1011500053698026B60333435361264B9C4205D125
:10116000224A53698026F60333435361E3780C2205
:101170009343E3702B78A37000094B08C018FFF766
:10118000D5F923781F2293431A1CC304DB0E1343A3
:101190002370C0B26070EB78012B04D122781F332A
:1011A0001343237003E02378202293432370AB780A
:1011B000A3716B78E3702A68FF231B031A4211D0D6
:1011C000094B9C4202D10C20FFF73CFF084B9C428C
:1011D00002D10D20FFF736FF064B9C4202D10E20B4
:1011E000FFF730FF70BDC04600A0064000800440FD
:1011F00000B0064000C0064003795BB2002BFBDA6A
:10120000C171704708B5024B1B680248984708BD7A
:10121000D0F9FF1F00A0064008B5024B1B6802482A
:10122000984708BDD0F9FF1F00B0064008B5024B33
:101230001B680248984708BDD0F9FF1F00C0064050
:1012400008B5054A517840230B435370034B1B6884
:10125000002B00D0984708BD00200540D4F9FF1F9F
:101260007F2819D9002911D0FF2805D8031C803BFD
:101270005B000A4A985A0FE000200DE05A00074927
:10128000525A824205D001339BB200E000237F2BEB
:10129000F4D98033FF2018407047C046C463000073
:1012A000F0B583B0224B984201D8224B02E0224B8A
:1012B00000E03B1C1A88002A38D0904236D31F1D0C
:1012C0005B8819128DB2FF2423400192D618B042D8
:1012D00027DA08292AD88900184B5B589F46019BBA
:1012E000C41A6400385B21E0821A01231A40801A74
:1012F00080B21BE0103880B218E0203880B215E0D0
:10130000303880B212E01A3880B20FE0083080B274
:101310000CE0503880B209E0094B9C46604480B232
:1013200004E0002DC5D15B00FB18C3E703B0F0BD9E
:10133000FF0F0000C4640000B8660000A063000056
:10134000A0E3FFFF002070478000044BC3589B6C54
:10135000002B01D1042000E00020704740FEFF1F59
:1013600010B58000094C0459A06C002807D0E46C2B
:10137000002C06D0A047002805D0002004E004205F
:1013800002E0042000E0012010BDC04640FEFF1F27
:1013900010B58000094C0459A06C002807D0246DBA
:1013A000002C06D0A047002805D0002004E004202F
:1013B00002E0042000E0012010BDC04640FEFF1FF7
:1013C00000B583B0002301938000094BC358986C8B
:1013D000002807D05B6D002B06D001AA9847019B1F
:1013E000D8B202E0042000E0042003B000BDC046F3
:1013F00040FEFF1F82B0A020800502B07047C046AB
:101400004278120203781A43101C7047C3781B02FB
:10141000827813431B02427813431B02007818435F
:101420007047C046C3791B02827913431B0242797D
:101430001343190E1B02027913431A0E09021143BA
:101440001B02C27813431A0E090211431B02827851
:1014500013431A0E090211431B02427813431A0E5A
:10146000090211431B0200781843704701700912EA
:101470004170704701700B0A43700B0C8370090EAA
:10148000C170704702701906120A0A43190A4270A5
:101490000906120A0A43190C82700906120A0A4345
:1014A0001B0EC2701B06120A1A430271130A437103
:1014B000130C8371120EC2717047C046002A06D009
:1014C0000B780370013A01300131002AF8D17047DE
:1014D0000170013A0130002AFAD1704770B5461CFC
:1014E00003784D1C08781B1A013A002A03D0002B00
:1014F00003D0002402E0002400E00124301C291C59
:10150000002CECD1181C70BD00E001300378002BDA
:1015100002D05AB28A42F8D158B270470239C36A2F
:10152000023B8B4204D943895943006C081800E000
:101530000020704770B5061C0D1C081C1A30FFF700
:101540005FFF041C3378032B05D1281C1430FFF7F0
:1015500057FF0004204370BD70B5061C0D1C141C01
:10156000081C1A3091B2FFF781FF3378032B04D1A6
:10157000281C1430210CFFF779FF70BDF0B54746E9
:1015800080B480460F1C081C1A30FFF739FF002872
:101590002AD13B783F251D406B1E5D00ED18AD0044
:1015A000ED180126002412E0154B185D3818FFF7DE
:1015B00027FF002E07D0FE2D18D86B004246D052D0
:1015C000061C013502E00F4A904211D101340C2C67
:1015D000EAD93B785B060DD5FE2D0DD86D0045444C
:1015E00000232B80012008E0002006E0002004E01A
:1015F000002002E0012000E0002004BC9046F0BD85
:1016000074670000FFFF0000F8B54F464646C0B4BF
:1016100080460F1C91464B730F23CB7200230B7334
:10162000081C1A300021FFF721FF4B46013B5E00EA
:10163000F618B600F61800240025124B9C4203D081
:1016400073004246D45A01360F4B585D3818211C9E
:10165000FFF70CFF002C00D10A4C01350C2DECD902
:10166000084B9C4204D076004346F35A002B03D12A
:1016700040234A461A4391464B463B700CBC904669
:101680009946F8BDFFFF00007467000070B582B096
:10169000051C161C1C1C0B22FFF710FF052C0FD875
:1016A00011E00236002109E0640001231340E41830
:1016B0005208E30301D5194B5C4001310F29F3D9DE
:1016C0003288002AEDD1072000E0101C0F232340B0
:1016D000191C3031392901D93733191C421E6B4688
:1016E00019542409F1D17E2369468B54002300E06C
:1016F0000133934202D2E95C2029F9D1591CEB183D
:10170000072A03D86846805C013200E02020187068
:101710000B1E072BF2D902B070BDC046211001008C
:10172000011C0B2200204310C0011B1808781B1855
:10173000D8B2013A0131002AF5D1704730B5051C05
:10174000447801346401002000230EE0022B01D113
:10175000013309E00122024001D080221202401030
:10176000E95C1218521890B20133A342EED330BD97
:10177000F0B5474680B482B0844603680193002BDD
:1017800004D10120404251E0013700E0019F3B7845
:10179000DAB21F2A01D93A2BF6D13A2B44D1019A59
:1017A000131C0133002010563038092807D8BB42DB
:1017B00005D1062832D8013763461F6036E07B1C0E
:1017C0009846002083001B4A9F58019D7C1C397855
:1017D0006E1C2B78DAB2151C613D192D02D8131C32
:1017E000203BDBB2002905D0351C271C4AB25BB276
:1017F0009A42EBD0002901D1464504D00130062899
:1018000003D8012302E0002300E00023002BD9D1FC
:10181000062806D8634642461A6007E00120404287
:1018200004E00120404201E0034B187802B004BC00
:101830009046F0BD8467000038FCFF1F38B5041CDB
:101840000D1C002810D00368002B0FD01A78002A36
:101850000ED0D988828891420CD15878FFF774FD58
:10186000C30709D4002308E0012306E0012304E0B4
:10187000012302E0012300E00123002B03D0002319
:101880002B60092002E023682B60002038BDC04691
:10189000F8B5C378002B22D0041C476C061C5836C0
:1018A0004078311C3A1C0123FFF772FD002818D143
:1018B0000023E370A36BFB1A226B934213D2A5782B
:1018C00009E0236B9C4667446078311C3A1C012375
:1018D000FFF75EFD013D012DF3D8002004E000205C
:1018E00002E0012000E00020F8BDC04670B5051CF4
:1018F0000E1C436C8B4211D0FFF7CAFF041E0ED1A1
:101900006878291C5831321C0123FFF729FD002873
:1019100002D00134012676426E6400E00024201CCF
:1019200070BDC04610B5041C0023C370013B436466
:10193000FFF7DCFF00282AD11A4BE018FFF760FD03
:10194000194B984225D15823E35CE92B05D0174B5E
:10195000A26D1340164A93420FD1201C8E30FFF720
:1019600055FD0002000A134B984214D0201CAA30E7
:10197000FFF74CFD104B98420FD0201C58300F49F8
:101980000B22FFF7ABFD002809D1013008E004204D
:1019900006E0032004E0002002E0002000E0022036
:1019A00010BDC0465602000055AA0000FF00FF000F
:1019B000EB0090004641540046415433A0670000BC
:1019C000F0B55F4656464D464446F0B487B00E1C0F
:1019D000171C00230B60FFF7CBFE051E00DA08E2A0
:1019E0008300CB4A9C58002C00D104E234600123D0
:1019F0009F432378002B0CD06078FFF7A5FCC3072A
:101A000007D4002F00D1F8E1430700D5F7E100200B
:101A10002AE200232370E8B26070FFF793FCC3074B
:101A200000D5EEE1002F02D0430700D5EBE1201CEA
:101A30000021FFF777FF022812D000252BE02B01B1
:101A4000B44AA018C0180379002B03D00830FFF760
:101A5000DDFC00E00020AB0002AA9850013500E058
:101A60000025032DEBD90026B30002AA9D58002DB6
:101A700004D0201C291CFFF755FF00E0032001289B
:101A800004D90136032E03D8012302E0002300E02D
:101A90000023002BE8D1042800D1B6E1012800D9A9
:101AA000B5E100D0A6E001E0013300E00B233F2BBD
:101AB00004D8E21858321278002AF5D03F2B00D80B
:101AC000A7E1201CC030FFF79BFC80235B009842FD
:101AD00000D0A0E13C3BE25CC33B934080229200FB
:101AE000934200D099E1201CA030FFF79BFC2A1CF8
:101AF000002380185941061C0F1E9F4200D08EE122
:101B0000201CAC30FFF782FC2063C623E35CA3708B
:101B1000012B00D085E1C433E25CC43B93409BB20F
:101B2000984663814346002B00D17CE1201CB430F1
:101B3000FFF76CFC8146784B984200D975E1031C95
:101B40000233E3626563201CB030FFF75FFC82461E
:101B5000AA4453462364201CA830FFF757FC4519BC
:101B6000A5635346009300250195414648464143ED
:101B70000A1C2B1C0098019912184B41BB4200D93A
:101B800055E102D1B24200D951E1201CB830FFF733
:101B90003DFC011CE063201CFFF7C0FC011C201C65
:101BA000FFF7A4FE002800D043E1002513E06319ED
:101BB00058331B78812B08D1281C6C302018FFF774
:101BC00025FC022803D0002302E0002300E00123CB
:101BD000002B03D12035514B9D42E8D980239B0037
:101BE0009D4200D127E101235B42A361636105337C
:101BF0009B46EFE0201C6330FFF702FC80239B0034
:101C0000984200D019E1201C6E30FFF7F9FB8146A5
:101C1000002804D1201C7C30FFF7F8FB81464B469E
:101C200023636823E35CA3705A1E012A00D906E1EE
:101C30004A465A4392466523E35C9B4663815B4672
:101C4000002B00D1FDE0013B5A46134200D0FAE0E0
:101C5000201C6930FFF7D4FB071C0090208103078C
:101C600000D0F2E0201C6B30FFF7CAFB061E04D147
:101C7000201C7830FFF7CAFB061C201C6630FFF7DB
:101C8000BFFB8046031E00D1E1E053443F09BFB2D1
:101C9000DF19BE4200D2DCE0F01B5946FEF746FCDD
:101CA000002800D1D7E01E4B984202D903239B465F
:101CB00001E002239B461B4B984201D801239B461F
:101CC000861CE66265634346EB18A363EF1927643D
:101CD0005A46032A11D1201C8230FFF791FB0028BD
:101CE00000D0BAE0009B002B00D0B8E0201C84306C
:101CF000FFF78CFBE063B6001CE0009A002A00D1DD
:101D0000AFE05344E3635B46022B0DD1760011E054
:101D100040FEFF1F16020000FDFFFF7FFF010000D5
:101D2000F5FF0000F50F0000032373435B08012259
:101D300016409E19504B9C466644760AB14500D227
:101D400091E001235B42A3616361813323715B46B0
:101D5000032B0DD1201C8830FFF752FB012809D13D
:101D6000691C201CFFF7C2FD002805D1012504E0F5
:101D7000002502E0002500E00025002D2AD00023E8
:101D800023713E4BE018FFF73BFB3D4B984210D1CF
:101D9000201C5830FFF73AFB3A4B98420BD18F2367
:101DA0009B00E018FFF732FB374B984204D0002528
:101DB00002E0002500E00025002D0BD090239B00C1
:101DC000E018FFF723FBA06191239B00E018FFF7C9
:101DD0001DFB60615B4623702C4A138801339BB264
:101DE0001380E3802A4BE3602A4B23610020E061EB
:101DF0003AE00B2038E00C2036E0002034E00A20E6
:101E000032E0032030E00A202EE001202CE00D20FB
:101E10002AE00D2028E00D2026E00D2024E00D20F2
:101E200022E00D2020E00D201EE00D201CE00D2002
:101E30001AE0012018E00D2016E00D2014E00D201E
:101E400012E00D2010E00D200EE00D200CE00D2022
:101E50000AE00D2008E00D2006E00D2004E00D2032
:101E600002E00D2000E00D2007B03CBC90469946F2
:101E7000A246AB46F0BDC046FF010000560200007E
:101E800055AA000052526141727241613CFEFF1F2F
:101E90003CFCFF1FD8F9FF1FF0B54F4680B482B05D
:101EA000061C91468D1EC36A023BAB4200D800253A
:101EB00001952C1C0027210B336C9C466144301C7F
:101EC000FFF714FD00282AD12105C90D072323405F
:101ED00001229A40D3B200E00123721858321278DE
:101EE0001A405B00DBB20134F06A0238844203D34B
:101EF0000024802149010023002A05D101374F45E4
:101F000004D1019802300EE001940027AC4209D0C0
:101F1000002BE2D10131064B9942DDD9CBE70120FC
:101F2000404200E0002002B004BC9146F0BDC04633
:101F3000FF010000F8B54F464646C0B4061C171C0A
:101F400098468B1E190B026C944661441D05ED0DDD
:101F500007242340063C9C40E4B24B1C9946301CAD
:101F6000FFF7C4FC002801D01EE001247319583388
:101F70001B78221C1A40511E8A41424516D0721904
:101F80005832634013700123F370013F002F0ED0CD
:101F90006400E4B2002CE9D101350134064B9D42C6
:101FA000E3D949460025D8E7012000E002200CBC17
:101FB00090469946F8BDC046FF010000F8B54F466F
:101FC0004646C0B4071C0C1C161C012900D88EE024
:101FD000C36A8B4200D88CE00378022B4FD0DAB270
:101FE000022A02D8012B04D085E0DBB2042B5AD997
:101FF00081E04B08984688444346590A836B9C46C7
:102000006144FFF773FC051E76D1012343449946D2
:102010004346DB05DB0D012214400AD0FE3232407C
:102020001101FA18583212780F2002400A43D2B236
:1020300000E0F2B2FB1858331A700123FB704B46D4
:10204000590ABB6B9C466144381CFFF74FFC051EC8
:1020500052D14B46DB05DB0D002C02D03609F6B21F
:1020600007E0FA18583212780F218A433605360FE6
:102070001643FB1858331E700123FB703CE0090A1D
:10208000836B9C466144FFF731FC051E34D1600030
:10209000FF235B00184058303818B1B2FFF7E6F95B
:1020A0000123FB7028E0C909836B9C466144FFF75C
:1020B0001DFC051E20D13B78042B0CD036013609BF
:1020C000A000FE235B00184058303818FFF79EF937
:1020D000000F00070643A400FE20400004405834CF
:1020E0003819311CFFF7C6F90123FB7004E0022503
:1020F00002E0022500E00225281C0CBC904699460F
:10210000F8BDC04670B5C379032B12D1061C816897
:10211000846908E04D1C30682A1CFFF74FFF002837
:1021200008D1013C291C002CF4D10023F3710020BC
:1021300000E0002070BDC046F8B54F464646C0B42A
:102140000568012900D89FE0EB6A8B4200D89DE02A
:102150000C1C80462B78022B33D0DAB2022A02D82C
:10216000012B05D094E0032B3DD0042B4FD08FE002
:102170004E088E19710AAB6B9C466144281CFFF710
:10218000B5FB002800D085E0771CF605F60DAB19ED
:1021900058331E78790AAB6B9C466144281CFFF7C4
:1021A000A5FB002879D1FF05FF0DED1958352878DA
:1021B00000023043E30701D500097DE00005000D72
:1021C0007AE0090AAB6B9C466144281CFFF78EFB42
:1021D000002865D16000FF235B00184058302818A4
:1021E000FFF70EF968E0C909AB6B9C466144281CF7
:1021F000FFF77CFB002856D1A000FE235B001840AF
:1022000058302818FFF702F90001000954E0066968
:102210004769331C3B4349D08368CB1A9946012256
:102220005242D31792197B41111CDB05480A18430F
:102230006989FEF77BF94346DB79022B06D181459C
:1022400004D801D0601C37E01D4835E0032B05D1D0
:10225000424692694A4501D9601C2DE0022B27D0E5
:10226000E109AB6B9C466144281CFFF73FFB00284B
:1022700020D1A100FE2464000C4058342819FFF737
:10228000C5F84000400817E0012015E0012013E0E8
:10229000012011E0012040420EE0012040420BE00D
:1022A0000120404208E00120404205E0012003E017
:1022B000012001E0012040420CBC90469946F8BD47
:1022C000FFFFFF7FF0B5474680B4051C88460768CE
:1022D000002906D17E69002E0ED0FB6AB3420DD9CB
:1022E0000DE0FFF729FF012875D9431C7ED0FB6A5A
:1022F00083427BD8464602E0012600E001263B7877
:10230000042B24D1381C311C0122FFF7C5FD041C0D
:10231000431E033361D8381C211C01220123FFF71F
:1023200009FE02285AD001285AD04346002B02D178
:102330000233EB7120E0EB79022B1DD1731CA34219
:102340001AD0AB68F61AAE610323EB7114E0341CAB
:102350000134FB6AA34202D8012E44D90224281C6E
:10236000211CFFF7E9FE002806D001283ED0431CBF
:102370003CD0B442ECD138E03B78042B02D1EB796D
:10238000022B10D0381C211C01225242FFF716FEEE
:10239000002809D14346002B06D0381C4146221C98
:1023A000FFF70CFE00E0002000280CD17C61BA6928
:1023B000FB6A023B9A4201D2013ABA613A7901239F
:1023C00013433B7105E0012802D10124644200E07F
:1023D0000124201C0AE0012008E007E0012005E0BC
:1023E0000120404202E0002000E0002004BC9046B2
:1023F000F0BDC046F0B5474680B4061C0C1C07680B
:102400003B78042B02D180235B0501E080239B03F2
:10241000A3423BD9E3063BD1B462B568002D05D198
:102420003B78022B02D9FD6B0023F371002D06D1FE
:1024300063093A8993422DD2FB6B336318E07B89A1
:102440005B0298460DE0301C291CFFF775FE051C49
:10245000431C21D0012821D9FB6A834220D943465D
:10246000E41A4445EFD2381C291CFFF757F83063B3
:10247000F562336B002B15D0620A9B183363E305BA
:10248000DB0D5833FB18736300200CE002200AE0D8
:10249000022008E0022006E0012004E0022002E021
:1024A000022000E0022004BC9046F0BDF0B583B0ED
:1024B000061C0F1E01920468012F60D9E36A8B424B
:1024C0005FD9002A0DD02378042B02D1C379022BC7
:1024D00007D0201C019901225242FFF76FFD00280E
:1024E0005CD10097301C391CFFF726FE051E2DD04D
:1024F000012848D0431C48D02378042B06D0201C48
:10250000391C0022FFF75AFD002847D1A269E36A6F
:10251000023B9A4205D20132A26122790123134380
:1025200023717B1CAB420DD02378042B09D1009B77
:10253000FA1A0132201C191C0023FFF7FBFC0028AB
:102540002CD100952F1EE36A9F42CBD32378042B16
:102550001DD1019B002B02D1F37100201EE0F37905
:10256000032B16D1B36801998B4214D8B2699446F3
:1025700063448B4211D30223F37100200EE002204A
:102580000CE002200AE0022008E0012006E0002022
:1025900004E0002002E0002000E0002003B0F0BDD5
:1025A000F0B54F464646C0B483B00768856A20350B
:1025B000036B002B76D03A78042A02D18022520590
:1025C00001E080229203AA426ED90191041CEA051F
:1025D000D60D60D101330363C16A002907D16B09AD
:1025E0003A89934257D30023036304206BE06B0ABC
:1025F0007A89013A1A424ED1FFF79EFD8146031EA9
:10260000012B53D9013353D0FB6A83423CD8019B41
:10261000002B02D12363042055E0201CE16AFFF760
:1026200051FE8146031E45D0012845D0013345D0D7
:10263000E37904221343E371381CFFF729F90028DA
:102640003ED1381C5830002180229200FEF740FF16
:10265000381C4946FEF762FF7864002398460CE078
:102660000123FB70381CFFF713F900282AD101233E
:102670009C46E0447B6C63447B647B894345EFD894
:102680007B6C42469B1A7B644B46E362381C49468E
:10269000FEF744FF2063A562331C5833FF186763BD
:1026A000002010E004200EE004200CE002200AE0EC
:1026B000012008E0072006E0022004E0012002E0FB
:1026C000012000E0012003B00CBC90469946F0BD0B
:1026D000F8B5041C00680569216BFFF707F90028AD
:1026E0004ED1616B0B78852B41D1281C2022FEF73F
:1026F000E5FE6B785E1C201C0021FFF751FF0028CF
:102700003ED12068216BFFF7F1F8002838D1616BCA
:102710000B78C02B2DD1281C20302022FEF7CEFEB6
:10272000F31E102B27D876014027201C0021FFF72D
:1027300037FF002824D12068216BFFF7D7F8002845
:102740001ED1616B0B78C12B17D1E8192022FEF73F
:10275000B5FE2037B742E8D3281CFEF7EFFF041C74
:10276000A81CFEF74DFE844209D0022008E002209A
:1027700006E0022004E0042002E0022000E0002045
:10278000F8BDC04610B5041C0B680360CB698360BC
:102790000B6AC371FF230A6A9A43226100234361D3
:1027A000496A4164FFF726FE002802D1201CFFF78A
:1027B0008FFF10BDF0B557464E464546E0B4051CA8
:1027C00088460668FF2399469A4604246FE0301C29
:1027D000FFF78CF8041E6FD1696B0B78002B6AD061
:1027E0003278042A0ED1852B5BD1AB6A6B64281C2E
:1027F000FFF76EFF041E5FD133691B793F22134040
:10280000AB7159E0CA7A3F200240AA71E52B40D053
:102810002E2B41D01F38171C8743381C08384742DD
:10282000474147453BD10F2A20D15A0606D54A7B5E
:10283000914640229343AA6A6A649A4653450CD152
:102840004B7B4B450CD1F068FEF798FE00280AD070
:102850005746013FFBB29A4623E0FF239A4620E009
:10286000FF239A461DE0FF239A461AE05346002BA9
:1028700006D1081CFEF754FF484503D0012302E0AF
:10288000012300E00023002B16D001235B426B6480
:1028900012E0FF239A4604E0FF239A4601E0FF235B
:1028A0009A46281C0021FFF77BFE041E04D1296BE9
:1028B00000298CD100E00424002C01D000232B63DC
:1028C000201C1CBC90469946A246F0BDF8B5041CDD
:1028D0000E1C05680021FFF78DFD002827D1002779
:1028E000281C216BFFF702F8002820D12B78042B3D
:1028F00005D1636B1B78DB43DBB2DB090AE0636B5A
:102900001B78E52B03D0002B03D1013302E0012318
:1029100000E00023002B03D00137B74201D106E0CD
:102920000027201C0121FFF73BFE0028D8D00428F7
:1029300000D10330F8BDC046F8B5051C03681E6918
:10294000B41C301CFEF7FAFE011C201CFEF78EFDA5
:1029500077780137281C696CFFF74CFD041C16E0E2
:102960002868296BFEF7C2FF041E12D1686B311C68
:102970002022FEF7A3FD01232A68D370013F002F18
:1029800007D02036281C0021FFF70AFE041C002C6B
:10299000E6D0201C022C00D90220C0B2F8BDC046EF
:1029A000F0B55F4656464D464446F0B483B0814686
:1029B0008A460B6898460368DD68002400235F1C84
:1029C0004246D05680B21F282CD92F2803D05C282D
:1029D00008D100E001374346DB5D2F2BFAD05C2B9A
:1029E000F8D01FE0FE2C00D933E1FF23184001216D
:1029F000FEF736FC061E00D12DE17F2807D89C4843
:102A0000311CFEF781FD002803D1002302E00023E2
:102A100000E00123002B00D01FE16300EE523B1CBD
:102A20000134CCE7474453461F601F2802D80423D3
:102A3000984601E000239846012C05D18D4BE31800
:102A40005B005B5B2E2B0DD0022C2DD1894BE31844
:102A50005B005B5B2E2B27D1874BE3185B005B5B36
:102A60002E2B21D16300ED1800232B8009E0A34217
:102A700001D22E2100E020214A46D21838321170AE
:102A800001330A2BF3D94B443833202241461143FA
:102A900019700020E4E0774BE3185B00EB5A202B21
:102AA00001D02E2B02D1013C002CF4D16300EB1895
:102AB00000221A80002C00D1D1E048463830202175
:102AC0000B32FEF705FD002300E001335A00525B94
:102AD000202AFAD02E2AF8D0002B05D00322414616
:102AE0001143884600E0013C002C05D108229346A2
:102AF00000229246019206E05E4AA2185200525B02
:102B00002E2AF0D1F2E75F1C5B00EE5A002E6BD04C
:102B1000202E03D02E2E07D1A74205D003234246F4
:102B20001A4390463B1CEEE7DA4501D2A74219D181
:102B30005B460B2B04D1083B42461A43904653E0B8
:102B4000A74203D0032342461A439046A7424BD8DC
:102B5000019B9B00DBB20193231C0B229346033A9B
:102B60009246D0E77F2E0CD9301C0021FEF778FB6F
:102B7000061E02D08038414B1E5C022342461A4397
:102B80009046002E07D03E48311CFEF7BDFC0028C1
:102B900003D0012302E0012300E00023002B05D035
:102BA000032342461A4390465F2614E0331C413B00
:102BB0009BB2192B04D80223019A1A4301920AE00E
:102BC000331C613B9BB2192B05D80123019A1A4390
:102BD0000192203EB6B24B46534438331E703B1C24
:102BE00001229446E2448EE738234A46D35CE52B23
:102BF00003D10522AD3B4946CA545B46082B03D19D
:102C0000019B9B00DBB201930C2201990A400C2A24
:102C100003D003230B40032B03D102234146194366
:102C2000884643469B070ED4032301990B40012B92
:102C300003D10F33414619438846042A03D10823A0
:102C400042461A43904643234A464146D154002007
:102C500006E0062004E0062002E0062000E0062050
:102C600003B03CBC90469946A246AB46F0BDC04678
:102C7000AC670000FFFFFF7FFEFFFF7FE8670000FB
:102C8000B8670000F0B5474680B4071C88460026A8
:102C90004024002512E0E30600D102343819FEF783
:102CA000AFFB0021FEF7DCFA00280CD0FE2D0CD87B
:102CB00043465B1998760234013601352323FB5CC9
:102CC000B342E8D802E0002500E00025002D04D141
:102CD00043465B193F229A76013545440023AB7683
:102CE000424653733B791373DB0604D4381C3830E7
:102CF000FEF798FB01E00020002143461860596070
:102D0000381C0C30FEF77CFB43465881381C0E30D3
:102D1000FEF776FB4346188104BC9046F0BDC046E2
:102D2000F0B5474680B4076800238B76036B002B11
:102D30007DD00D1C061C3B78042B03D13869FFF7AE
:102D4000A1FF74E0436C01330CD11BE00021FEF7BE
:102D500087FA002810D0FE2C10D82B1998764346FD
:102D6000013401E0002300245A1C90465B00FA68FD
:102D7000D05A0028EAD102E0002400E000242C19F7
:102D80000023A3761A242C57A4B2002200232FE09C
:102D9000591C706BC35C202B29D0052B00D1E0336C
:102DA000092908D1002C02D1A8182E278776A81847
:102DB0002E2747730132A8184373002C16D1D8B2BE
:102DC0008046071C413F192F0ED8776B3F7B08299F
:102DD00002D91020844601E008208446604638422B
:102DE00002D040462030C3B2A818837601320B1CB3
:102DF0000A2BCDD9002C07D1AB1800219976736B23
:102E00001B7B002B00D10022AA1800245473736B83
:102E1000DB7A2B73706B1C30FEF7F8FA28606C605D
:102E2000706B1630FEF7F2FA6881000C288104BC42
:102E30009046F0BD38B5002417E0FEF731FA0123C3
:102E4000234001D080231B0264101919FF23034083
:102E5000CB189BB201221A4001D0802212025B10D3
:102E60000012D3181B189CB2281C851C008800284F
:102E7000E3D1201C38BDC046F8B54F464646C0B425
:102E8000071C884600214022FEF722FB85233B7069
:102E9000C022653BFA543C1C24344046FFF7CAFF6D
:102EA000011C201CFEF7E2FA0125002601239946A9
:102EB0004024631CC1223A550234FB1800221A70C8
:102EC000002D06D073004246D55A002D03D00123B1
:102ED00002E0002300E00023002B01D00136F6B20F
:102EE0003819291CFEF7C2FA0234E306E8D14B4632
:102EF0000133DBB2994673004246D35A002BD8D136
:102F00002333FE544B467B700CBC90469946F8BD6B
:102F1000F0B557464E46C0B483B081460D1C081C20
:102F20001A30FEF76DFA00283DD12B783F261E405F
:102F3000731E5E00F618B600F6180127002424E080
:102F4000214B185D2818FEF75BFA0190002F18D06E
:102F5000FE2E0ED8FEF7A4F9071C731C9A467600C5
:102F60004B46985BFEF79CF9874204D156460023F6
:102F700003E0012301E056460123002B15D1019FF8
:102F800002E0124A904212D101340C2CD8D92B788D
:102F90005B060ED5002F0ED076004B469B5B002BB8
:102FA0000BD101200AE0002008E0002006E000200C
:102FB00004E0012002E0012000E0002003B00CBC8E
:102FC00091469A46F0BDC04674670000FFFF0000BE
:102FD000F8B55F4656464D464446F0B4051C0768B2
:102FE0000021FFF707FA002800D0BBE03B78042B54
:102FF0003CD1F868FFF71EFF81462EE03E69301C89
:103000002430FEF7FDF9814527D12323F65C002308
:103010009A46402417E0E30600D102343B691819B0
:10302000FEF7EEF9FEF73CF9834653465B00FA687B
:10303000D05AFEF735F9834507D1013EF6B2023486
:1030400001239C46E244002EE5D1002E05D15346D3
:103050005B00FA689B5A002B06D0281C0021FFF762
:10306000A9FB80460028C9D040467BE001235B4293
:103070006B640133FF3399469846381C296BFEF781
:1030800035FC041E6DD16E6B3278002A68D0F17A5F
:103090003F230B40AB71E52A03D0090708D50F2B5E
:1030A00006D001235B426B640133FF33984650E046
:1030B0000F2B25D13433EB5C5B064AD4530606D57F
:1030C000737B994640239A43AB6A6B6490464245B2
:1030D0000DD1737B4B450DD1F868311CFFF718FFFC
:1030E00000280AD04346013BDBB2984631E0FF237B
:1030F00098462EE0FF2398462BE0FF23984628E0D1
:103100004346002B07D1301CFEF70AFB484505D08B
:103110000023984604E00023984601E001239846E6
:103120004346002B1DD14333EB5CDB0709D4291C3C
:103130003831301C0B22FEF7D1F9002801D10123D0
:1031400098464346002B0CD1013B6B640133FF339F
:103150009846281C0021FFF723FA041E8DD000E0BA
:103160000424201C3CBC90469946A246AB46F8BDC0
:1031700070B594B0041C019106680B782F2B06D013
:103180005C2B04D0F369836009E001330193019B58
:103190001A782F2AF9D05C2AF7D00023A36033785D
:1031A000042B1BD1A368002B18D0336AE361736A28
:1031B0002362B36A636202A8211CFFF7E3FA0028C6
:1031C0006AD130693830FEF721F92061002363614C
:1031D00021333269D35C02221340E371019B1B78D7
:1031E0001F2B08D880224323E254201C0021FFF724
:1031F00001F9051C4FE0201C01A9FFF7D1FB051EBA
:1032000049D1201CFFF7E4FE4323E35C00280DD0E6
:10321000042839D19A0605D55B07ECD580224323D3
:10322000E25438E05B0731D5051C34E05B072FD44E
:10323000A379DB062ED53378042B1BD1A368E36179
:10324000FF2322699A43E37913432362636C636229
:1032500030693430FEF7DAF8A06021233269D35C9C
:1032600002221340E37130693830FEF7DBF8206149
:103270006161C0E7A36AD905C90D58317118301CC6
:10328000FEF758F9A060B6E7051C04E0052502E04A
:10329000051C00E00525281C14B070BDF0B557468C
:1032A0004646C0B495B007684323C35C5F2293438E
:1032B00000D0EDE0002400E001346300FA689B5A7E
:1032C000002BF9D1061C3B78042B50D1201C0E306A
:1032D0000F21FDF72BF9041C811C301CFFF7F6FAB7
:1032E000002800D0D9E06F4B9C4664446401B36A67
:1032F0001C1B7464B368002B33D0F3795A0730D5A4
:1033000003221340F37179894A02002330697169FD
:1033100012184B4132617361301CFEF7F3FE002836
:1033200000D0BAE002A8311CFFF72CFA002800D028
:10333000B3E03869383032697369FEF7A3F8386949
:10334000283032697369FEF79DF8F279012313433F
:10335000212239698B5402A8FFF7EEFA002800D029
:103360009BE03869F968FFF787FD002095E0382376
:103370009C4684446346009302A861460C22FEF7F3
:103380009DF802ABDB7ADB071CD540224323F254C5
:1033900001250CE0009802A9FA682B1CFEF776F9CB
:1033A000301CFFF715FE8046002802D10135632D41
:1033B000F0D9642D6ED04346042B6DD102ABDA7A7E
:1033C0004323F25402ABDB7A9B0706D5201C0C305A
:1033D0000D21FDF7ABF8451C00E00125301C291C30
:1033E000FFF774FA041E05D1013D002D05D001231D
:1033F0009A4604E000239A4601E000239A46534689
:10340000002B29D06901B36A591A301CFEF7F2FF6C
:10341000041E21D10098FEF783F90190381C316B0E
:10342000FEF764FA041E17D1EAB2F868716B019BCB
:10343000FEF7EAF80123FB70301C0021FFF7B0F81B
:10344000041E04D1013D002D03D0534602E00023A9
:1034500000E00023002BE1D1002C17D1381C316B88
:10346000FEF744FA041E11D1706B00212022FEF7F2
:103470002FF8706B00990B22FEF720F8726B432334
:10348000F35C18210B4013730123FB70201C04E034
:10349000062002E0072000E0404615B00CBC904634
:1034A0009A46F0BD0100000870B5051CFEF7F0F962
:1034B000041E3AD12B78032B2FD12B79012B2CD141
:1034C0002E1C5836301C002180229200FEF700F896
:1034D000174BE8181749FDF7C9FF301C1649FDF7CF
:1034E000C9FF8F239B00E8181449FDF7C3FF902301
:1034F0009B00E818A969FDF7BDFF91239B00E81820
:103500006969FDF7B7FF6B6B5A1C6A646878311CF8
:103510000123FDF73DFF00232B7168780021002275
:10352000FDF74EFF002800D00124201C70BDC046CE
:103530005602000055AA0000525261417272416168
:10354000F0B55F464646C0B49BB00591002800D157
:1035500080E1141C061C3F2313401D1C05A807A96D
:103560001A1CFEF72DFA071E00D06DE1079B089389
:1035700008A80599FFF7FCFD071E05D1432308AAFB
:10358000D356002B00DA06371C23234200D1B1E0CA
:10359000002F08D0042F03D108A8FFF77FFE071CD7
:1035A00008231D430AE008AB9B7911221A4202D17D
:1035B000630702D402E0072700E00827002F00D0AD
:1035C000A6E02B0700D4A3E0FDF714FF0390079BB0
:1035D0001A78042A4FD13360079C20693430FDF7F4
:1035E00015FFB06020693830FDF71CFF3061716154
:1035F00021372369DB5D02221340F3712069083013
:103600000399FDF737FF079B00241A6914751869A1
:103610000C300399FDF72EFF079B1A695475202281
:1036200019690A71186934300021FDF723FF079BDF
:103630001869383000220023FDF724FF079B186922
:10364000283000220023FDF71DFF079B1B69012284
:10365000DA5508A8FFF770F9071E59D1B16800299B
:1036600056D0301C221CFEF721FF071CB368013B1B
:10367000079A53614CE0159B0493181C0E30039C71
:10368000211CFDF7F7FE159B0393181C1630211C17
:10369000FDF7F0FE159B03932023039AD372079B3B
:1036A000159C0393181C211CFDF744FF83460398C7
:1036B000211C0022FDF750FF15981C300021FDF75A
:1036C000D9FE0123079AD3705B46002B20D0079BBD
:1036D0005C6C08A859460022FEF7E8FE071E17D1C9
:1036E0000798211CFEF702F9071C5B46013B079A6D
:1036F00053610DE0002F0BD108AB9B79DA0604D49F
:10370000A20705D5DB0702D402E0042700E0072763
:10371000002F08D12B0701D540231D43079B5B6C6D
:103720003364159B7364002F00D08DE0079C2378D1
:10373000042B1CD120693430FDF768FEB06020698D
:103740003830FDF76FFE3061716122692123D35C4F
:1037500002221340F37108AB0A9AF261FF220C991E
:103760009143DA790A433262199B73620DE0159B2B
:103770009846201C191CFDF7DDFEB06040461C3049
:10378000FDF744FE306100237361079B3360DB88E3
:10379000B3802823F55400232922B354F363002275
:1037A00000233263736348239B46B3445846002189
:1037B00080229200FDF78CFEAB0645D53469756911
:1037C000231C2B4340D034637563079B5B895B02EA
:1037D0000393B1680DE0301CFEF7AEFC011E012919
:1037E00000D802274B1C00D10127009A019BA41A84
:1037F0009D41002F0BD1039B009300230193002DCB
:10380000E9D1009A019B9D4201D19442E3D8B16372
:10381000002F19D1E30517D0079B9846181CFDF718
:103820007DFE00280DD0EB05640A1C430219F263EB
:103830004346587859460123FDF792FD002802D1EE
:1038400002E0022700E00127002F01D000233360AF
:10385000381C00E009201BB00CBC90469B46F0BD14
:10386000F0B55F4656464D464446F0B487B0051C59
:103870008A4690469B4600235A461360039005A94A
:10388000FDF7DCFF002805D12923E85C002803D1DF
:10389000002302E0012300E00123002B00D0C9E057
:1038A0002833EB5CDB0700D4C3E02A696B69286B23
:1038B000696B121A8B414146002B00D0B3E0914254
:1038C00000D8B0E09046AEE02B6B686BDA0500D014
:1038D00087E0C205590A1143059A5289013A1140FD
:1038E000894616D1034301D1A86803E00398A96B68
:1038F000FEF722FC012804D802222923EA540220E0
:1039000098E0431C04D101222923EA54023091E0BB
:10391000A863059B0293181CA96BFDF7FFFD002807
:1039200004D102222923EA54023083E0031C4B44D1
:10393000019343465C0A28D04B461B19029A5289D0
:10394000934201D94B46D41A029B5878E3B25146B0
:10395000019AFDF705FD002804D001222923EA542D
:10396000012067E02823EB5C7F2B0CD9EB6B019ADD
:10397000981AA04207D240025044291C48318022A4
:103980009200FDF79BFD64023CE0EA6B019B9A42CA
:1039900025D02823EB5C7F2B12D9029B5878291C59
:1039A00048310123FDF7F4FC002804D0012229232B
:1039B000EA5401203EE02822AB5C7F210B40AB544F
:1039C000059B5878291C4831019A0123FDF7C8FC52
:1039D000002804D001222923EA5401202AE0019B77
:1039E000EB63296BCC05E40D80239B001C1B444535
:1039F00000D94446C905C90D483169185046221CF2
:103A0000FDF75CFDA244261C00272A6B6B6B921904
:103A10007B412A636B635B461B681B195A46136024
:103A200043461B1B98464346002B00D04CE7002022
:103A300000E0072007B03CBC90469946A246AB4642
:103A4000F0BDC04670B594B0041C01A9FDF7F6FEA8
:103A5000002800D08FE02823E35C5A0600D48AE0D7
:103A60005BB2002B0EDA019B5878211C4831E26BC7
:103A70000123FDF78DFC00287CD12822A35C7F2147
:103A80000B40A354FDF7B6FC051C01980378042BEA
:103A900046D1201CFEF736FB00286CD102A8211C61
:103AA000FEF770FE002866D1019B19690879202273
:103AB00002430A71E17901220A4321211869425423
:103AC00018693430A168FDF7D5FC019B18693830BE
:103AD00022696369FDF7D6FC019B186928302269C9
:103AE0006369FDF7CFFC019B18690C30291CFDF7B9
:103AF000C1FC019B002219694A7518691030002128
:103B0000FDF7B8FC02A8FEF717FF002833D1019893
:103B1000FFF7CAFC2822A35C40218B43A3542AE070
:103B2000216CFDF7E3FE002825D1666CF27A202394
:103B30001343F3722068311CA268FDF70DFD301CA1
:103B40001C302169FDF796FC301C1630291CFDF74E
:103B500091FC301C12300021FDF788FC0123019AF2
:103B6000D3700198FFF7A0FC2822A35C40218B436F
:103B7000A35400E0012014B070BDC04610B582B05F
:103B8000041CFFF75FFF002807D1201C01A9FDF7E7
:103B900055FE002801D10023236002B010BDC046AD
:103BA00070B584B00191002850D0051C01A803A96C
:103BB0000022FDF705FF041E42D1039B2B60281C49
:103BC0000199FFF7D5FA041E37D14323EB56002B9A
:103BD00029DBAB79DB0625D5039E3378042B1BD17B
:103BE000AB68EB61FF232A699A43EB7913432B629D
:103BF0006B6C6B6230693430FDF708FCA86030698B
:103C00003830FDF70FFC2861696132692123D35CEC
:103C100002221340EB7106E0301C696BFDF78AFC51
:103C2000A86000E00524002C07D1039BDB88AB8053
:103C3000281C0021FEF7DEFB041C042C00D10134FB
:103C4000002C01D000232B60201C00E0092004B0D0
:103C500070BDC04610B582B0041C01A9FDF7EEFD91
:103C6000002801D10023236002B010BD70B582B0DE
:103C7000051C0E1C01A9FDF7E1FD041E1BD1002E41
:103C800005D1281C0021FEF7B5FB041C13E0281CFD
:103C90000021FEF78FFD042800D0041C002C0AD15F
:103CA000281C311CFFF73CF8281C0021FEF778FC8B
:103CB000042800D0041C201C02B070BD08B5FFF71A
:103CC0003FFC08BD08B5FFF759FF08BD00B583B03C
:103CD00001ABFFF7C5FD002801D1019800E00020ED
:103CE00003B000BD08B5FFF75BFF08BD08B5FFF7DF
:103CF000B1FF08BD08B501F095FB08BD08B501F09E
:103D00009BFB08BD10B5041C0021102201F0C6FE6B
:103D10000120012101F0EEF92060002801D00023EC
:103D2000E360201C10BDC04670B5041C0E1C0021B1
:103D3000102201F0B3FE301C02F030F9051C0130F6
:103D400001F070FB2060002808D0311C02F01EF941
:103D500065600023E360A3680133A360201C70BD8D
:103D600070B5041C0E1C0021102201F097FE75682E
:103D7000681C01F057FB2060002808D0316802F071
:103D800005F965600023E360A3680133A360201C8C
:103D900070BDC04610B5041C0068002801D001F0B9
:103DA0004BFB201C0021102201F078FE201C10BDCE
:103DB000F8B5002918D00E1C041C081C02F0EEF8FF
:103DC000071C411C206801F0B3FE051C0023037092
:103DD000002809D0311C02F0B1F825606760A368A3
:103DE0000133A3600023E360F8BDC046F8B50029A5
:103DF00015D00D1C041C4F68791C006801F098FE5A
:103E0000061C00230370002809D0296802F096F8E8
:103E100026606760A3680133A3600023E360F8BDF8
:103E2000F8B50368002B18D0002916D00D1C041C0F
:103E3000426849688C466244161C511C181C01F0EB
:103E400077FE071E09D0296802F078F827606660BF
:103E5000A3680133A3600023E360F8BDF0B54746D3
:103E600080B482B0071C8846082904D07F2905D178
:103E70000126764203E00126764200E001267C68B6
:103E8000002C01D1731C17D0A419611C386801F0F3
:103E90004FFE051E10D0731C06D001A943460B70BF
:103EA00000234B7002F04AF82A19002313703D607A
:103EB0007C600122BA60FB6002B004BC9046F0BD99
:103EC00010B5041C0068012101F032FE00230370CC
:103ED00063602060E360A3680133A36010BDC04647
:103EE000F0B5474680B40468002C18D08B1844689D
:103EF000A34211D2151C8846071C501C01F092FAEF
:103F0000041E0BD000260670396841442A1C02F0BA
:103F1000C5F865192E7002E0002400E00024201C82
:103F200004BC9046F0BDC04670B5021C0068002875
:103F300015D053688B420FD90E1C151C581A01302E
:103F400001F070FA041E09D0002303702968891952
:103F500002F01CF8201C02E0002000E0002070BDF0
:103F600010B5041C0023037043708370C370037189
:103F700043718371C3710120042101F0BBF82060FB
:103F8000201C10BD38B5041C0368002B11D118E0AB
:103F90000D4A944663449B0022689D58002D05D02D
:103FA000281CFFF7F7FE281CFFF7A8FE6368013BFB
:103FB00063606368002BEBD1206801F03DFA0023B9
:103FC0002360201C38BDC046FFFFFF3FF8B5002925
:103FD0002ED000282ED00368002B2DD00D1C041CE1
:103FE0001020FFF787FE061C291CFFF7B9FE002EE4
:103FF00024D06368591C8900206801F099FD071ED0
:1040000009D1002E1CD0301CFFF7C4FE301CFFF776
:1040100075FEFD2015E0301C291CFFF7E7FE6368E4
:104020009B00FE502760636801336360002008E056
:10403000FA2006E0FE2004E0FF2002E0FD2000E080
:10404000FD2040B2F8BDC04670B5002920D0002840
:1040500020D00368002B1FD00D1C041C1020FFF77C
:1040600049FE061C291CFFF75FFE002E16D0636870
:10407000591C8900206801F05BFD002810D063689E
:104080009B00C6502060636801336360002008E035
:10409000FA2006E0FE2004E0FF2002E0FD2000E020
:1040A000FD2040B270BDC046F8B500293ED00028C2
:1040B0003ED00368002B3DD0141C0F1C051C436828
:1040C000134302D1FFF782FF39E01020FFF712FE01
:1040D000061C391CFFF744FE002E2DD06B68591CBE
:1040E0008900286801F024FD002809D1002E25D080
:1040F000301CFFF74FFE301CFFF700FEFD201EE0D6
:104100006B68191B08E00B199A000E4FBC466344FC
:104110009B001B58835001390029F4D1A40006519B
:1041200028606B6801336B60002008E0FA2006E02D
:10413000FE2004E0FF2002E0FD2000E0FD2040B270
:10414000F8BDC046FFFFFF3FF8B500282BD003683D
:10415000002B2AD042688A4229D90D1C041C8E00EB
:104160009F59002F05D0381CFFF714FE381CFFF7AD
:10417000C5FD2368B6009819691C090159186368C0
:104180005A1B013A920001F03DFC6368591E8900F8
:10419000206801F0CDFC20606368013B636000286B
:1041A00007D1FD3006E0FE2004E0FF2002E0FC2005
:1041B00000E0002040B2F8BDF0B55F4656464D46DF
:1041C0004446F0B483B081460E1C01920023037074
:1041D00043708370C370037143718371C3717068DE
:1041E00090422BD38000141C801A01F01BF98346E7
:1041F000002823D0002715E0A300984633684246E4
:104200009B585868013001F00DF9051E0ED0336837
:1042100042469B58196801F0B9FEBB005A46D5507A
:104220000134013773689A46A342E5D85346019A90
:104230009B1A4A4653604B465A461A60484603B09A
:104240003CBC90469946A246AB46F0BD10B5041C56
:104250000368002B0BD110E0094A944663449B008D
:104260002268D05801F0E8F86368013B6360636836
:10427000002BF1D1206801F0DFF8201C10BDC046F2
:10428000FFFFFF3F70B5444CA544051C141C684655
:10429000FFF738FD21686846FFF78AFD019B5A1E2B
:1042A00004E0009B9B562F2B02D0013A531CF8D1FF
:1042B000541C6846211CFFF737FE061C04A8311C5D
:1042C000FFF732FD002E02D0301C01F0B5F8684631
:1042D0000021221CFFF704FE041C08A8211CFFF784
:1042E00023FD002C02D0201C01F0A6F86B68196891
:1042F0000CA8FFF719FD281C0CA908AA00F050F81B
:10430000002805D02869254900F08AFDF52431E010
:1043100018A800219222920001F0C0FB0D9B002BF7
:1043200008D00CA82F21FFF799FD0CA804A9FFF7CE
:1043300077FD03E00CA804A9FFF758FD18A80C9915
:104340000122FFF7BBFC011E04D00FE0E86810A9B2
:1043500000F01CFD18A810A92022FFF7B7FC021ED0
:10436000F4D118A8FFF7AEFC002403E0281C00F0ED
:10437000C3FA00240CA8FFF70DFD08A8FFF70AFDFB
:1043800004A8FFF707FD6846FFF704FD60B2AA2303
:104390009B009D4470BDC04658FDFFFF686800004B
:1043A000F0B59BB0061C0D1C141C6846FFF7AAFC58
:1043B0006368002B04D02268127852B22F2A0AD0E8
:1043C000012B2CD92268002151565C2927D1527823
:1043D00052B25C2A23D1201C0121FFF7A5FD041C49
:1043E0006846211CFFF7E4FC002C02D0201C01F0E1
:1043F00023F808A80021482201F050FB08A80099E2
:10440000FFF770FC002808D108A8FFF76FFC281CF4
:104410006946FFF7EBFC0024B8E0F524B6E0012B79
:104420002CD92268002151565C2927D1527852B2EA
:104430005C2A23D1201C5A39FFF776FD041C6846FC
:10444000211CFFF7B5FC002C02D0201C00F0F4FF6B
:1044500008A80021482201F021FB08A80099FFF7D5
:1044600041FC002808D108A8FFF740FC281C694639
:10447000FFF7BCFC002489E0F52487E0012B08D974
:104480002268002151565C2903D1527852B25C2A2D
:1044900079D1022B49D92268002151562E2944D1C5
:1044A000012151562E2940D1927852B22F2A3CD167
:1044B0006A68002A69D0013A04E02B689B562F2BCA
:1044C00002D0013A531CF8D1281C0021FFF708FD47
:1044D000071C6846391CFFF76BFC002F02D0381C04
:1044E00000F0AAFF08A80021482201F0D7FA08A886
:1044F0000099FFF7F7FB002815D108A8FFF7F6FB96
:10450000281C6946FFF772FC2168033104A8FFF7F5
:104510000BFC301C291C04AAFFF742FF04A8FFF77C
:1045200039FC002432E0F52430E0002B27D06B6802
:10453000002B0CD06846291CFFF758FC68462F2139
:10454000FFF78CFC6846211CFFF76AFC03E0684615
:10455000211CFFF74BFC08A80021482201F09EFA1D
:1045600008A80099FFF7BEFB00280AD108A8FFF7AA
:10457000BDFB281C6946FFF739FC002406E0002437
:1045800004E0F52402E0F52400E000246846FFF78B
:1045900001FC60B21BB0F0BDF0B585B0051C0E1C6F
:1045A000171C6846FFF7AEFB002000240AE0A300BA
:1045B000F9586846FFF7FCFB281C69686A46FFF754
:1045C000EFFE0134B442F2DB002805D02869064929
:1045D00000F026FCF52400E000246846FFF7DAFB33
:1045E00060B205B0F0BDC0466868000038B5041C74
:1045F0000D1C012805D1074B994202D10648FFF74F
:10460000AFFC002C05D1034B9D4202D10248FFF7BD
:10461000B9FC38BDFFFF00005CFEFF1FF0B583B0A2
:10462000051C0F1C161C019300211C2201F036FAF8
:104630000C20FFF75FFB041C391C00F05FFBAC6033
:104640000C20FFF757FB041C311C00F057FBEC60FB
:104650000C20FFF74FFB041C019900F04FFB2C616D
:104660001020FFF747FB041CFFF74CFB6C60102089
:10467000FFF740FB041CFFF745FB2C60281C03B030
:10468000F0BDC046F8B5071C0E1C134B5D68002D2D
:1046900011D119E0104B1B68A200D358186831687B
:1046A000FBF7D6FF002804D10B48211CFFF74CFD77
:1046B00004E0013400E00024AC42EBD30648311C96
:1046C0000022FFF7F1FC02E00348FFF77FFC002324
:1046D0007B610020F8BDC0465CFEFF1F38B5041C9E
:1046E000081C084D63699B002A68D158FFF77EFBC0
:1046F00062696B68013B9A4201D20132626100201B
:1047000038BDC0465CFEFF1F10B5041C081C636961
:104710009B00064A1268D158FFF768FB6369002BBB
:1047200001D0013B6361002010BDC0465CFEFF1F4D
:1047300070B582B0041C00230093C4E000997F2967
:1047400015D105E0E0687F2100F0AEFB013500E007
:10475000002520684368AB42F4D8009B59B2FFF7AC
:104760007DFB23681968E06800F03EFBABE01B2985
:1047700002D101232376ADE0237E002B03D05B29F9
:1047800001D16176A6E0002B28D0637E5B2B25D17A
:1047900005E0E0687F2100F087FB013500E000259F
:1047A00021684B68AB42F4D8009B412B08D1201CF8
:1047B000FFF794FF23681968E06800F015FB09E033
:1047C000422B07D1201CFFF79FFF23681968E06880
:1047D00000F00AFB0023237663767BE00D290CD0E2
:1047E00049B22068FFF73AFB009B59B2E06800F03D
:1047F0005BFB00232376637665E0E068374900F0D1
:10480000F3FA206801A900F0E5F80820FFF772FA32
:10481000051C01990122FFF7CFFC002D27D0019B39
:104820001B681B681E68301C2D49FBF711FF002810
:1048300005D1201C69682A6800F088F81BE0301C4C
:104840002849FBF705FF002805D1201C69682A6864
:10485000FFF7A2FE0FE0301C2349FBF7F9FE00280A
:1048600009D1201C69682A68FFF70CFD03E0206964
:104870001E4900F0D5FA201C2168FFF703FFE0680D
:104880001B4900F0B1FA63681968E06800F0ACFAFF
:10489000E068184900F0A8FA019E002E05D0301CEF
:1048A000FFF770FB301CFFF729FA002D05D0281CFC
:1048B000FFF7CCFC281CFFF721FA2068FFF700FB6C
:1048C000002323766376A068694600F02DFB00285C
:1048D00000D133E7002002B070BDC0467868000008
:1048E0007C68000080680000846800008868000020
:1048F000986800009C68000010B5041C132906DCB1
:104900008900074BC958006900F08AFA03E0006982
:10491000044900F085FA2069034900F065FA10BDEA
:10492000CCF0FF1FA06800007868000008B50120E7
:104930000149FFF75BFE08BDFFFF000008B500203E
:104940000149FFF753FE08BDFFFF000010B5DAB0C4
:10495000041C68460021482201F0A0F86368196829
:104960006846FFF71DF9011E29D1684612A9FFF715
:104970007DF900281FD112AB9B7E002B1BD012AB00
:104980001B7BDB060DD5E068104900F02DFAE068CE
:104990006221694400F028FAE0680D4900F024FA29
:1049A000E3E7E0686221694400F01EFAE068084924
:1049B00000F01AFAD9E76846FFF74CF902E0201C2C
:1049C000FFF79AFF00205AB010BDC046BC6B000034
:1049D00078680000F8B5061C0F1C0820FFF78AF95C
:1049E000051CFFF7BDFA1020FFF784F9041C31689D
:1049F000FFF79AF9002642E0226891190B78202BE4
:104A000003D02C2B01D0002B34D11378202B03D0D2
:104A10002C2B01D0002B0FD1201C0121FFF784FA91
:104A2000061C201C311CFFF7C3F9002E24D0301CBB
:104A300000F002FD002622E000230B70281C2168F4
:104A4000FFF702FB6368B34204D8201CFFF738FA73
:104A5000002614E0711C201CFFF766FA061C201CBF
:104A6000311CFFF7A5F9002E08D0301C00F0E4FC43
:104A7000002604E0013602E0002600E00026002CBB
:104A800002D06368002BB7D13D600020F8BDC0465E
:104A9000F8B5061C0F1C00250D4BDB68002B07D05A
:104AA000AA00D458002C03D02379002B00D003D1C6
:104AB00000233B60F52009E0201D311CFBF7C8FDF9
:104AC000002801D00135E7E73C60002040B2F8BD86
:104AD00064FEFF1FF8B5061C0F1C00250F4B1B6959
:104AE000002B0BD0AA00D458002C07D0201C243057
:104AF000002803D02423E35C002B03D100233B6078
:104B0000F52008E0311CFBF7A3FD002801D001359A
:104B1000E4E73C60002040B2F8BDC04664FEFF1FE1
:104B2000F8B5061C0F1C00250E4B5B69002B09D045
:104B3000AA00D458002C05D0201D002802D02379CB
:104B4000002B03D100233B60F52008E0311CFBF76C
:104B50007FFD002801D00135E6E73C60002040B22F
:104B6000F8BDC04664FEFF1FF8B5061C0F1C0025EB
:104B70000E4B9B69002B09D0AA00D458002C05D0FD
:104B8000201D002802D02379002B03D100233B6095
:104B9000F52008E0311CFBF75BFD002801D0013552
:104BA000E6E73C60002040B2F8BDC04664FEFF1F4F
:104BB000F0B5474680B4051C00211C2200F06EFFB2
:104BC000002407E063001B19DB00314A9B5C002BCB
:104BD00003D001342F4B9C42F4D9611C8900012081
:104BE00000F088FAE86000261AE073009B19DB00E9
:104BF000274A9B5C002B12D03C20FFF77BF88046B5
:104C0000B700EB689C466744002806D073009B19E8
:104C1000DB001F495918FBF7DFFE43463B600136B6
:104C2000A642E2D3002407E0E3001B1B9B001A4AC4
:104C30009B5C002B03D00134164B9C42F4D9611CC1
:104C40008900012000F056FAA86100261AE0F3005E
:104C50009B1B9B00104A9B5C002B12D02C20FFF763
:104C600049F88046B700AB699C466744002806D0E7
:104C7000F3009B1B9B0008495918FBF785FF43462F
:104C80003B600136A642E2D3281C04BC9046F0BD2E
:104C90003CF0FF1FFF01000004F0FF1F38B5041CAB
:104CA0000D1C012808D1094B994205D10848FBF792
:104CB0004DFD0848FFF77CFF002C05D1034B9D42BA
:104CC00002D10348FBF708FD38BDC046FFFF0000D6
:104CD00080FEFF1F64FEFF1F7047C04608B501201D
:104CE0000149FFF7DBFF08BDFFFF000008B500200A
:104CF0000149FFF7D3FF08BDFFFF000030B585B0C5
:104D0000041C0D1C0023037043708370C370037177
:104D100043718371C371037243728372C372081C3F
:104D20006946FFF7B5FE002804D1009B63600123AC
:104D3000637023E0281C01A9FFF7CCFE002804D1F2
:104D4000019B63600323637018E0281C02A9FFF72E
:104D5000E7FE002804D1029B6360042363700DE02A
:104D6000281C03A9FFF700FF002804D1039B636000
:104D70000223637002E0002363706360201C05B0AF
:104D800030BDC046002343704360704770B546682D
:104D9000002E1CD04578002D1CD000291DD0131CDE
:104DA0000A1C032D04D0042D07D0022D18D109E0D0
:104DB000017A301CFBF786FE14E0301C1A1CFBF74E
:104DC00099FE0FE0301C1A1CFBF7F2FF0AE01120DD
:104DD000404207E01120404204E01120404201E03F
:104DE0000820404270BDC04608B54268002A0AD07B
:104DF0004378002B0AD000290BD0022B0CD1101CB9
:104E0000FBF7C2FF0AE01120404207E011204042B8
:104E100004E01120404201E00820404208BDC046A5
:104E200008B54268002A0AD04378002B0AD000292E
:104E30000BD0022B0CD1101CFBF7A6FF0AE01120AF
:104E4000404207E01120404204E01120404201E0CE
:104E50000820404208BDC04608B54268002A08D074
:104E60004378002B07D0012B07D1101CFBF7B6FCB1
:104E700004E0EF2002E0EF2000E0F82040B208BD9F
:104E800010B584B0031C0C1C01A8191CFFF736FFD9
:104E900001A8211CFFF7E0FF041C01A8FFF772FF27
:104EA000201C04B010BDC04600B583B06B46D9715C
:104EB0004268002A0ED04378002B0DD0022B0DD172
:104EC000101C6B46D91D0122FBF772FF012807D089
:104ED000F22006E0EF2004E0EF2002E0F82000E0FE
:104EE000002040B203B000BD10B582B04268002A75
:104EF00012D04378002B11D0012B11D10C1C101CA7
:104F000001A9FBF7D9FC019B002B02D001232370E0
:104F100007E00023237004E0EF2002E0EF2000E030
:104F2000F82040B202B010BD10B54268002A14D07B
:104F30004378002B13D00C1C012B02D0022B04D081
:104F40000FE0101CFBF7B8FC0EE0101CFBF700FF95
:104F5000431C08D02060002006E0EF2004E0EF2092
:104F600002E0F82000E0E72040B210BD10B584B0A8
:104F7000031C0C1C01A8191CFFF7C0FE01A8211C72
:104F8000FFF7B2FF041C01A8FFF7FCFE201C04B0D1
:104F900010BDC04630B500290CD0094B1A685B68BB
:104FA0000468456812196B41111C5B005B08816045
:104FB000C36004E080231B06C2681343C36030BD96
:104FC00080F9FF1F70B5041C161C1D1C0021102247
:104FD00000F064FD6D006D0826606560201C0121F5
:104FE000FFF7D8FF201C70BD08B55B005B080260AE
:104FF00043600121FFF7CEFF08BDC046F8B58468C5
:10500000C168002916DB221C49004B080B490E68B9
:105010004F68341C79004D08121BAB4101246442D7
:10502000E51712196B41002B06DA0121FFF7B2FFD9
:10503000012002E0002000E00020F8BD80F9FF1F01
:1050400008B500F003F8002008BDC04630B595B0A3
:1050500004A814220023FFF7B5FF08A86422002348
:10506000FFF7B0FF204C0DA8211C221C231CFFF7CA
:10507000D5FA01A8211CFFF741FE00251B48FFF7C8
:105080002BFE0DA8FFF754FB04A8FFF7B7FF08A8F5
:10509000FFF7B4FF0028F1D06B46DC1C1448211C3C
:1050A000FFF764FF2378002B14D0002D07D008A849
:1050B000C32292000023FFF797FF002505E008A810
:1050C000B4220023FFF790FF012509480021FFF7D4
:1050D000D7FED3E708A814220023FFF785FF044872
:1050E0000121FFF7CDFEC9E7C06B000064FEFF1F82
:1050F000C86B000008B5031C0A1C03490868191C8A
:1051000000F004F808BDC04648F5FF1F10B5514334
:1051100000F09CF9041E27D0031C083B5A680323A7
:105120009A43043A242A15D8031C132A05D80022CE
:10513000201C1A605A609A6010BD0021083301607B
:1051400041601B2AF3D98160C160242A07D0031C67
:105150001033ECE7002100F0A1FC201CECE7031C5D
:10516000016118334161E2E70020E5E710B5002155
:10517000041C00F0DBFF044B1868C36B002B00D04D
:105180009847201C01F0F0F8D46B0000F8B50C1C17
:10519000061C00F0C9FC204FBB685D6803239D43DB
:1051A0001E4B2C1B9C466444240B1D4B013C2403CA
:1051B0009C4207DD301C002100F0AEFEBB685B198D
:1051C000984204D0301C00F0B1FC0020F8BD6142D0
:1051D000301C00F0A1FE431C0DD001232D1BBA682A
:1051E0001D43104B55601A68301C141B1C6000F0E6
:1051F0009DFC0120EAE7301C002100F08DFEBB6819
:10520000C21A0F2ADEDD08490968401A05490860FC
:1052100001210A435A60D5E74CF5FF1FEF0F00004C
:10522000FF0F000090FEFF1F58F9FF1FF0B5474623
:1052300080B4002949D00C1C051C00F075FC211C11
:1052400008394F6801233C1C9C430A195068984652
:1052500002339843031C5B488668964252D0464608
:1052600053603E420BD10826B4460F688444C91BE4
:10527000E4198F6867455ED0CE68FE60B76001278D
:10528000D61876683E4208D1E4184F4E9368B34270
:1052900000D173E0D268DA6093604C4B27434F60D3
:1052A0000C519C4214D8E408FF3BA210FF3B9340F2
:1052B0004268E4001343436000198368C8608B6050
:1052C0008160D960281C00F031FC04BC9046F0BD20
:1052D000630A042B43D8A30938331A1C5E00B600B6
:1052E0008619B3680327B3423FD05A68BA43A24233
:1052F00002D99B689E42F8D1DA68CA608B609160DF
:10530000D960DFE71C1943463B4206D10B68C91A36
:105310008A68E418CB68D3609A6001222C4B224340
:105320001B684A6081609C42CCD32A4B281C1968B8
:10533000FFF72CFFC6E74646D0184068304209D137
:105340004646E418D36892682643D3609A604E605C
:105350000C51B7E7464626434E600C51B2E7142B7A
:1053600014D85B331A1C5E00B9E7012492109440F4
:10537000221C4468224342601A1CBEE72743D960BE
:105380009960CB608B604F600C519BE7542B04D825
:10539000230B6E331A1C5E00A1E7AA22520093422F
:1053A00004D8E30B77331A1C5E0098E70A4A93424D
:1053B00004D8A30C7C331A1C5E0090E7FC267E22E6
:1053C0008DE7C0464CF5FF1F54F5FF1FFF0100009D
:1053D00054F9FF1F8CFEFF1F5405000070B50D4EE1
:1053E0000D4D0024AD1BAD1005D0A300F3580134C2
:1053F0009847A542F9D101F0EFFB084E084D002473
:10540000AD1BAD1005D0A300F35801349847A54259
:10541000F9D170BDF86B0000F86B0000F86B00006C
:10542000086C000008B5034B011C186800F00EF86A
:1054300008BDC04648F5FF1F08B5034B011C18689E
:10544000FFF7F4FE08BDC04648F5FF1FF0B55F4604
:105450004D4656464446F0B40D1C0B3583B0071C30
:10546000162D2DD907239D4300D5C7E0A94200D9A9
:10547000C4E000F059FBF823FF339D4228D8E90827
:10548000CB4ECB00F318DC689C4200D1C1E1032372
:1054900062689A43131CE268A168CA6091600122A5
:1054A000E3185968381C0A435A6000F03FFB201C7F
:1054B000083003B03CBC90469946A246AB46F0BDCE
:1054C000102900D99AE0381C00F02EFB1025D6E7F1
:1054D000690A00D196E0042900D93CE138239C46B2
:1054E000A9098C4463465900B14E89007118CC68F3
:1054F000A14215D0032362689A43131C521B0F2A42
:1055000000DD83E00320002A07DBC4E763688343F0
:105510005A1B0F2A7ADC002ABDDAE468A142F5D1D1
:10552000614601310091321C34690832944200D145
:1055300061E10323616899430B1C481B0F2800DDC0
:1055400048E1726132610028A9DA9A4A914200D991
:105550000DE10123C8088210934072681A43C3000A
:10556000F3189868E360A0609C60131C7260C460CC
:105570000120009A9210904098424CD818420DD1C8
:1055800003220099400091430A1D0092184205D160
:10559000009A4000043200921842F9D00323984642
:1055A000009AD3009946B144CC4692466346DC68E3
:1055B000A44507D121E1002A00DB33E1E468A445DA
:1055C00000D11AE14246636893435A1B0F2AF2DD69
:1055D000012163190D436560E068A5680836E8603D
:1055E00011438560F360B360381CDE609E605960D3
:1055F0009A5000F09BFA201C08305AE70C23002038
:105600003B6056E73F237E219C466DE701235B42CA
:105610009846C44484E70323B46862689A4390467A
:10562000954203D8521B0F2A00DD86E0231C434419
:10563000614A0193614B93461B681268EB18013273
:1056400000D15CE15E4A944663441B0B1B0300934C
:10565000381C009900F060FC031C8146013360D0C7
:10566000019B834200D9F8E0564B009A9A461B688A
:105670009C46534662441A60019B4B4500D14CE165
:105680005B461B68013300D15EE14B4601995B1A12
:10569000D21853461A6007234A46134000D113E13B
:1056A00008218946D21A9144474AD21A009B381CD5
:1056B0004B441B051B0DD31A191C9B4600F02CFCF8
:1056C000431C00D134E14B46C01A0123584418430F
:1056D00053461B685B441A1C53461A604B46B36022
:1056E0005860B44213D043460F2B00D8F7E043462E
:1056F000072160680C3B8B430639014005201943A4
:105700006160E118486088600F2B00D914E12F4BCD
:1057100019688A4200D91A602D4B19688A4200D94B
:105720001A600323B46862689A43131C5A1B9D4293
:1057300000D9B9E00F2A00DCB6E00123291C651965
:10574000194313436160381CB5606B6000F0EEF9DB
:10575000201C0830ADE6142973D9542900D9A8E0DB
:105760006E239C46290B8C4463465900BCE64A0ACA
:10577000042A6CD88A093832101C520092009446D0
:10578000B4446246032192688846624500D19EE097
:10579000414650688843834202D292689445F7D1CB
:1057A000D0687368E060A2608460D460E0E6C046C0
:1057B0004CF5FF1FFF01000058F9FF1F8CFEFF1F73
:1057C0000F10000090FEFF1F0810000088FEFF1F52
:1057D00084FEFF1F012163190D430143656073615E
:1057E0003361DA609A6059601850381C00F09EF9F5
:1057F000201C08305DE67368BAE608239B46073B29
:10580000DC449B46DA4443465246134200D0CDE680
:1058100031E0231C64698A1C08330092A34200D142
:1058200081E634E60122E3185968381C0A435A60BD
:10583000E368A268D3609A6000F078F9201C083011
:1058400037E65B239C468C44634659004CE6142A99
:1058500058D85B32101C520090E7B44200D060E789
:1058600002E7009B013B00934B461A68083B9146B8
:105870009A4200D080E04346009A1342F1D1736807
:10588000834373604000984200D9C4E6002800D1E9
:10589000C1E6184272D152460092009A400004328A
:1058A00000921842F9D07BE6381C00F03FF9002046
:1058B000FFE5AA235B00994217D8DD3B9C46E90B24
:1058C0008C44634659000FE680225201EEE6012324
:1058D000801083407168101C0B43736062E70123E2
:1058E0004A464C465360002320E7264B994210D885
:1058F0007C239C46A90C8C4463465900F4E5103384
:105900000093A5E6542A23D80A0B6E32101C5200CD
:1059100034E77E23FC219C46E6E51B0500D0AFE67C
:10592000009BB1684344181C012303434B60EEE61F
:10593000002301209B46CBE6211C381C0831FFF7D1
:1059400075FC53461A68E2E65B464A461A60A2E6D0
:10595000AA204000824204D8CA0B7732101C5200A1
:105960000CE70848824204D88A0C7C32101C520092
:1059700004E7FC227E2001E7736883E75346009327
:105980000EE6C0465405000070B50F2A32D9041C3B
:105990000C430B1CA40731D1151C041C103D2D0910
:1059A00001352D0149191E6826605E6866609E6893
:1059B000A660DE681033E66010349942F3D10F23FD
:1059C00045191340032B1BD91C1F0023A4080134C5
:1059D000A400CE58EE500433A342FAD1ED18C918F2
:1059E00003231A4005D00023CC5CEC5401339342CE
:1059F000FAD170BD051C002AF5D1FAE7051CF2E7C3
:105A00001A1CF8E770B588420BD98B18984208D257
:105A1000991A531E002A03D0CA5CC254013BFBD220
:105A200070BD0F2A09D8051C002AF9D00023CC5CD0
:105A3000EC5401339342FAD1F2E7041C0C430B1CE3
:105A4000A40726D1151C041C103D2D0901352D017C
:105A500049191E6826605E6866609E68A660DE68FA
:105A60001033E66010349942F3D10F2445191440E5
:105A7000032C10D90023043CA4080134A400CE5800
:105A8000EE500433A342FAD10324ED18C918224082
:105A9000CAE7051CCAE7221CC6E7C04670B58307E3
:105AA0003FD0541E002A3BD0CEB2031C032503E096
:105AB000621E002C34D0141C01335A1E16702B4267
:105AC000F6D1032C24D9FF250D402A0215432A04C0
:105AD00015430F2C11D9261C103E3609013636010C
:105AE0001A1C9B19156055609560D5601032934261
:105AF000F8D10F221440032C0AD9261FB60801360C
:105B0000B6001A1C9B1920C29342FCD103221440F8
:105B1000002C05D0C9B21C1919700133A342FBD166
:105B200070BD141C031CCCE77047C0467047C046CC
:105B300008B5031C0A1C03490868191C00F004F886
:105B400008BDC04648F5FF1FF0B556464D464446D1
:105B50005F46F0B4804685B00E1E914600D1FCE051
:105B6000371C083FFFF7E0FF7B684D4603221C1CF3
:105B70000B35BA469443162D00D974E01022102537
:105B8000A94500D974E0944255DA39190191D549F3
:105B900088680199884200D1EAE0486801210390B1
:105BA0000291011C012081438C4601998B46DC4403
:105BB00061464968014260D1032103988C468843BD
:105BC0000019904200DBCCE00299194200D09BE022
:105BD00061463B68FB1A9B465B688B43C118029188
:105BE000914255DB019A5F46D36892680837D360CB
:105BF0009A605B465A46DB689268D3609A60221FBF
:105C0000242A00D92EE13B1C132A09D95B463168AE
:105C100099607168D9601B2A00D92DE110330836CC
:105C200032681A6072685A60B2689A605B463E1CBD
:105C3000DA465B68029C621B0F2A52D80121524649
:105C40000B4023435360221C524453681943516054
:105C50004046FFF76BFF301C05B03CBC90469946B0
:105C6000A246AB46F0BD043295432A1E00DB87E70F
:105C70000C23424600201360EEE70299194243D1FB
:105C80003B68FB1A9B4659460323496899430B1C02
:105C90001B190193934237DB5B465A465F46926875
:105CA000DB680837D3609A60221F242A00D9DEE01F
:105CB0003B1C132A09D95B46316899607168D96029
:105CC0001B2A00D9ECE01033083632681A6072687B
:105CD0005A60B2689A605B463E1C5B68019CDA467B
:105CE000A9E701205146034049191D4353465D6011
:105CF000131C03438A184B605368083118435060E3
:105D00004046FFF793FAA3E749464046FFF79EFB5C
:105D10008146002800D1F1E07B68011C0122181C9B
:105D2000904308393F18B94200D196E0221F242A37
:105D300000D982E04B46132A65D8321C11681960DD
:105D40005168596092689A604046311CFFF76EFABC
:105D50004046FFF7EBFE48467EE7111CFFF776FB57
:105D60007AE70199041CCA688968CA60916062E791
:105D70004168032081438446281C09191030019092
:105D800081424ADADB07BFD460463B68FB1A9B4678
:105D90005B6883430198C9180291884200DD77E768
:105DA0005B465A465F469268DB680837D3609A6064
:105DB000221F242A00D98FE03B1C132A09D95B46F5
:105DC000316899607168D9601B2A00D98CE0103362
:105DD000083632681A6072685A60B2689A605B4628
:105DE0005919404B40469960029B5A1B01231A43A4
:105DF0004A605A46526813401D435B465D60FFF798
:105E000095FE381C28E731681960716859601B2AB3
:105E100018D8321C0833083290E7324B7A199A604E
