:1000000000800020B9030000B5030000B503000024
:1000100000000000000000000000000000000000E0
:10002000000000000000000000000000B503000018
:100030000000000000000000B5030000B91D000032
:10004000B5030000B5030000B50300006503000020
:10005000B5030000B5030000B5030000B5030000C0
:10006000B5030000590E0000690E0000790E000073
:10007000890E0000990E0000A90E0000B5030000D3
:10008000B5030000B5030000B5030000B503000090
:10009000B50300000000000000000000B5030000F0
:1000A000B5030000B5030000B5030000B503000070
:1000B00010B5064C2378002B07D1054B002B02D03E
:1000C000044800E000BF0123237010BD3001002070
:1000D000000000001823000008B5084B002B03D0D7
:1000E0000748084900E000BF07480368002B03D019
:1000F000064B002B00D0984708BDC046000000000A
:100100001823000034010020182300000000000024
:100110000368987AC009704770B5041C0668082205
:10012000054B1A60054D201CA8470028FBD13288DA
:1001300002231343338070BD00E100E01101000091
:1001400070B5041C066808218023064AD150064D6C
:10015000201CA8470028FBD1338802229343338018
:1001600070BDC04600E100E01101000070B5041C44
:100170000668074B98470023A382E382054D201CA5
:10018000A8470028FBD1328801231343338070BD78
:100190004101000011010000F0B5474680B4041C85
:1001A0000F1C161C03689846114D201CA8470028F8
:1001B000FBD12379002B0BD01A20012B15D117204E
:1001C000012E12D80636B6004346F75000200CE048
:1001D0001720022E09D8074B9F4206D8BFB20C3613
:1001E00076004346F7520020FFE704BC9046F0BD7E
:1001F00011010000FFFF0000F0B583B0041C161CC5
:1002000001602F4B996920220A439A6101A90223B8
:100210000B7004202B4B984704202B4B9847201C35
:100220002A4B9847B378237133796371284B1C604C
:10023000276833883B80B378002B17D01720012B19
:100240003CD13B889BB23B80F378002B34D03A887A
:10025000802313433B802FE0201CA8470028FBD1BC
:10026000201CB16800221B4B98471BE03A880423EE
:1002700013433B80F3781720002B1FD1164D201C11
:10028000A8470028FBD1201CB1680022114B9847D9
:10029000114D201CA8470028FBD1201CF168012229
:1002A0000C4B984733790020002B07D07A888023A5
:1002B000DB0113437B8001E0074DCDE703B0F0BDC8
:1002C000000400407D080000F10700006D010000FF
:1002D000DC0100209901000011010000F8B5041CA8
:1002E0000F1C066803791520002B05D1034D201C37
:1002F000A8470028FBD1B782F8BDC0461101000015
:10030000022A0BD00379002B05D0012B12D1172321
:10031000012A10D802E01723022A0CD8931C9B0054
:100320001950838A012191400A1C1A4392B2828299
:10033000002300E01723181C7047C04610B503685F
:10034000022902D18022DA7104E001228A400324CA
:100350002240DA71C38A01228A40111C194389B2F2
:10036000C18210BD10B5124B1B681C68DA8A998ACD
:10037000081C1040227AE1790A40D10906D04107D1
:1003800001D51B6998478023237210E0D10706D559
:10039000C20701D59B6898470123237207E09107A4
:1003A00005D5820701D5DB6898470223237210BD6B
:1003B000DC010020FEE7C04610B5194B194A9A42ED
:1003C00003D0194B164A9A4204D3184B184A9A4242
:1003D00010D31BE0174B14480330C01A80080130BB
:1003E000800000230E490F4AD458CC500433834276
:1003F000FAD1EAE70E4B1A1D0C490331891A890814
:1004000089005218002102C39342FCD10A4BFF21FC
:100410000A4A8A439A600A4B98470A4B9847FEE774
:1004200000000020182300002C010020FC01002007
:10043000300100200400002000ED00E0000000007A
:10044000991F0000A513000008B5082834D88000C3
:100450001B4B1B589F468020000230E0194B186947
:100460002DE0194B186A8005800F184BC340181CEB
:1004700025E0144B586922E0124B1B6802201840FB
:100480001DD011491022CB681A42FCD00D4B1B68BD
:100490005A0713D500200E4B98470A4B9B681B0444
:1004A0001B0C58430BE05023074AD35C00205A072B
:1004B00005D5044BD86802E0002000E0054808BDDF
:1004C000E82100004C0100200008004000127A00E2
:1004D00099080000006CDC0270B50C4B1C6A0178B6
:1004E000857840780122104080014026B4430443BF
:1004F0002A40D00180229443221C02430320014061
:100500000902034802400A431A6270BD0008004015
:10051000FFFCFFFF082843D88000224B1B589F4652
:1005200000203EE0204B196A02220A431A62002092
:1005300037E01D4B996902220A439A61002030E09E
:10054000194B198A02220A431A82002029E0164B0D
:10055000998A02220A439A82002022E0134B1968EA
:1005600002220A431A601A68114B1A400E4B9A84F1
:10057000191C1022CB681A42FCD00C4A91680A4B15
:10058000D96251689962126892B29A84002008E098
:10059000054A4423D05C02210143D154002000E0ED
:1005A000172070470C220000000800404C0100207A
:1005B0007FFF000030B585B0C222D200194B9A608F
:1005C000194B5A681E218A435A6001236A461370E8
:1005D0000024164DE0B26946A8470134252CF9D114
:1005E00003A800244470012585700470104B9847BF
:1005F0000620104B9847104B9847104B1C725C72AA
:100600009C7201956B465C7006236A4613701472E7
:100610005472002069460A4B98470020094B9847BE
:1006200005B030BD00080040004000417D080000DA
:10063000D904000015050000490600000004004030
:100640006D06000021070000064B996908220A4345
:100650009A610122044B1A70191C0B781342FCD1C9
:100660007047C04600040040000C0040F8B5061C6E
:10067000071C0D782D0205434B78002B02D08023F8
:10068000DB021D434B7A002B02D080231B031D434A
:100690004C68012C17D9631E1C420FD1022C06D9BD
:1006A0000223002201325B009C42FBD800E00022C2
:1006B0001702374380235B031D4304E027023743BF
:1006C00080239B021D430B7A002B02D080239B03C7
:1006D0001D430F4A53785BB2002BFBDB0D4B984751
:1006E0000D4B1E700A4A53785BB2002BFBDB084BA4
:1006F0009F601A1C53785BB2002BFBDB044B5968DC
:10070000802252020A4015435D60044B9847F8BDB1
:10071000000C004091090000080C0040D1090000C5
:1007200010B5041C0B4A53785BB2002BFBDB0A4B61
:1007300098470A4B1C70074A53785BB2002BFBDBCF
:10074000044B5968802252020A435A60044B98476E
:1007500010BDC046000C004091090000040C004090
:10076000D109000070B5041C1A4A53785BB2002B03
:10077000FBDB194B9847194B1C70164A53785BB238
:10078000002BFBDB134E7068C004C00E144B98475F
:10079000051C124B1C707668F602F60F114B1C708C
:1007A0000C4A53785BB2002BFBDB0A4B9C68240A93
:1007B000A4B20D4B9847002E07D1012C07D9281C55
:1007C000211C0A4B9847051C01E00134E540281C18
:1007D00070BDC046000C004091090000040C0040B0
:1007E00049040000080C0040D10900007D1E0000F3
:1007F00010B5041C064B9847064B1C70064B5988D5
:100800008022D2010A435A80044B984710BDC0464B
:1008100091090000020C0040000C0040D1090000CA
:1008200010B5041C0F4B98470F4B1C700F4B58888A
:100830000005000F59880E4A0A405A8059880D4A0F
:100840000A405A80191C8022D2014B881342FCD1E5
:10085000064B01025888064A02400A435A80064B5A
:10086000984710BD91090000020C0040000C0040A8
:10087000FFF0FFFFFFBFFFFFD109000010B50C78AC
:1008800024020443024B9847A4B2024B5C8010BD83
:1008900021080000000C004010B5041C064B9847CE
:1008A000064B1C70064B5C882405240F054B9847AB
:1008B000201C054B984710BD91090000020C004018
:1008C000000C0040D10900006507000030B5D37866
:1008D000002B1ED11378802B04D01B0680246402C9
:1008E000234300E0002354780225AC430AD19478D6
:1008F000002C03D18024A402234302E0C024E4029C
:10090000234341605478013C012C04D8114C23400E
:1009100001E0416000230D042D0CA024E4052C43CC
:100920001C4384620D0CD02424062C431C43846297
:10093000D478002C0CD15C0305D59378012B01D120
:10094000816100E041615378013B012B00D8816057
:1009500030BDC046FFFFFBFF08B5031C0A1CC109E0
:100960000020002903D15809C001044940181F2163
:100970000B4001219940024B984708BD00440041BB
:10098000CD08000008B5014B984708BDB50500002B
:100990000C4B1B68002B10D1EFF31083002B09D1F7
:1009A00072B6BFF35F8F0022074B1A700122074B0C
:1009B0001A7002E00022054B1A70024B1A680132CD
:1009C0001A607047640100200400002068010020C4
:1009D000084B1A68013A1A601B68002B09D1064BB4
:1009E0001B78002B05D00122044B1A70BFF35F8FD8
:1009F00062B67047640100206801002004000020F6
:100A000010B5031C4908402099420CD30024C91A90
:100A1000601C80B28B4201D8041CF8E74020FF2CF8
:100A200001D81480002010BDF0B55F4656464D46F3
:100A30004446F0B487B0061C0D1C049210AA10782E
:100A4000321C424340248A4200D9B3E0002B4BD1F0
:100A50000021321C5E4CA04783462E1C002700203C
:100A60000021002200233F24A4460125A84602902D
:100A700003916146203903D440468840814605E011
:100A8000202165464C1B4046E04081464146644675
:100A9000A1408A46101C191C80185941021C0B1CCD
:100AA0005D464C46254202D0424602430B1C9F4203
:100AB0000CD801D1964209D8921BBB415046029DE9
:100AC00028434946039C2143029003916546013D1A
:100AD000AC46CED2029803993C4B3B4A121A8B414A
:100AE000120C1B041A4362E00022012B5FD14F0F4E
:100AF000B946CD00AB460021321C0023344CA04740
:100B0000061C0F1C00230125029603979A465046A7
:100B1000C0B2059000218846002200233F24271CF4
:100B2000203F03D42E1CBE40019604E02020071B6A
:100B3000291CF94001912E1CA6400096101C191C7E
:100B400080185941021C0B1C5F463740BC46019E71
:100B50004F463E4067463E4302D02A1C02430B1CD0
:100B6000039898420BD802D10299914207D8029E6D
:100B7000039F921BBB41474600980743B846013C80
:100B8000CDD2414652468B1ADB08124CA34208D9FB
:100B9000059A0132D2B205920126B2445746082F77
:100BA000B5D140240598082804D042031A43049C78
:100BB00022800024201C07B03CBC90469946A246E7
:100BC000AB46F0BDC046C04600000000010000007A
:100BD0001D1F0000FF1F000010B582B0041C0F4B4A
:100BE0001B78002B01D000290DD001A90C70132017
:100BF0000B4B984713200B4B9847084B5C70012216
:100C00001A70002007E0054B5A781D20141B621E45
:100C100094416442204002B010BDC0466C010020E7
:100C20007D080000F1070000444B984233D006D8FD
:100C3000434B98420DD0434B98421BD06FE0424B40
:100C400098424AD0414B984258D0414B984266D185
:100C500032E0012965D0002904D0022906D00329F9
:100C600006D001E03B4867E0002065E03A4863E0D9
:100C70003A4861E0012956D0002904D0022906D063
:100C8000032906D001E0032056E0002054E0344858
:100C900052E0344850E0012947D0002904D002290D
:100CA00006D0032906D001E02F4845E0002043E0AC
:100CB0002E4841E02E483FE0012938D0002904D0D9
:100CC000022906D0032906D001E02A4834E000209A
:100CD00032E0294830E029482EE0012929D00029B6
:100CE00004D0022906D0032906D001E0244823E0DD
:100CF000002021E023481FE023481DE001291AD0ED
:100D0000002904D0022906D0032906D001E01F489B
:100D100012E0002010E01E480EE01E480CE000200B
:100D20000AE01D4808E01D4806E01D4804E01D4893
:100D300002E01D4800E01D487047C0460010004218
:100D400000080042000C004200180042001C004253
:100D50000014004203000400030006000300070023
:100D600003001E0003001F000300080003000A0028
:100D700003000B0003001000030012000300130027
:100D800003000C0003000E0003000F000300160018
:100D90000300180003001900030005000300010010
:100DA000030009000300110003000D0003001700F9
:100DB00070B586B00C4A6B4670CA70C332CA32C373
:100DC000009E864206D001239A006946525882420C
:100DD00003D100E00023D8B203E00133062BF3D1A6
:100DE000002006B070BDC046302200007047C046EB
:100DF000F0B50A4B1B78002B0CD1094F094E0A4D58
:100E00000024DE515A1914600433182BF9D1012241
:100E1000024B1A708000024BC150F0BD70010020DF
:100E200074010020ED0D0000E001002010B582B03B
:100E3000041C684605490622054B9847201C054BB3
:100E400098476B46185602B010BDC04648220000B5
:100E50000D200000B10D000008B5024B1B680020FA
:100E6000984708BD7401002008B5024B5B6801205B
:100E7000984708BD7401002008B5024B9B6802200A
:100E8000984708BD7401002008B5024BDB680320B9
:100E9000984708BD7401002008B5024B1B69042067
:100EA000984708BD7401002008B5024B5B69052016
:100EB000984708BD74010020F0B55F4656464D4680
:100EC0004446F0B491B0051C0C1C161C2960081C8B
:100ED000AD4B9847021C23680520D90700D54BE18C
:100EE00023681C209F0700D546E1A84B186A911C77
:100EF00001278F40391C014319620FA92D27F35D8B
:100F00000B701432D2B29046101CA14B9847404649
:100F1000A04B9847F05D00219F4B9847F37A6B7187
:100F20002423F35CAB712523F35CEB71F37E2B720E
:100F3000337F6B7229688846081C934B984714309E
:100F400000226B46DA84328A02928023DB019A42C5
:100F500021D08023DB019A4204D880239B019A424E
:100F600011D008E0C023DB01029F9F420FD08023F5
:100F70001B029F4203D01027069700270EE003278D
:100F8000069700270AE010270697012706E00827A2
:100F90000697012702E0082706970027316803918A
:100FA000F268914673690493317E8A462623F35C86
:100FB0009B467368002B13D08022520593422ED19A
:100FC0002723F35C002B2ED1376AC0B2734B9847AE
:100FD000011C381C6A462632714B9847031C1FE0DF
:100FE0002723F35C002B0AD0069A0092306AB16A7C
:100FF0006A4626323B1C6B4FB847031C10E0316A2F
:101000000791C0B2654B9847011C069A0092079859
:101010006A4626323B1C634FB847031C00E000239E
:10102000181E00D0A8E0737E002B02D0B37E41468C
:101030008B732A68029FD369002BFCD102976B4601
:1010400026331B88424693814B46039F3B43049FB4
:101050003B4371680B43029F1F43524613021F43D9
:1010600059464B071F432723F35C002B01D1042370
:101070001F43717E8902337F5B021943F27AB37A90
:1010800013431943737F1B0219432423F35C5B044E
:1010900019432523F35C1B0419433389FF2B0BD021
:1010A000F27E002A03D0A022D204174302E080225D
:1010B00052041743194305E0F37E002B02D080232E
:1010C000DB041F432C23F35C002B03D1364B9B78AE
:1010D0009A0701D580231F432A68D369002BFCD1CE
:1010E000434659602A68D369002BFCD141460F6002
:1010F0000EAB80221A7000225A70DA709A70326B2E
:101100000A92736B0B93B76B0C97F66B0D960027D7
:101110000EAEF9B2BB000AAA9858002802D1201CD2
:10112000224A9047431C05D03070000CC0B2311CDD
:101130001F4A90470137042FEBD10023EB602B614E
:101140006B61AB61EB612B62AB626B620022EB8582
:10115000AB853023EA543123EA543223EA54332353
:10116000EA542868084B9847041C1249124B9847C8
:10117000A400124BE550002011B03CBC90469946AB
:10118000A246AB46F0BDC046B10D000000040040D1
:101190007D080000F1070000D90B0000990800004D
:1011A000010A0000290A000000200041290C00006B
:1011B00059090000C1110000F10D0000E0010020FC
:1011C000F8B58000644BC5582C68E369002BFCD14E
:1011D000237EA67D1E403123EB5C3022AF5C1F4096
:1011E000F10720D5EB8D9BB2002B1AD0AB6A1A7891
:1011F000D2B2591CA9626979012904D1597809022E
:101200000A430233AB62D305DB0D2385EB8D013B33
:101210009BB2EB85002B06D1012323750223A37516
:1012200001E001232375B20709D5022323750022AB
:101230003323EA54FB0702D5281CE9688847720764
:101240006AD5AB8D9BB2002B64D0638BDBB21907E0
:1012500002D43F22134001E037221340002B37D045
:101260009A0707D51A223223EA54628B02231343CA
:10127000638327E0590707D51E223223EA54628B85
:101280000423134363831DE0DA0707D513223223B7
:10129000EA54628B01231343638313E0D90607D515
:1012A00042223223EA54628B10231343638309E002
:1012B00020221A4206D041223223EA54628B202394
:1012C000134363837A0727D5281C6B69984723E06B
:1012D000228DD205D20DD3B2696A0B706B6A591C8C
:1012E00069626979012904D1120A5A706B6A013363
:1012F0006B62AB8D013B9BB2AB85002B0CD1042301
:10130000237500223223EA54BA0705D5281C2B691D
:10131000984701E004232375F10607D510232375B0
:101320002376FA0602D5281CEB699847B10607D543
:101330002023237523763A0702D5281CAB699847EA
:10134000310707D5082323752376BA0602D52B6A01
:10135000281C9847F8BDC046E001002000B583B0C6
:1013600001AB80221A700A785A704A789A708A788B
:10137000DA70191C014B984703B000BD59090000F1
:10138000064B1B68002B02D1054A044B1A60034A26
:10139000136818181060181C7047C0468C01002094
:1013A0000003002008B5024B9847002008BDC04646
:1013B000B913000000000000F0B5474680B48CB0BF
:1013C00004A814220023224CA04708A8642200236A
:1013D000A04701A81F49204B9847002398461F4E5D
:1013E0001F4D204C301CA84704A8A04708A8A047C0
:1013F0000028F7D06F4603371B48391C1B4B984712
:101400003B78002B16D04346002B07D008A80F4B83
:101410000D4A174988470023984606E008A8B422D9
:10142000002313498847012398460F480021114B98
:101430009847D7E708A8142200230D4988470A488F
:1014400001210C4B9847CDE70C0300000000000081
:101450009118000050220000E916000090010020C1
:101460009D160000D5180000582200002D1800001D
:10147000BD180000B5170000F0B5474680B4071C42
:101480008846134B1C68002C07D02269002A09D11A
:1014900003E004352369002B06D100234246136084
:1014A000F52011E00B4D0C4E2378012B04D1601C6C
:1014B000391CB047002803D02C68002CE9D1ECE798
:1014C000646943461C60002040B204BC9046F0BDF5
:1014D0002400002028000020A9210000F0B5474684
:1014E00080B4071C8846134B1C68002C07D0226967
:1014F000002A09D103E004352369002B06D100231B
:1015000042461360F52011E00B4D0C4E2378032B5F
:1015100004D1601C391CB047002803D02C68002C73
:10152000E9D1ECE7646943461C60002040B204BC8A
:101530009046F0BD2400002028000020A9210000D2
:10154000F0B5474680B4071C8846134B1C68002C36
:1015500007D02269002A09D103E004352369002B52
:1015600006D1002342461360F52011E00B4D0C4ECE
:101570002378042B04D1601C391CB047002803D009
:101580002C68002CE9D1ECE7646943461C6000201C
:1015900040B204BC9046F0BD24000020280000208A
:1015A000A9210000F0B5474680B4071C8846134BBC
:1015B0001C68002C07D02269002A09D103E00435F9
:1015C0002369002B06D1002342461360F52011E069
:1015D0000B4D0C4E2378022B04D1601C391CB047F4
:1015E000002803D02C68002CE9D1ECE7646943465D
:1015F0001C60002040B204BC9046F0BD24000020D6
:1016000028000020A92100007047C046F0B55746C9
:101610004E464546E0B4824600211022184B9847BA
:10162000184B1C682369002B23D0174D174BEF185C
:10163000174B9946984603E010CD2369002B18D02C
:101640002378012B02D0022B09D010E02C20C847B0
:10165000061E02D0211C0F4B9847666107E0182038
:10166000C047061E02D0211C0B4B98476661BD4245
:10167000E2D150461CBC90469946A246F0BDC046F9
:101680001F2000002400002028000020FC0F000084
:101690004D190000491B0000811B00007047C04627
:1016A00070B5094C201C094B9847094D201C09496D
:1016B0002A1C094CA047094E301C094B9847301C86
:1016C00008492A1CA04770BDA0010020A51D0000EC
:1016D00000000020B51D00006D1E000090010020DC
:1016E0000D1600000916000030B585B0041C0D1C55
:1016F0000023037043708370C3700371437183715F
:10170000C371037243728372C372081C6946184B1B
:101710009847002804D1009B63600123637023E095
:10172000281C01A9134B9847002804D1019B636032
:101730000323637018E0281C02A90F4B9847002868
:1017400004D1029B6360042363700DE0281C03A98D
:101750000A4B9847002804D1039B636002236370FF
:1017600002E0002363706360201C05B030BDC046FA
:1017700079140000DD14000041150000A5150000DB
:10178000002343704360704708B54268002A08D0C0
:101790004378002B07D0012B07D1101C044B98472E
:1017A00004E0EF2002E0EF2000E0F82040B208BDA6
:1017B000051A000010B584B0031C0C1C01A8191CEC
:1017C000064B984701A8211C054B9847041C01A80B
:1017D000044B9847201C04B010BDC046E916000019
:1017E000891700008117000010B582B00C1C4268F8
:1017F000002A11D04378002B10D0012B10D1101CDF
:1018000001A9094B9847019B002B02D001232370AB
:1018100007E00023237004E0EF2002E0EF2000E067
:10182000F82040B202B010BDBD1A000010B584B05F
:10183000031C0C1C01A8191C064B984701A8211C6D
:10184000054B9847041C01A8044B9847201C04B082
:1018500010BDC046E9160000E9170000811700001E
:1018600030B500290BD0094B1A685B6804684568DD
:1018700012196B4182605B005B08C36004E0802347
:101880001B06C5682B43C36030BDC046B0010020B5
:1018900070B5041C161C1D1C00211022054B984716
:1018A00026606D006D086560201C0121024B984781
:1018B000201C70BD1F2000006118000008B50260E8
:1018C0005B005B0843600121014B984708BDC0469F
:1018D00061180000F8B58668C168002919DB0E4B55
:1018E0001C685D68321C49004B0801267642F717D8
:1018F000B6185F41221C69004B08341C3D1CA41A19
:101900009D410022002D05DA0121044B9847012258
:1019100000E00022101CF8BDB0010020611800009A
:1019200010B5054C201C054B9847201C0449054A5E
:10193000054B984710BDC046A4010020891900003E
:10194000B1190000000000206D1E000008B5014B19
:10195000984708BDE51F000008B5014B984708BD32
:10196000F91F000010B5041C0068002801D0044BCA
:101970009847201C00211022024B9847201C10BDC4
:10198000F91F00001F20000010B5041C0023037085
:1019900043708370C370037143718371C3710120FD
:1019A0000421024B98472060201C10BD611F0000DD
:1019B000F8B5041C0268002A19D04368002B11D026
:1019C0000C4F0D4E0D4A9B189B0022689D58002D10
:1019D00003D0281CB847281CB0476368013B6360EC
:1019E000002BEFD12068064B984700232360201C72
:1019F000F8BDC0466519000059190000FFFFFF3F00
:101A0000F91F0000002820D043681B699A7C002041
:101A1000002A1BD11A7C002A02D001225140114019
:101A20001B7BD8090022002803D15A09D20108489B
:101A300012181F20034001209840002902D0906115
:101A4000002003E05061002000E0FE2040B270471B
:101A50000044004100282CD043681B699A7C002078
:101A6000002A28D11A7C002A11D01B7BD909002218
:101A7000002903D15A09D2010F495218106A1F22B6
:101A8000134001229A4010404342584113E01B7B0F
:101A9000D9090022002903D15A09D2010649521856
:101AA000106A1F22134001229A401040431E9841A1
:101AB00001E00120404270470044004110B50C1C79
:101AC000002804D0034B98472060002000E0FE204F
:101AD00040B210BD551A000000B583B0002829D0CF
:101AE00043681B699A7C002A26D1012912D000295B
:101AF00015D0022908D0FB2003291FD101AA0021FB
:101B00001170012151700FE001AA00211170022112
:101B1000517009E001AA00211170517004E001AA7E
:101B20000221117000215170187B01A9054B9847C3
:101B3000002003E0FE2001E0FB20FFE740B203B0FD
:101B400000BDC0465D13000038B5041C0D1C00210B
:101B50002C22084B98472B78012B09D165602D6901
:101B6000697C201C044B98476969201C034B9847EB
:101B7000201C38BD1F200000D91A0000051A0000E3
:101B8000F0B591B0041C0D1C002118226B4B984736
:101B90002B78022B00D0CDE06E1C301C684905224A
:101BA000684B9847002809D0301C67490722654BCD
:101BB000984700283CD0F5232370BBE0AA79303A3F
:101BC000D2B2052A02D9F5232370B3E062748023D0
:101BD000DB05009300230193FF216846018100216A
:101BE0008372C372962080010890012024266F46DC
:101BF000B8552526B85526203B5427203B540A9338
:101C00008820400303902C203B542D203B540E93FE
:101C10000F9305933B82FB763976397779761323D8
:101C2000BB767977052A2AD89200484B9B589F4665
:101C3000FA2323707EE0464B0C93464B0D93464FA0
:101C400020E003230C93454B0D93454F1AE0454B81
:101C50000C93454B0D93454F14E0454B0C93454B6E
:101C60000D93454F0EE0454B0C93454B0D93454F5F
:101C700008E0454B0C93454B0D93454F02E0EA239A
:101C8000237057E001203421424B9847061E02D1B1
:101C9000FD2323704EE065602B69E06080225203D3
:101CA0000392012252420E920F92596908919A7E34
:101CB000022A03D100226846028105E0012A03D1ED
:101CC0008022920169460A811A7E002A03D10522E8
:101CD0006846C27210E0012A03D106226946CA7220
:101CE0000AE0022A03D107226846C27204E0042AED
:101CF00002D101226946CA725B7E012B02D14023C8
:101D00006A469372301C391C6A46234B98473568E3
:101D1000281C224B98471F23184001238340181C7E
:101D20001F4B18603268D369002BFCD12A6802234C
:101D300013432B60201C11B0F0BDC0461F200000D3
:101D400078220000BD2100008022000060220000F7
:101D50000300040003000500000800420300010026
:101D6000000C0042030008000300090000100042BC
:101D700003001000030011000014004203000C00D7
:101D800003000D00001800420300160003001700B6
:101D9000001C0042611F0000B90E00002D0E000063
:101DA00000E100E010B5041C014B9847201C10BD59
:101DB000850900007047C04610B5054C2068616871
:101DC0000122002312184B412260636010BDC046FF
:101DD000B00100207047C04630B585B0051C002317
:101DE0006A46D37002930393138093700123137197
:101DF0000B4C201C0B490C4B9847201C0B4B984755
:101E0000201C0B4902220B4B9847201C02210A4B35
:101E10009847201C2021094B9847281C05B030BD4D
:101E2000BC01002000140040F9010000190100006D
:101E3000B91D0000010300003D030000DD020000A9
:101E400010B5054C201C054B9847201C0449054A39
:101E5000054B984710BDC046B8010020D91D0000B1
:101E6000D51D0000000000206D1E000008B5031CF9
:101E7000081C191C00F080F808BD0000002934D0AF
:101E80000123002210B488422CD301242407A1424C
:101E900004D2814202D209011B01F8E7E400A14209
:101EA00004D2814202D249005B00F8E7884201D3A4
:101EB000401A1A434C08A04202D3001B5C0822437C
:101EC0008C08A04202D3001B9C082243CC08A042ED
:101ED00002D3001BDC082243002803D01B0901D0D9
:101EE0000909E3E7101C10BC7047002801D000204E
:101EF000C04307B4024802A14018029003BDC04687
:101F0000190000000029F0D003B5FFF7B9FF0EBC9F
:101F10004243891A1847C0467047C0469C4603048E
:101F2000F0B51B0C17043F0C150C1E1C041C000CF8
:101F30007E436B4347434543FB18300C18188742D8
:101F400002D980235B02ED18030CED1863465C4355
:101F50004A433604360CA118000480194919F0BD13
:101F600008B50A1C0349031C0868191C00F05FF837
:101F700008BDC0462801002038B5051C05480C1CCA
:101F8000131C002804D00220291C221C00E000BFE2
:101F900038BDC0460000000070B50E4B0E4D002449
:101FA000ED1AAD101E1CAC4204D0A300F3589847A4
:101FB0000134F8E700F09AF9084B094D0024ED1AB6
:101FC000AD101E1CAC4204D0A300F3589847013456
:101FD000F8E770BDF8220000F8220000F8220000A7
:101FE0000823000008B5034B011C186800F076F8C0
:101FF00008BDC0462801002008B5034B011C186825
:1020000000F024F808BDC0462801002010B50023C8
:10201000934203D0CC5CC4540133F9E710BD031CD8
:102020008218934202D019700133FAE7704738B52D
:10203000151C4D43291C00F051F8041E03D000214B
:102040002A1CFFF7ECFF201C38BD000030B500292A
:1020500040D004390B68002B00DAC9181E4A1368F7
:10206000141C002B02D14B60116033E099420FD257
:1020700008680A189A4205D113685268C0180860A7
:102080004A6000E04B60216024E08A4203D8131CC0
:102090005A68002AF9D11D685C198C420BD1096875
:1020A000691858181960904214D1146852680919B7
:1020B00019605A600EE08C4202D90C23036009E0DB
:1020C00008680C18944203D114685268001908601B
:1020D0004A60596030BDC046D801002070B5032366
:1020E000CD1C9D430835061C0C2D01D20C2501E0AA
:1020F000002D3FDB8D423DD3204B1C681A1C211C58
:10210000002913D00868431B0DD40B2B02D90B6098
:10211000CC181EE08C4202D1636813601AE0486854
:1021200060600C1C16E00C1C4968E9E7144C206840
:10213000002803D1301C00F025F82060301C291C39
:1021400000F020F8431C15D0C41C03239C43844298
:102150000AD12560201C0B300722231D9043C31A8F
:102160000BD05A42E25008E0211A301C00F00AF865
:102170000130EED10C233360002070BDD801002067
:10218000D401002038B5074C0023051C081C23602F
:10219000FFF7F6F8431C03D12368002B00D02B6017
:1021A00038BDC046F801002002780B7801300131BB
:1021B000002A01D09A42F7D0D01A7047031C0020A1
:1021C00010B582420FD01C780878A04201D1012AB4
:1021D00003D118780B78C01A05E0013A0028F8D02E
:1021E00001330131EFE710BD5C040000B8040000CA
:1021F000B8040000560400005604000072040000F9
:102200006204000078040000A604000040050000FD
:10221000A0050000A0050000200500003205000018
:102220004E050000240500005C050000900500003C
:1022300000080042000C004200100042001400425E
:1022400000180042001C0042090A0B0C0D0E000091
:10225000756172742D3500006C65642D30000000CE
:10226000361C0000421C00004E1C00005A1C0000DE
:10227000661C0000721C0000756172742D00000065
:102280007573626364632D000000000000000000AD
:10229000000000000000000000000000000000003E
:1022A000000000000000000000000000000000002E
:1022B000000000000000000000000000000000001E
:1022C000000000000000000000000000000000000E
:1022D00000000000000000000000000000000000FE
:1022E000000000000000000043000000F8B5C046F8
:1022F000F8BC08BC9E467047D9000000A11600003B
:1023000021190000411E0000F8B5C046F8BC08BC09
:082310009E467047B100000079
:102318000000000001000000756172742D35000096
:1023280000000000000000000000000000C20100E2
:102338000300000068000020380000208000002012
:10234800B0000020FFFFFFFF016C65642D31000025
:1023580000000000000000009800002000000000BD
:102368006C65642D300000000000000011000000C2
:102378000000000000000000016C65642D300000C2
:1023880000000000000000005000002000000000D5
:1023980002756172742D3500000000000000000015
:1023A80008000020000000006C65642D310000006A
:1023B800000000000600000000000000000000000F
:1023C80000696F5461626C65456E6400000000002E
:1023D800000000000000000000000000882200004B
:1023E800A8220000C8220000000000000000000031
:1023F8000000000000000000E822000000000000CB
:1024080000000000000000000000000000000000C4
:1024180000000000000000000000000000000000B4
:1024280000000000000000000000000000000000A4
:0C2438000000000000000000C8000020B0
:04000003000003B93D
:00000001FF
