:10000000008000209D07000099070000990700006C
:1000100000000000000000000000000000000000E0
:100020000000000000000000000000009907000030
:100030000000000000000000990700009D63000020
:100040009907000099070000990700008106000049
:100050009907000099070000990700009907000020
:1000600099070000411200005112000061120000C7
:100070007112000081120000911200009907000027
:1000800099070000990700009907000099070000F0
:100090009907000000000000000000009907000020
:1000A00099070000990700009907000099070000D0
:1000B00010B5064C2378002B07D1054B002B02D03E
:1000C000044800E000BF0123237010BD4001002060
:1000D000000000002472000008B5084B002B03D07C
:1000E0000748084900E000BF07480368002B03D019
:1000F000064B002B00D0984708BDC046000000000A
:10010000247200004401002024720000000000005E
:1001100001680722CB691A42FCD1704703681A7E36
:10012000910706D502221A765B8B9A070BD54120E0
:100130000CE05A8B510708D55968C02292020A4335
:100140005A60182002E0002000E000207047C046FE
:1001500030B5026800230124022504E001339BB27C
:100160000189994207D9117E214206D1117E294287
:10017000F4D0002002E0122000E0002030BDC04694
:1001800010B5046862688023DB0213436360616218
:10019000024B98470123237610BDC0465101000051
:1001A000F0B55F4656464D464446F0B483B0061C53
:1001B0000F1C05684C882B681B01DB0F99464B7A96
:1001C000002B02D0897A4A4B98476A68494B134002
:1001D0006B603B7A002B22D07A7A92033B885B00DB
:1001E00013438022120213436B62301C424B984728
:1001F0006A68404B13406B60031E70D1301C3F4B4C
:100200009847031E6BD17B7A9B03012213433A88E4
:10021000120A78210A43520013436B6207E03A88BE
:1002200052007B7A9B031343012213436B62301C01
:10023000314B98476A682F4B13406B60031E4ED1B9
:10024000301C2E4B98470190031E48D1013CA4B2AC
:10025000002188462A4A934626E06B8B99063DD5B5
:100260004A46002A02D1002C02D009E0012C07D115
:100270006A688023DB0213436B60013CA4B213E085
:10028000301C204B9847434601339BB29A462823A3
:10029000EB5C796842468B54301C174B9847013C05
:1002A000A4B2002803D1D0465C45D6D101E0D046A7
:1002B0000190B37A002B07D0301C124B98476A6824
:1002C000C0239B0213436B60301C0E4B98472823BE
:1002D000EA5C7B6841465A54019B00E04123181CAC
:1002E00003B03CBC90469946A246AB46F0BDC04622
:1002F00081010000FFFFFBFF510100001D01000014
:10030000FFFF000011010000F0B55F4656464D4664
:100310004446F0B483B0061C0F1C05684C88324B71
:1003200098477B7A002B03D0B97A301C2F4B984723
:100330006A682F4B13406B603B7A002B09D07A7AA6
:1003400092033B885B0013438022120213436B62CB
:1003500005E07A7A92033B885B0013436B62301CA2
:10036000244B9847031C002B36D1301C224B984756
:100370000190002830D1A0460024202399461A4A33
:1003800093461C4B9A4611E06B8B4A46134222D08F
:10039000301CD8477B681A5D2823EA54301CD047AC
:1003A000002806D16B8B01345A0704D44445EBD1A5
:1003B00003E0019001E01E230193B37A0198002B22
:1003C0000AD0301C084B98476A68C0239B0213432D
:1003D0006B60019800E0412003B03CBC9046994618
:1003E000A246AB46F0BDC0461101000081010000ED
:1003F000FFFFFBFF510100001D01000008B50123B4
:100400008372014B984708BDA101000008B5012384
:100410008372014B984708BD0903000008B500230B
:100420008372014B984708BD090300000368987A5E
:10043000C009704770B5041C06680822054B1A6095
:10044000054D201CA8470028FBD132880223134306
:10045000338070BD00E100E02D04000070B5041C85
:10046000066808218023064AD150064D201CA84763
:100470000028FBD1338802229343338070BDC046ED
:1004800000E100E02D04000070B5041C0668074B75
:1004900098470023A382E382054D201CA84700282B
:1004A000FBD1328801231343338070BD5D0400000B
:1004B0002D040000F0B5474680B4041C0F1C161C28
:1004C00003689846114D201CA8470028FBD12379CA
:1004D000002B0BD01A20012B15D11720012E12D87A
:1004E0000636B6004346F75000200CE01720022ED7
:1004F00009D8074B9F4206D8BFB20C367600434658
:10050000F7520020FFE704BC9046F0BD2D04000028
:10051000FFFF0000F0B583B0041C161C01602F4BD8
:10052000996920220A439A6101A902230B700420D1
:100530002B4B984704202B4B9847201C2A4B98475D
:10054000B378237133796371284B1C602768338833
:100550003B80B378002B17D01720012B3CD13B8870
:100560009BB23B80F378002B34D03A88802313432E
:100570003B802FE0201CA8470028FBD1201CB1683D
:1005800000221B4B98471BE03A88042313433B800F
:10059000F3781720002B1FD1164D201CA8470028E8
:1005A000FBD1201CB1680022114B9847114D201C33
:1005B000A8470028FBD1201CF16801220C4B98476A
:1005C00033790020002B07D07A888023DB01134386
:1005D0007B8001E0074DCDE703B0F0BD0004004093
:1005E000610C0000D50B0000890400008406002087
:1005F000B50400002D040000F8B5041C0F1C0668AB
:1006000003791520002B05D1034D201CA847002895
:10061000FBD1B782F8BDC0462D040000022A0BD0E2
:100620000379002B05D0012B12D11723012A10D8F2
:1006300002E01723022A0CD8931C9B001950838ACE
:10064000012191400A1C1A4392B28282002300E0E9
:100650001723181C7047C04610B50368022902D141
:100660008022DA7104E001228A4003242240DA71F8
:10067000C38A01228A40111C194389B2C18210BD6C
:1006800010B5124B1B681C68DA8A998A081C104046
:10069000227AE1790A40D10906D0410701D51B69C8
:1006A00098478023237210E0D10706D5C20701D5F1
:1006B0009B6898470123237207E0910705D58207BD
:1006C00001D5DB6898470223237210BD8406002001
:1006D000F0B55F4656464D464446F0B4061C8B4680
:1006E0001720002A4FD044E03268137E2342FCD00A
:1006F000431C9BB29A465946095C8946B379012B43
:1007000001D0504607E0023080B25B4653441B786C
:100710001B0219438946137E234203D04B46DB0557
:10072000DB0D9362F379002B14D03268137E2B42D9
:10073000FCD0137E2B420DD0538B2B4204D0518B17
:10074000434619438BB25383B379012B01D1936A8A
:1007500000E0936A013FBFB26745C5D173790020BD
:10076000012B10D1316802220B7E1342FCD00020F5
:1007700009E0013A97B200200124042504218846AB
:10078000044B9C46B0E73CBC90469946A246AB461B
:10079000F0BDC046FFFF0000FEE7C04610B5194B94
:1007A000194A9A4203D0194B164A9A4204D3184B5D
:1007B000184A9A4210D31BE0174B14480330C01A52
:1007C00080080130800000230E490F4AD458CC50D5
:1007D00004338342FAD1EAE70E4B1A1D0C49033168
:1007E000891A890889005218002102C39342FCD15A
:1007F0000A4BFF210A4A8A439A600A4B98470A4BE0
:100800009847FEE700000020247200003C01002011
:10081000A4060020400100200400002000ED00E0BC
:10082000000000007D6500002918000008B50828B8
:1008300034D880001B4B1B589F468020000230E0BC
:10084000194B18692DE0194B186A8005800F184B59
:10085000C340181C25E0144B586922E0124B1B685A
:10086000022018401DD011491022CB681A42FCD03A
:100870000D4B1B685A0713D500200E4B98470A4BA7
:100880009B681B041B0C58430BE05023074AD35CA6
:1008900000205A0705D5044BD86802E0002000E08C
:1008A000054808BDD46800005C0100200008004035
:1008B00000127A007D0C0000006CDC0270B50C4B5D
:1008C0001C6A01788578407801221040800140261A
:1008D000B44304432A40D00180229443221C0243A3
:1008E000032001400902034802400A431A6270BD16
:1008F00000080040FFFCFFFF082843D88000224B7F
:100900001B589F4600203EE0204B196A02220A43F2
:100910001A62002037E01D4B996902220A439A614E
:10092000002030E0194B198A02220A431A82002063
:1009300029E0164B998A02220A439A82002022E07B
:10094000134B196802220A431A601A68114B1A40A5
:100950000E4B9A84191C1022CB681A42FCD00C4A08
:1009600091680A4BD96251689962126892B29A846E
:10097000002008E0054A4423D05C02210143D15401
:10098000002000E017207047F868000000080040D1
:100990005C0100207FFF000030B585B0C222D2008C
:1009A000194B9A60194B5A681E218A435A600123D9
:1009B0006A4613700024164DE0B26946A847013418
:1009C000252CF9D103A800244470012585700470FA
:1009D000104B98470620104B9847104B9847104BE8
:1009E0001C725C729C7201956B465C7006236A46B1
:1009F000137014725472002069460A4B9847002005
:100A0000094B984705B030BD000800400040004148
:100A1000610C0000BD080000F90800002D0A00006C
:100A200000040040510A0000050B0000064B9969C4
:100A300008220A439A610122044B1A70191C0B7890
:100A40001342FCD17047C04600040040000C004037
:100A5000F8B5061C071C0D782D0205434B78002BBA
:100A600002D08023DB021D434B7A002B02D080236F
:100A70001B031D434C68012C17D9631E1C420FD168
:100A8000022C06D90223002201325B009C42FBD8D3
:100A900000E000221702374380235B031D4304E07C
:100AA0002702374380239B021D430B7A002B02D081
:100AB00080239B031D430F4A53785BB2002BFBDB63
:100AC0000D4B98470D4B1E700A4A53785BB2002BB2
:100AD000FBDB084B9F601A1C53785BB2002BFBDBDF
:100AE000044B5968802252020A4015435D60044B52
:100AF0009847F8BD000C0040750D0000080C004040
:100B0000B50D000010B5041C0B4A53785BB2002BE6
:100B1000FBDB0A4B98470A4B1C70074A53785BB2C1
:100B2000002BFBDB044B5968802252020A435A60B7
:100B3000044B984710BDC046000C0040750D0000E6
:100B4000040C0040B50D000070B5041C1A4A53781F
:100B50005BB2002BFBDB194B9847194B1C70164AF4
:100B600053785BB2002BFBDB134E7068C004C00EE1
:100B7000144B9847051C124B1C707668F602F60F52
:100B8000114B1C700C4A53785BB2002BFBDB0A4BF9
:100B90009C68240AA4B20D4B9847002E07D1012C63
:100BA00007D9281C211C0A4B9847051C01E0013479
:100BB000E540281C70BDC046000C0040750D0000CB
:100BC000040C00402D080000080C0040B50D00008A
:100BD0006164000010B5041C064B9847064B1C705E
:100BE000064B59888022D2010A435A80044B984709
:100BF00010BDC046750D0000020C0040000C004006
:100C0000B50D000010B5041C0F4B98470F4B1C701E
:100C10000F4B58880005000F59880E4A0A405A8029
:100C200059880D4A0A405A80191C8022D2014B88EB
:100C30001342FCD1064B01025888064A02400A437F
:100C40005A80064B984710BD750D0000020C0040FD
:100C5000000C0040FFF0FFFFFFBFFFFFB50D0000DD
:100C600010B50C7824020443024B9847A4B2024BFF
:100C70005C8010BD050C0000000C004010B5041C89
:100C8000064B9847064B1C70064B5C882405240FC6
:100C9000054B9847201C054B984710BD750D00006B
:100CA000020C0040000C0040B50D0000490B000094
:100CB00030B5D378002B1ED11378802B04D01B06BF
:100CC00080246402234300E0002354780225AC43CF
:100CD0000AD19478002C03D18024A402234302E09B
:100CE000C024E402234341605478013C012C04D821
:100CF000114C234001E0416000230D042D0CA02481
:100D0000E4052C431C4384620D0CD02424062C43A0
:100D10001C438462D478002C0CD15C0305D59378F5
:100D2000012B01D1816100E041615378013B012B2E
:100D300000D8816030BDC046FFFFFBFF08B5031C33
:100D40000A1CC1090020002903D15809C001044927
:100D500040181F210B4001219940024B984708BDC4
:100D600000440041B10C000008B5014B984708BD94
:100D7000990900000C4B1B68002B10D1EFF3108376
:100D8000002B09D172B6BFF35F8F0022074B1A7098
:100D90000122074B1A7002E00022054B1A70024B29
:100DA0001A6801321A6070477401002004000020A4
:100DB00078010020084B1A68013A1A601B68002B62
:100DC00009D1064B1B78002B05D00122044B1A7069
:100DD000BFF35F8F62B67047740100207801002076
:100DE0000400002010B5031C4908402099420CD390
:100DF0000024C91A601C80B28B4201D8041CF8E799
:100E00004020FF2C01D81480002010BD00000000FD
:100E1000F0B55F4656464D464446F0B487B0061CD2
:100E20000D1C049210AA1078321C424340248A42BE
:100E300000D9B3E0002B4BD10021321C5E4CA047FF
:100E400083462E1C002700200021002200233F247F
:100E5000A4460125A846029003916146203903D497
:100E600040468840814605E0202165464C1B4046AF
:100E7000E040814641466446A1408A46101C191C48
:100E800080185941021C0B1C5D464C46254202D07D
:100E9000424602430B1C9F420CD801D1964209D80E
:100EA000921BBB415046029D28434946039C214367
:100EB000029003916546013DAC46CED2029803995B
:100EC0003C4B3B4A121A8B41120C1B041A4362E042
:100ED0000022012B5FD14F0FB946CD00AB46002158
:100EE000321C0023344CA047061C0F1C0023012594
:100EF000029603979A465046C0B205900021884654
:100F0000002200233F24271C203F03D42E1CBE4078
:100F1000019604E02020071B291CF94001912E1C9A
:100F2000A6400096101C191C80185941021C0B1C6D
:100F30005F463740BC46019E4F463E4067463E43B3
:100F400002D02A1C02430B1C039898420BD802D1F2
:100F50000299914207D8029E039F921BBB414746CC
:100F600000980743B846013CCDD2414652468B1A01
:100F7000DB08124CA34208D9059A0132D2B205927D
:100F80000126B2445746082FB5D1402405980828B9
:100F900004D042031A43049C22800024201C07B082
:100FA0003CBC90469946A246AB46F0BDC046C04602
:100FB000000000000100000001650000FF1F0000AC
:100FC00010B582B0041C0F4B1B78002B01D00029F8
:100FD0000DD001A90C7013200B4B984713200B4B1D
:100FE0009847084B5C7001221A70002007E0054BFF
:100FF0005A781D20141B621E94416442204002B0A6
:1010000010BDC0467C010020610C0000D50B000023
:10101000444B984233D006D8434B98420DD0434BB3
:1010200098421BD06FE0424B98424AD0414B9842C5
:1010300058D0414B984266D132E0012965D0002951
:1010400004D0022906D0032906D001E03B4867E01E
:10105000002065E03A4863E03A4861E0012956D053
:10106000002904D0022906D0032906D001E003207C
:1010700056E0002054E0344852E0344850E0012962
:1010800047D0002904D0022906D0032906D001E068
:101090002F4845E0002043E02E4841E02E483FE045
:1010A000012938D0002904D0022906D0032906D00E
:1010B00001E02A4834E0002032E0294830E02948A5
:1010C0002EE0012929D0002904D0022906D00329C5
:1010D00006D001E0244823E0002021E023481FE05F
:1010E00023481DE001291AD0002904D0022906D086
:1010F000032906D001E01F4812E0002010E01E483E
:101100000EE01E480CE000200AE01D4808E01D48E3
:1011100006E01D4804E01D4802E01D4800E01D48AF
:101120007047C0460010004200080042000C004218
:1011300000180042001C004200140042030004009A
:10114000030006000300070003001E0003001F0049
:101150000300080003000A0003000B000300100056
:10116000030012000300130003000C0003000E0034
:1011700003000F000300160003001800030019000D
:101180000300050003000100030009000300110033
:1011900003000D000300170070B586B00C4A6B46C3
:1011A00070CA70C332CA32C3009E864206D0012381
:1011B0009A0069465258824203D100E00023D8B217
:1011C00003E00133062BF3D1002006B070BDC0460A
:1011D0001C6900007047C046F0B50A4B1B78002B15
:1011E0000CD1094F094E0A4D0024DE515A191460E2
:1011F0000433182BF9D10122024B1A708000024BE4
:10120000C150F0BD8001002084010020D5110000F4
:101210008806002010B582B0041C684605490622E5
:10122000054B9847201C054B98476B46185602B053
:1012300010BDC04634690000F1650000991100003E
:1012400008B5024B1B680020984708BD84010020A8
:1012500008B5024B5B680120984708BD8401002057
:1012600008B5024B9B680220984708BD8401002006
:1012700008B5024BDB680320984708BD84010020B5
:1012800008B5024B1B690420984708BD8401002063
:1012900008B5024B5B690520984708BD8401002012
:1012A000F0B55F4656464D464446F0B491B0051C35
:1012B0000C1C161C2960081CAD4B9847021C2368A7
:1012C0000520D90700D54BE123681C209F0700D5D6
:1012D00046E1A84B186A911C01278F40391C014335
:1012E00019620FA92D27F35D0B701432D2B290460C
:1012F000101CA14B98474046A04B9847F05D002139
:101300009F4B9847F37A6B712423F35CAB712523D1
:10131000F35CEB71F37E2B72337F6B722968884626
:10132000081C934B9847143000226B46DA84328AAB
:1013300002928023DB019A4221D08023DB019A4272
:1013400004D880239B019A4211D008E0C023DB011E
:10135000029F9F420FD080231B029F4203D0102781
:10136000069700270EE00327069700270AE01027BC
:101370000697012706E008270697012702E00827BD
:101380000697002731680391F268914673690493C8
:10139000317E8A462623F35C9B467368002B13D06C
:1013A0008022520593422ED12723F35C002B2ED1AD
:1013B000376AC0B2734B9847011C381C6A46263204
:1013C000714B9847031C1FE02723F35C002B0AD0C6
:1013D000069A0092306AB16A6A4626323B1C6B4F0D
:1013E000B847031C10E0316A0791C0B2654B9847BB
:1013F000011C069A009207986A4626323B1C634FEE
:10140000B847031C00E00023181E00D0A8E0737E3C
:10141000002B02D0B37E41468B732A68029FD369AA
:10142000002BFCD102976B4626331B8842469381E2
:101430004B46039F3B43049F3B4371680B43029F12
:101440001F43524613021F4359464B071F4327238E
:10145000F35C002B01D104231F43717E8902337F8B
:101460005B021943F27AB37A13431943737F1B0269
:1014700019432423F35C5B0419432523F35C1B0409
:1014800019433389FF2B0BD0F27E002A03D0A02210
:10149000D204174302E0802252041743194305E0A7
:1014A000F37E002B02D08023DB041F432C23F35C4C
:1014B000002B03D1364B9B789A0701D580231F431D
:1014C0002A68D369002BFCD1434659602A68D36946
:1014D000002BFCD141460F600EAB80221A70002217
:1014E0005A70DA709A70326B0A92736B0B93B76B07
:1014F0000C97F66B0D9600270EAEF9B2BB000AAA48
:101500009858002802D1201C224A9047431C05D03D
:101510003070000CC0B2311C1F4A90470137042FB5
:10152000EBD10023EB602B616B61AB61EB612B6254
:10153000AB626B620022EB85AB853023EA5431232A
:10154000EA543223EA543323EA542868084B984774
:10155000041C1249124B9847A400124BE55000207E
:1015600011B03CBC90469946A246AB46F0BDC04681
:101570009911000000040040610C0000D50B000030
:10158000C10F00007D0C0000E50D0000110E0000F1
:1015900000200041111000003D0D00004516000024
:1015A000D91100008806002010B5031C0268C47918
:1015B0001C20002C09D0DB8D9BB20520002B04D110
:1015C000D369002BFCD11185002010BD10B5031C80
:1015D000046882791C20002A33D09B8D9BB20520A1
:1015E000002B2ED1237E5A072BD5E369002BFCD18B
:1015F000638BDBB29A0621D09A0703D5022363835B
:101600001A201EE05A0703D5042363831E2018E026
:10161000DA0703D501236383132012E0DA0605D528
:10162000628B10231343638342200AE09A0605D598
:10163000628B202313436383412002E0238D0B80C0
:10164000002010BDF8B58000644BC5582C68E369D4
:10165000002BFCD1237EA67D1E403123EB5C302283
:10166000AF5C1F40F10720D5EB8D9BB2002B1AD049
:10167000AB6A1A78D2B2591CA9626979012904D1DE
:10168000597809020A430233AB62D305DB0D238587
:10169000EB8D013B9BB2EB85002B06D1012323751B
:1016A0000223A37501E001232375B20709D50223A4
:1016B000237500223323EA54FB0702D5281CE9686E
:1016C000884772076AD5AB8D9BB2002B64D0638BC1
:1016D000DBB2190702D43F22134001E03722134046
:1016E000002B37D09A0707D51A223223EA54628B8F
:1016F00002231343638327E0590707D51E223223B1
:10170000EA54628B0423134363831DE0DA0707D591
:1017100013223223EA54628B01231343638313E0C1
:10172000D90607D542223223EA54628B1023134391
:10173000638309E020221A4206D041223223EA5470
:10174000628B2023134363837A0727D5281C6B6998
:10175000984723E0228DD205D20DD3B2696A0B706F
:101760006B6A591C69626979012904D1120A5A709D
:101770006B6A01336B62AB8D013B9BB2AB85002B77
:101780000CD10423237500223223EA54BA0705D56D
:10179000281C2B69984701E004232375F10607D51F
:1017A000102323752376FA0602D5281CEB69984787
:1017B000B10607D52023237523763A0702D5281CC6
:1017C000AB699847310707D5082323752376BA06F6
:1017D00002D52B6A281C9847F8BDC0468806002011
:1017E00000B583B001AB80221A700A785A704A782B
:1017F0009A708A78DA70191C014B984703B000BDC3
:101800003D0D0000064B1B68002B02D1054A044B1E
:101810001A60034A136818181060181C7047C046F5
:101820009C010020A807002008B5024B9847002023
:1018300008BDC04639180000F0B5474680B494B0E2
:1018400004A814220023284CA04708A864220023DF
:10185000A047264C0DA8211C221C231C244DA84760
:1018600001A8211C234B984700239846224F234E62
:10187000234D381CB0470DA8A84704A8214CA04709
:1018800008A8A0470028F4D06C4603341E48211C49
:101890001E4B98472378002B16D04346002B07D0C9
:1018A00008A8104B0E4A1A4988470023984606E0BC
:1018B00008A8B422002316498847012398461248F5
:1018C0000021144B9847D4E708A81422002310499C
:1018D00088470D4801210F4B9847CAE7C046C046CC
:1018E0000C030000000000006D1F00003C690000B8
:1018F000E5230000591C0000A00100200D1C000081
:1019000029250000B11F000044690000091F0000E4
:10191000991F0000011E0000F0B5474680B4061C68
:101920008846134BDD68002D0AD02C68002C07D0A8
:101930002379002B09D103E004352379002B06D14C
:10194000002342461360F5200DE00435094F201DA9
:10195000311CB847002803D02C68002CECD1EFE7ED
:1019600043461C60002040B204BC9046F0BDC04617
:10197000A0010020EF670000F8B54F464646C0B40E
:10198000061C8946184B1D69002D14D02C68002CAC
:1019900011D0201C243000280DD02423E35C002B20
:1019A0000ED108E0201C2430002804D00435424623
:1019B000A35C002B08D100234A461360F5200EE0FB
:1019C00004350A4F24239846311CB847002803D019
:1019D0002C68002CE6D1EEE74A461460002040B2A5
:1019E0000CBC90469946F8BDA0010020EF670000AE
:1019F000F0B5474680B4061C8846154B5D69002D3E
:101A000010D02C68002C0DD0201D00280AD023797E
:101A1000002B0CD106E0201D002803D004352379CB
:101A2000002B06D1002342461360F5200CE004355C
:101A3000084F311CB847002803D02C68002CEAD18D
:101A4000F0E743461C60002040B204BC9046F0BD65
:101A5000A0010020EF670000F0B5474680B4061CE7
:101A60008846154B9D69002D10D02C68002C0DD098
:101A7000201D00280AD02379002B0CD106E0201D60
:101A8000002803D004352379002B06D100234246D9
:101A90001360F5200CE00435084F311CB8470028CE
:101AA00003D02C68002CEAD1F0E743461C600020EC
:101AB00040B204BC9046F0BDA0010020EF670000DA
:101AC0007047C046F0B557464E464546E0B481469D
:101AD00000211C22444B9847444B1B78002B57D0C5
:101AE000434B0124802189001A78002A04D0013454
:101AF00018338C42F8D161E0611C890001203D4B14
:101B000098474946C860002C48D0384D00262B78AD
:101B1000002B0ED03C20384A90478246B3004946FD
:101B2000C968CF18002802D0291C344A9047534670
:101B30003B6001361835A642E9D12FE01A78002A19
:101B400004D001341C338C42F8D13FE0611C890081
:101B50000120284B984749468861002C3ED0284DEB
:101B600000272B78002B0ED02C20234A904782464A
:101B7000BB0049468969CE18002802D0291C214A99
:101B800090475346336001371C35A742E9D125E021
:101B900001200421174B98474946C860184B1B7811
:101BA000002B04D0184B012480218900C6E70120B6
:101BB0000421104B98474A4690610FE0611C890050
:101BC00001200C4B98474B46D8609EE7611C89006A
:101BD0000120084B984749468861C0E748461CBC2D
:101BE00090469946A246F0BD356600009000002060
:101BF000A80000204565000041570000995E0000E4
:101C00005800002029600000740000207047C04682
:101C100070B5094C201C094B9847094D201C0949F7
:101C20002A1C094CA047094E301C094B9847301C10
:101C300008492A1CA04770BDBC0100208963000030
:101C4000000000209963000051640000A001002002
:101C5000C51A0000C11A000030B585B0041C0D1C67
:101C60000023037043708370C370037143718371E9
:101C7000C371037243728372C372081C6946184BA6
:101C80009847002804D1009B63600123637023E020
:101C9000281C01A9134B9847002804D1019B6360BD
:101CA0000323637018E0281C02A90F4B98470028F3
:101CB00004D1029B6360042363700DE0281C03A918
:101CC0000A4B9847002804D1039B6360022363708A
:101CD00002E0002363706360201C05B030BDC04685
:101CE0001919000079190000F1190000591A0000B3
:101CF000002343704360704770B50E1C131C456889
:101D0000002D19D04478002C19D000291AD0032CAA
:101D100004D0042C08D0022C17D109E0017A281C29
:101D2000321C0B4CA04712E0281C0A4B98470EE0CF
:101D3000281C094B98470AE01120404207E0112077
:101D4000404204E01120404201E00820404270BDC2
:101D5000515F0000855F00005163000008B54268D4
:101D6000002A0AD04378002B0AD000290BD0022B7E
:101D70000CD1101C074B98470AE01120404207E0A5
:101D80001120404204E01120404201E0082040427E
:101D900008BDC0462163000008B54268002A0AD089
:101DA0004378002B0AD000290BD0022B0CD1101C39
:101DB000074B98470AE01120404207E011204042BB
:101DC00004E01120404201E00820404208BDC04626
:101DD0002163000008B54268002A08D04378002B30
:101DE00007D0012B07D1101C044B984704E0EF20CB
:101DF00002E0EF2000E0F82040B208BD6D5D000079
:101E000010B584B0031C0C1C01A8191C064B984784
:101E100001A8211C054B9847041C01A8044B9847B6
:101E2000201C04B010BDC046591C0000D51D000088
:101E3000F11C000000B583B06B46D9714268002ADE
:101E40000FD04378002B0ED0022B0ED1101C694608
:101E500007310122074B98470023012806D0F223BF
:101E600004E0EF2302E0EF2300E0F82358B203B0D0
:101E700000BDC0465163000010B582B00C1C426822
:101E8000002A11D04378002B10D0012B10D1101C48
:101E900001A9094B9847019B002B02D00123237015
:101EA00007E00023237004E0EF2002E0EF2000E0D1
:101EB000F82040B202B010BD1D5E000010B50C1C31
:101EC0004268002A13D04378002B12D0012B02D095
:101ED000022B04D00FE0101C094B98470EE0101C99
:101EE000084B9847431C08D02060002006E0EF20F4
:101EF00004E0EF2002E0F82000E0E72040B210BD4F
:101F00001D5E0000C562000010B584B0031C0C1CEF
:101F100001A8191C064B984701A8211C054B98479E
:101F2000041C01A8044B9847201C04B010BDC046F7
:101F3000591C0000791E0000F11C000030B500297A
:101F40000BD0094B1A685B680468456812196B412D
:101F500082605B005B08C36004E080231B06C568E9
:101F60002B43C36030BDC0465806002070B5041C2A
:101F7000161C1D1C00211022054B984726606D0081
:101F80006D086560201C0121024B9847201C70BD24
:101F9000356600003D1F000008B502605B005B086D
:101FA00043600121014B984708BDC0463D1F00001A
:101FB000F8B58668C168002919DB0E4B1C685D689E
:101FC000321C49004B0801267642F717B6185F41CC
:101FD000221C69004B08341C3D1CA41A9D410022A0
:101FE000002D05DA0121044B9847012200E0002270
:101FF000101CF8BD580600203D1F000070B5454C70
:10200000A544041C151C6846434B9847296868463C
:10201000424B9847019B013B1A1C591C09D000995F
:10202000CB5C2F2B03D104E08B5C2F2B01D0013A2A
:10203000FAD2561C6846311C394B9847051C04A837
:10204000291C384B9847002D02D0281C364B984746
:1020500068460021321C354B9847051C08A8291CEE
:10206000304B9847002D02D0281C2F4B98476368AF
:1020700019680CA82B4B9847201C0CA908AA2C4BBC
:102080009847002805D020692A492B4B9847F52509
:1020900031E018A8002192229200284B98470D9B0E
:1020A000002B08D00CA82F21254B98470CA804A979
:1020B000244B984703E00CA804A9234B984718A881
:1020C0000C990122214B9847011E10D1204D214E21
:1020D00002E0E06810A9B04718A810A92022A8477C
:1020E000021EF6D118A81C4B9847002503E0201CBF
:1020F0001A4B984700250CA8194CA04708A8A047E0
:1021000004A8A0476846A04768B2AA239B009D4444
:1021100070BDC04658FDFFFF595700003158000000
:10212000C559000085570000DD65000075590000A5
:10213000652100004C690000991D00003566000013
:10214000F1580000B1580000755800003129000016
:1021500049290000F91C00003D2900003D2700002E
:102160000D580000F0B59BB0071C0E1C141C6846EF
:10217000714B98476368002B00D1A2E021680A7870
:102180002F2A07D0012B4DD95C2A4BD14A785C2AE3
:1021900000D0C8E0201C0121684B9847041C684609
:1021A000211C674B9847002C02D0201C654B984798
:1021B00008A800214822644B984708A80099634B5F
:1021C0009847002808D108A8614B9847301C6946F9
:1021D000604B98470025A1E0F5259FE0201C0221D7
:1021E000564B9847041C6846211C554B9847002CB9
:1021F00002D0201C534B984708A800214822524B7C
:10220000984708A80099514B9847002808D108A87A
:102210004F4B9847301C69464E4B984700257DE050
:10222000F5257BE0022B4CD9226811782E2948D164
:1022300051782E2945D192782F2A42D173680025F2
:10224000002B6BD0013B1A1C591C09D03168CB5CA8
:102250002F2B03D104E08B5C2F2B01D0013AFAD253
:10226000301C00213C4B9847051C6846291C344B08
:102270009847002D02D0281C324B984708A800210F
:102280004822314B984708A80099304B98470028BE
:1022900015D108A82E4B9847301C69462D4B9847FE
:1022A0002168033104A82D4B9847381C311C04AA1F
:1022B000FFF758FF04A82A4B984700252EE0F52584
:1022C0002CE00025002B29D07368002B0CD0684629
:1022D000311C204B984768462F21224B984768466F
:1022E000211C214B984703E06846211C194B984755
:1022F00008A800214822144B984708A80099134BBE
:102300009847F525002809D108A8114B9847301C9B
:102310006946104B9847002500E0F5256846104BAC
:10232000984768B206E04A785C2A00D156E700D1A7
:1023300078E7F2E71BB0F0BD59570000C55900001F
:1023400031580000DD650000356600006529000099
:10235000712900007558000075590000855700006C
:102360000D580000F1580000B1580000F0B54F467C
:102370004646C0B485B0051C0F1C161C6846134B9E
:102380009847002F17DD0024114B9946114B9846B2
:1023900002CE6846C847281C69686A46C0470134AF
:1023A000BC42F5D10024002806D028690A490B4B0D
:1023B0009847F52400E000246846094B984760B22E
:1023C00005B00CBC90469946F0BDC0465957000078
:1023D00031580000652100004C690000991D000083
:1023E0000D580000F8B54F464646C0B4041C0E1CFC
:1023F0009146984600211C22124B98470C20124D02
:10240000A847071C311C114EB047A7600C20A847F5
:10241000071C4946B047E7600C20A847071C414607
:10242000B04727611020A847071C094EB0476760D6
:102430001020A847051CB0472560201C0CBC904606
:102440009946F8BD3566000041570000591C000050
:1024500059570000F0B557464E464546E0B482460F
:102460008946154B5E68002E19D00A6890461D6893
:102470000024124F2B6818684146B847002804D141
:102480000D48211C0E4B984703E001340435B4423B
:10249000F0D10948494600220A4B984702E0064815
:1024A000094B984700235246536100201CBC9046BC
:1024B0009946A246F0BDC046C0010020EF6700006B
:1024C000155C00006D5B00007D5A000038B5041CEF
:1024D000084D426993002A689B58081C191C064B3A
:1024E000984763696A68013A934201D20133636194
:1024F000002038BDC00100207558000010B5041C34
:10250000074B1B6840698200D358081C191C054BF7
:1025100098476369002B01D0013B6361002010BD27
:10252000C001002075580000F0B583B0041C0023E2
:102530000093684EC5E000997F2917D12068436851
:10254000002B09D00025644FE0687F21B847013592
:1025500020684368AB42F7D8009BD9B25F4B9847DD
:1025600023681968E0685E4B9847AAE01B2902D1EE
:1025700001232376ABE0237E002B2FD05B2902D1F1
:102580005B236376A3E0637E5B2B27D121684B68D6
:10259000002B09D00025504EE0687F21B04701355F
:1025A00021684B68AB42F7D8009B412B08D1201C17
:1025B0004C4B984723681968E068494B984709E0F5
:1025C000422B07D1201C484B984723681968E068C4
:1025D000434B984700232376637678E00D290CD08F
:1025E000C9B220683D4B9847009BD9B2E0683A4B8E
:1025F000984700232376637663E0E0683B49384BD5
:102600009847206801A93A4B98470820394B9847CA
:10261000051C01990122384B9847002D27D0019BBA
:102620001B681B681F68381C3449354B98470028C5
:1026300005D1201C69682A68324B98471BE0381C7A
:1026400031492F4B9847002805D1201C69682A681A
:102650002E4B98470FE0381C2D49294B98470028EE
:1026600009D1201C69682A682A4B984703E0206931
:1026700029492A4B9847201C2168294B9847E06834
:102680002849174FB84763681968E068B847E06899
:102690002549B847019F002F05D0381C234B984788
:1026A000381C234B9847002D05D0281C214B9847F8
:1026B000281C1F4B984720681F4B98470023237600
:1026C0006376A0686946B047002800D133E7002050
:1026D00003B0F0BDBD1E0000351E0000F158000023
:1026E0005D1D0000CD240000FD2400005C69000099
:1026F0004928000041570000915C0000606900001B
:10270000EF670000A5270000646900006D2300004A
:1027100068690000FD1F00006C690000991D000041
:10272000552400007C69000080690000295A0000DF
:102730004D570000315D00005159000010B5041CD8
:10274000132906DC8900074BC9580069064B9847D6
:1027500003E000690549044B984720690449054B8B
:10276000984710BD08000020991D000084690000F2
:102770005C6900005D1D000010B5054C201C054B78
:102780009847201C0449054A054B984710BDC04690
:10279000C0010020015A0000295A0000000000205A
:1027A00051640000F0B5474680B4DAB0041C6846B6
:1027B000002148221C4B98476368196868461B4BE8
:1027C0009847011E28D11A4E1A4F1B4A9046684658
:1027D00012A9B04700281BD112AB9B7E002B17D04B
:1027E00012AB1B7BDA060BD5E0681449114DA847E4
:1027F000E06869466231A847E0680F49A847E6E704
:10280000E06869466231B847E0684146B847DEE7AC
:1028100068460B4B984702E0201C0A4B9847002063
:102820005AB004BC9046F0BD356600000555000066
:10283000F55500005D1D00005C690000A06C000003
:10284000D95500003D270000F8B557464E46C0B4A4
:10285000051C8A4608202E4CA04781462D4B9847E0
:102860001020A047041C29682B4B9847002C47D008
:102870006268002A44D00025284E294F2368591940
:102880000A782C2A02D02020824331D11B782C2BAD
:1028900002D0202293430DD1201C0121B047051CFA
:1028A000201C291CB847002D24D0281C1D4B9847FC
:1028B000002522E000230B70484621681A4B9847F8
:1028C0006268AA4204D8201C184B9847002514E0DF
:1028D000691C201C114B9847051C201C291C104BFF
:1028E0009847002D08D0281C0E4B9847002504E07F
:1028F000013502E0002500E000256368002BBDD112
:102900004B465246136000200CBC91469A46F8BDD7
:1029100041570000015A000085570000C5590000CA
:1029200031580000DD650000055B000051590000D2
:1029300008B5014B984708BDC14D000008B5014BD3
:10294000984708BDD954000010B582B001AB044CC3
:10295000A0470023002800D1019B181C02B010BD25
:102960007551000008B5014B984708BD055500009A
:1029700008B5014B984708BDD955000000207047A5
:102980008000034BC358986C434258418000704705
:102990003006002038B58000084C0459A56C002D85
:1029A00009D0E46C0420002C06D0281CA047434228
:1029B0005841C0B200E0042038BDC04630060020B7
:1029C00038B58000084C0459A56C002D09D0246D41
:1029D0000420002C06D0281CA04743425841C0B216
:1029E00000E0042038BDC0463006002000B583B0AA
:1029F000002301938000094BC3589A6C002A09D028
:102A00005B6D0420002B06D0101C01AA9847019B87
:102A1000D8B200E0042003B000BDC046300600205C
:102A200082B0A020800502B07047C046C278120272
:102A300083781A43120243781A4312020378101C57
:102A400018437047C3791B0282791343190E1B0286
:102A5000427913431A0E090211431B0202791343F0
:102A60001A0E090211431B02C27813431A0E0902FF
:102A700011431B02827813431A0E090211431B02F1
:102A8000427813431A0E090211431B020278181CE4
:102A90001043704701700B0A43700B0C8370090ED2
:102AA000C170704702701906120A0A43190A42706F
:102AB0000906120A0A43190C82700906120A0A430F
:102AC0001B0EC2701B06120A1A430271130A4371CD
:102AD000130C8371120EC2717047C04610B5002AE4
:102AE00005D00023CC5CC45401339342FAD110BD0D
:102AF000031C8218197001339342FBD17047C04602
:102B0000031C0239C26A023A0020914203D258895A
:102B100048431B6CC018704710B5031C041C0B34D1
:102B200000204208C001197808188018C0B201338B
:102B3000A342F6D110BDC046F0B5061C457801355C
:102B40006D0114D000200023032294460127022B9C
:102B500008D0391C0140C903F45C4210A218521875
:102B600090B200E0634601339D42F0D800E00020BF
:102B7000F0BDC046F0B5474680B40768002F42D08C
:102B80003E781F2E09D93A2E49D03B1C01331A78C2
:102B90001F2A04D93A2AF9D103E0321C3B1C3A2AF5
:102BA0002ED1303E092E07D8791C8B4204D1062E37
:102BB0002CD80237076034E001339C4600261B4BBB
:102BC0009846B2004346D1583A1C0C780132531E45
:102BD0001B781D1C613D192D01D8203BDBB2002C58
:102BE00003D001319C42F0D001E0624503D00136B0
:102BF000072EE6D10DE0062E0ED86346036010E0E6
:102C00000B4B1E780DE0012676420AE00126764243
:102C100007E00126764204E00126764201E03B1CF3
:102C2000BFE7301C04BC9046F0BDC046B46C000049
:102C30002804002038B5041C0D1C00280ED00368A1
:102C4000002B0BD01A78002A08D0D98882889142AC
:102C500004D15878054B9847C30703D500232B6050
:102C6000092002E024682C60002038BD8129000082
:102C7000F0B5474680B4041CC3780020002B26D052
:102C8000656C271C58376078391C2A1C0123114EAB
:102C9000B047031C0120002B19D1E370A26BAB1AC3
:102CA0000020226B934212D2A678012E0CD9094B38
:102CB0009846226BAD186078391C2A1C0123C04746
:102CC000013E012EF5D101E0002000E0002004BC0F
:102CD0009046F0BDC1290000F8B5051C0E1C00246B
:102CE000436C8B4210D0094B9847041E0CD1687876
:102CF000291C5831321C0123054FB847002802D047
:102D00000124012676426E64201CF8BD712C00005F
:102D100095290000F0B55F4656464D464446F0B44E
:102D200083B0061C171C99468B1E190B026C891860
:102D30001D05ED0D0724234001249C40E4B21A4BED
:102D40009B4601229046194B9A464A1C0192301C20
:102D5000D84700281ED100E04446731958331B7829
:102D6000221C1A40511E8A414A4515D07219583208
:102D7000634013704346F370013F002F0DD0640091
:102D8000E4B2002CE9D101355545E5D9444600258A
:102D90000199DAE7012000E0022003B03CBC904634
:102DA0009946A246AB46F0BDD92C0000FF010000B9
:102DB000F0B5474680B4851C008800281CD000244C
:102DC000104B98460126FF27C047321C2240D203F1
:102DD00064103B1C0340E3189B189BB2321C1A4042
:102DE000D2035C1000122418A418A4B20235AB1E42
:102DF00018880028E8D100E00024201C04BC90467C
:102E0000F0BDC046A156000070B5041C1E4B98478B
:102E1000002838D12378032B2DD12379012B2AD1F7
:102E2000261C5836301C002180229200174B9847F0
:102E30005522174BE254AA22164BE254301C164975
:102E4000164DA8478F239B00E0181549A8479023EB
:102E50009B00E018A169A84791239B00E0186169D5
:102E6000A847626B013262646078311C01230D4D0A
:102E7000A847002323716078002100220A4B98475D
:102E8000431E9841C0B270BD712C0000F12A0000B1
:102E9000560200005702000052526141952A00007C
:102EA00072724161C1290000ED290000F8B54F465A
:102EB0004646C0B4061C0D1C171C0224012900D86C
:102EC0008DE0C26A914200D389E00378022B4DD095
:102ED000DAB2022A02D8012B04D07FE0DBB2042B45
:102EE00059D97BE04B085B189846590A836BC9187F
:102EF0003D4B9847041E72D101229146C14442467F
:102F0000D305DB0D012215400AD0F2185832127891
:102F10000F210A40FF21394009010A43D2B200E0E3
:102F2000FAB2F31858331A700123F3704A46530A61
:102F3000B26B9918301C2C4B9847041E4FD14A464F
:102F4000D305DB0D002D02D03F09FFB208E0F218D7
:102F5000583211780F2291433F053A0F0F1C174347
:102F6000F31858331F700123F37038E0090A836B9C
:102F7000C9181D4B9847041E31D16D00FF235B001B
:102F80001D40731958331F70583575193F0A6F70FB
:102F90000123F37023E0C909826B8918124B98470B
:102FA000041E1CD13378042B0CD03F013F09A8002C
:102FB000FE235B001840583030180C4B9847030F25
:102FC0001B071F43A800FE235B0018405830301831
:102FD000391C074B98470123F37000E00224201CA2
:102FE0000CBC90469946F8BDD92C00002D2A000053
:102FF000952A0000F8B5061CC3790020032B13D1D5
:10300000B168B469002C0BD0084F4D1C30682A1CE5
:10301000B847002808D1013C002C01D0291CF4E756
:103020000023F3710020FFE7F8BDC046AD2E00007D
:103030008A76130ACB760378032B03D1120C0A7518
:1030400012124A757047C046F8B55F4656464D465F
:103050004446F0B4061C0D1C076800238B76006BF9
:10306000002800D1BDE03B78042B43D13F692323E6
:10307000FB5C002B20D0002440261F2291465C4B95
:103080009846232082464A46324200D10236BB1976
:10309000587800021B7818430021C04700280BD045
:1030A000FF2C09D001342B195876023650463B5C70
:1030B0009C42E8D3002C02D13F23AB7601242C198B
:1030C0000023A3766B733B792B7300200021DA0673
:1030D00003D4381C3830474B9847286069607B7BA5
:1030E0001B023A7B13436B81FB7B1B02BA7B1343AE
:1030F0002B8176E0736C01331DD0FA6810880028AC
:1031000011D000243A4B98460021C04700280CD02B
:10311000FF2C0CD001342B1958766300FA68985AAA
:103120000028F1D104E0002402E0002400E00024A3
:103130002C190023A376AC7E002100230827BC466F
:10314000102080462E229146E527BB465A1C706B04
:10315000C35C202B24D0052B00D15B46092A08D163
:10316000002C02D16F184846B8766F18484678731D
:10317000013168184373002C11D1181C41381928EB
:103180000BD8776B3F7BBA466046082A00D9404689
:103190005746074201D02033DBB2681883760131ED
:1031A0000B2A01D0131CD1E7002C08D16B18002288
:1031B0009A76706B037B5A1E93415B4219406918E3
:1031C00000274F73726BD37A2B73706B1C300A4CD1
:1031D000A04728606F60706B1630A0476881000CB4
:1031E00028813CBC90469946A246AB46F8BDC046F5
:1031F00059560000452A00002D2A0000F8B50C1C85
:103200000668012900D899E00121F26A944200D3AE
:10321000A8E03378022B31D0DAB2022A02D8012B8F
:1032200005D08DE0032B3ED0042B4FD088E06508FD
:103230002D19690AB36BC918301C4B4B98470028ED
:1032400000D07FE06F1CEB05DB0DF31858331D78C1
:10325000790AB26B8918301C434B9847002874D107
:10326000FF05FF0DF6195836317809022943E307A7
:1032700001D5090976E00905090D73E0210AB26B51
:103280008918301C384B9847002861D16400FF230F
:103290005B001C40331958331B7858343619717849
:1032A000090219435EE0E109B36BC918301C2E4BCB
:1032B000984700284FD1A400FE20400020405830FD
:1032C00030182A4B9847010109094BE0026943690C
:1032D000151C1D430121002D44D08168651A718998
:1032E0008C46C779022F10D101204042C117121815
:1032F0004B41DB05500A184361461D4B984701219D
:1033000085422FD82AD0611C2CE0032F03D183697A
:10331000611C9D4226D3E309B26B9918301C124BF5
:10332000984700281CD1A000FE235B0018405830AD
:1033300030180E4B98474100490813E0012111E075
:1033400001210FE0012149420CE00121494209E03D
:103350000121494206E00121494203E0054901E01B
:1033600001214942081CF8BDD92C00002D2A00007B
:1033700061640000FFFFFF7FF8B55F4656464D468B
:103380004446F0B4834688460568002906D16C6936
:10339000002C13D0EA6A944212D212E058464146F9
:1033A0006B4B9847031E012B00D8BAE0421C00D19A
:1033B000B9E0EA6A4446934203D2C2E0012400E045
:1033C00001242B78261C042B67D1A61EEB6A023B36
:1033D0009E429B411E40371C3B0B2A6C9918281CAF
:1033E0005C4B9847002800D0A7E03905C90D07229B
:1033F0003A4001239340DAB2EB6A994602235B42DA
:10340000994400239C4680235B019A464B46A14683
:10341000341C1E1C01E001221F1C6B185833187845
:1034200010407B1CB34202D25200D2B202E063468B
:1034300051466246002806D14C46BE1C0137301C5E
:1034400003370CD97DE0A3427AD0002AE4D10131C0
:10345000414A9142DFD9261C4C461F1CBCE7281C60
:10346000311C012201233D4FB84702285CD00128BE
:103470005CD04346002B03D102235A46D37122E08D
:103480005A46D379022B1ED1631CB3421BD09368DA
:10349000E41A94610323D37115E0022292462C4F63
:1034A0000136EB6A9E4202D3012C42D95646584659
:1034B000311CB847002806D0012842D0421C40D019
:1034C000A642EDD137E02B78042B03D15A46D379AD
:1034D000022B11D0281C311C01225242204B98474C
:1034E000002817D14346002B06D0281C4146321C29
:1034F0001B4B984700280DD16E61AB69EA6A023A0E
:10350000934201D2013BAB612A79012313432B7112
:10351000301C16E001384342584140420123184311
:103520000FE001200DE00CE001200AE00120404204
:1035300007E0002005E0002003E00120404200E019
:1035400000203CBC90469946A246AB46F8BDC0461A
:10355000FD310000D92C0000FF010000152D0000F6
:10356000AD2E0000F8B54F464646C0B4061C0C1CF4
:1035700007683B78042B02D180235B0501E08023A0
:103580009B030220A34245D9E30643D1B462B56848
:10359000002D10D13B78022B04D9FB6B0022F27175
:1035A000002B07D163093A890220934232D2FB6B88
:1035B00033631BE01D1C7B895B0298469C4210D341
:1035C000164B9946301C291CC847051C431C1CD0AF
:1035D00001281CD9FB6A98421BD24346E41AA04535
:1035E000F0D9381C291C0E4B98473063F562336BB9
:1035F0000220002B0ED0620AD3183363E305DB0DE3
:103600005833FF187763002004E0012002E0022015
:1036100000E002200CBC90469946F8BDFD31000048
:10362000012B0000F8B55F4656464D464446F0B4BF
:10363000071C0E1C924604680220012967D9E26A21
:10364000914264D25346002B0ED02378042B02D132
:10365000FB79022B08D0201C5146012252422F4BED
:103660009847031C002B52D1B1462D4A90462B4B54
:103670009B46381C311CC047051E2ED0012843D064
:10368000421C43D02378042B05D0201C311C00227F
:10369000D84700283BD1A369E26A023A934205D297
:1036A0000133A36122790123134323710136AE4212
:1036B0000ED02378042B0AD14B46F21A201C49461F
:1036C0000023184EB047002821D1A94600E0A946A2
:1036D000E26A954201D22E1CCBE723780020042B0E
:1036E00015D15346002B01D1FB7110E0FB7900206E
:1036F000032B0CD1BB689A4509D3BE699B199A4527
:1037000005D80223FB7102E0022000E001203CBC4E
:1037100090469946A246AB46F8BDC046AD2E000085
:10372000FD310000152D0000F0B557464E464546C8
:10373000E0B4041C0E1C0568826A036B0420002B95
:1037400000D180E02978042902D18021490501E0D7
:1037500080218903171C20370420B94273D9FA0548
:10376000D20D904665D101332363E16A002906D169
:103770007B092A8993425CD30023236363E06B892E
:10378000013B7A0A1A4254D1201C314B984781469A
:1037900002204A46012A56D9013251D0EB6A994596
:1037A00040D3002E03D10023236304204BE0201CD0
:1037B000E16A284B9847814607204A46002A42D0B2
:1037C0000220012A3FD0012001323CD0E3790422BB
:1037D0001343E371281C204B9847031C0120002B46
:1037E00031D1281C58300021802292001B4B984771
:1037F000281C49461A4B98476864002601239A46BC
:103800000AE05246EA70281C134B9847002819D149
:1038100001366B6C01336B646B899E42F1D36A6C29
:10382000961B6E644B46E362281C49460C4B984736
:103830002063A76243465833ED186563002002E019
:10384000012000E001201CBC90469946A246F0BD34
:10385000FD31000079330000712C0000F12A0000D6
:10386000012B0000F0B5574680B4041C00680569C0
:10387000216B2B4B9847031C002B4DD1616B0B78B0
:103880000220852B48D1281C2022264B98476E7891
:10389000201C0021244B9847031C002B3CD120689E
:1038A000216B1F4B9847031C002B35D1616B0B78A4
:1038B0000220C02B30D1771C281C20302022194B2D
:1038C0009847023E0420102E26D87F01BA46402792
:1038D000154E201C0021B04700281DD12068216B07
:1038E0000F4B9847002817D1616B0B78C12B12D171
:1038F000E81920220B4B98472037BA45E9D8281CF5
:103900000A4B9847EB781B02AA781343C01A431E50
:103910009841400000E0022004BC9246F0BDC04641
:10392000D92C0000DD2A000029370000392B0000C7
:1039300010B5041C0A680260CB6983600A6AC27110
:10394000FF230A6A9A43226100234361496A416462
:10395000034B9847002802D1201C024B984710BD0A
:103960006535000065380000F0B557464E464546BF
:10397000E0B4041C894606680021194B98470028CA
:1039800025D10025174FAA46174B9846301C216BAE
:10399000B84700281BD13278042A05D1636B1A7806
:1039A000D243D2B2D20906E0636B1A78E52A04D07A
:1039B00051424A41D2B2002A03D001354D4501D1CE
:1039C00008E05546201C0121C0470028DED004280D
:1039D00000D107201CBC90469946A246F0BDC046C7
:1039E00065350000D92C000029370000F0B5574696
:1039F0004E464546E0B4041C03681E69301C194B52
:103A00009847B0700012F0707778201C616C164BEC
:103A10009847051E1BD1154A9046154B9946154AE5
:103A200092462068216BC047051E10D1606B311C87
:103A30002022C84701232268D370002F07D02036E8
:103A4000201C0021D047051C013F0028E9D0281C7C
:103A5000022D00D90220C0B21CBC90469946A24655
:103A6000F0BDC046392B000065350000D92C0000A0
:103A7000DD2A00002937000038B5041C0023C3707C
:103A800001235B424364234B9847031C0420002B13
:103A90003ED1214BE25C1202204BE35C1A4312B28E
:103AA00003201F4B9A4233D15823E35CE92B05D006
:103AB0001C4AA36D1A401C4B9A420FD1201C8E3019
:103AC0001A4B98470202120A194B9A4219D0201C2D
:103AD000AA30164B9847174B984214D0251C5935DD
:103AE0005823E05CEB380023134906E0E85C5A18E1
:103AF0005278801A01330A2B07D00028F6D0022012
:103B000006E0002004E0002002E0431E984101305E
:103B100038BDC046D92C00005702000056020000F4
:103B200055AAFFFFFF00FF00EB0090002D2A0000C8
:103B30004641540046415433D06C0000F0B55F4616
:103B400056464D464446F0B487B00D1C161C002363
:103B50000B60D24B9847041C0B20002C00DA3EE28D
:103B6000A300CF4A9F58002F00D1FEE12F60012310
:103B70009E433B78002B0ED07878CA4B9847031CA5
:103B8000C10708D40020002E00D128E25B070A20DC
:103B9000DB17184023E200233B70E0B27870C24B81
:103BA0009847031C0320DA0700D518E2002E03D043
:103BB0000A205E0700D512E2381C0021BB4B984753
:103BC000031C0026022826D1B9497D1800242B1F8A
:103BD0001B78301C002B02D0281CB64A90470823C3
:103BE0001B196946585004341035102CEFD10024AD
:103BF0000325082212196B46D6582B1C002E07D01D
:103C0000381C311CA94A9047031E012B00D8E2E161
:103C10000434102CEDD1042B00D1A8E10D20012B90
:103C200000D9DCE1012B00D09EE06323FB5C002B7C
:103C300000D09EE13B1C64330C2204E001320133CE
:103C4000402A00D19DE119780029F7D00D20C6E166
:103C5000C423FB5C01229A400D2080239B009A42E2
:103C600000D0BCE1381CA030934B9847321C002395
:103C7000041C0D1CA4185D410D209D4200D0AEE136
:103C8000381CAC308B4B98473863C623FB5CBB7049
:103C90000D20012B00D0A2E1C523FB5C01229A403C
:103CA000934693B27B81002B00D198E1381CB4304D
:103CB000804B984781460D20804B994500D98EE175
:103CC0004B460233FB627E63381CB030794B98461A
:103CD0009847801982463864381CA830C047861936
:103CE000BE6350460026B046311C5A4692B29446F6
:103CF00062464E467243434612184B41AB4200D9CE
:103D000039E102D1A24200D935E1381CB830694B03
:103D10009847011CF863381C694B9847011C381CF4
:103D2000684B9847031C0120002B00D057E13D1C35
:103D30006C3500248026B6002B1C143B1B78812B8D
:103D400000D02BE1281C5B498847022800D025E1E0
:103D50000D2080239B009C4200D140E101235B4267
:103D6000BB617B610425F2E06423FB5C1B026322E0
:103D7000BA5C1A4312B20D2080239B009A4200D0F5
:103D80002DE16F23FB5C1B026E22BA5C1A43904646
:103D900004D1381C7C30474B9847804642463A63F2
:103DA0006823FD5CBD706B1E0D20012B00D916E150
:103DB0006523FC5C7C81002C00D110E1631E1C4259
:103DC00000D00CE16A23FB5C1B026922BA5C1A4337
:103DD00091463A81120700D001E16C23FB5C1B0283
:103DE0006B22BA5C134304D1381C7830314B9847AE
:103DF000031C6722BA5C12026621795C11438B4670
:103E00000D20002900D1EAE041466943019149466D
:103E10000A095A44019989188A468B4200D2DEE089
:103E2000581A211C284B9847041C0D20002C00D147
:103E3000D5E00025254BA3426D4103235D1B244B98
:103E40009C4200D8B0E00234FC627E635A46B3184C
:103E5000BB6351468A193A64032D12D18323FB5C5C
:103E60001B028222BA5C134300D0B8E04A46002A03
:103E700000D0B4E0381C84300E4B9847F863A4009F
:103E80002EE00D204946002900D1A8E0019A9B1898
:103E9000FB63022D1ED1640022E0C046752B00009A
:103EA00030060020812900007D290000793A0000B9
:103EB0001E0200002D2A0000452A0000FDFFFF7FA2
:103EC000012B0000D92C000061640000F5FF000008
:103ED000F50F0000032363435B08012214401C1903
:103EE000424BE418640A0D20A04578D301235B42BD
:103EF000BB617B6180233B71032D28D18923FB5C4F
:103F00001B028822BA5C1343012B20D1711C381C80
:103F1000374B984700281AD100233B71354BFB5C87
:103F20001B02354ABA5C1A4312B2344B9A420ED184
:103F3000381C5830324B9847324B984207D18F2665
:103F4000B600B8192E4B98472F4B984237D03D708A
:103F50002E4A138801339BB21380FB802C4BFB60ED
:103F60002C4B3B610020F86139E00C2037E0012048
:103F700035E00D2033E00D2031E00D202FE0012051
:103F80002DE0C123FB5C1B02C022BA5C1A4312B2B3
:103F90000D2080235B009A4221D159E62034203540
:103FA000B44200D0C8E6E8E70234FC627E635946BA
:103FB0007318BB6351468A193A64012561E7902260
:103FC0009200B8180E4CA047B86191239B00F818D6
:103FD000A0477861BBE7042800D023E6CFE707B00D
:103FE0003CBC90469946A246AB46F0BDFF0100009E
:103FF000D92C0000570200005602000055AAFFFF0E
:104000002D2A000052526141727241612C0600203B
:104010002C040020C8010020F0B55F4656464D46EE
:104020004446F0B483B0051C89460668FF208246EA
:104030000424684A93460D229344201C544601945C
:104040009EE0301C644FB847002800D09FE06A6BA8
:104050001378002B00D1B0E03178042911D1852BE1
:1040600000D087E0041CA86A6864281C5B4B984752
:10407000002800D0A3E033691B793F221340AB71C5
:104080009FE0D17A3F242140A971E52B67D02E2BE8
:1040900068D020240F1CA743BC4608277F42BC449D
:1040A00067467C427C414C455FD10F294AD1580676
:1040B00006D5517B8A4640218B43AC6A6C6402E092
:1040C000019C9C4254D1577BBC46FF240194574528
:1040D00050D1F768D17E0902907E014369D11178F1
:1040E0003F20014001394C006418A400641839498C
:1040F0000120B0465E46AB46151C021C9A46087865
:10410000281843781B0200780343002A06D0FE2CAF
:1041100048D86200D3531A1C013402E0304883426D
:1041200044D10131B142EAD12A1C53465D46B3461F
:1041300046461278510630D5FE2C3AD8640000224B
:10414000E2532AE0019B041C101C002B03D1254BD9
:104150009847824535D001235B426B6431E0FF24F0
:10416000019407E0FF24019404E0FF24019401E09E
:10417000FF240194281C00211B4B9847002808D1DC
:10418000296B002900D05CE7041E1AD002E0041C51
:1041900000E0041C00232B6313E0013BDBB201931E
:1041A000E246E7E75D46B346464602E05D46B34673
:1041B0004646E246FF240194DCE70424EAE7041CB7
:1041C000E8E7201C03B03CBC90469946A246AB46AB
:1041D000F0BDC046A46C0000D92C0000653800007A
:1041E000FFFF0000192B000029370000F0B55F46E3
:1041F00056464D464446F0B487B0041C01688946D3
:104200000021954B9847031C002B00D01DE14A4626
:104210001378042B44D1D068904B98478246904B3A
:10422000984625218B464E46A14632E033695946D1
:104230005A5C1202195D0A4392452BD123229F5CDE
:10424000002F00D1E2E0002440251F222A4200D1A5
:10425000023531694B19587800021B781843814A9E
:10426000904701906300F168585A7E4A9047019B3D
:10427000834206D1013FFFB202350134002FE4D161
:1042800001E0002F05D16400F168635A002B00D1D2
:10429000B4E0242448460021C0470028C6D0D4E01A
:1042A00001235B426364FF22924690466E4F6F4942
:1042B0008B460D218B444846216BB847002800D01F
:1042C000C3E0656B2E78002E00D199E0EB7A3F2297
:1042D0001A40A271E52E03D0190707D50F2A07D07F
:1042E00001235B426364FF2290467FE00F2A5FD187
:1042F0004323E35C590679D4720606D56B7B9A4654
:1043000040239E43A16A616401E0B0456CD16A7BA1
:104310000192FF239846524568D14946C9680391E6
:10432000EB7E1B02AA7E13437DD12B783F221340E4
:10433000013B5A00D2189200D21802924B4A012136
:10434000B046161CA2462C1C3378E3185A78120289
:104350001D781543002916D0029BFE2B5ED8281C21
:10436000404988470590029A0132049202994B0015
:10437000039A985A3B4B98470599814250D1291C82
:10438000049A029202E03A4B9D424BD101365E45BF
:10439000DAD1251C464654462B785A0638D50029D2
:1043A00036D002994B00039A9B5A002B30D03AE04A
:1043B0004346002B3CD1281C2E4B9847504537D103
:1043C00020E029783823E35CC91A6B1C221C39329F
:1043D0000B3506E018781178411A01330132AB42EF
:1043E0002BD00029F6D02AE0FF218846201C00218E
:1043F000214B9847002800D15DE726E0002024E00B
:10440000042022E0002020E000201EE000243AE703
:10441000013EF6B2B046019A9246E7E7544602E002
:10442000544600E05446019B9A46FF218846DDE74A
:104430004323E35CDA0702D4C3E70029E4D0012375
:104440005B426364FF239846D0E707B03CBC9046CC
:104450009946A246AB46F0BD65350000B12D00007F
:1044600019400000A1560000D92C0000A46C0000E7
:10447000FFFF0000192B000029370000F0B55F4650
:1044800056464D464446F0B4A5B00E9001688946A4
:104490004323C35C5F2293430620002B00D010E22D
:1044A000CB681A88002A0BD0023300240F94002214
:1044B00001320233991E09880029F9D10F9201E0D7
:1044C00000250F954E463378042B00D09EE00F98C0
:1044D0000E300F21CE4B9847041C811C0E98CD4BFB
:1044E0009847031C002B00D0EBE1CB4FE3195B0195
:1044F0000E98806AC31A0E9C6364A568002D41D093
:10450000E3795E073ED503221340E3714F46798974
:104510004A0200232069616912184B4122616361DC
:10452000201CBE4B9847031C002B00D0C9E112A8E9
:104530000E99BB4B9847031C002B00D0C1E1386992
:1045400038300E9E35697669089509962A1C331C09
:10455000B44CA047386928300E9A11695269069107
:104560000792131C0A1CA0470E9CE27901231A43F0
:1045700021233D69EA5412A8AB4B9847031C002B3A
:1045800000D09EE14E463469F768B846201C0021F1
:104590004022A64B984785232370C0222023E25453
:1045A000381CA34B98472423E05400122523E054E1
:1045B0000122002601204023C1218946B4461F273D
:1045C000011C40468846591C4D46E55465466554D5
:1045D0000233002A05D07200125A002A01D0013697
:1045E000F6B2E254E11815124D7002331F42F0D1B9
:1045F00041460131C9B288467100095A0029E2D109
:1046000040462323E654607000205AE10E9D383561
:1046100012AC201C291C0C22864B9847E37ADE073B
:1046200079D5402243230E9FFA54281C12A90B224D
:10463000804B984701200124834624E04A46D168F4
:104640008846281C12A90B227A4CA0475C46052CF0
:1046500019D91026B246012680204002764FAC467A
:1046600045460CE0023552466400311C19400C19D5
:104670005B08044200D07C40013A002AF4D12B8828
:10468000002BEFD1654607230F20011C21400A1C97
:104690003032392A00D90732013B10AFF9184A707D
:1046A0002409F2D1181C7E22FA54002B0CD0382297
:1046B0000E9CA25C202A09D000220132824206D040
:1046C000A95C2029F9D102E0002200E0002220208C
:1046D000011C072B02D810AEF15C0133A954013242
:1046E000072AF5D90E98554FB847002806D1012062
:1046F000834459466429A1D10720E2E0031C5A46AD
:10470000642A00D1C4E0042B00D0DAE012ABDA7ADC
:1047100043230E9CE25412ABDB7A01249E0705D59D
:104720000F980C300D213A4B9847441C0E98211CD1
:10473000384B9847002800D0C3E0013C002C00D142
:10474000B6E063010E9FBF6AF91A0E983C4B98477A
:10475000002800D0B5E0281C3A4B98470F90271C42
:10476000A8460E98006B049048460499364CA04722
:10477000002800D0A5E04E46F5680E9E746BF8B296
:1047800083460F9E66730F23E37200232373A37681
:10479000E376FF233B40013B5900C9188900C91843
:1047A000012200232948FF26B246BC4602E0311C04
:1047B000031C013283426DD04E1C49004B5B244FD9
:1047C000B9180139097861180B701F124F70002B4E
:1047D00069D0311C0C2AECD967461C4A934203D09D
:1047E00049004B5B002B03D14023584618438346B6
:1047F0005946217001234A46D3700E980021154B6B
:10480000984700285DD1013F002FAAD145464FE0CF
:10481000616400006939000001000008F52F000004
:1048200031390000A52A0000ED390000F12A00000E
:10483000B12D0000DD2A000021100100ED41000033
:1048400065350000192B0000D92C0000FFFF000087
:10485000A46C0000293700000E9B5B6B0393181CAF
:10486000002120221A4B98470E9E766B0296301C30
:10487000291C0B22174B98470E9F7B6B4322BA5C77
:1048800018210A401A7301234846C370201C18E0FF
:10489000072016E0104FBE18013E3678A61957467D
:1048A0003770777096E70C2A00D880E767469BE759
:1048B0000E98006B019048460199084B9847041EDA
:1048C000CAD025B03CBC90469946A246AB46F0BD46
:1048D000F12A0000DD2A0000A46C0000D92C0000A1
:1048E000031CC87E00028A7E10431B78032B05D16F
:1048F0004B7D1B020A7D13431B0418437047C046BF
:10490000F0B55F4656464D464446F0B4A1B0061C8D
:104910000B9101680C910B9A13782F2B06D05C2B0E
:1049200006D0CB6983600CE0013302E00B9B00E012
:104930000B9B1A782F2AF7D05C2AF5D00B93002313
:10494000B3600C990B78042B20D1B268002A1DD0DB
:104950000B6AF361496A31620C9A926A72620EA81C
:10496000311CA64B9847002800D019E20C9B1B690C
:10497000181C3830A24B98473061002373610C99A2
:1049800009692123CB5C02221340F3710B9A13783F
:104990001F2B02D99B4B9A4607E080224323F254F7
:1049A000301C0021984B9847FAE13368DB680A9382
:1049B0000B9908781F2800D8B9E12F280FD05C2860
:1049C00011D01D1C0F1C0137012480235B009B4666
:1049D0001CE02F280DD05C2812D10B990AE000248E
:1049E00001230B9906E0002401230B9902E0013317
:1049F00000E00B99CA5C2F2AF9D05C2AF7D01AE0A4
:104A0000023501375B4500D1B8E11C1C0121D047BC
:104A1000002800D1B2E17F2800D981E1011E2229BE
:104A200000D1ABE1794B1A78002A00D178E101334B
:104A30009142F8D1A2E1CA180B9200231F228242B0
:104A40005B419B009946012C04D10A990B882E2BBF
:104A500010D115E0022C04D10A9A53882E2B09D1CB
:104A600004E0002C06D10A9B9B4668E10A990B885A
:104A70002E2B05D0664AA3185B000A99CB1816E0C6
:104A8000630000220A995A52002320202E27021C7C
:104A9000A34200D23A1CF11838310A7001330B2BB3
:104AA000F5D120224B461A434323F2545EE11A8883
:104AB000202A01D02E2A06D1013C023B002CF6D13F
:104AC0000A998B463BE16200904600230A998B527B
:104AD000002C00D152E1301C383020210B224D4BEC
:104AE00098470A9A002301E00133023211882029F5
:104AF000FAD02E29F8D0002B00D125E10322494617
:104B00001143894620E1013C002C07D10822904640
:104B100000218B4600220D924F4604E0023A518854
:104B20002E29F0D1F2E75D1C5B000A99585A002843
:104B300060D0202804D02E2806D1AC4200D11FE13D
:104B400003231F432B1CEEE7C34502D2AC421AD10C
:104B500006E142460B2A06D1B946032349461943CA
:104B600089460D9B5EE0AC4203D003231F43A54260
:104B700056D80D9A9300DBB20D93231C0B21884667
:104B800008229346CFE77F280DD900211D4B984777
:104B9000002800D1FAE02049081880380078022364
:104BA0001F4300280AD0011E2B2907D01B4B1A785F
:104BB000002A00D1EDE001339142F8D103231F43D5
:104BC0005F200FE002230D9A1A430D920AE0031CA6
:104BD000613B9BB2192B05D801230D9919430D9107
:104BE000203880B25A46B318383318702B1C012174
:104BF0008B4498E7B9460D9B14E0C046313900005C
:104C00002D2A00005956000065350000DD6C0000BB
:104C1000FFFFFF7FF12A0000186D0000E96C000023
:104C2000B9460D9B3822B25CE52A02D10521382213
:104C3000B1544246082A02D19B00DBB20D930C23EB
:104C40000D990B400C2B03D003220A40032A03D1F9
:104C500002224946114389464A4692070ED403224E
:104C60000D990A40012A03D1102249461143894671
:104C7000042B03D108234A461A439146432349464D
:104C8000F15473E0042800D08AE09A0607D559074A
:104C900000D48AE680224323F254002080E00420DE
:104CA00018404342584104307AE05A0734D4B3796B
:104CB000D90633D50C9A1378042B22D1B368F3614B
:104CC000FF2332699A43F37913433362716C716243
:104CD0000C9A1269101C3430354B9847B0600C9B0D
:104CE0001B69029321230299CB5C02221340F371CA
:104CF0000C9A1269101C38302E4B98473061716144
:104D000053E6B36AD905C90D58310C9A5118101CD5
:104D1000294B9847B06048E6002041E005203FE07D
:104D20002880631C38781F2800D952E601E000244F
:104D300001230B99C9180B910422914683E6640064
:104D400000235946635219E00A990A1C4244023A68
:104D500012882E2A00D1D9E64246043A8A18D2E6B1
:104D600042460B2A00D004E7B946F6E6301C134B46
:104D700098474323F35C002884D196E706200FE090
:104D800043460B2B00D0F4E6B946E6E602231F4368
:104D900014E7031C413B9BB2192B00D812E716E71E
:104DA00021B03CBC90469946A246AB46F0BDC046F9
:104DB0002D2A0000452A0000E1480000ED410000D6
:104DC000F0B557464E464546E0B498B0051C0391F1
:104DD000141C0920002D00D1C5E13F26164003A870
:104DE00005A9321CCE4B98478146002800D093E19C
:104DF0000598069006A80399CA4B9847002800D04A
:104E00005EE1432306AAD35C7F2B00D85DE156E127
:104E100000280BD0042800D062E106A8C24B9847B6
:104E200008231E4300280AD0814675E106AB9B7912
:104E300011221A4200D04DE1610700D54DE1320741
:104E400000D499E0B94B9847071C059C2378042BA4
:104E50004FD12C6020693430B54B9847A860206949
:104E60003830B44B984728616961212398462069FE
:104E7000C35C02221340EB7120690830391CAE4C30
:104E8000A047059B002292461869027518690C30EC
:104E9000391CA047059B50461A6950752022196994
:104EA0000A71186934300021A047059B1869383011
:104EB00000220023A14CA047059B1869283000223E
:104EC0000023A047059B1B69012240461A5406A8EF
:104ED0009B4B9847002800D004E1A96800294BD0DB
:104EE000281C5246974B9847AA68013A059B5A617D
:104EF0003FE013980E30391C8F4CA04713981630A2
:104F0000391CA04720231399CB72059F139A904612
:104F1000381C111C8C4B98478246381C4146002295
:104F20008A4B984713981C300021A047012305980D
:104F3000C370514600291FD0059B5C6C06A8002257
:104F4000804B9847002800D0CEE00598211C804B6C
:104F500098475246013A059B5A610AE006AB9B7995
:104F6000DA0600D5C2E0A00706D5D90700D5C0E013
:104F700002E0002800D0BFE0320701D540231E43E5
:104F8000059F7B6C2B64139868643B78042B1CD1C1
:104F900038693430664B9847A86038693830654BBB
:104FA0009847286169613A692123D35C0222134042
:104FB000EB7106AB0899E961FF220A999143DA790E
:104FC0000A432A62179B6B620CE0139C381C211C5D
:104FD0005D4B9847A860201C1C30554B98472861B2
:104FE00000236B61059B2B60DB88AB802823EE548C
:104FF00000232922AB54EB6300200021286369635E
:105000002C1C4834201C002180229200514B9847D0
:10501000B20600D4A6E02E696F69331C3B4300D171
:10502000A0E02E636F63AB689C46059841894902F6
:10503000009100230193002F03D19F4265D18E423E
:1050400063D90099019A761A9741434A92460223FE
:105050009846281C6146D0478446012801D94B4612
:1050600000E043466046013048D0002B49D1321C55
:105070003B1C00980199121A8B418F4204D8019968
:105080008F4242D1864240D9161C1F1CE1E7059A87
:105090009046101C6146314B9847022399460028E0
:1050A0003AD0FB05720A1A438218EA6341464878EF
:1050B000211C01232A4CA04700282BD152E00620B6
:1050C0001C231C4200D0A3E653E71C231C4200D043
:1050D000ACE643E7072291461EE0082399461BE011
:1050E000814619E0814617E0814615E0042081469B
:1050F00012E0072189460FE081460DE0012291462A
:1051000000E099466346AB6306E06046A863F3059A
:10511000BDD127E00121894600232B60484622E0CB
:105120003D3B0000014900007D440000212A0000B1
:105130002D2A0000452A0000952A0000A52A00001B
:10514000ED39000025360000E14800003130000054
:10515000D92C0000F12A0000FD310000012B0000D5
:1051600095290000002018B01CBC90469946A24624
:10517000F0BDC046F0B55F4656464D464446F0B4D5
:1051800087B0041C0E1C151C1F1C00233B600390E1
:1051900005A9734B9847031E00D0D8E02923E25C91
:1051A000131E00D0D3E02823E25C0723D00700D4ED
:1051B000CDE022696369206B616B121A8B41002B71
:1051C00002D1954200D9151C002D00D1BCE00296F9
:1051D000236B616BDA0500D08BE0059E7289013A82
:1051E0009146C8055A0A024348461040814616D1E6
:1051F0000B4301D1A06803E00398A16B594B98477A
:10520000012804D802222923E25402239FE0411CF2
:1052100004D101222923E254012398E0A063059AD6
:105220009246101CA16B504EB047002804D10222B8
:105230002923E25402238AE08346CB446A0A90463B
:105240002CD0564673894A449A4202D94946591A83
:105250008846524650784646F3B202995A46434E23
:10526000B047002804D001222923E25401236EE034
:105270002823E35C7F2B0DD9E06B5946431A9845F0
:1052800008D95B02029EF018211C4831802292004E
:10529000374B98474046400280463CE0E26B5A4517
:1052A00025D02823E35C7F2B12D951464878211C56
:1052B000483101232F4EB047002804D00122292372
:1052C000E254012343E02823E25C7F210A40E254B8
:1052D00005994878211C48315A460123234EB0478E
:1052E000002804D001222923E25401232FE058464C
:1052F000E063216BCA05D20D80239B009B1AA84650
:105300009D4200D99846C905C90D483161180298D7
:105310004246174EB0470298061C46440296404645
:10532000009000210191226B636B00980199121883
:105330004B412263636339680B1C43443B60424624
:10534000AD1A00D044E701E0002300E00023181C60
:1053500007B03CBC90469946A246AB46F0BDC0465D
:10536000352C0000FD310000012B000095290000C4
:10537000DD2A0000C1290000F0B595B0041C01A988
:105380004A4B9847031C002B00D08CE02823E35C99
:105390000020590600D486E05BB2002B10DA019A97
:1053A0005078211C4831E26B0123414DA847031C72
:1053B0000120002B77D12823E25C7F210A40E254B0
:1053C0003C4B9847061C01980278042A44D1201CC3
:1053D000394B9847031C002B65D102A8211C374B81
:1053E000984700285FD1019B1A6910792021014359
:1053F0001171E17901221143212218698154186940
:105400003430A1682E4DA847019B186938302269B5
:1054100063692C4FB847019B18692830226963697A
:10542000B847019B18690C30311CA847019B00222A
:1054300019694A75186910300021A84702A8224B43
:10544000984700282FD10198204B98472823E25CE9
:1054500040218A43E25426E0216C1D4B9847031CEF
:10546000002B20D1656CEA7A20231343EB7220686D
:10547000291CA268174B9847281C1C302169104F23
:10548000B847281C1630311CB8470023AB74EB74A6
:105490000123019AD37001980C4B98472823E25CB2
:1054A00040218A43E25415B0F0BDC046352C0000BF
:1054B000C1290000212A0000F52F00003139000029
:1054C000952A0000A52A0000ED390000092E0000F1
:1054D000D92C00003130000010B582B0041C074BFD
:1054E0009847002807D1201C01A9054B98470028A0
:1054F00001D10022226002B010BDC04679530000E5
:10550000352C000030B585B0041C01910920002C19
:1055100054D001A803A90022294B9847031E38D173
:10552000039A2260201C0199264B9847031E42D102
:105530004323E35C7F2B30D8A379DA0628D5039D7B
:105540002B78042B1BD1A368E361FF2322699A43C4
:10555000E37913432362626C6262286934301A4B28
:105560009847A06028693830184B984720616161DE
:105570002A692123D35C02221340E3710DE0281C29
:10558000616B134B9847A06007E0002B16D000E03A
:10559000052300222260181C10E0039AD388A38000
:1055A000201C00210B4B9847031E042BEDD1052333
:1055B000EFE70523EDE70428EBD1FAE705B030BDAE
:1055C0003D3B0000014900002D2A0000452A000053
:1055D000E14800006535000010B582B0041C01A947
:1055E000034B9847002801D10023236002B010BD6F
:1055F000352C000070B582B0051C0E1C01A9114BA2
:105600009847041E1BD1002E05D1281C00210E4BEB
:105610009847041C13E0281C00210C4B9847FB23DF
:1056200018420BD1281C311C094B9847281C00211B
:10563000084B9847042802D0041C00E0041C201CDE
:1056400002B070BD352C0000653500001940000027
:1056500049300000293700007F281DD9002902D1D8
:10566000C72807D112E0FF2815D8803840000B4B1F
:10567000C05A11E0094A023201231188814206D042
:1056800001339BB20232802BF7D100E0002380333C
:10569000FF20184000E000207047C046BC6D0000AD
:1056A000F0B5474680B4214B984201D8204A00E02B
:1056B000204AFF271388002B35D0984233D3043279
:1056C000911E09880C12A6B239405D18A84225DA4D
:1056D000082C28D8A400184909598F46C31A5B0022
:1056E000985A20E0C31A01221340C01A80B21AE06F
:1056F000103880B217E0203880B214E0303880B221
:1057000011E01A3880B20EE0083080B20BE0503859
:1057100080B208E0094BC01880B204E0002EC9D165
:1057200049005218C6E704BC9046F0BDFF0F0000C8
:10573000BC6E0000B0700000986D0000A0E3FFFF99
:1057400008B5014B984708BDC965000008B5014B75
:10575000984708BDDD65000010B5041C002110222B
:10576000064B984701200121054B984720600028EF
:1057700001D00023E360201C10BDC0463566000048
:105780004565000070B5041C0E1C002110220B4B57
:105790009847301C0A4B9847051C0130094B984725
:1057A0002060002808D0311C074B98476560002313
:1057B000E360A3680133A360201C70BD3566000060
:1057C00013680000C96500000368000070B5041C80
:1057D0000E1C002110220A4B98477568681C094B63
:1057E00098472060002808D03168074B98476560CB
:1057F0000023E360A3680133A360201C70BDC04692
:1058000035660000C96500000368000010B5041C7F
:105810000068002801D0044B9847201C002110226A
:10582000024B9847201C10BDDD6500003566000066
:10583000F8B5041C0E1E16D0081C0B4B9847071C0D
:10584000411C2068094B9847051C00230370002861
:1058500009D0311C064B984725606760A368013367
:10586000A3600023E360F8BD13680000996700009F
:10587000D5670000F8B5041C0E1E13D04F68791CC4
:105880000068094B9847051C00230370002809D0C5
:105890003168064B984725606760A3680133A360B1
:1058A0000023E360F8BDC04699670000D56700009B
:1058B000F8B5041C0D1C0068002813D0002911D075
:1058C00062684B68D718791C074B9847061E09D0A9
:1058D0002968064B984726606760A3680133A36078
:1058E0000023E360F8BDC04699670000D56700005B
:1058F000F0B583B0041C0D1E082D1AD07F290FD1DE
:1059000017E001A90D7000234B70301C0E4B984717
:105910000023F355266067600122A260E36011E076
:1059200041684F1C02310068084B9847061EE8D1B9
:1059300008E06168002905D04F1E2068034B984796
:10594000061EE5D103B0F0BDD567000099670000E1
:1059500010B5041C00680121054B98470023037013
:1059600063602060E360A3680133A36010BDC0469C
:1059700099670000F0B5474680B4061C0F1C151C43
:105980000068002816D08B187268934210D2681CE9
:105990000A4B9847041E0DD00023984623703168A7
:1059A000C9192A1C064B984743466355201C01E041
:1059B0000020FFE704BC9046F0BDC046C96500006A
:1059C0004D68000070B5051C0E1C0068002812D040
:1059D000686888420DD90130401A074B9847041E69
:1059E00009D00023037029688919044B9847201CAB
:1059F00001E00020FFE770BDC965000003680000FA
:105A000010B5041C0023037043708370C3700371CE
:105A100043718371C37101200421024B98472060B8
:105A2000201C10BD45650000F8B5041C0268002A62
:105A300019D04368002B11D00C4F0D4E0D4A9B1806
:105A40009B0022689D58002D03D0281CB847281CB5
:105A5000B0476368013B6360002BEFD12068064BC1
:105A6000984700232360201CF8BDC0460D58000055
:105A70004D570000FFFFFF3FDD650000F8B5041C37
:105A80000E1E2AD000282AD00268002A29D0102011
:105A9000164B9847051C311C154B9847002D22D0FA
:105AA0006168013189002068124B9847071E07D1B1
:105AB000281C114B9847281C104B9847FD2013E0D9
:105AC000281C311C0E4B984762689300DD512760FB
:105AD000636801336360002006E0FA2004E0FE20E2
