S02000004578616D706C65586D6567615F45355F58706C61696E65642E73726563D9
S11300000C945A000C9482000C9482000C9482008C
S11300100C9482000C9482000C9482000C94820054
S11300200C9482000C9482000C9482000C94820044
S11300300C9482000C9482000C9482000C94820034
S11300400C9482000C9482000C9482000C94820024
S11300500C9482000C9482000C9482000C94820014
S11300600C9482000C9482000C9482000C94820004
S11300700C9482000C9482000C9482000C948200F4
S11300800C9482000C9482000C9482000C948200E4
S11300900C9482000C9482000C9482000C948200D4
S11300A00C9482000C9482000C948200C0025104CF
S11300B0C902560411241FBECFEFCDBFDFE2DEBF5D
S11300C010E2A0E0B0E2EEEFF0E102C005900D9284
S11300D0AC3DB107D9F720E2ACEDB0E201C01D920E
S11300E0AB3FB207E1F710E0C0EBD0E004C02297C9
S11300F0FE010E94B206CC3AD107C9F70E948400DF
S11301000C9472080C9400000E94890080E090E036
S11301100895A7E2B0E0EFE8F0E00C94C30604E130
S113012010E020E030E040E050E060E070E0CE011C
S113013041960E94DB0304E620E030E040E050E01A
S113014060E070E0CE0101960E94DB0360EC70E297
S1130150CE0181960E94CE02F12C8CED90E20E9499
S1130160BF02CE0141960E940504CE0101960E9471
S11301700504882391F3BE01695D7F4F87EC90E20B
S11301800E9485038FA1882321F1FF2071F00CE0E8
S113019013E020E030E040E050E060E070E0CE01A9
S11301A001960E94F303F12C0EC004EB10E020E052
S11301B030E040E050E060E070E0CE0101960E9443
S11301C0F303FF24F39460E087EC90E20E943C0385
S11301D0C4CF04E110E020E030E040E050E060E013
S11301E070E0CE0101960E94F30361E087EC90E297
S11301F00E943C03B2CFA0E0B0E0E1E0F1E00C9457
S1130200C0067C016B01E091E220F091E32030977D
S113021059F0C081D181209739F08981811109C0B9
S113022003C08981811108C0F6011082118285EF13
S113023015C08F010E5F1F4FB701CE0101960E94BA
S11302405B08892B39F0F801C191D1918F01209776
S113025041F7EACFF601C083D18380E0CDB7DEB7A2
S1130260E8E00C94D906A0E0B0E0E9E3F1E00C94F6
S1130270C0067C016B01E091E420F091E520309709
S113028089F0C081D181209769F0CE01449651F064
S11302902C8921110CC006C0CE01449619F02C897A
S11302A0211108C0F6011082118285EF13C08F015D
S11302B00E5F1F4FB7010E945B08892B39F0F801CC
S11302C0C191D1918F01209739F7ECCFF601C0830A
S11302D0D18380E0CDB7DEB7E8E00C94D906A0E086
S11302E0B0E0E5E7F1E00C94C0067C016B01E0911D
S11302F0E620F091E720309789F0C081D1812097E2
S113030069F0CE01019651F0298121110CC006C07B
S1130310CE01019619F02981211108C0F60110823D
S1130320118285EF13C08F010E5F1F4FB7010E942A
S11303305B08892B39F0F801C191D1918F01209785
S113034039F7ECCFF601C083D18380E0CDB7DEB7B7
S1130350E8E00C94D906A0E0B0E0E1EBF1E00C9405
S1130360C0067C016B01E091E820F091E920309710
S113037089F0C081D181209769F0CE01019651F0B6
S1130380298121110CC006C0CE01019619F02981E2
S1130390211108C0F6011082118285EF13C08F016C
S11303A00E5F1F4FB7010E945B08892B39F0F801DB
S11303B0C191D1918F01209739F7ECCFF601C08319
S11303C0D18380E0CDB7DEB7E8E00C94D906A0E095
S11303D0B0E0EDEEF1E00C94BA067C018EE0F7019A
S11303E011928A95E9F780913620882309F48CC00C
S11303F0EBE4F0E2C1E0D0E08081882339F021967B
S11304007596C11582E0D807B9F79AC0BE016F5F2F
S11304107F4F660F771F81E090E00E941107F7017C
S113042086839783209709F478C006E310E2C12CF1
S1130430D12C602E712EF80180818823C1F086E2D0
S113044090E00E945B045C01F70186809780C601FE
S1130450880F991F880E991EA114B10429F0602FEA
S1130460712FC5010E94E105F401A082B182FFEF62
S1130470CF1ADF0A0B5E1F4FCC16DD06D1F64DC036
S11304808081882339F021967896C11582E0D807B7
S1130490B9F763C0BE016F5F7F4F660F771F81E0BE
S11304A090E00E941107F70184879587209709F44B
S11304B061C006E010E2C12CD12C602E712EF8012F
S11304C080818823C1F08FE190E00E945B045C018D
S11304D0F70184849584C601880F991F880E991E9C
S11304E0A114B10429F0602F712FC5010E94FD05EC
S11304F0F401A082B182FFEFCF1ADF0A085E1F4F1A
S1130500CC16DD06D1F636C062E070E081E090E002
S11305100E941107F7018683978380910620882320
S113052029F0EEE1F0E2C1E0D0E0AACF62E070E0B1
S113053081E090E00E941107F701848795871AC033
S1130540BE016F5F7F4F660F771F81E090E00E94CE
S11305501107F7018683978368CFBE016F5F7F4FD2
S1130560660F771F81E090E00E941107F7018487EE
S113057095879FCFCDB7DEB7EEE00C94D3060895F0
S11305808AEE90E20E94AE068CED90E20E94E701B2
S113059008958AEE90E20E94AF060895A8E0B0E0C4
S11305A0E4EDF2E00C94C2068C017B0186E0F801D4
S11305B011928A95E9F7BE01695F7F4FC7010E94D6
S11305C0FB00811108C08F819885F8018283938391
S11305D081E0818334C0BE016B5F7F4FC7010E94FD
S11305E03301811108C08D819E81F8018283938338
S11305F083E0818324C0BE016D5F7F4FC7010E94E9
S11306006F01811108C08B819C81F80182839383DF
S113061084E0818314C0BE016F5F7F4FC7010E94D5
S1130620AB01811108C089819A81F8018283938387
S113063082E0818304C0F801118212821382289619
S1130640E6E00C94DB06FC01118212821382089509
S1130650FC0182819381009749F02181222341F09A
S1130660213041F470E00E94B00408958FEE0895A3
S11306708FEE089588EF0895A6E0B0E0E2E4F3E099
S11306800C94C506162FBC01CE0101960E94CE0221
S1130690612FCE0101960E942803182FCE010196E6
S11306A00E942303812F2696E3E00C94DE06A4E047
S11306B0B0E0EDE5F3E00C94C406FC018B0182810B
S11306C093810097C9F021812223C1F02130C1F424
S11306D0BE016F5F7F4F0E94440549815A816B813F
S11306E07C81452B462B472B21F091E0F801908328
S11306F008C0F801108205C08FEE03C08FEE01C060
S113070088EF2496E4E00C94DD06A6E0B0E0EBE884
S1130710F3E00C94C4068B01BC01CE0101960E9447
S1130720CE02B801CE0101960E945703182FCE01C4
S113073001960E942303812F2696E4E00C94DD06A3
S1130740AF92BF92CF92DF92EF92FF920F931F93DB
S1130750FC01662321F12091EF203091F02040919B
S1130760F1205091F2206091F3207091F420809157
S1130770F5209091F620A080B180C280D380E480DF
S1130780F580068117810E94E7069F7720873187CD
S113079042875387648775878687978703C08785D1
S11307A0806887871F910F91FF90EF90DF90CF9023
S11307B0BF90AF9008950F931F93FC0180E1DF0178
S11307C01D928A95E9F77F7700831183228333830F
S11307D0448355836683778361E0CF010E94A0033D
S11307E01F910F9108950F931F93FC017F7700834E
S11307F0118322833383448355836683778361E043
S11308000E94A0031F910F910895A0E0B0E0EBE0D7
S1130810F4E00C94B906FC015084618472848384EE
S11308209484D585C685B785252D362D472D582D1D
S1130830692D7D2F8C2F9B2FA0E00E9405074CF182
S1130840A090EF20B090F020C090F120D090F22042
S1130850E090F320F090F4200091F5201091F62020
S11308609F77AFEF0E94F0061F770E94FC0620E0FE
S113087030E040E050E060E070E080E09078A0E09C
S11308800E94050741F061E0CF010E94A00381E0CE
S113089003C080E001C080E0CDB7DEB7EFE00C9488
S11308A0D2068BEE90E20E94690408958BEE90E2EA
S11308B00E947B0408950E942D0708950E94C50795
S11308C00895FC0180819181009711F00E94C50771
S11308D00895CF93DF93EC01188219821A821B8248
S11308E062E070E081E090E00E94110788839983C0
S11308F0DF91CF9108950F931F93CF93DF93EC0172
S113090088819981892B39F12A813B81211531050F
S1130910E1F021503048220F331FE881F981E20FC2
S1130920F31F008111810115110531F0C8010E94E6
S11309306104C8010E945E042A813B81215031096F
S11309402A833B832115310521F7888199810E94EF
S1130950C50718821982DF91CF911F910F910895D5
S1130960FC01009709F452C085859685DC01B69593
S1130970A795B295A295AF70AB27BF70AB27AA0F0E
S1130980BB1FAC54BF4D0D90BC91A02D21892223D7
S113099061F014969C9114978F7168238095892334
S11309A0682B14966C9380E008952785222331F0F8
S11309B09B0141E02427622F617070E0672B99F05E
S11309C015964C9115978F71992721E030E0B90164
S11309D002C0660F771F8A95E2F7CB01842B159628
S11309E08C9380E0089516964C9116978F719927F1
S11309F021E030E0B90102C0660F771F8A95E2F763
S1130A00CB01842B16968C9380E008958EEF089585
S1130A10FC010097B1F185859685DC01B695A79513
S1130A20B295A295AF70AB27BF70AB27AA0FBB1FBF
S1130A30AC54BF4D0D90BC91A02D2189222339F0D7
S1130A402C9130E0822393238F7199270895278571
S1130A50222379F018962C918F71992730E0822304
S1130A60932331E020E0892B09F030E0832F922F8B
S1130A70089518962C9130E0822393238F7199273F
S1130A8008958FEF9FEF0895CF93DF93EB010097C5
S1130A9051F00E940805A0E0B0E088839983AA83FE
S1130AA0BB8380E001C08EEFDF91CF910895009762
S1130AB009F483C0DC011D962D913C911E97F90128
S1130AC0F695E795F295E295EF70EF27FF70EF2723
S1130AD0EE0FFF1FEC54FF4D0190F081E02DAF01AC
S1130AE0405F5F4F6130C9F108F44FC06230E1F0FC
S1130AF0633009F064C027703327DA01A20FB31FF3
S1130B0028E12C93DC011D968D919C911E97877092
S1130B10992721E030E0A90102C0440F551F8A95AE
S1130B20E2F7428380E0089527703327DA01A20FA9
S1130B30B31F20E12C93DC011D968D919C911E978F
S1130B408770992721E030E0A90102C0440F551FA6
S1130B508A95E2F7428380E0089527703327DA010B
S1130B60A20FB31F1C92DC011D968D919C911E97C0
S1130B708770992721E030E0A90102C0440F551F76
S1130B808A95E2F7428380E0089527703327DA01DB
S1130B90A20FB31F1C92DC011D968D919C911E9790
S1130BA08770992721E030E0A90102C0440F551F46
S1130BB08A95E2F7418380E008958EEF08958BEFE4
S1130BC00895CF93DF93EC0186E2FE0111928A959A
S1130BD0E9F7DE01119685E1FB0101900D928A95FA
S1130BE0E1F76889CE010E9457056A897B89CE01A5
S1130BF00E94B004DF91CF910895A0E0B0E0E3E05B
S1130C00F6E00C94C0066C017B018FE1F6011192B1
S1130C108A95E9F706E010E2C801C0E0D0E004C01C
S1130C2085EFF601808395C0B7010E945B08892B8C
S1130C3051F021969801285E3F4FC90121153105D5
S1130C4079F38901F1CF45E050E06DEC70E2C70122
S1130C500E946408892B69F047E050E063ED70E27C
S1130C60C7010E946408892BE9F185EFF6018083AE
S1130C7070C0F70185818053843020F085EFF60140
S1130C80808367C0F601828F8FE111928A95E9F71C
S1130C90FE01EE0FFF1FCE0FDF1FFE01EE0FFF1F41
S1130CA0EE0FFF1FEE0FFF1FEA5FFF4D88E1D60135
S1130CB0119601900D928A95E1F7F601228DE22FAB
S1130CC0F0E0EE0FFF1FE454FF4D80819181F601A7
S1130CD0858F968F2130B9F048F0223009F1233006
S1130CE061F137C08AEFF601808333C0E0E4F6E0B7
S1130CF086858F7E868788E1828B84E0828388E084
S1130D008183858326C0E0E4F6E08685806186875A
S1130D1088E1868B80E4828380E88183858319C09F
S1130D20E0E6F6E086858F7E868788E1828B84E024
S1130D30828388E0818385830CC0E0E6F6E08685C3
S1130D408061868788E1868B80E4828380E8818362
S1130D508583CDB7DEB7E8E00C94D90608950895ED
S1130D60EE0FFF1F0590F491E02D09942F923F920E
S1130D704F925F926F927F928F929F92AF92BF92A7
S1130D80CF92DF92EF92FF920F931F93CF93DF9353
S1130D90CDB7DEB7CA1BDB0BCDBFDEBF09942A88F3
S1130DA0398848885F846E847D848C849B84AA847B
S1130DB0B984C884DF80EE80FD800C811B81AA8108
S1130DC0B981CE0FD11DCDBFDEBFED0108952A0D2F
S1130DD03B1D4C1D5D1D6E1D7F1D801F911F0895C1
S1130DE00024A7FD00942A0F301D401D501D601DD6
S1130DF0701D801D901D08952A193B094C095D0939
S1130E006E097F09800B910B08950024A7FD0094BF
S1130E102A173005400550056005700580059005CA
S1130E2008950F931F93CF93DF93869F8001879F2D
S1130E30100D969F100D1124C8010E942D07EC017E
S1130E40009729F0A80160E070E00E945408CE01E8
S1130E50DF91CF911F910F910895CF93DF9382304B
S1130E60910510F482E090E0E091F920F091FA20ED
S1130E7020E030E0A0E0B0E0309739F140815181CA
S1130E8048175907B8F04817590771F482819381BC
S1130E90109729F012968D939C9313972CC08093EE
S1130EA0F9209093FA2027C02115310531F042171B
S1130EB0530718F0A901DB0101C0EF019A01BD013C
S1130EC0DF010280F381E02DD7CF21153105F9F040
S1130ED0281B390B2430310580F48A819B816115EC
S1130EE0710521F0FB018283938304C08093F92070
S1130EF09093FA20FE01329644C0FE01E20FF31FE4
S1130F008193919322503109288339833AC02091E7
S1130F10F7203091F820232B41F4209102203091C6
S1130F2003202093F7203093F82020910020309163
S1130F3001202115310541F42DB73EB7409104201D
S1130F4050910520241B350BE091F720F091F820F7
S1130F50E217F307A0F42E1B3F0B2817390778F08C
S1130F60AC014E5F5F4F2417350748F04E0F5F1FEB
S1130F704093F7205093F8208193919302C0E0E0CE
S1130F80F0E0CF01DF91CF910895CF93DF930097E5
S1130F9009F487C0FC01329712821382C091F920B0
S1130FA0D091FA20209781F420813181280F391FB4
S1130FB08091F7209091F8208217930779F5E093B8
S1130FC0F720F093F8206DC0DE0120E030E0AE178A
S1130FD0BF0750F412964D915C9113979D014115F2
S1130FE0510509F1DA01F3CFA283B3834081518122
S1130FF0840F951F8A179B0771F48D919C9111970B
S1131000840F951F02968083918312968D919C91F3
S11310101397828393832115310529F4E093F920F2
S1131020F093FA203EC0D9011296ED93FC931397E6
S11310304D915D91A40FB51FEA17FB0779F48081E8
S11310409181840F951F0296D9018D939C931197DA
S11310508281938112968D939C931397E0E0F0E044
S11310608A819B81009719F0FE01EC01F9CFCE0132
S1131070029628813981820F931F2091F7203091A5
S1131080F8202817390769F4309729F41092F920C9
S11310901092FA2002C012821382C093F720D093D8
S11310A0F820DF91CF910895DC0101C06D93415088
S11310B05040E0F70895FB01DC018D910190801907
S11310C00110D9F3990B0895FB01DC014150504004
S11310D030F08D910190801919F40020B9F7881B24
S11310E0990B089510E0C0EBD0E004C0FE010E940B
S11110F0B2062296C43BD107C9F7F894FFCF8D
S11310FE0000FB202000756172742D320000000088
S113110E00006700660000C201000000000000003D
S113111E00000000000000000000000000000000BD
S113112E0000000000006C65642D3000000000001B
S113113E00003800010000000000006C65642D31D1
S113114E0000000000000039000100000000000053
S113115E6C65642D320000000000000027000100C1
S113116E00000000006862746E2D30000000000064
S113117E002400010100000000006862746E2D312D
S113118E0000000000002500010100000000000026
S113119E000000000000000000000000000001003C
S11311AE00000000000640066006E007C008C00903
S11311BE756172742D30006C65642D30007561722A
S10F11CE742D007573626364632D0000CF
S9030000FC
