S02000004578616D706C65586D6567615F45355F58706C61696E65642E73726563D9
S11300000EC4000033C4000031C400002FC400003B
S11300102DC400002BC4000029C400000C94AA289D
S113002025C4000023C4000021C400001FC4000034
S11300301DC400001BC4000019C4000017C4000044
S113004015C4000013C4000011C400000FC4000054
S11300500DC400000BC4000009C4000007C4000064
S113006005C4000003C4000001C40000FFC3000075
S1130070FDC30000FBC30000F9C30000F7C3000088
S1130080F5C30000F3C30000F1C30000EFC3000098
S1130090EDC30000EBC30000E9C30000E7C30000A8
S11300A0E5C30000E3C30000E1C30000CA21D4217A
S11300B0DC21DE21E021E221E421E621E921496E6F
S11300C076616C696420706174682E0A0D00496E53
S11300D076616C696420706174682E0A0D00556E37
S11300E06B6E6F776E206572726F720047494000C5
S11300F04F7574206F66206D656D6F72790A0D00FF
S1130100636174006364006C7300476976656E20F4
S1130110706172616D6574657220697320696E76B1
S1130120616C69642E004E756D626572206F662085
S11301306F70656E2066696C6573203E205F465360
S11301405F4C4F434B2E004C464E20776F726B69C9
S11301506E672062756666657220636F756C6420D5
S11301606E6F7420626520616C6C6F63617465648A
S11301702E00546865206F7065726174696F6E201B
S113018069732072656A6563746564206163636F73
S11301907264696E6720746F207468652066696C88
S11301A0652073686172696E6720706F6C6963792A
S11301B02E00436F756C64206E6F74206765742025
S11301C061206772616E7420746F2061636365736C
S11301D0732074686520766F6C756D65207769741B
S11301E068696E20646566696E656420706572690D
S11301F06F642E0054686520665F6D6B66732829F2
S11302002061626F727465642064756520746F2068
S1130210616E792070726F626C656D2E0054686532
S11302207265206973206E6F2076616C6964204664
S1130230415420766F6C756D652E00546865207688
S11302406F6C756D6520686173206E6F20776F72B7
S11302506B20617265612E00546865206C6F67695C
S113026063616C206472697665206E756D62657277
S113027020697320696E76616C69642E0054686528
S113028020706879736963616C2064726976652093
S113029069732077726974652070726F7465637412
S11302A065642E005468652066696C652F64697204
S11302B06563746F7279206F626A65637420697311
S11302C020696E76616C69642E00416363657373A3
S11302D02064656E6965642064756520746F2070A0
S11302E0726F6869626974656420616363657373BE
S11302F02E004163636573732064656E69656420D1
S113030064756520746F2070726F686962697465C2
S11303106420616363657373206F7220646972651E
S113032063746F72792066756C6C2E005468652056
S113033070617468206E616D6520666F726D6174A2
S113034020697320696E76616C69642E00436F7551
S11303506C64206E6F742066696E64207468652016
S1130360706174682E00436F756C64206E6F742026
S113037066696E64207468652066696C652E005435
S1130380686520706879736963616C20647269764A
S1130390652063616E6E6F7420776F726B2E0041FF
S11303A07373657274696F6E206661696C65642E1F
S11303B000412068617264206572726F72206F63FD
S11303C063757272656420696E20746865206C6F51
S11303D077206C6576656C206469736B20492F4FB8
S11303E0206C617965722E0053756363656564657D
S11303F0642E000000000000000000000000000067
S113040000000100000000006862746E2D310000DD
S11304100000000062000103000000000068627434
S11304206E2D300000000000006000010300000099
S113043000006C65642D31000000000000006500C0
S1130440010000000000006C65642D300000000015
S11304500000006400010000000000007D1D010098
S1130460632C001E9601A01E5A01001F0806101FCF
S11304700606201F0806301F0806401F0606511FE7
S11304800700591F521F5B1F541F5D1F561F5F1F1C
S1130490601F0806701F0E00BA1FBB1FC81FC91FAC
S11304A0CA1FCB1FDA1FDB1FF81FF91FEA1FEB1F40
S11304B0FA1FFB1F801F0806901F0806A01F0806CE
S11304C0B01F0400B81FB91FB21FBC1FCC1F01000E
S11304D0C31FD01F0206E01F0206E51F0100EC1F28
S11304E0F21F0100FC1F4E21010032217021100275
S11304F0842101008321D0241A05302C2F04602C80
S11305000201672C0601752C0201802C6401002D68
S1130510260841FF1A03000061001A03E0001703D4
S1130520F8000703FF0001007801000130013201E7
S11305300601390110014A012E01790106018001E9
S11305404D004302810182018201840184018601FC
S11305508701870189018A018B018B018D018E013D
S11305608F0190019101910193019401F60196018B
S11305709701980198013D029B019C019D01200275
S11305809F01A001A001A201A201A401A401A6014E
S1130590A701A701A901AA01AB01AC01AC01AE01FD
S11305A0AF01AF01B101B201B301B301B501B501AE
S11305B0B701B801B801BA01BB01BC01BC01BE015D
S11305C0F701C001C101C201C301C401C501C401D5
S11305D0C701C801C701CA01CB01CA01CD0110017D
S11305E0DD0101008E01DE011201F3010300F101BE
S11305F0F401F401F8012801220212013A0209006F
S1130600652C3B023B023D02662C3F024002410244
S1130610410246020A01530240008101860155024B
S113062089018A0158028F015A0290015C025D021D
S11306305E025F0293016102620294016402650238
S113064066026702970196016A02622C6C026D02CF
S11306506E029C01700271029D01730274029F017B
S113066076027702780279027A027B027C02642C99
S11306707E027F02A60181028202A9018402850210
S113068086028702AE014402B101B20145028D0225
S11306908E028F0290029102B7017B030300FD03D7
S11306A0FE03FF03AC0304008603880389038A0363
S11306B0B1031103C2030200A303A303C403080389
S11306C0CC0303008C038E038F03D8031801F203B9
S11306D00A00F903F303F403F503F603F703F7033E
S11306E0F903FA03FA0330042003500410076004EA
S11306F022018A043601C1040E01CF040100C004A2
S1130700D0044401610526040000C700FC00E90090
S1130710E200E400E000E500E700EA00EB00E800A6
S1130720EF00EE00EC00C400C500C900E600C600FE
S1130730F400F600F200FB00F900FF00D600DC0034
S1130740A200A300A500A7209201E100ED00F300A0
S1130750FA00F100D100AA00BA00BF001023AC00D7
S1130760BD00BC00A100AB00BB00912592259325E0
S11307700225242561256225562555256325512505
S113078057255D255C255B251025142534252C254E
S11307901C2500253C255E255F255A255425692501
S11307A06625602550256C25672568256425652503
S11307B059255825522553256B256A2518250C25BE
S11307C0882584258C2590258025B103DF0093039B
S11307D0C003A303C303B500C403A6039803A9037A
S11307E0B4031E22C603B50329226122B100652287
S11307F0642220232123F7004822B0001922B700E5
S11308001A227F20B200A025A000010204081020B3
S1130810408003065D0CE8280B06620CEC281124CA
S11308201FBECFEFCDBFDFE2DEBF11E2A0E0B0E23A
S1130830E4E5F8E502C005900D92A636B107D9F7B4
S113084023E2A6E6B1E201C01D92AA38B207E1F79D
S113085018E0C8E1D8E004C02297FE010E942729CD
S1130860C231D107C9F703D00C941E2CC9CB03D0D5
S113087080E090E00895A5E3B0E0E1E4F4E00C94B6
S1130880422904E110E020E030E040E050E060E084
S113089070E0CE01419649D304E620E030E040E028
S11308A050E060E070E0CE0101963FD32EE930E2E3
S11308B0A901B901CE0181969BD56EE970E2CE0102
S11308C08F96AED1F12C86E691E29CD1CE01819631
S11308D058D6CE0141964FD3CE0101964CD38823EE
S11308E091F3BE016B5C7F4F85EA90E2D6D28DA96D
S11308F08823F1F0FF2069F00CE013E020E030E001
S113090040E050E060E070E0CE01019624D3F12C89
S11309100DC004EB10E020E030E040E050E060E087
S113092070E0CE01019617D3FF24F39460E00CC06D
S113093004E110E020E030E040E050E060E070E0EE
S1130940CE01019608D361E085EA90E218D2BBCFCC
S1130950A0E0B0E0EEEAF4E00C943F296C017B01E6
S113096000916C2110916D210115110549F0F801D8
S1130970C191D1918F01209719F08981811105C00E
S1130980F7011082118285EF0BC0B601CE010196EA
S11309900E94F12B892B59F7F701C083D18380E0A2
S11309A0CDB7DEB7E8E00C945829A0E0B0E0EBED59
S11309B0F4E00C943F296C017B0100916E211091AD
S11309C06F210115110559F0F801C191D1918F01E1
S11309D0209729F0CE0144962C89211105C0F701F6
S11309E01082118285EF09C0B6010E94F12B892B78
S11309F059F7F701C083D18380E0CDB7DEB7E8E0D3
S1130A000C945829A0E0B0E0E8E0F5E00C943F290C
S1130A106C017B0100917021109171210115110568
S1130A2059F0F801C191D1918F01209729F0CE019D
S1130A3001962981211105C0F7011082118285EFE9
S1130A4009C0B6010E94F12B892B59F7F701C08325
S1130A50D18380E0CDB7DEB7E8E00C945829A0E05C
S1130A60B0E0E5E3F5E00C943F296C017B010091D3
S1130A707221109173210115110559F0F801C191EA
S1130A80D1918F01209729F0CE010196298121115E
S1130A9005C0F7011082118285EF09C0B6010E94DA
S1130AA0F12B892B59F7F701C083D18380E0CDB7AF
S1130AB0DEB7E8E00C945829A5E1B0E0E2E6F5E001
S1130AC00C9439298C018EE0F80111928A95E9F78A
S1130AD0AEE5B0E2E12CF12CED91FD91E491EE2331
S1130AE039F0FFEFEF1AFF0AE11482E0F806A1F7EC
S1130AF0B7016F5F7F4F660F771F81E090E00E9420
S1130B009F29F80186839783FEE58F2EF0E29F2EBE
S1130B10C12CD12CCE14DF0459F1F40161917191EF
S1130B204F01FB0184918823F9F045E150E0CE01A7
S1130B3001960E94A32B86E290E00E94F8213C01DA
S1130B40F801A680B780C601880F991FA80EB91EA8
S1130B506114710431F0BE016F5F7F4FC3010E94C5
S1130B60C526F50160827182FFEFCF1ADF0AD2CF6A
S1130B70EEE2F0E2E12CF12C8081882341F08FEF4A
S1130B80E81AF80A7896E11482E0F806A9F7B701A2
S1130B906F5F7F4F660F771F81E090E00E949F296F
S1130BA0F801848795874EE2A42E40E2B42EC12C2E
S1130BB0D12CCE14DF0411F1F50180818823B9F022
S1130BC08FE190E00E94F8213C01F801848495842F
S1130BD0C601880F991F880E991E6114710421F0B3
S1130BE0B501C3010E943327F40160827182FFEFD3
S1130BF0CF1ADF0A88E1A80EB11CDBCF6596EEE0C0
S1130C000C945229089584E791E20E948C2886E688
S1130C1091E252CF089584E791E20C948E280895CE
S1130C20A8E0B0E0E6E1F6E00C9441298C017B01F8
S1130C3086E0F80111928A95E9F7BE01695F7F4F5A
S1130C40C70186DE811107C08F819885F8018283F0
S1130C50938381E029C0BE016B5F7F4FC701A5DE8E
S1130C60811107C08D819E81F8018283938383E083
S1130C701BC0BE016D5F7F4FC701C4DE811107C079
S1130C808B819C81F8018283938384E00DC0BE0133
S1130C906F5F7F4FC701E3DE811108C089819A81AC
S1130CA0F8018283938382E0818304C0F801118276
S1130CB0128213822896E6E00C945A29FC01828160
S1130CC093810097C1F021812223A9F06115710558
S1130CD091F0233039F0243059F0223079F40C9417
S1130CE0512808959A01AB0164810C94DF2608957C
S1130CF00C94E62608958FEE9FEF089588EF9FEFFA
S1130D000895FC0182819381009759F02181222367
S1130D1041F06115710529F0223031F40C94352825
S1130D2008958FEE9FEF089588EF9FEF0895FC01DB
S1130D3082819381009759F02181222341F061152A
S1130D40710529F0223031F40C94352808958FEE82
S1130D509FEF089588EF9FEF0895FC0182819381AE
S1130D60009749F02181222331F0213031F470E0E1
S1130D700C94E12508958FEE089588EF0895A6E078
S1130D80B0E0E5ECF6E00C944429162FBC01CE014A
S1130D90019646DF612FCE010196DFDF2696E3E060
S1130DA00C945D29A1E0B0E0E8EDF6E00C9445294F
S1130DB0FC01698382819381009781F02181222340
S1130DC069F0223069F441E050E0BE016F5F7F4F6B
S1130DD00E945128019731F082EF05C08FEE03C0C5
S1130DE088EF01C080E02196E2E00C945E29A4E043
S1130DF0B0E0EDEFF6E00C944229FC018B01828116
S1130E0093810097C1F0F180FF20A9F021E0F21254
S1130E1014C0BE016F5F7F4F0E945C2649815A81D6
S1130E206B817C81F801452B462B472B11F0F08216
S1130E3005C0108203C08FEE01C088EF2496E5E060
S1130E400C945B29CF93DF93FC01EB0182819381A6
S1130E500097D9F021812223C1F0213019F02230EA
S1130E6021F015C00E945C2615C00E9427288F3FE0
S1130E702FEF920771F0AA2797FDA095BA2F8883C8
S1130E809983AA83BB8380E005C08FEE03C088EFFB
S1130E9001C087EEDF91CF910895A6E0B0E0E3E5CD
S1130EA0F7E00C9443298B01BC01CE010196B8DE16
S1130EB0B801CE0101969BDF2696E4E00C945C29F0
S1130EC0AF92BF92CF92DF92EF92FF920F931F9354
S1130ED0FC0120917D2330917E2340917F2350910A
S1130EE08023609181237091822380918323909148
S1130EF08423A080B180C280D380E480F580068101
S1130F0017810E9466299F772087318742875387FC
S1130F1064877587868797871F910F91FF90EF905D
S1130F20DF90CF90BF90AF9008950F931F93FC0173
S1130F3080E1DF011D928A95E9F77F7700831183B1
S1130F40228333834483558366837783CF01B8DF59
S1130F501F910F9108950F931F93FC017F770083D6
S1130F601183228333834483558366837783A8DF85
S1130F701F910F910895A0E0B0E0E1ECF7E00C942C
S1130F803829FC0150846184728483849484D585D7
S1130F90C685B785252D362D472D582D692D7D2FD6
S1130FA08C2F9B2FA0E00E94842934F1A0907D23F4
S1130FB0B0907E23C0907F23D0908023E090812343
S1130FC0F09082230091832310918423AFEF0E9439
S1130FD06F291F770E947B2920E030E040E050E039
S1130FE060E070E080E09078A0E00E94842921F025
S1130FF0CF0166DF81E001C080E0CDB7DEB7EFE06E
S11310000C945129A2E6B0E0E8E0F8E00C943F2902
S11310107C018A01CE01855A9F4F0E94FD21D8018F
S11310206D917C91CE01855A9F4F0E947B226F96D1
S11310304EAD5FAD6F97415051096D968EAD9FAD2A
S11310406D974F3FBFEF5B0749F0FC01E40FF51FBD
S113105020812F3219F041505109F3CF6A01EFEF8B
S1131060CE1ADE0AB601CE01855A9F4F0E949823FC
S11310708C01BC01CE018D5A9F4F0E941322011591
S1131080110519F0C8010E94512AA60160E070E020
S1131090CE01855A9F4F0E9468238C01BC01CE016A
S11310A0855B9F4F0E9413220115110519F0C80199
S11310B00E94512AD7011296ED91FC9113976081F9
S11310C07181CE018D5B9F4F0E941322AE01455B5F
S11310D05F4FBE016D5B7F4FC70170D08E010F5F04
S11310E01F4F882361F06EEB70E0C8010E94B52B9E
S11310F0B801F701808591851ADE15EF45C082E2BB
S1131100D8011D928A95E9F727968EAD9FAD279752
S1131110892B79F06FE2CE018D5B9F4F0E940923EA
S1131120BE016D5A7F4FCE018D5B9F4F0E94D92225
S113113008C0BE016D5A7F4FCE018D5B9F4F0E9448
S1131140AC2225966EAD7FAD259741E0C8017AD4D7
S1131150811115C040E250E0BE016D5D7F4FC801B2
S113116077D4009749F0AC01BE016D5D7F4FF70164
S113117086819781A3DDEECFC80167D404C0682FB0
S113118070E0C7015DD310E0CE018D5B9F4F0E94DC
S11311906B22CE01855B9F4F0E946B22CE018D5A3C
S11311A09F4F0E946B22CE01855A9F4F0E946B2253
S11311B0812FCE59DF4FE8E00C945829ACE3B0E01E
S11311C0E4EEF8E00C943D296C018B017A01CE0128
S11311D0C5960E94FD21D70112968D919C9113977B
S11311E0009709F4B4C0ED91FC9120812F3251F0A5
S11311F08230910508F476C02C35B9F481818C35A0
S113120009F0A3C061E070E0C7010E9498237C014B
S1131210BC01CE01C5960E947B22E114F10409F4BD
S11312207DC0C7010E94512A79C0029709F45AC0AF
S11312302E3209F057C081818E3209F053C0828169
S11312408F3209F04FC0F801428153814115510595
S113125009F47DC04150510980819181FC01E40F62
S1131260F51F20812F3219F041505109B8F760E081
S113127070E0C8010E9468235C01BC01CE01C596E0
S11312800E947B22A114B10419F0C5010E94512AC5
S1131290CE0101965C018CE2D5011D928A95E9F795
S11312A06DA97EA9C501EAD381114FC0C501E9D357
S11312B0BE016B5C7F4FC8010E94AC22F7016081C4
S11312C071816D5F7F4FCE018D960E941322AE0116
S11312D0435D5F4FB801C60171DFCE018D960E9458
S11312E06B2235C0D80112968D919C911397892B4E
S11312F081F0B801CE01C5960E94AC226FE2CE0106
S1131300C5960E940923B701CE01C5960E94D92231
S113131005C0B701CE01C5960E94AC22FE013196EC
S11313207F018CE2DF011D928A95E9F76DA97EA900
S1131330CF01A4D3811109C0C701A3D3BE016B5C43
S11313407F4FC8010E94AC2202C015EF01C010E01B
S1131350CE01C5960E946B22812FEC96EAE00C9494
S11313605629AAE1B0E0E7EBF9E00C943D297C01B1
S11313705B01CE014196498F5A8F0E94FD21498D10
S1131380042F5A8D152F80E0C12CD12CCA14DB04F4
S1131390A4F4F801619171918F01CE0141960E94EC
S11313A07B22F70162817381AE014F5E5F4FC701FB
S11313B005DFFFEFCF1ADF0AE9CF882379F06EEC5F
S11313C070E0CE0101960E94B52BBE016F5F7F4F86
S11313D0F70180859185ABDC15EF01C010E0CE01EB
S11313E041960E946B22812F6A96EAE00C9456295A
S11313F0A2E0B0E0EEEFF9E00C943D295C016A0153
S113140079018EE0F50111928A95E9F786E090E082
S113141069837A830E94F8218C0169817A8100DCD6
S1131420F5010483158386E090E00E94F8218C0185
S1131430B601F6DBF5010683178386E090E00E948F
S1131440F8218C01B701ECDBF5010087118788E0F6
S113145090E00E94F8218C010E94FD21F501028395
S1131460138388E090E00E94F8218C010E94FD2102
S1131470F501008311832296EAE00C945629A0E03A
S1131480B0E0E5E4FAE00C943D295C018B01C090E6
S11314907721D0907821C114D10429F1E0907521ED
S11314A0F0907621C0E0D0E0D701ED91FD917D016F
S11314B0D8016D917C91808191810E94F12B892BBF
S11314C031F4BE0185E791E20E94F82404C021961C
S11314D0CC15DD0549F740E050E0B80185E791E21D
S11314E00E948B2404C085E791E20E94FE23F5014B
S11314F01286138680E0CDB7DEB7EAE00C94562955
S1131500CF93DF93EC01CB012A853B85220F331F58
S1131510E0917521F0917621E20FF31F60817181D2
S11315200E94AC222A853B85809177219091782175
S113153001972817390720F42F5F3F4F2A873B87ED
S113154080E0DF91CF910895CF93DF93EC01CB013D
S11315502A853B85220F331FE0917521F091762176
S1131560E20FF31F608171810E94AC228A859B8502
S1131570009719F001978A879B8780E0DF91CF91CC
S11315800895A6E1B0E0E7ECFAE00C943F298C0161
S1131590198A1A8A1B8A1C8ABE016F5E7F4FD80182
S11315A014968D919C9115974DDC811144C16989E4
S11315B07A898B899C896F3771058105910539F585
S11315C0E12CF12CF80180819181DC0112962D919E
S11315D03C911397E216F30658F46FE7D801169678
S11315E08D919C911797DEDBBFEFEB1AFB0AEACFD4
S11315F069890E940923D801ED91FC9111976081BA
S1131600718116968D919C9117977BDBC5CF6B31B9
S113161071058105910521F481E0F80184870BC1EE
S1131620D8011C962C911C97222309F447C06B35D2
S113163071058105910521F48BE51D968C93FBC002
S1131640F80125852B35D1F5E12CF12CF8016081C9
S11316507181DB0112968D919C911397E816F9061E
S113166058F46FE7D80116968D919C9117979ADBE1
S1131670BFEFEB1AFB0AEACF89899A89AB89BC8947
S113168081349105A105B10519F4C80139DF07C0FA
S113169082349105A105B10569F4C80155DFD8016B
S11316A0ED91FC9111976081718116968D919C91B9
S11316B0179727DBF80114861586BDC06D307105B8
S11316C08105910589F0D8018D919C910E9409238F
S11316D06989F8018681978165DBD8011C961C9283
S11316E01C971D961C9258CF6BEA70E2F801868114
S11316F0978107DBBE016B5E7F4FD8018D919C9172
S113170041D184E090E00E94F8217C016D897E89BA
S113171041E050E00E945525E114F104D1F1ED8936
S1131720FE890190F081E02D0190F081E02DC080D0
S1131730D18067E071E0C6010E94AC2B892B41F493
S1131740F7014081518162817381C801C0D030C0EA
S113175064E071E0C6010E94AC2B892B59F4D701D7
S11317604D915C91119712966D917C911397C801DC
S1131770F8DD1EC060E071E0C6010E94AC2B892B2D
S1131780B9F4F7014081518162817381C8013ADC67
S11317900FC060EF70E0CE0101960E94B52BBE0130
S11317A06F5F7F4FD80118968D919C911997BFDA7E
S11317B0F80160817181C80162DE6CEE70E0CE01D7
S11317C001960E94B52BBE016F5F7F4FD80118961A
S11317D08D919C911997ABDAD8011296ED91FC91F9
S11317E013976081718116968D919C91179789DA70
S11317F06EEA70E2F8018681978183DACD88DE880B
S1131800C114D10431F0C6010E94D223C6010E9442
S1131810FA21E114F10431F0C7010E94C125C70186
S11318200E94FA21D8018D919C910E945023F801C5
S113183014861586B1CE80E06696E8E00C945829AB
S1131840EF92FF920F931F93CF93DF938C01643138
S1131850710594F4FB01EE0FFF1FEA5FFF4DE0807A
S1131860F180C7010E94BC2B01960E94B929EC01AA
S1131870009771F0B70109C08EE090E00E94B92989
S1131880EC01009729F06EED70E0CE010E94B52BBB
S1131890BE01F801808591854ADA209719F0CE01BE
S11318A00E94512A6BEA70E2F8018085918529DA59
S11318B0CDB7DEB7E6E00C945A2985E791E20C94A3
S11318C0C123089585E791E20C94D2230895A2E4FC
S11318D0B1E0EDE6FCE00C9441298C017E0189EE37
S11318E0E81A8EEFF80A8CE2D7011D928A95E9F77F
S11318F0D8011296ED91FC91139760817181C70113
S11319000E94DC20811134C0BE016F5F7F4FC7018C
S11319100E944421811128C08F89882329F12985B7
S1131920F8018681978124FF12C061EB70E2E9D946
S1131930BE01695E7F4FD80116968D919C911797D1
S1131940E0D96BEA70E2F801868197810BC0BE0191
S1131950695E7F4FD6D96BEA70E2D80116968D91F5
S11319609C911797CED9D0CFC7010E942F2104C0D4
S1131970682F70E0C80164DF80E0CE5BDE4FE6E0F4
S11319800C945A29A0E0B0E0E8ECFCE00C943F2968
S11319908C016B0184E090E00E94F8217C010E949C
S11319A0C12388E090E00E94F821EC01F8016081F5
S11319B071810E9413222097E1F100E010E08A81F6
S11319C09B81892BB1F1A881B981FD01E00FF11F41
S11319D080818C3211F08F7D49F58C918C3211F01D
S11319E08F7D19F461E070E012C010826881798102
S11319F0C7010E9446248A819B810817190720F099
S1131A00CE010E945023D9CFB8016F5F7F4FCE0122
S1131A100E9498238C01BC01CE010E947B220115F7
S1131A20110559F2C8010E94512AC7CF0F5F1F4FF9
S1131A30C6CFF601E082F18280E0CDB7DEB7E8E000
S1131A400C9458290C94E71D08950C94C320089510
S1131A50A2E0B0E0EEE2FDE00C9445299E012F5F88
S1131A603F4F0E94451F811103C089819A8102C0A2
S1131A7080E090E02296E2E00C945E290C94DC2055
S1131A8008950C942F21089580E00895E82FF0E044
S1131A90EE0FFF1FE558FC4D0190F081E02D85A964
S1131AA096A9892B11F484E0089580E008950F939A
S1131AB01F93E82FF0E0EE0FFF1FE558FC4D019057
S1131AC0F081E02D85A996A9009761F007A8F0ADF3
S1131AD0E02D309739F010E0099521E0892B19F0B9
S1131AE020E001C024E0822F1F910F9108950F93ED
S1131AF01F93E82FF0E0EE0FFF1FE558FC4D019017
S1131B00F081E02D85A996A9009761F001ACF2ADB2
S1131B10E02D309739F010E0099521E0892B19F078
S1131B2020E001C024E0822F1F910F910895A2E0CC
S1131B30B0E0EDE9FDE00C94452919821A82E82F02
S1131B40F0E0EE0FFF1FE558FC4D0190F081E02D11
S1131B5085A996A9009761F003ACF4ADE02D309708
S1131B6039F070E0AE014F5F5F4F0995898101C084
S1131B7084E02296E2E00C945E29A8E0B0E0E3EC75
S1131B80FDE00C944529FE01319688E0DF011D92A9
S1131B908A95E9F760E070E080E098E22896E2E058
S1131BA00C945E29FC016381862F90E0A0E0B0E0F4
S1131BB0BA2FA92F982F88272281822BBA2FA92FD9
S1131BC0982F88272181822B6627782F892F9A2F97
S1131BD02081622B0895FC014083518362837383C7
S1131BE008950F931F93FC01425051096109710933
S1131BF0018D128D238D348D025011092109310973
S1131C00401751076207730778F4A185B2859A01DA
S1131C10AB010E942B2905A516A527A530A9600FA5
S1131C20711F821F931F03C060E070E0CB011F91FE
S1131C300F910895FC019C01255F3F4F80E0982F90
S1131C409695419150E8859F40191124842F890F5E
S1131C50E217F307A1F70895CF93DF93DC01ED9129
S1131C60FC911197309741F0EF019E0189918032E8
S1131C7080F18A33D1F703C08FEF9FEF2CC08081AE
S1131C8090E0C0978A30910560F4AF014F5F5F4FD9
S1131C902417350731F4009779F73296ED93FC93C6
S1131CA01AC0C3EBD0E25991CF01019640816FE98C
S1131CB0640F6A3108F44052552321F05413DCCFE9
S1131CC0FC01F1CF2F5F3F4F82179307A9F68D9345
S1131CD09C9380E090E0DF91CF9108950F931F9340
S1131CE0CF93DF93EC018B01009791F0E881F981A8
S1131CF0309771F08081882359F0258136818A815B
S1131D009B812817390721F48181C0DE80FF05C03B
S1131D10F8011082118289E006C088819981F80156
S1131D208083918380E0DF91CF911F910F9108957B
S1131D30FB01460F571F2191DC012D93CD01E417C0
S1131D40F507C9F70895FB01438D50E0542F44274C
S1131D50928D492B60E070E0833079F4858990E0BE
S1131D60982F88272489822BA0E0B0E0DC019927F2
S1131D708827482B592B6A2B7B2BCB01BA0108955A
S1131D80FB01228F338FDC018C91833029F4CA014B
S1131D90AA27BB27848B958B08954F925F926F92ED
S1131DA07F92AF92BF92CF92DF92EF92FF920F9306
S1131DB0CF93DF93EC0149A85AA86BA87CA86C01C7
S1131DC08DE3C80ED11C01E0A3019201B601898103
S1131DD08EDE811131C01B828DA19EA1AFA1B8A559
S1131DE0B301A201481B590B6A0B7B0B8D8D9E8D91
S1131DF0AF8DB8A1481759076A077B0710F080E038
S1131E001CC0AA80B12CE12CF12CC5018E199F09AC
S1131E100297A8F38D8D9E8DAF8DB8A1480E591EE3
S1131E206A1E7B1E01E0A3019201B60189815FDE77
S1131E308FEFE81AF80AE9CF81E0DF91CF910F9193
S1131E40FF90EF90DF90CF90BF90AF907F906F9016
S1131E505F904F900895FC012381222311F09DCFC0
S1131E60089580E00895A0E0B0E0E9E3FFE00C9479
S1131E703F29EC016A017B0189A99AA9ABA9BCA9F4
S1131E80481759076A077B07C9F0CE01E4DF182F0A
S1131E90811115C001E0A7019601BE01635C7F4F6B
S1131EA0898105DE882329F011E0CC24CA94DC2C36
S1131EB07601C9AADAAAEBAAFCAA01C010E0812F14
S1131EC0CDB7DEB7E8E00C9458290F931F93CF9356
S1131ED0DF93EC011B820FEF1FEF980109AB1AABE4
S1131EE02BAB3CABC0DF81112CC0FE01E45CFD4F89
S1131EF0808190E0982F882731972081822B853527
S1131F009A4A09F58DAD893E29F08B3EC1F48FAD17
S1131F108039A9F4CE018D589F4F44DE9927663449
S1131F2071448445910511F480E00EC0CE018157BF
S1131F309F4F38DE6634714484459343A9F382E0AD
S1131F4003C084E001C083E0DF91CF911F910F9122
S1131F500895AEE1B0E0EFEAFFE00C9435296B019F
S1131F60DB011D921C924E8F77DE7C014E8D97FD16
S1131F7036C2FC01EE0FFF1FE558FC4D00811181B4
S1131F800115110509F42DC2F601008311834E7F5A
S1131F90D42ED8018C91882359F011968C9176DD3A
S1131FA080FD06C0DD2009F41EC282FD20C21BC2D2
S1131FB0F8011082E1828E2D67DD80FD16C2DD20DE
S1131FC011F082FD14C240E050E0BA01C8017DDF87
S1131FD0823009F03DC06801FDEFCF1ADF0A7E01AF
S1131FE021E1E20EF11CAE014F5F5F4F5A01F60191
S1131FF034978081882319F0C601D4DD03C060E0E2
S113200070E0CB01D5016D937D938D939D935D011C
S1132010B0E1CB0ED11CAE14BF0449F7FE013196DA
S11320206F01D6014D905D906D907D906D014114CE
S113203051046104710439F0B301A201C80145DF00
S1132040823048F001C083E0CE14DF0421F0E9CFF0
S1132050412C512C3201843009F4CBC1823010F070
S11320608DE0E7C1F801E75BFF4F808190E0982F96
S1132070882731972081822B8115924089F73C96DD
S1132080C080D12CDC2CCC2431978081C82AE12C4F
S1132090F12CC114D104E104F10431F4C8018F59C5
S11320A09F4F80DD6B017C01F801C58ED68EE78ED3
S11320B0F0A2E35BFF4F4081D80112964C938FEF5F
S11320C0840F823068F63397B081B98B8B2F90E000
S11320D0F80181879287009719F29C0121503109F8
S11320E028233923232B09F0BBCFE15BFF4F8081E9
S11320F090E0382E222431978081282AD80117961F
S11321002D923C921897C1018F709927892B09F061
S1132110A7CF33968080912C982C88243197808186
S1132120882AA12CB12C81149104A104B10441F496
S1132130C801835A9F4F4E8F35DD4B015C014E8D94
S1132140F801E45BFF4FE081F0E0FE2FEE27D801B9
S1132150A55BBF4F8C91E82B309709F481CFA42F56
S1132160B0E0A70196010E942B296E8B7F8B888F8C
S1132170998F9F0140E050E02A8F3B8F4C8F5D8FF9
S1132180C101B4E096958795BA95E1F7280F391FF8
S1132190411D511D8E899F89A88DB98D280F391F26
S11321A04A1F5B1F2A8B3B8B4C8B5D8B82169306DD
S11321B0A406B50608F454CFC501B401621B730B21
S11321C0840B950BA9892A2F30E040E050E00E944F
S11321D00329211531054105510509F441CF263F55
S11321E0BFEF3B074105510548F4263FEFE03E07AA
S11321F04105510530F0F2E0F98B05C083E0898B8D
S113220002C091E0998B49015A01A2E08A0E911C07
S1132210A11CB11CF801818E928EA38EB48E41A2B2
S113222052A263A274A28A8D9B8DAC8DBD8D840D48
S1132230951DA61DB71D85A396A3A7A3B0A74A897C
S11322405B896C897D89440D551D661D771D45A7E5
S113225056A767A770ABF989F33031F5F801E8594F
S1132260FF4F808190E0982F882731972081822B1F
S1132270892B09F0F5CE2114310409F0F1CEC801FF
S113228087599F4F8FDCD80199966D937D938D93D9
S11322909C939C97C501B401E2E0660F771F881FE9
S11322A0991FEA95D1F72EC02114310409F4D8CE30
S11322B02E893F89488D598D820F931FA41FB51F06
S11322C0F80181A792A7A3A7B4A7F989F23039F43A
S11322D0C501B401660F771F881F991F13C0A3E0BF
S11322E0B0E0A50194010E942B29969587957795D6
S11322F0679521E082229924AA24BB24680D791DC4
S11323008A1D9B1DDC01CB0181509E4FAF4FBF4FF7
S113231039E0B695A795979587953A95D1F7C8165C
S1132320D906EA06FB0608F49BCE8FEF9FEFDC018B
S1132330F801818B928BA38BB48B85879687A787B3
S1132340B08B80E88483F989F33061F5F801E259B0
S1132350FF4F808190E0982F882731972081822B2E
S1132360019701F5B301A2014F5F5F4F6F4F7F4F9C
S1132370C80179DD811116C0F8011482E45CFD4FB7
S1132380808190E0982F882731972081822B853592
S11323909A4A41F4C801CD9605DC623572458146FE
S11323A0914449F1E989D801EC9380917923909182
S11323B07A2301968093792390937A2315968D93AB
S11323C09C93169789E791E21B968D939C931C9797
S11323D055961D921D921D921C92589704C08BE035
S11323E028C08CE026C080E024C083E022C08AE0BC
S11323F020C081E01EC0C8018F5D9D4FD3DB6237D2
S113240072478144914671F6C8018B5D9D4FCADBCA
S1132410D80151966D937D938D939C935497C801E5
S1132420875D9D4FBFDBF801658776878787908B33
S1132430B9CF6E96E2E10C944E29A0E0B0E0E3E25D
S1132440F2E10C943529EC016A017B012801390180
S1132450423051056105710508F4C5C0898D9A8D16
S1132460AB8DBC8D481759076A077B0708F0BBC0C2
S11324708881823009F463C0833009F480C08130DC
S113248009F0B1C05A01B694A794A40EB51EC501B3
S1132490892F992786954DA15EA16FA178A5480F34
S11324A0591F611D711DCE01DEDC182F81119CC0E6
S11324B015018FEF281A380AF501F170EC0FFD1F92
S11324C04601570131E083229924AA24BB24C0FE8B
S11324D008C025AD2F7030E1439EC0011124282B84
S11324E001C0242D25AF81E08B834DA15EA16FA196
S11324F078A5C101892F99278695480F591F611D19
S1132500711DCE01B0DC182F81116EC0F101F17084
S1132510EC0FFD1F81149104A104B10449F0B4E04F
S11325207694679457944794BA95D1F7842D05C04F
S113253085AD807F952D9F70892B85AF51C0452F28
S1132540562F672F77278DA19EA1AFA1B8A5480F5D
S1132550591F6A1F7B1FCE0186DC182F811144C0CE
S1132560CC0CDD1CE894C0F881E0D822FE01EC0D0F
S1132570FD1D45AEFE01EC0DFD1D56AE31C0E7E07C
S11325807695679557954795EA95D1F78DA19EA1C4
S1132590AFA1B8A5480F591F6A1F7B1FCE0163DC8A
S11325A0182F811121C0CC0CDD1CCC0CDD1C3CEFA0
S11325B0C32231E0D3228DE3C80ED11CCC0EDD1E24
S11325C0C601F0DAAB01BC01442755276627707FAA
S11325D03FE073224429552966297729C601FBDA8D
S11325E081E08B8301C012E0812FCDB7DEB7E2E139
S11325F00C944E29A0E0B0E0E0E0F3E10C943D2916
S1132600EC016A017B01423051056105710508F452
S113261099C0898D9A8DAB8DBC8D481759076A076F
S11326207B0708F08FC08881823009F449C0833069
S113263009F468C0813009F085C05A01B694A794A2
S1132640A40EB51EC501892F992786954DA15EA1BB
S11326506FA178A5480F591F611D711DCE0103DCC0
S1132660882321F06FEF7FEFCB0170C085010F5FEE
S11326701F4FF501F170EC0FFD1FB5ACC801892F98
S1132680992786954DA15EA16FA178A5480F591F82
S1132690611D711DCE01E7DB8111E4CFF801F170FA
S11326A0EC0FFD1F85AD6B2D70E0782BC0FE06C0CE
S11326B0C4E076956795CA95E1F721C07F701FC085
S11326C0452F562F672F77278DA19EA1AFA1B8A5BF
S11326D0480F591F6A1F7B1FCE01C5DB8111C2CF72
S11326E0CC0CDD1CE894C0F881E0D822FE01EC0D8E
S11326F0FD1D66AD70E0762F662785AD682B80E002
S113270090E024C0E7E07695679557954795EA955C
S1132710D1F78DA19EA1AFA1B8A5480F591F6A1F7B
S11327207B1FCE01A0DB81119DCFC601880F991FAD
S1132730880F991F8C7F9170CD968C0F9D1F32DA74
S11327409F7004C061E070E080E090E0CDB7DEB738
S1132750EAE00C945629A0E0B0E0E1EBF3E10C943C
S11327603729EC016A017B01088119814115510562
S113277080E26807710510F082E0A8C0DB01CA019D
S11327808F719927AA27BB27892B8A2B8B2BA1F71B
S11327904E875F87688B798B8E809F80A884B984ED
S11327A081149104A104B10451F5F80180818330AE
S11327B040F081A592A5A3A5B4A50097A105B105F4
S11327C0E1F4F80187819085A0E0B0E0B701A601AB
S11327D025E076956795579547952A95D1F748173B
S11327E059076A077B0740F681A592A5A3A5B4A55E
S11327F08E8B9F8BA88FB98F3EC04C015D01F80171
S113280041845284612C712CF9E0440C551C661CE3
S1132810771CFA95D1F7B501A401C414D504E604D4
S1132820F70418F188819981E5DE4B015C016F3F63
S1132830FFEF7F078F079F0709F447C082E08816E0
S11328409104A104B10408F497CFF801818D928D0D
S1132850A38DB48D88169906AA06BB0608F08CCF02
S1132860C418D508E608F708D6CFC801BAD96E8BC4
S11328707F8B888F998F8A8A9B8AAC8ABD8A4E897E
S11328805F89688D798D411551056105710509F4DC
S113289073CFD701C601E9E0B695A79597958795BB
S11328A0EA95D1F7840F951FA61FB71F8E8B9F8BB8
S11328B0A88FB98FF1E0DF228DE3C80ED11CC00EC2
S11328C0D11ECA8EDB8E80E001C081E0CDB7DEB7B9
S11328D0E0E10C945029A0E0B0E0E1E7F4E10C94CD
S11328E037298C014A015B01FC01C081D18141156A
S11328F051056105710599F44D845E846F8478886F
S1132900411451046104710451F1898D9A8DAB8D88
S1132910BC8D481659066A067B0608F524C0CE010C
S113292069DE623071058105910508F498C06F3F36
S1132930FFEF7F078F079F0729F44FEF3FEF2FEF3C
S11329409FEF92C0C98CDA8CEB8CFC8C6C157D05E6
S11329508E059F0508F485C02401350104C0412C6F
S1132960512C32014394730162012FEFC21AD20A2F
S1132970E20AF20A898D9A8DAB8DBC8DC816D906F0
S1132980EA06FB0680F082E04816510461047104F3
S113299028F440E030E020E090E066C032E0C32E4E
S11329A0D12CE12CF12CB701A601F8018081918191
S11329B021DE611571058105910591F06130710584
S11329C08105910509F44BC06F3F7F4F8F4F9F4F97
S11329D009F4B3CFC414D504E604F70431F6D9CF0F
S11329E00FEF1FEF9801B701A601CE0126DD81117B
S11329F033C081149104A104B104E9F4CD86DE86C8
S1132A00EF86F88A49895A896B897C89898D9A8DE0
S1132A10AB8DBC8D0297A109B109481759076A0704
S1132A207B0790F44150510961097109498B5A8B14
S1132A306B8B7C8B09C097018601B501A401CE0183
S1132A40FCDC8823D9F208C08C8181608C834C2DF6
S1132A503D2D2E2D9F2D08C0813009F46ECF41E00D
S1132A6099CF462F372F282F642F732F822FCDB75E
S1132A70DEB7E0E10C9450294F925F926F927F92FF
S1132A80AF92BF92CF92DF92EF92FF920F931F9378
S1132A90CF93DF935C016A017B01B901A801FC01BA
S1132AA0C081D181F2E0CF16D104E104F10410F425
S1132AB082E060C0898D9A8DAB8DBC8DC816D90615
S1132AC0EA06FB06A8F7011511052105310539F0C1
S1132AD00FEF1FEF9801CE01B0DC81114BC0B7019D
S1132AE0A601F5018081918185DD2B013C016115F1
S1132AF071058105910511F480E03CC061307105D8
S1132B0081059105A9F26F3F2FEF720782079207A3
S1132B1081F100E010E09801B701A601CE018DDC3F
S1132B20811128C049895A896B897C89898D9A8D3C
S1132B30AB8DBC8D6C017D01E2E0CE1AD108E108B9
S1132B40F1084C155D056E057F0558F44F5F5F4F26
S1132B506F4F7F4F498B5A8B6B8B7C8B2C81216001
S1132B602C83481659066A067B0630F67301620107
S1132B70B6CF81E0DF91CF911F910F91FF90EF903D
S1132B80DF90CF90BF90AF907F906F905F904F9009
S1132B900895A0E0B0E0EFECF5E10C943F298C013E
S1132BA0EB01DC01ED90FC9011971E8A56968D91F5
S1132BB09D910D90BC91A02D892B8A2B8B2B09F410
S1132BC0B2C0F80140A551A562A573A54F3F5F4F60
S1132BD06F4F7F4F41F1C12CD12CD7011B96ED9142
S1132BE0FC911C97C601880F991FE80FF91F80817B
S1132BF091810097A1F060E070E00E94722100973B
S1132C0061F02FEFC216D10441F06FEFC61AD60A55
S1132C10FE01EC0DFD1D858BE0CFC12CD12CFE01F6
S1132C20EC0DFD1D168A4E8950E080E090E060E0D6
S1132C3070E0EEE2EE2E9B012F5F3F4FD8015A96D3
S1132C40ED91FC915B97E60FF71FF080B0E2FB1665
S1132C50B1F1E5E0FE1202C065EEF62E2930310531
S1132C6049F4FE01E80FF91F4115510509F4E68AFC
S1132C70E1860196FE01E80FF91FF1864115510521
S1132C80E9F46FEB6F0D6A31C0F4D8015A966D9177
S1132C907C915B97DB011C966C91A62FB0E02930E8
S1132CA0310518F060E170E002C068E070E06A236A
S1132CB07B23672B11F0B0E2FB0EF68A01962B30D2
S1132CC0310511F0B901B7CF452B71F4FE01E80FBE
S1132CD0F91F168AD8015A96ED91FC915B972485C9
S1132CE0211102C080E090E0FE01E80FF91F118677
S1132CF0D8015A96ED91FC915B97838588875A9603
S1132D000D911C915B97C8014C960E94D20D68836B
S1132D1079838A839B83C80146960E94D20D6E8371
S1132D207F838C839D83CDB7DEB7E8E00C9458296C
S1132D304F925F926F927F929F92AF92BF92CF9287
S1132D40DF92EF92FF920F931F93CF93DF938C0147
S1132D505B01FC01C081D1814684578460887188FD
S1132D6086899789A08DB18D0097A105B10509F4D5
S1132D70F0C0F0E24F0E511C611C711C411451044F
S1132D8020E26206710408F0E4C0B301A2015170AC
S1132D9066277727452B462B472B09F0C9C0019698
S1132DA0A11DB11DF801868B978BA08FB18F42892D
S1132DB0538964897589411551056105710599F433
S1132DC08F819885A0E0B0E0B301A20135E076954B
S1132DD06795579547953A95D1F7481759076A0764
S1132DE07B07C0F5A5C089859A850197A0E0B0E06E
S1132DF07301620129E0F694E794D794C7942A9565
S1132E00D1F78C219D21AE21BF21892B8A2B8B2BBD
S1132E1009F08EC0CE01EEDB6B017C0162307105DE
S1132E208105910510F482E097C06F3F2FEF720780
S1132E308207920711F481E08FC0898D9A8DAB8D42
S1132E40BC8DC816D906EA06FB0608F462C0F80170
S1132E50AB2829F4168A178A108E118E7AC04289FB
S1132E60538964897589C80136DD6B017C0161155C
S1132E7071058105910509F46EC061307105810504
S1132E80910589F26F3F2FEF72078207920799F23B
S1132E90CE010E942B0F8111CECFFE01FD96CE01F3
S1132EA0835C9D4F1192E817F907E1F7B701A6017A
S1132EB0CE010E94F10D69AB7AAB8BAB9CABA12C1C
S1132EC0B12C9924939489859A85A816B906A8F4F7
S1132ED09B82CE010E94CD0E8111ADCF8FEFA81A37
S1132EE0B80A89A99AA9ABA9BCA90196A11DB11DCB
S1132EF089AB9AABABABBCABE6CF89A99AA9ABA91A
S1132F00BCA98A199B09A109B10989AB9AABABABDE
S1132F10BCABF801C28AD38AE48AF58AB701A60158
S1132F20CE010E94F10DF801668B778B808F918F13
S1132F30F80146865786608A718AF1E05F222DE3A4
S1132F40420E511C4C0E5D1EF801428E538E80E0E1
S1132F5003C084E001C087E0DF91CF911F910F91FE
S1132F60FF90EF90DF90CF90BF90AF909F907F90B5
S1132F706F905F904F900895A8E0B0E0E2ECF7E125
S1132F800C9435298F839887DC018D909C9040E0C8
S1132F9050E0BA01E0DB811106C18FEF9FEFDC0145
S1132FA0EF81F88580A791A7A2A7B3A73FEF398344
S1132FB02FEF44244A94542C32017C96EA83FB83F9
S1132FC0AF81B88556964D915D916D917C915997DD
S1132FD0C4012E830E94330F2E818111E4C0EF813E
S1132FE0F885028D138DD8018C91882309F4D3C000
S1132FF01B963C91932F9F739483853E21F033FF5E
S113300009C09F3051F0EF81F88540A651A662A611
S113301073A6B5C09F3009F08BC0AF81B885979671
S11330209C91979796FDACC086FF12C0F801F58578
S1133030F983282F2F7B1E968D919D910D90BC9125
S1133040A02DEF81F88580A791A7A2A7B3A702C0FE
S1133050821395C0D8011D968C91398138138FC085
S1133060D4011B962D903C901C97F801838D90E021
S1133070982F8827328D832B892B09F080C080817B
S11330808F7390E00197FDE0F89F7001F99FF00CB9
S11330901124EAECAE2EE0E2BE2E81E090E0D501F0
S11330A03D915D01F801E30FF11DC180D12CDC2CB1
S11330B0CC243081C32A009709F1BFEFEB16F10449
S11330C008F05DC0C6012E830E949C21AC01F7016B
S11330D0EE0FFF1FE20DF31D808191814C835D8310
S11330E00E949C214C815D812E814817590709F06B
S11330F046C0EFEFEE1AFE0AC60104C0FFEFCF167A
S1133100DF06E9F537EDA31630E2B30641F6D80140
S11331103C9136FF46C0892B09F443C0F701EE0FFA
S1133120FF1FE20DF31D80819181892BD1F127C00E
S1133130211106C0C8010E941A0E3981381779F18D
S1133140EF81F88587A180FD12C0F8016A817B8137
S11331509801255F3F4F8191DB014D91BD0190E0C6
S1133160841B9109E217F307C1F0892BA1F3AF8106
S1133170B88598964D925D926D927C929B972FEFB5
S113318060E070E08F8198852E83D2DD2E818823C4
S113319009F416CF08C084E006C0892B41F780E00B
S11331A002C02150EDCF2896E2E10C944E29A6E00E
S11331B0B0E0EDEDF8E10C9435298D839E837B011D
S11331C0DC014D905C90FB0180818F3211F08C35D5
S11331D011F4C7010CC0F20185899689A789B08DC5
S11331E0ED81FE8186839783A087B1870EC07C0121
S11331F0DC012C9101962F32D1F32C35C1F3ED81F2
S1133200FE811682178210861186D7018C91803236
S113321058F0ED81FE817C96E983FA832D803E800F
S1133220F7E22F0E311C8DC080E8AD81BE819796E8
S11332308C93979740E050E0BA01CD018CDAB2C18B
S11332408F32910509F488C08C35910509F484C046
S1133250A114F1E0BF0609F49DC161E070E00E9491
S11332607221009709F496C18038910528F4EAEB9D
S1133270F0E2219121117CC0F401819391934F01DB
S113328095015901BFEFAB1ABB0AF80181918F0177
S113329090E080329105A0F68901EA0CFB1C80972E
S11332A008F06CC044E0C901880F991F2130310532
S11332B009F066C0D6016D917C916E32710509F0FA
S11332C06AC0F601E80FF91F1082118280E090E0D5
S11332D08217930708F063C05EE2ED81FE81E80F78
S11332E0F91F548F01968B30910591F74062ED815F
S11332F0FE8147A38D819E813FDEAD81BE8197967D
S11333009C91811134C192FD4DC1AD81BE81149651
S11333108C91149784FF3CC11E966D917C911F97EC
S11333207170635C7F4F640D751DF20180810E9492
S1133330A30EAD81BE8116966D937D938D939C9360
S11333401997AD81BE81ED91FC91C384D48446016B
S1133350870120E030E095CFF701EA0DFB1D5F0106
S1133360AE18BF0841914F32D1F34C35C1F394CF1D
S113337030E02817390709F07CCF0CC140E093CF27
S11333802230310539F4F601628173816E327105A0
S113339011F490CF8901F601E80FF91F09C050E23A
S11333A09CCF929182918032910531F401501109A0
S11333B001151105B1F702C08E97C1F3F801EE0FA4
S11333C0FF1FEC0DFD1D108211820115110509F47A
S11333D0E1C029813A81D90180E28D939D01A21532
S11333E0B305C9F7D60180E090E02D913D912032DC
S11333F0310511F40196F9CF2E323105D9F3009736
S113340039F0436005C0015011090115110529F077
S1133410329122912E323105B1F758E0A52EB12C0C
S1133420612C712C50E04C01AFEF8A1A9A0AFC010E
S1133430EE0FFF1FEC0DFD1D80819181009709F4B3
S11334404CC08032910539F08E32910539F48016E2
S1133450910609F4A1C04360C401E5CF6A147B045A
S113346020F480169106D9F47CC0BBE0AB16B104FD
S113347029F443602BE0A22EB12C2FC080169106B4
S113348021F043600815190540F1550F550F480107
S11334908BE0A82EB12C98E0692E712CDDCF8038FA
S11334A0910588F060E070E04B835C831BD74B810F
S11334B05C81009729F0FC01E95AFF4D808190E07E
S11334C04260009789F1E3ECF0E221912223C1F1FB
S11334D030E028173907C9F727C0AD81BE815C9653
S11334E08C915C97853E19F4E5E05C96EC93F8E0EA
S11334F0AF16B10411F4550F550F852F8C708C3015
S113350021F0952F9370933009F4426041FD07C078
S11335105370513009F44061843009F44860AD813E
S1133520BE8197964C93E6CE43608FE590E0ED81A3
S1133530FE81E60DF71D848FF30131963F018CCF98
S11335409C01215431092A31310510F45260EFCF26
S11335509C01215631092A31310548F75160809781
S1133560E6CFFBE0AF16B10409F08FCF82CF8430F1
S1133570C9F4292F247095FF09C0222309F4E1CE50
S113358080E8ED81FE8187A380E00CC021110AC090
S113359085E008C086E006C0BBE0AB16B10409F0C4
S11335A074CF67CF2696E2E10C944E298F929F92B6
S11335B0BF92CF92DF92EF92FF920F931F93CF931C
S11335C0DF93EC01E880F9800FEF1FEF84E06DE0FA
S11335D0B62E4E895F89688D798D41155105610537
S11335E0710509F497C0C7010E94330FD82E8111C9
S11335F0A6C0EA8DFB8D8081882309F49EC0938543
S11336009F739C83853E09F47BC08E3209F478C095
S1133610292F2F71283009F473C09F3009F068C036
S113362086FF0CC00585182F1F7B8E859F85A88972
S1133630B98988A799A7AAA7BBA702C0811360C0AC
S1133640858508135DC0D7011B968D919C911C97AD
S1133650238D30E0322F2227428D242B232B09F097
S11336604FC040814F7350E041505109B49E9001C6
S1133670B59E300D11244AEC842E40E2942E61E074
S113368070E0D4014D914D016F01C40ED11CD601DF
S113369011964C91119750E0542F4427DC904D29FA
S11336A06115710579F02F3F310550F5B901660FA9
S11336B0771F680F791FDB014D935C93BA012F5F6D
S11336C03F4F03C04F3F5F4FD9F447ED841640E2AC
S11336D09406B9F6408146FF26C02F3F310580F499
S11336E0F901EE0FFF1FE80FF91F108211821BC0B2
S11336F011111BC0CF010E941A0E081316C021C05D
S11337001FEF60E070E0CE0113DBD82E811117C0EB
S113371080E05FCFD82E8823A1F01E8A1F8A188EDE
S1133720198ED82E0EC01150ECCF4FEF5FEFBA01B7
S113373048A759A76AA77BA704C0E4E0DE2E8D2D15
S1133740ECCF8D2DDF91CF911F910F91FF90EF90D2
S1133750DF90CF90BF909F908F900895A4E1B0E048
S1133760E4EBFBE10C9435298C01DC01ED90FC9039
S1133770119797968C91807A09F0FAC0D7011B961D
S1133780ED91FC911C97812C912C81919191892B25
S113379021F0BFEF8B1A9B0AF8CF6801ECE1CE0E43
S11337A0D11C4CE050E0B601CE0101960E94980E67
S11337B08C8580FF97C080E4D80197968C93412C28
S11337C0512C320143945201F701238434844BE099
S11337D050E0BE016F5F7F4FC6010E94980EF6E075
S11337E04F16510428F1F101B301A2018191919185
S11337F00097E9F020E130E0440F551F661F771F62
S1133800DC01A170BB274A0F5B1F611D711D9695DA
S1133810879560FF06C0A1E24A27A0E15A27A1E0EC
S11338206A27215031092115310531F7DFCF5A01BB
S1133830FE01759687E090E03A2D3F7020E3230F58
S11338402A3310F027E3230F01972293A4E0B694C0
S1133850A794AA95E1F7A114B10471F7EDE0F0E0A3
S1133860EC0FFD1FE80FF91FBEE7B083F60120E05F
S113387030E02817390721F4F601E20FF31F0EC0D8
S113388041914032C9F32F5F3F4FF3CF20E22193A0
S11338909F012C193D092830310560F488309105C9
S11338A0A8F7ADE0B0E0AC0FBD1FA80FB91F2C9175
S11338B00196EDCFC80160DB81110DC0EFEF4E1A08
S11338C05E0A6E0A7E0AF4E64F165104610471041E
S11338D009F079CF4FC0843009F006C18C85D80136
S11338E097968C938C8581FF0BC0C4010C966DE078
S11338F070E00E94EF284B01BFEF8B1A9B0A03C0B4
S113390088248394912CF8016080718040E050E019
S1133910BA01C8010E94AB13811127C0A12CB12C9C
S1133920D80156964D915D916D917C915997C30143
S11339300E94330F811119C0D8015A96ED91FC9160
S11339405B978081853E11F0811107C0BFEFAB1AF0
S1133950BB0AA814B90419F40FC0A12CB12C61E05E
S113396070E0C801E5D98823D9F2843019F0BCC0CD
S113397086E0BAC087E0B8C0F1E0AF1AB108A1147C
S1133980B10409F487C0D8011E964D915D916D91E3
S11339907C915197C501E5E0880F991FEA95E1F7FD
S11339A0481B590B61097109C8010E94AB138111AD
S11339B09BC0C6010E941A0E982E6FE0562E7DE021
S11339C0772E88248394F80146895789608D718DF8
S11339D0C7010E94330F811187C06A2CD8015A96FF
S11339E0ED91FC915B97D7011B966D917C911C978F
S11339F0958653861486128E138EC50199270197D6
S1133A00789E9001799E300D11245AEC252E50E2B7
S1133A10352E80E090E08F3FBFEF9B0751F0C90146
S1133A20880F991F860F971FDC018D919C912F5F42
S1133A303F4FD1014D911D01DF01A40FB11D8C93A6
S1133A4011969C93009711F48FEF9FEFB7ED2B160F
S1133A50B0E23B0601F7019649F0D901AA0FBB1F5A
S1133A60A60FB71F8D919C91892B19F4862D806424
S1133A70682E6082D70113968C9260E070E0C801D2
S1133A8057D9811131C0B1E0AB1AB108A114B10406
S1133A9009F099CFF80146895789608D718DC70166
S1133AA00E94330F811120C0D8015A96ED91FC91E8
S1133AB05B97CF0180961192E817F907E1F74BE085
S1133AC050E0B601F801828D938D0E94980ED801C2
S1133AD05A96ED91FC915B9797968C9188718487A7
S1133AE081E0F701838380E06496E2E10C944E293F
S1133AF0EF92FF920F93CF93DF93EC010E942B0F71
S1133B00982F81115DC08881833009F04FC08C816A
S1133B10813009F04BC07E018DE3E80EF11CF70102
S1133B20CE01835C9D4F1192E817F907E1F785E513
S1133B30FE01E55CFD4F80838AEA3196808382E54D
S1133B408DAF8EAF81E68FAF91E4EC5FF14090834F
S1133B5022E7EF51FE4F20833196208331969083E4
S1133B603196808349895A896B897C89CE018B5D22
S1133B709D4F0E94EB0D4D855E856F857889CE0142
S1133B80875D9D4F0E94EB0D29A13AA14BA15CA139
S1133B902F5F3F4F4F4F5F4F29AB3AAB4BAB5CAB03
S1133BA001E0B70189810E94770D1C8240E050E05A
S1133BB060E089810E94970D91E0811101C090E03D
S1133BC0892FDF91CF910F91FF90EF900895A0E39B
S1133BD0B0E0EDEEFDE10C9435291C016FA778AB44
S1133BE0142F009709F43FC1842F8F73982E482F08
S1133BF0BE01635D7F4FCE018F960E94A90F811194
S1133C003DC18DA59EA589839A836FA578A9CE0110
S1133C100196CDDA811103C098A597FD86E0912F16
S1133C209C7109F46FC0882359F0843019F4CE01D3
S1133C30019694DD992D9860992E882339F01EC140
S1133C408D81817109F015C112FD0FC193FE63C00E
S1133C500E94BD0D6B017C018B8D9C8DB701A6016B
S1133C600E960E94EB0D8B8D9C8DB701A601469696
S1133C700E94EB0DEB8DFC8D80E28387EB8CFC8C3A
S1133C800DA51EA5B701F80180810E94A30E2B018A
S1133C903C0120E030E0A901B701C8010E94C00E38
S1133CA0EB8DFC8D148E158E168E178EEDA5FEA54C
S1133CB081E08383411451046104710461F1C1A85A
S1133CC0D2A8E3A8F4A800E010E09801B301A2018F
S1133CD0CE0101960E943C158111D0C0B701A60106
S1133CE08DA59EA50E94330FEDA5FEA591E0491A6E
S1133CF0510861087108458656866786708A88234C
S1133D0051F0BCC08111BAC08D8184FDB0C011FFD7
S1133D1002C080FDAEC093FE03C0E92DE0649E2E78
S1133D200DA51EA5F80181A992A9A3A9B4A9F10121
S1133D30848F958FA68FB78FEB8CFC8CE0A2F1A2B9
S1133D40B701F80180810E94A30E2B013C01F1010F
S1133D506683778380879187C7014C960E94D20D32
S1133D606B017C01F10162877387848795870083E7
S1133D701183F80185819681F1018283938396866C
S1133D801786108E118E128E138E108A118A128A43
S1133D90138A95FE70C0C114D104E104F10409F43E
S1133DA06AC0C08AD18AE28AF38AF8018185928541
S1133DB04C01A12CB12C49E0880C991CAA1CBB1CF9
S1133DC04A95D1F78C149D04AE04BF04F8F4B301F2
S1133DD0A201F101808191810E94FA122B013C0120
S1133DE0623071058105910548F081E09FEF491625
S1133DF059066906790619F080E001C082E0C81806
S1133E00D908EA08FB088823E9F201C080E0F1013F
S1133E10448A558A668A778A811130C0D701C601DF
S1133E209170AA27BB27892B8A2B8B2B21F1B301F5
S1133E30A2018DA59EA50E94F10D61157105810554
S1133E409105D9F039E0F694E794D794C7943A955C
S1133E50D1F7C60ED71EE81EF91EF101C08ED18E11
S1133E60E28EF38E08C089E00CC088E007C084E0CD
S1133E7005C087E003C080E004C082E0F101108245
S1133E801182E096E2E10C944E29A4E0B0E0EBE468
S1133E90FFE10C9435297C014B016A012B833C839F
S1133EA0F90110821182BE016F5F7F4F0E946E0E76
S1133EB0811113C1F701878581110FC1F70186852F
S1133EC080FF0AC1F70182859385A485B585408961
S1133ED0518962897389841B950BA60BB70BA601C4
S1133EE060E070E084179507A607B70708F07BC069
S1133EF06C0179C0F70180899189A289B389AC01E9
S1133F00BD01517066277727452B462B472B09F0B7
S1133F10BBC0E981FA810185128501501109AC0108
S1133F20BD0129E076956795579547952A95D1F770
S1133F30042315230115110509F45AC069807A80F8
S1133F40F7014489558966897789C3010E94F10D77
S1133F50611571058105910509F471C01B012C01DE
S1133F60200E311E411C511C5601AB2CBB24A694BF
S1133F70A114B10409F483C0F301818592859501EC
S1133F80200F311F8217930718F45C01A01AB10A9D
S1133F900A2DA2019101B401F30181810E94570D00
S1133FA0811143C0E981FA81838181114AC0BA2C0D
S1133FB0AA24BB0C8A0C9B1CF70180899189A289D5
S1133FC0B3898A0D9B1DA11DB11D808B918BA28B82
S1133FD0B38BEB81FC81808191818A0D9B1D808351
S1133FE09183CA18DB08C114D10409F083CF72C0CD
S1133FF0F701892B8A2B8B2B29F4668177818085A5
S1134000918508C044895589668977898081918121
S11340100E94FA12623071058105910580F06F3FAC
S1134020FFEF7F078F079F0721F481E0F701878760
S113403054C0F701648B758B868B978B7FCF82E09E
S1134040F5CF81A992A9A3A9B4A982199309A409B6
S1134050B509A50160E070E084179507A607B707C6
S113406008F0A5CFBF01635C7F4F982F8827990F75
S113407040E052E0880D991D0E94980E98CFF701F8
S1134080208E318E428E538EF701808991899170F2
S113409020E032E0281B390B56012C153D0508F4AD
S11340A05901F701408D518D628D738D89819A81FB
S11340B00E94330F8111B9CFF701808991899170E2
S11340C0CD9669817A81680F791FA501C4010E9488
S11340D0980E70CF80E001C087E02496E2E10C9452
S11340E04E29A2E0B0E0E7E7F0E20C943D298C0110
S11340F0BE016F5F7F4F0E946E0E811140C0F801B8
S1134100968596FF3CC00E94BD0D6B017C01F801B1
S1134110448D558D668D778D89819A810E94330FE8
S113412081112DC0F801A0A0B1A0F50183858062A2
S11341308387F8012681378140855185B5018081C7
S113414091810E94C00EF80142855385648575856E
S1134150C5014C960E94EB0DB701A601C501469618
S11341600E94EB0DF501128A138A89819A8121E05C
S1134170FC012383BDDCF80196859F7B96872296FC
S1134180EAE00C945629A2E0B0E0E9ECF0E20C94E9
S113419043298C01A6DF81110BC0BE016F5F7F4FE5
S11341A0C8010E946E0E811103C0F80110821182B1
S11341B02296E4E00C945C29A4E0B0E0E2EEF0E2A4
S11341C00C9443298C016B837C83009709F440C0D1
S11341D040E0BE016F5F7F4FCE0103960E94A90F9E
S11341E0811132C089819A81F801808391836B8126
S11341F07C81C8010E94D718811120C0F80187A1D1
S113420087FD0FC0848184FF1EC0628D738DE98198
S1134210FA8180810E94A30EF801668377838087E8
S11342209187E981FA8185819681F801828393835C
S113423040E050E0BA01C8010E94AB13843019F089
S1134240882341F001C085E0F8011082118203C087
S113425089E001C080E02496E4E00C945C29A2E0AB
S1134260B0E0E5E3F1E20C9443298C01BE016F5FF9
S11342707F4F0E946E0E811103C0F80110821182DB
S11342802296E4E00C945C29A2E0B0E0E9E4F1E2D7
S1134290F7C78C017B01BE016F5F7F4F0E946E0EDA
S11342A0D82E81111BC0E114F10439F440E050E030
S11342B0BA01C8010E94AB1310C0C80177D9982F66
S11342C09B7F59F4B701C8010E94C91560E070E0F2
S11342D0C8010E949816843009F0D82E8D2D22969C
S11342E0E7E0E7C78038910530F1672B61F08F3F35
S11342F0910509F0F0F4FC01EE0FFF1FE65FF94FA2
S11343008591949108954AE057E020E030E0FA0165
S1134310659174918617970739F02F5F3F4F4E5F71
S11343205F4F2038310599F7C90180589F4F99276D
S1134330089580E090E00895CF93DF93811520E104
S1134340920718F428E135E002C02CE534E0D901E5
S1134350F901459154914115510509F446C084175A
S1134360950708F442C0B9016C5F7F4F9B01FD01C2
S11343703296A591B491EB2FFF27BB27ED01C40F13
S1134380D51F8C179D0740F5E930F10570F5EA5A01
S1134390FF4F5BC7841B950B880F991F860F971FD0
S11343A0FC018591949121C09C01241B350B217043
S11343B03327821B930B19C0409717C0809715C0F1
S11343C0C09713C04A9711C008960FC08055910931
S11343D00CC080569C4109C0EF2B09F0B8CF9D0159
S11343E0220F331F260F371FB2CFDF91CF910895CD
S11343F0C0C708950C94512A0895CF93DF93EC011C
S113440088E0FE0111928A95E9F761E070E081E0AD
S113441090E095D788839983892B11F01E821F829F
S1134420DF91CF910895A2E0B0E0E8E1F2E229C77C
S11344307C0188E0F70111928A95E9F7FB0101906C
S11344400020E9F78F0101501109061B170BC80161
S1134450019669837A838DD7F7018083918369817B
S11344607A81009761F00E94FA2BF701028313838B
S1134470168217828481958101968483958322967E
S1134480E6E018C7EF92FF920F931F93CF93DF9349
S1134490EC017B0188E0FE0111928A95E9F7FB01AA
S11344A002811381C801019664D788839983009798
S11344B071F0F701608171810E94FA2B0A831B83DA
S11344C01E821F828C819D8101968C839D83CDB732
S11344D0DEB7E6E0EFC6CF93DF93EC0188819981E4
S11344E0009709F0DED788E0FE0111928A95E9F77A
S11344F0DF91CF910895A0E0B0E0E0E8F2E2BFC61A
S1134500EC016B016115710519F1FB0101900020AB
S1134510E9F78F0101501109061B170BB8016F5FF2
S11345207F4F888199810E94E02A7C01FC011082DE
S1134530009771F0B6010E94E62BE882F9820A83A3
S11345401B838C819D8101968C839D831E821F8297
S1134550CDB7DEB7E8E0ACC6A0E0B0E0E1EBF2E254
S11345608EC6EC017B0161157105F9F0FB01C28077
S1134570D380B6016F5F7F4F888199810E94E02AC2
S11345808C01FC011082009781F0F7016081718138
S11345900E94E62B08831983CA82DB828C819D8169
S11345A001968C839D831E821F82CDB7DEB7E8E01F
S11345B07FC6A0E0B0E0EEEDF2E261C6EC016B0173
S11345C088819981009709F161157105F1F00A81DB
S11345D01B81FB0122813381020F131FB8016F5F1E
S11345E07F4FEED77C01009781F0F60160817181E5
S11345F00E94E62BE882F9820A831B838C819D81C9
S113460001968C839D831E821F82CDB7DEB7E8E0BE
S11346104FC6A3E0B0E0EEE0F3E22FC68C01262FF4
S1134620683011F06F3721F4EE24EA94FE2C03C0B5
S1134630EE24E394F12CF801A280B380A114B10418
S113464021F4FFEFEF16FF0641F1AE0CBF1CB501DC
S11346506F5F7F4FF801808191812B83B1D76C010B
S11346602B810097D1F0FFEFEF16FF0639F0298375
S11346701A82BE016F5F7F4F0E94E62BF601EA0D9E
S1134680FB1D1082F801C082D182A282B38281E034
S113469090E084839583168217822396EAE006C607
S11346A0CF93DF93EC0161E070E08881998188D732
S11346B0FC0110821A821B82888399831E821F82C6
S11346C08C819D8101968C839D83DF91CF91089588
S11346D0A0E0B0E0EDE6F3E2D2C57C016B018A0113
S11346E0FC01808191810097F9F0828193819B0183
S11346F0240F351F28173907A8F4CA01019639D6A3
S1134700EC01009779F01882F701608171816C0DDA
S11347107D1DA8010E940F2CFE01E00FF11F1082E5
S1134720CE0102C080E090E0CDB7DEB7E8E0C0C5BE
S1134730EF92FF920F931F93CF93DF938C017B0132
S1134740FC01808191810097C1F082819381681777
S1134750790788F40196861B970B0BD6EC0100971A
S113476051F01882F801608171816E0D7F1D0E94E5
S1134770FA2BCE0102C080E090E0CDB7DEB7E6E0D0
S113478099C5CF93DF93EC01188219821A821B8298
S113479062E070E081E090E0D2D588839983DF9174
S11347A0CF9108950F931F93CF93DF93EC018881EA
S11347B09981892BF1F0EA81FB8188819981309775
S11347C0A9F0E150F048EE0FFF1FE80FF91F008138
S11347D011810115110521F0C8017DDEC8010ADE31
S11347E08A819B8101978A839B83E5CF5AD618825D
S11347F01982DF91CF911F910F910895A0E0B0E04D
S1134800E3E0F4E23CC5EC017B016115710599F12B
S1134810009799F188819981892B89F188E090E04A
S1134820E7DD8C01B7012EDE0115110551F16A8116
S11348307B816F5F7F4F660F771F88819981C0D618
S11348406C01009729F4C80146DEC801D3DD19C004
S1134850B701C80181DE8A819B81FC01EE0FFF1F35
S1134860EC0DFD1D00831183C882D98201968A83D1
S11348709B8380E007C08AEF05C08EEF03C08FEFF3
S113488001C08DEFCDB7DEB7E8E012C5A2E0B0E01D
S1134890EBE4F4E2F6C47C0161157105A1F1009723
S11348A0A1F1FC0180819181892B89F188E090E05C
S11348B069837A839DDD8C0169817A81B4DD011578
S11348C0110511F48DEF24C0F701628173816F5FCC
S11348D07F4F660F771F8081918172D6009791F385
S11348E0F70122813381F901EE0FFF1FE80FF91F51
S11348F000831183F701808391832F5F3F4F2283CD
S1134900338380E005C08AEF03C08EEF01C08FEFD0
S11349102296E6E0CFC4A2E0B0E0E0E9F4E2AFC45E
S11349206C017A016115710509F458C0009709F406
S113493057C0FC0180819181892B09F453C0828185
S11349409381892B31F44115510519F4C60156DFC1
S11349504CC088E090E069837A834ADD8C016981E8
S11349607A8190DD0115110509F43EC0F6016281DA
S113497073816F5F7F4F660F771F8081918120D68F
S1134980009729F4C801A7DDC80134DD2DC0F60164
S113499022813381B9016E197F09F901EE0FFF1FDE
S11349A0E80FF91F40E050E04617570739F0B2917D
S11349B0A291A283B3834F5F5F4FF6CFF701EE0F4F
S11349C0FF1FE80FF91F00831183F6018083918391
S11349D02F5F3F4F2283338380E007C08AEF05C0F7
S11349E08EEF03C08FEF01C08DEF2296E8E060C424
S11349F0EF92FF920F931F93CF93DF93EC018B0100
S1134A00009709F447C088819981009709F444C04C
S1134A102A813B816217730708F040C0FB01EE0F47
S1134A20FF1FE80FF91FE080F180E114F10421F089
S1134A30C70151DDC701DEDC8881998198012F5FB0
S1134A403F4F220F331F220F331F4A815B81415096
S1134A505109401B510B440F551FBC01620F731FBA
S1134A6024503109820F931F99D66A817B8161504A
S1134A707109660F771F88819981A2D588839983EC
S1134A802A813B81215031092A833B83892B41F4BC
S1134A908DEF07C08EEF05C08FEF03C08CEF01C010
S1134AA080E0CDB7DEB7E6E005C4A4E0B0E0EAE517
S1134AB0F5E2DBC32C018B01DC011D921D921D92DA
S1134AC01C921397FB01828193818417950708F444
S1134AD055C0880F991F841B950B4B835C8349D465
S1134AE07C014B815C81009709F448C06C014A0148
S1134AF0880C991C881A990A5A01D80112962D918A
S1134B003C911397A216B306D0F41601280C391C55
S1134B10D801ED91FC91E20DF31D0190F081E02D9F
S1134B2082819381019629833A834B835C8321D4C8
S1134B303C0129813A814B815C81009741F4241B1B
S1134B40350BF20122833383E082F18217C0D8014E
S1134B50ED91FC91E20DF31D0190F081E02D608157
S1134B6071814B835C8346D6F601619271926F0129
S1134B70FFEFAF1ABF0A5C814B81BFCF2496E2E1FD
S1134B808DC3CF93DF93EC0188819981892BB1F098
S1134B90EA81FB8188819981309779F0E150F0486E
S1134BA0EE0FFF1FE80FF91F808191817AD48A816B
S1134BB09B8101978A839B83EBCF73D4DF91CF9141
S1134BC00895CF93DF93EC01009799F1ED85FE856D
S1134BD0DF0185E0B695A7958A95E1F7AA0FBB1F7B
S1134BE0A859BF4D0D90BC91A02D8989882359F0F7
S1134BF014968C911497E7706E23E095E8236E2B3E
S1134C0014966C9310C08F85882321F061707727E8
S1134C1081E06827E770FF27E65FF74F672B29F0ED
S1134C20E4911596EC9380E005C0E4911696EC931C
S1134C30FACF8EEFDF91CF910895CF93DF93EC01FC
S1134C400097A9F1ED85FE85DF0125E0B695A795CE
S1134C502A95E1F7AA0FBB1FA859BF4D0D90BC912F
S1134C60A02D8989882341F018968C9190E08E2399
S1134C709F23877099271DC08F85E770FF2788239E
S1134C8069F018968C91E65FF74FE491E82331E0E0
S1134C9020E009F030E0832F922F0BC018968C91FE
S1134CA0E65FF74FE491E8238E2F90E002C08FEF88
S1134CB09FEFDF91CF910895CF93DF93EB0100979E
S1134CC049F0BBDFA0E0B0E088839983AA83BB836B
S1134CD080E001C08EEFDF91CF910895CF93DF93F1
S1134CE0FC01009709F44BC085859685DC0145E0FD
S1134CF0B695A7954A95E1F7AA0FBB1FA859BF4DD2
S1134D000D90BC91A02D9D01205F3F4F6130A1F01B
S1134D1020F1623049F06330A1F5EC01C770DD2762
S1134D20C20FD31F28E106C0EC01C770DD27C20FF4
S1134D30D31F20E1288306C0EC01C770DD27C20F12
S1134D40D31F18820584F685E02DE770FF27E65F00
S1134D50F74FE4911296EC9310C0EC01C770DD2775
S1134D60C20FD31F18820584F685E02DE770FF2754
S1134D70E65FF74FE4911196EC9380E003C08EEF69
S1134D8001C08BEFDF91CF910895CF93DF93EC01B6
S1134D9086E2FE0111928A95E9F7DE01119685E11A
S1134DA0FB0101900D928A95E1F76889CE0196DFA7
S1134DB06A897B89CE0105DFDF91CF910895892B24
S1134DC011F0C90108958EEF9FEF0895CF93DF93FB
S1134DD0FC01009721F48EEF80B99FEF41C086A1BA
S1134DE0811115C083899489DC01C5E0B695A79526
S1134DF0CA95E1F7AA0FBB1FA859BF4DCD91DC910D
S1134E00DC01A770BB27A65FB74F8C918E83C4A526
S1134E10D5A5DB01CB01840F951FA817B90731F085
S1134E202D912B832A8127FFFDCFF7CF86A18111F6
S1134E3016C083899489FC0165E0F695E7956A9527
S1134E40E1F7EE0FFF1FE859FF4DA081B181FC018E
S1134E50E770FF27E65FF74F808115968C93CA01B0
S1134E60DF91CF910895A0E0B0E0E8E3F7E207C254
S1134E70EC018B018FE1FE0111928A95E9F73EE284
S1134E80E32E30E2F32EC12CD12CE114F10411F401
S1134E9085EF4AC0B801C701A4D4F8E1EF0EF11CB4
S1134EA0892B21F02FEFC21AD20AEFCF45E050E050
S1134EB067E571E2C801A5D4892B51F047E050E0C1
S1134EC06DE571E2C8019DD4892B11F78AEF2CC0DE
S1134ED0F801858180538430D8F69FE1FE01119258
S1134EE09A95E9F78A8F98E19C9DF0019D9DF00DBC
S1134EF01124E25DFF4DDE011196292F01900D92E0
S1134F002A95E1F7823031F1833081F1813071F0FB
S1134F1080914E068F7E80934E069093520684E0D5
S1134F208093420688E00DC0888383C080914E063A
S1134F30806180934E069093560680E480934206E7
S1134F4080E8809341068093450680918A20909161
S1134F508B201FC080916E068F7E80936E06909387
S1134F60720684E08093620688E00BC080916E062E
S1134F70806180936E069093760680E48093620647
S1134F8080E8809361068093650680918E209091DD
S1134F908F208D8F9E8F60919A2070919B2080919D
S1134FA09C2090919D2023E0969587957795679511
S1134FB02A95D1F729893A894B895C8924D12150D2
S1134FC03109ED8DFE8D2683ED8DFE8D832F8F703F
S1134FD087838D89882341F0813041F0823041F00C
S1134FE0843041F487E007C080E005C081E003C05D
S1134FF082E001C083E09F89923011F4806203C093
S1135000913009F480639E89913009F48860ED8DB4
S1135010FE8D84838F859889892B11F424E001C047
S113502024E18D859E85892B09F02860ED8DFE8D08
S11350302383CDB7DEB7E8E03BC1DC015D96ED919B
S1135040FC915E97818185FFFDCF60830895DC012B
S11350505D96ED91FC915E97818187FF03C080810D
S113506090E008958FEF9FEF0895EF92FF920F93D2
S11350701F93CF93DF938C017B01009761F0EB01C9
S11350809E012E193F096991662319F0C801D5DFE5
S1135090F7CFC90102C080E090E0CDB7DEB7E6E00B
S11350A009C1A0E0B0E0E6E5F8E2E9C06C017A01EC
S11350B0EB019A01890101501109232B29F469910B
S11350C0C601BBDF9801F6CFC701801B910BCDB79A
S11350D0DEB7E8E0EDC0809150008260809350001C
S11350E08091510081FFFCCF91E088ED84BF9093C3
S11350F0400084BF809150008E7F8093500080E0F8
S113510098E4A8EEB1E080939A2090939B20A0931A
S11351109C20B0939D200895DECF0895089578943F
S1135120E0EAF0E08281846098ED94BF8093A2006D
S1135130E0E0F4E089E090E08287938784879587B4
S113514081E0808393E09283838385E0E0E4F0E070
S1135150838308951F920F920FB60F9211242F93F9
S11351603F934F935F936F937F938F939F93AF93EB
S113517020917D2330917E2340917F235091802381
S11351806091812370918223809183239091842361
S1135190AAE0A5D020937D2330937E2340937F23E0
S11351A0509380236093812370938223809383237D
S11351B090938423AF919F918F917F916F915F9191
S11351C04F913F912F910F900FBE0F901F90189504
S11351D085E893E2A4CF0895109200040895AA1BD1
S11351E0BB1B51E107C0AA1FBB1FA617B70710F0CE
S11351F0A61BB70B881F991F5A95A9F78095909500
S1135200BC01CD010895A1E21A2EAA1BBB1BFD010E
S11352100DC0AA1FBB1FEE1FFF1FA217B307E40791
S1135220F50720F0A21BB30BE40BF50B661F771FE9
S1135230881F991F1A9469F76095709580959095C9
S11352409B01AC01BD01CF010895EE0FFF1F059036
S1135250F491E02D099464D0A59F900DB49F900D16
S1135260A49F800D911D112408952F923F924F9277
S11352705F926F927F928F929F92AF92BF92CF92E2
S1135280DF92EF92FF920F931F93CF93DF93CDB7EB
S1135290DEB7CA1BDB0BCDBFDEBF09942A88398871
S11352A048885F846E847D848C849B84AA84B984BA
S11352B0C884DF80EE80FD800C811B81AA81B981C6
S11352C0CE0FD11DCDBFDEBFED0108952A0D3B1DCC
S11352D04C1D5D1D6E1D7F1D801F911F08950024B0
S11352E0A7FD00942A0F301D401D501D601D701D28
S11352F0801D901D08952A193B094C095D096E090A
S11353007F09800B910B08950024A7FD00942A17B0
S11353103005400550056005700580059005089529
S1135320A29FB001B39FC001A39F700D811D1124E2
S1135330911DB29F700D811D1124911D08950F932D
S11353401F93CF93DF93869F8001879F100D969FB5
S1135350100D1124C8010DD0EC01009721F0A80113
S113536060E070E02CD2CE01DF91CF911F910F91BC
S11353700895CF93DF938230910510F482E090E09A
S1135380E0918823F091892320E030E0A0E0B0E0B0
S1135390309739F14081518148175907B8F04817BF
S11353A0590771F482819381109729F012968D9395
S11353B09C9313972CC0809388239093892327C0B0
S11353C02115310531F04217530718F0A901DB010B
S11353D001C0EF019A01BD01DF010280F381E02DDC
S11353E0D7CF21153105F9F0281B390B24303105AD
S11353F080F48A819B816115710521F0FB01828310
S1135400938304C08093882390938923FE0132966A
S113541044C0FE01E20FF31F81939193225031099E
S1135420288339833AC02091862330918723232B04
S113543041F420910220309103202093862330935D
S1135440872320910020309101202115310541F45A
S11354502DB73EB74091042050910520241B350BF5
S1135460E0918623F0918723E217F307A0F42E1B23
S11354703F0B2817390778F0AC014E5F5F4F2417B4
S1135480350748F04E0F5F1F4093862350938723C0
S11354908193919302C0E0E0F0E0CF01DF91CF91DE
S11354A00895CF93DF93009709F487C0FC013297E6
S11354B012821382C0918823D0918923209781F48A
S11354C020813181280F391F809186239091872371
S11354D08217930779F5E0938623F09387236DC0B1
S11354E0DE0120E030E0AE17BF0750F412964D9174
S11354F05C9113979D014115510509F1DA01F3CF30
S1135500A283B38340815181840F951F8A179B071F
S113551071F48D919C911197840F951F029680834D
S1135520918312968D919C91139782839383211575
S1135530310529F4E0938823F09389233EC0D901EF
S11355401296ED93FC9313974D915D91A40FB51FA3
S1135550EA17FB0779F480819181840F951F0296E5
S1135560D9018D939C9311978281938112968D9387
S11355709C931397E0E0F0E08A819B81009719F0F7
S1135580FE01EC01F9CFCE01029628813981820F08
S1135590931F20918623309187232817390769F4B4
S11355A0309729F4109288231092892302C0128222
S11355B01382C0938623D0938723DF91CF910895DC
S11355C0A0E0B0E0E5EEFAE254CEEC01CB01209786
S11355D011F4CFDEB4C0FE01E60FF71F9E01225086
S11355E03109E217F30708F4A8C0D9010D911C9101
S11355F0119706171707B0F00530110508F49BC082
S1135600A801445051094617570708F494C00250A2
S11356101109061B170B019311936D937C93CF0112
S113562040DF89C05B01A01AB10A4E01800E911EB1
S1135630A0918823B0918923612C712C60E070E0E3
S1135640109709F449C0A815B905C9F5ED90FC9067
S11356501197670142E0C40ED11CCA14DB0478F12F
S113566047018A189B08640142E0C40ED11C1296BB
S1135670BC9012971396AC91B5E0CB16D10440F0D0
S1135680B282A38380829182D9018D939C9309C0B5
S11356900E5F1F4F0E0D1F1DF90100831183EB2DAB
S11356A0FA2F6115710531F0DB011296ED93FC932D
S11356B0139741C0E0938823F09389233CC06D91F4
S11356C07C9111976616770608F43B01BD0112968A
S11356D00D90BC91A02DB4CF609186237091872347
S11356E068157905E9F468167906D0F4409100202C
S11356F0509101204115510541F44DB75EB76091B9
S1135700042070910520461B570BE417F507A8F4F5
S1135710E0938623F0938723F901808391830BC060
S113572028DE7C01009749F0A801BE012ED0CE01ED
S1135730B8DEC70104C0CE0102C080E090E0CDB75E
S1135740DEB7EEE0AFCDFB01DC0102C005900D92A7
S113575041505040D8F70895FB01DC018D9105902C
S113576080190110D9F3990B0895FB01DC01059010
S11357700D920020E1F70895FC0105900020E9F75F
S1135780809590958E0F9F1F0895FB01DC0102C048
S113579001900D9241505040D8F708956817790749
S11357A068F4FB01DC01E40FF51FA40FB51F02C070
S11357B002900E9241505040D8F70895E6CFDC0194
S11357C001C06D9341505040E0F70895FB01DC01A6
S11357D00D900020E9F7119701900D920020E1F758
S11357E00895FB01DC018D91019080190110D9F31A
S11357F0990B0895FB01DC0101900D920020E1F763
S11358000895FB01DC014150504030F08D9101902E
S1135810801919F40020B9F7881B990B0895FB012E
S1135820DC014150504048F001900D920020C9F72E
S113583001C01D9241505040E0F7089518E0C8E1BE
S1135840D8E003C0FE0103DD2296CE31D107D1F7A3
S1075850F894FFCFF6
S113585400008A232000E803B1039F037F03660347
S11358644D032C03F202CA02A4027D0258023B0235
S11358741D02F401B2017201470126010A01756196
S113588472742D330000000000000100010000C206
S113589401000300000000000000000000000000FC
S11358A400000000000000000000030000004704A2
S11358B432041D040804F3030006000040066006D5
S11358C400000000000000000000000000000000D0
S11358D40000000000000000E007C0080000C00948
S11358E4000000000000000000000048E8017561A9
S11358F472742D33006C65642D30000A0D003A2057
S1135904002F0053504953443100222A3A3C3E3F6D
S11359147C7F002B2C3B3D5B5D0001030507090ED6
S113592410121416181C1E809A45418E418F80450E
S113593445454949498E8F9092924F994F555559EF
S1135944999A9B9C9D9E9F41494F55A5A5A6A7A89E
S1135954A9AAABACADAEAFB0B1B2B3B4B5B6B7B837
S1135964B9BABBBCBDBEBFC0C1C2C3C4C5C6C7C827
S1135974C9CACBCCCDCECFD0D1D2D3D4D5D6D7D817
S1135984D9DADBDCDDDEDFE0E1E2E3E4E5E6E7E807
S1135994E9EAEBECEDEEEFF0F1F2F3F4F5F6F7F8F7
S11359A4F9FAFBFCFDFEFF756172742D00757362D8
S10959B46364632D000092
S9030000FC
