:100000008FC10000B5C10000B3C10000B1C1000044
:10001000AFC10000ADC10000ABC100000C94C3141F
:10002000A7C10000A5C10000A3C10000A1C100003C
:100030009FC100009DC100009BC1000099C100004C
:1000400097C1000095C1000093C1000091C100005C
:100050008FC100008DC100008BC1000089C100006C
:1000600087C1000085C1000083C1000081C100007C
:100070007FC100007DC100007BC1000079C100008C
:1000800077C1000075C1000073C1000071C100009C
:100090006FC100006DC100006BC1000069C10000AC
:1000A00067C1000065C1000063C1000001020408CF
:1000B000102040800600060820800000000000009C
:1000C0005F0000000000070007000000147F147F9D
:1000D0001400242A7F2A1200231308646200364980
:1000E000552250000503000000001C2241000000C2
:1000F00041221C000000082A1C2A080008083E08AB
:1001000008005030000000000808080000003030EF
:10011000000000002010080402003E5149453E0046
:10012000427F400000004261514946002141454B59
:1001300031001814127F10002745454539003C4A0C
:100140004949300001710905030036494949360023
:10015000064949291E0036000000000056360000FE
:100160000000081422410000141414000000412271
:1001700014080000020151090600324979413E008D
:100180007E11117E00007F49493600003E41412228
:1001900000007F41221C00007F49494100007F0987
:1001A000090100003E41513200007F08087F000035
:1001B000417F410000002040413F01007F081422A0
:1001C00041007F40400000007F0204027F007F0466
:1001D00008107F003E41413E00007F0909060000F3
:1001E0003E4151215E007F192946000046494931B0
:1001F0000000017F010000003F40403F00001F2041
:1002000040201F007F2018207F0063140814630023
:100210000304780403006151494543007F414100D4
:10022000000002040810200041417F000000040289
:1002300001020400404040000000010204000000F0
:100240002054547800007F4844380000384444006B
:1002500000003844487F0000385454180000087EDD
:10026000090100000814543C00007F0804780000D5
:10027000447D400000002040443D00007F102844A1
:100280000000417F400000007C04180478007C08D6
:10029000047800003844443800007C14140800003E
:1002A0000814187C00007C080408000048545420FE
:1002B0000000043F444000003C40207C00001C2023
:1002C00040201C003C4030403C00442810284400A2
:1002D0000C50503C00004464544C4400083641002B
:1002E00000007F0000000000413608000000082ADE
:1002F0001C080000081C2A08000014367736140079
:1003000001020408102040806364696E6F70737589
:1003100078585B00560ECC0F01155D0ED00F0515F9
:1003200011241FBECFEFCDBFDFE2DEBF12E2A0E09F
:10033000B0E2E8EAF7E302C005900D92A831B107F8
:10034000D9F722E2A8E1B2E201C01D92A433B207BC
:10035000E1F713E0CAE1D3E004C02297FE010E9456
:10036000C716C431D107C9F70E94ED0B0C94C81B06
:1003700047CEDC015296ED91FC915397309739F0BE
:10038000DC968D919C91DD97099580E0089588EF2A
:100390000895CF92DF92EF920F931F93DC015C964A
:1003A000ED91FC915D97309739F0DC968D919C91A1
:1003B000DD97099580E001C088EF1F910F91EF90C4
:1003C000DF90CF900895DC015E96ED91FC915F97F0
:1003D000309739F0DC968D919C91DD97099580E0FE
:1003E000089588EF0895EF92FF920F93DC0196969F
:1003F000ED91FC919797309739F0DC968D919C9117
:10040000DD97099580E001C088EF0F91FF90EF9094
:100410000895A0E0B0E0EFE0F2E00C94CD16EC011E
:100420003B01620E731E5B01A21AB30A4A01800EE1
:10043000911E2A01401A510AEE2071F06A187B08B9
:10044000760101E09401A301B501CDDF9201A30182
:10045000B501CE01C8DF13C09601A401B301B3DF1B
:100460009601A401B501CE01AEDF9601A201B30150
:10047000CE01A9DF9601A201B501CE01A4DFCDB75F
:10048000DEB7E0E10C94E616EF92FF920F93DC01E9
:100490009896ED91FC919997309739F0DC968D9173
:1004A0009C91DD97099580E001C088EF0F91FF9046
:1004B000EF900895DC01D896ED91FC91D997309793
:1004C00039F0DC968D919C91DD97099580E0089537
:1004D00088EF0895A9E1B0E0E0E7F2E00C94CB16D4
:1004E0002C013B014A0169010F8B5701DC01D096B9
:1004F000ED91FC91D197309731F0DC968D919C91E4
:10050000DD970995F8C0332314F4C094D09481E0AA
:1005100090E0FC01EC19FD09EB83FC8321E030E065
:100520002D833E83212C312C00E010E045E050E08B
:100530004D8B5E8BC4014201C88ED98E65012C01A2
:100540002B8A3C8A7101E60CF71CC30182199309BE
:100550008B879C87A88DB98DA60DB71DAF83B887F3
:10056000F301288D398DE21BF30BE987FA87A1018E
:10057000440D551D49835A83C201821993098F87FF
:10058000988B5901A40CB51CD201A21BB30BAD87EB
:10059000BE87BF89BB2309F43DC00A151B05A9F01E
:1005A000760101E09501F101EE0FFF1FE98BFA8B57
:1005B000AF016B857C85C40116DF2D853E85498999
:1005C0005A896B857C85C4010EDF2D893E8949815E
:1005D0005A812417350709F452C08F819885A9855F
:1005E000BA858A1B9B0B8F839887760101E09A015D
:1005F000AC01BD01C401F7DE2F8538894F815885D4
:1006000069857A85C401EFDE8501E981FA81ED8B88
:10061000FE8B3AC09601A501B701C401D4DE960154
:1006200049815A816F817885C401CDDE9601A5018B
:100630006B857C85C401C7DE960149815A81698535
:100640007A85C401C0DE96014F8558896F8178850F
:10065000C401B9DE96014D855E85B701C401B3DEE4
:1006600096014D855E856B857C85C401ACDE960167
:100670004F85588969857A85C401A5DE05C0850145
:1006800029813A812D8B3E8B4B815C81552364F40B
:100690008D819E819101220F331F2D5F3F4F420FAD
:1006A000531F4B835C8315C08D819E812B893C89B0
:1006B000A88DB98D2A1B3B0B220F331F2B5F3F4F99
:1006C000EB81FC81E20FF31FEB83FC831197A88F72
:1006D000B98FFFEF2F1A3F0A2D813E812F5F3F4FC9
:1006E0002D833E83488D598D481759070CF028CF2C
:1006F0002401C401DFDE80E06996E2E10C94E41697
:10070000A2E2B0E0E6E8F3E00C94CB168F83988782
:100710001B0149A35AA35901C98ADA8AFC0182A89C
:1007200093A88114910429F084AD95ADF401099545
:1007300044C2F1E0EF1292C07901E61AF70A3801DB
:1007400029A13AA1621A730AA701440F551F4B87CA
:100750005C872301440C551CFF2064F4F194E19460
:10076000F1085195419551094B875C87CC24CA9477
:10077000DC2C03C0CC24C394D12C772054F4719486
:100780006194710851944194510888248A94982C5A
:1007900003C088248394912C29893A8949A15AA1BC
:1007A000B1018F8198850FDEE114F10421F4611409
:1007B000710409F4FFC1E614F7042CF100E010E025
:1007C0008F86988A6F80788489889A882C0C3D1C43
:1007D000040D151DE016F10664F489A19AA1EF85B8
:1007E000F8898E0F9F1F89A39AA32B853C85021B36
:1007F000130B940149A15AA1B101C301E4DD2A14EC
:100800003B0421F7D7C1E12CF12CCF86D88ACB84C9
:10081000DC844B865C86AF80B88449885A8869A19D
:100820007AA1680D791D69A37AA3EC0CFD1C6E14E6
:100830007F0444F48F859889280E391EEB85FC854A
:10084000EE1AFF0A920149A15AA1B101C501BBDD0F
:1008500029A13AA12017310711F7ACC1A901461B04
:10086000570B4F87588BB80189A19AA1681B790B48
:100870006B877C878E2D8695E82FF0E0ED87FE87CD
:10088000429DC001439D900D529D900D112449A1A0
:100890005AA1649F9001659F300D749F300D112403
:1008A000280F391F66277727621B730B6B8B7C8B96
:1008B000EF85F889EA9D3001EB9D700CFA9D700C74
:1008C00011244B855C85409F9001419F300D509FC6
:1008D000300D1124620E731E719461947108A2147C
:1008E000B30454F0362D272D3B013B8B2C8B61E05C
:1008F00070E06B8F7C8F04C0EFEFFFEFEB8FFC8F0E
:1009000029A13AA1021713075CF03B892C896B8A55
:100910007C8A632E722E41E050E04D8F5E8F04C0C2
:100920006FEF7FEF6D8F7E8FEF85F8892B853C858C
:10093000E217F3070CF49CC0220F331F298F3A8F64
:1009400029014E1A5F0AA2014E1B5F0B4F8B588F75
:10095000FF230CF42FC16B8D7C8D6D837E83260E5F
:10096000371E6E9F90016F9F300D7E9F300D1124BA
:100970002D8B3E8B8B839C8319821A824D855E85DD
:1009800051954195510949875A87AE2DA170B0E024
:10099000CD84DE84CA0EDB1EAB84BC846B897C896B
:1009A000661A770A4101ED81FE818E1A9F0A098538
:1009B0001A850C151D0584F589A19AA12D853E8502
:1009C000821B930B4B855C85489F7001499FF00CFF
:1009D000589FF00C11246B817C81E60EF71E8B89E9
:1009E0009C89E80EF91E49A15AA1400F511FFF2012
:1009F00064F0C3018E0D9F1D1816190634F0298965
:100A00003A89B4018F819885DEDC0F5F1F4FEA0CB5
:100A1000FB1C0C151D053CF355202CF4498D5A8DFB
:100A2000440E551E0CC06F89788D460E571E89A145
:100A30009AA1ED8DFE8D8E0F9F1F89A39AA3298108
:100A40003A812F5F3F4F29833A834D815E81240E87
:100A5000351E6B817C818D899E89680F791F6B8320
:100A60007C83EF85F889E217F3070CF09BCFA2C0D7
:100A70002F853889220F331F2F8F38A329014B85EB
:100A80005C85441A550AB201641B750B698F7A8F15
:100A900055230CF48FC08D8D9E8D8D8B9E8B5C01AC
:100AA000E9A1FAA1AE0EBF1E849F9001859F300D73
:100AB000949F300D11242F8B388FC501ED85FE8555
:100AC0008E1B9F0B489F4001499F900C589F900C94
:100AD000112419821A82F195E195F109EB83FC83C7
:100AE000FE2DF170FD831E82ED80FE802D853E85FA
:100AF000E20EF31E6A014B895C89641A750A55205F
:100B00003CF46F8D78A1460E571EAD82B9860AC09F
:100B1000898D9A8D480E591EEB8DFC8D2E0E3F1E31
:100B2000AD82B9860B811C810E151F057CF54F85A2
:100B30005889429D9001439D300D529D300D1124E6
:100B4000280D391D6B897C89620F731F6D877E8725
:100B50008D859E8599237CF0860D971D18161906A4
:100B600054F029893A894D815985B801620D731D68
:100B70008F81988528DC0F5F1F4FED85FE85EC0D7A
:100B8000FD1DED87FE870E151F0514F329813A819F
:100B90002F5F3F4F29833A834D895E89A40EB51E8E
:100BA0006F89788D860E971E8B859C85821793079B
:100BB0000CF0A5CF8F8198857DDC80E0A296E2E1E4
:100BC0000C94E416A4E1B0E0E8EEF5E00C94CB164A
:100BD00089839A8369877A874B835C830B8B1C8B11
:100BE000FE2CCD82DE82FC01A4A9B5A9109729F0C4
:100BF00084AD95ADFD01099551C1332314F42095C1
:100C000030954B895C89552324F4409550954B8B46
:100C10005C8B229FC001239F900D900D11248F8724
:100C2000988B2B893C89229FF001239FF00DF00DBA
:100C30001124E98BFA8BEE0FFF1FEB87FC87880FDF
:100C4000991F8F839887289F3001299F700C389FA8
:100C5000700C1124CD80DE80EF2C890120E030E083
:100C60004B815C8169857A8589819A81D2DB4F8548
:100C700058890B891C89409FC001419F900D509F4E
:100C8000900D112469897A89681B790B882777FD73
:100C90008095982F0E94A1154B015C01EF85F88982
:100CA000BF01882777FD8095982F0E94A11520E02D
:100CB00030E040E85EE30E942D169B01AC01C501C7
:100CC000B4010E940A150E946E155B0116141704E8
:100CD000ECF52B853C852D873E8789889A88820E86
:100CE000931E212C312C412C512C3FEF431A530AD7
:100CF0004B855C85240E351EBB201CF4A80CB91C4A
:100D00000EC08B899C8901978B8B9C8BEF81F8851A
:100D10006E1A7F0AC40186199709A80EB91ECD80E4
:100D2000DE80EF2C0B891C8992014B815C816985E7
:100D30007A8589819A816DDB2D853E85820E931E91
:100D40002614370494F20B891C8904C0212C312C01
:100D5000412C512CB201882777FD8095982F0E9455
:100D6000A11520E030E040E05FE30E940A154B014E
:100D70005C0149895A89BA01882777FD8095982FA7
:100D80000E94A115A50194010E942D169B01AC01A2
:100D9000C501B4010E942D164B015C018B899C8911
:100DA0000197EF85F8898E9F90018F9F300D9E9F50
:100DB000300D1124829FB001839F700D929F700DA2
:100DC0001124882777FD8095982F0E94A1159B01FB
:100DD000AC01C501B4010E940A154B015C012F85CD
:100DE000388949895A89249FB001259F700D349F05
:100DF000700D1124882777FD8095982F0E94A115EA
:100E00009B01AC01C501B4010E9409150E946E1539
:100E10005B018B899C8918161906ECF50F811885E2
:100E2000480186189708EF85F8898E0E9F1E2F823D
:100E30003886380129843A842B893C89215031092C
:100E40002B8B3C8B1A141B041CF4A80CB91C10C06F
:100E50003FEF431A530A4F8158858B859C85480F75
:100E6000591F4F835887CA01880D991DA80EB91EB6
:100E7000CD80DE80EF2C0B891C8992014B815C8137
:100E8000B10189819A81C5DA860C971C0B891C896E
:100E90000115110589F689819A810CDB80E0649641
:100EA000E2E10C94E416A3E1B0E0E9E5F7E00C948C
:100EB000CB168B839C834901E986AA86BB86E6EB29
:100EC000F0E04490E7EBF0E06490DB013C903110FF
:100ED00008C0A12CB12C8B819C81ECDAC501019753
:100EE000F3C08B010F5F1F4FE42EF52EA12CB12C08
:100EF000212C772467FC70944D835E83E8EBF0E04F
:100F00009491E4EBF0E04491E8EBF0E08491381642
:100F100008F4A8C0E9EBF0E08491831508F4A4C0BC
:100F2000232D30E0291B3109542D5203C001539F5A
:100F3000900D1124840F911DA1E0A4159CF4FC01D7
:100F4000EB54FF4FE491EE2379F0FC01EA54FF4F9C
:100F500031E004C024913196222339F03F5F3411EF
:100F6000F9CF03C031E001C031E022242394230EE5
:100F7000E22DFF27E7FDF095E983FA83AF014E0DDF
:100F80005F1DAB81BC8116962D913C91179742173E
:100F900053070CF46AC01A962D913C911B972E0FA3
:100FA0003F1FE216F3060CF060C018962D913C919D
:100FB0001997A301480D591D421753070CF455C04A
:100FC0001C962D913C911D97260D371D8216930678
:100FD0000CF04BC01E161F060CF047C0C12CD12CC4
:100FE000FC01EC54FF4FEF83F8874C862D862701D8
:100FF000232C0E871F878601A88AB98A5D01CA84BF
:10100000DB847801EF81F885E00FF11F349016142E
:101010001704C4F41A8A1B8AE40CF51C30FE08C0BD
:1010200096014A895B89480D591DB701C501CBD985
:1010300036944A895B894F5F5F4F4A8B5B8B4615BD
:10104000570564F30F5F1F4F89819A8108171907AD
:10105000C4F272014C84322C2D840E851F85A88821
:10106000B98803C0412C01C0412C9AE0391639F0EF
:10107000ADE03A1208C0F801ED80FE801CC0860C7D
:10108000971CF80118C0E20CF11C27FCFA94970198
:10109000240D311D47FC3A95EB81FC8182859385B7
:1010A000821793073CF4F985FF2321F0860C971CE7
:1010B000ED80FE80F8012FEFA21AB20A30800F5F98
:1010C0001F4F31101BCF07CF6396E2E10C94E4165B
:1010D00008950F931F93CF93DF93EC01FA018E8154
:1010E0009F81681779070CF482C08A859B856817F1
:1010F00079070CF07CC088859985481759070CF44E
:1011000076C08C859D85481759070CF070C0A88162
:10111000B9814D915C911197641775070CF067C008
:1011200077230CF464C012968D919C911397E81765
:10113000F9070CF05CC0FF230CF459C09296AC91F7
:10114000A230D1F0A33019F0A1111DC00CC0DA01FA
:10115000A61BB70BBD0161507109DC01AE1BBF0BB3
:10116000FD01319710C0DC01AE1BBF0BAC01FB01D0
:10117000BD016150710907C0DA01A61BB70BAC01B4
:10118000BF01FD013197CF0195958795959587957D
:1011900095958795849F8001859F100D949F100DD4
:1011A0001124CB01BA010E949016080F191F232B9E
:1011B00069F0E770FF27E455FF4FE491C00FD11F9E
:1011C000CC5BDF4F8881E82BE88311C0E770FF27F5
:1011D000E455FF4F8491C00FD11FCC5BDF4F90E0EF
:1011E00080959095288130E0822393238883DF9136
:1011F000CF911F910F910895A1E0B0E0E2E0F9E0F6
:101200000C94D9168C016983FC01E05CFF4F60E00F
:1012100070E08081918121D7F801EE5BFF4F41E0C2
:1012200050E0BE016F5F7F4F808191810E94EA1282
:101230002196E4E00C94F2161F93CF93DF93EC0118
:1012400060E4DADFE881F9813281238182A18D7F38
:1012500019F0832F922F02C08081918180329105F5
:1012600049F08034910521F0409769F511E003C001
:1012700017E001C013E061E2CE01BEDF60E0CE0105
:10128000BBDF6FE7CE01B8DF62E2CE01B5DF60E021
:10129000CE01B2DF612FCE01AFDFFE01E05CFF4F78
:1012A00061E070E080819181D8D6BE016C5B7F4F98
:1012B000FE01EE5BFF4F40E052E0808191810E9491
:1012C000EA12CE0156D8DF91CF911F910895A0E088
:1012D000B0E0EDE6F9E00C94CB16EC015B014A01BD
:1012E0008A859B85681779070CF0C7C04C855D859A
:1012F000841695060CF0C1C02B01420E531E2E81A0
:101300003F81421653060CF4B8C03401600E711EC2
:1013100068857985661677060CF4AFC0EE20A1F1DA
:10132000861697060CF44B01A216B3060CF459016D
:10133000841595050CF42C018614970414F5841675
:1013400095060CF09AC0EA2CFB2C06C08C859D8576
:10135000881699060CF091C0A414B50464F40E2DFF
:101360001F2D9601A401B801CE01B3DE0F5F1F4F00
:1013700004151505B4F38FEF881A980A861497049C
:101380002CF3CE0159DF79C01201841595050CF4B8
:101390001C018501A216B3060CF489018616970676
:1013A00084F0021513051CF578019601A401B7011C
:1013B000CE018FDE8FEFE81AF80AE214F304ACF3E3
:1013C0004FC08C859D85861597058CF002151305F9
:1013D00074F4730181E0E81AF1089601A701B801DD
:1013E000CE0177DE0F5F1F4F02151305B4F38C8516
:1013F0009D85861597050CF43C018885998588168E
:1014000099060CF44C018E819F81A816B9067CF0D8
:101410008614970414F584019601A801B501CE0144
:1014200058DE0F5F1F4F06151705B4F320C08A85DD
:101430009B85841595058CF08614970474F481E0DF
:10144000481A51089601A401B201CE0142DE8FEF85
:10145000881A980A86149704ACF3CE01EDDE0DC00D
:101460008C859D85861597050CF0B3CFC0CF8A85F6
:101470009B85841595051CF7F0CFCDB7DEB7E2E16B
:101480000C94E416CF92DF92EF920F931F93DC013E
:10149000ED91FC9102811381208131816B01EE2459
:1014A000E39440E050E060E070E011DF1F910F91A5
:1014B000EF90DF90CF900895A0E0B0E0E2E6FAE090
:1014C0000C94CF165C013B01640E751EDC01169670
:1014D000ED91FC9117976B016E177F070CF46F016C
:1014E000D5011A968D919C911B978C159D050CF436
:1014F0006C016E167F060CF43F01861597050CF4FF
:101500003C01F50140855185822F932F8417950763
:101510000CF4CA01D5011C962D913C911D972817FA
:1015200039070CF4C90110E0980135952795021B85
:10153000130BC614D704C4F44C01821A930A080F83
:10154000191FE401801691064CF49701AE01B60113
:10155000C501BFDD2196C017D107BCF3BFEFCB1A81
:10156000DB0AC614D7046CF3C50166DECDB7DEB75F
:10157000EEE00C94E816A0E0B0E0E1ECFAE00C94A8
:10158000CF165C013B01640E751EDC0116964D9171
:101590005C911797822F932F841795070CF4CA013B
:1015A000F50122853385281739070CF4C901D501C7
:1015B0001896ED91FC9119976B016E177F070CF44B
:1015C0006F01D5011C962D913C911D972C153D0561
:1015D0000CF469016E167F060CF43F0126153705E1
:1015E0000CF4390110E0980135952795021B130B77
:1015F000C614D704C4F44C01821A930A080F191FA9
:10160000E401801691064CF49701A601BE01C501C4
:1016100060DD2196C017D107BCF3BFEFCB1ADB0A00
:10162000C614D7046CF3C50107DECDB7DEB7EEE014
:101630000C94E8166FEAE0CD08956EEADDCD0895CA
:101640001F93CF93DF93EC01162F61E8D5DD612F57
:10165000CE01D2DDDF91CF911F910895CF93DF931B
:10166000EC0160E070E08EAD9FADF7D462E070E019
:1016700080E090E08FD461E070E08EAD9FADEDD45E
:1016800064E670E080E090E085D46DE8CE01B4DDE2
:1016900064E1CE01B1DD69EDCE01AEDD61EFCE01D9
:1016A000ABDD61E8CE01A8DD6FE8CE01A5DD60EA23
:1016B000CE01A2DD60ECCE019FDD6AEDCE019CDDA6
:1016C00060E0CE0199DD60E2CE0196DD62E070E07F
:1016D00080E090E05FD4FE01EC5BFF4F20E030E063
:1016E00011922F5F3F4F211582E03807C9F7CE01D5
:1016F000A3DD60E0CE01A4DFDF91CF910895A0E0EB
:10170000B0E0E5E8FBE00C94D516EC017B016A0142
:1017100084E492E0FE019C01119221503040E1F7F7
:10172000BE01625C7F4F82EC91E274D1BE01605CCD
:101730007F4F8AEC91E26ED18E010E5B1F4FB80194
:10174000C601DCD1F80180819181892B09F440C068
:101750008EAD9FAD892BE1F1329780819181892BEC
:10176000B9F1E882F9828AE19BE08A8B9B8B8DE15B
:101770009BE08C8B9D8B88E698E08A8F9B8F89E617
:1017800098E08E8F9F8F87E699E08C8F9D8F8CE5F8
:101790009AE08EA39FA38BEB9AE088A799A782E497
:1017A0009AE08AA79BA78CE199E088AF99AF1E8247
:1017B0001F8218861986F701808191818A879B870D
:1017C000828193818C879D87CCAFDDAFCE0146DFD0
:1017D000CDB7DEB7E8E00C94EE1603D080E090E0E1
:1017E0000895A7E2B0E0E7EFFBE00C94D11604E126
:1017F00010E020E030E040E050E060E070E0CE013A
:1018000041965BD304E620E030E040E050E060E049
:1018100070E0CE01019651D361ED71E2CE01819667
:1018200050D20F2EF0E28F2EF2E29F2EF02D2FEFEE
:101830003FEF41E050E063E070E0F401808191818E
:101840000E94E301CC24CA94DC2CEE24E39405E04E
:1018500010E025E030E043E050E061E070E0F401AA
:10186000808191810E94C901E12C25E030E049E0AE
:1018700050E061E070E0F401808191810E94C90133
:10188000EE24EA94FE2C01E020E130E040E150E05B
:1018900061E070E0F401808191810E94F30128E011
:1018A00030E04AE050E062E170E0F4018081918133
:1018B0000E944402AA24AA94BA2CC12CD12CEE2452
:1018C000E39400E010E020E030E040E150E068ED1B
:1018D00071E2F40180819181E6DAEE24EA94FE2C33
:1018E00001E028E030E047E150E060E270E0F40120
:1018F000808191810E946A0200E028E030E047E1A7
:1019000050E062E370E0F401808191810E946A02FC
:10191000CC24CA94DC2CEE24E39404E010E028E00C
:1019200030E047E150E065E470E0F40180819181AE
:1019300049D9E12C08E010E024E030E047E150E034
:1019400063E570E0F401808191813CD9EE24E39459
:1019500009E110E02EE630E040E150E06AE570E099
:10196000F401808191810E9480030F2EF3E0EF2E1D
:10197000F02D26E730E040E150E062E670E0F4014F
:10198000808191810E948003912C88E192E28DD127
:10199000CE014196BAD2CE010196B7D28823A9F3DF
:1019A000BE01695D7F4F8BEF91E237D28FA1882313
:1019B00009F1992069F00CE013E020E030E040E00C
:1019C00050E060E070E0CE0101968ED2912C0DC007
:1019D00004EB10E020E030E040E050E060E070E038
:1019E000CE01019681D29924939460E08BEF91E22D
:1019F000D1D1CBCF04E110E020E030E040E050E076
:101A000060E070E0CE0101966FD261E08BEF91E271
:101A1000C1D1BBCFA0E0B0E0E0E1FDE00C94D51671
:101A20007C016B01C0912920D0912A20209749F098
:101A30008D859E85892B51F404C02D853E85232BF1
:101A400039F4F6011082118285EF19C00BE210E221
:101A50008881813039F4B701CE0101960E94961831
:101A6000892B39F0F801C191D1918F01209729F785
:101A7000E8CF8F859889F6018083918380E0CDB788
:101A8000DEB7E8E00C94EE16A0E0B0E0EAE4FDE09A
:101A90000C94D5167C016B01C0912920D0912A208D
:101AA000209749F08D859E85892B51F404C02D85A2
:101AB0003E85232B39F4F6011082118285EF19C07F
:101AC0000BE210E28881833039F4B701CE01019630
:101AD0000E949618892B39F0F801C191D1918F019C
:101AE000209729F7E8CF8F859889F6018083918325
:101AF00080E0CDB7DEB7E8E00C94EE16A0E0B0E0F1
:101B0000E4E8FDE00C94D5167C016B01C09129201E
:101B1000D0912A20209749F08D859E85892B51F4FC
:101B200004C02D853E85232B39F4F60110821182E5
:101B300085EF19C00BE210E28881843039F4B701D7
:101B4000CE0101960E949618892B39F0F801C191B7
:101B5000D1918F01209729F7E8CF8F859889F601D9
:101B60008083918380E0CDB7DEB7E8E00C94EE1679
:101B7000A0E0B0E0EEEBFDE00C94D5167C016B012B
:101B8000C0912920D0912A20209749F08D859E85EB
:101B9000892B51F404C02D853E85232B39F4F601A1
:101BA0001082118285EF19C00BE210E28881823029
:101BB00039F4B701CE0101960E949618892B39F0AD
:101BC000F801C191D1918F01209729F7E8CF8F8536
:101BD0009889F6018083918380E0CDB7DEB7E8E095
:101BE0000C94EE16A0E0B0E0E8EFFDE00C94D31604
:101BF0006C018AE0F60111928A95E9F7C0912920DB
:101C0000D0912A208D859E85892B09F43BC00BE25B
:101C100010E20F2EF9E2EF2EF8E2FF2EF02D08C0B1
:101C2000F801C191D1918F012D853E85232B51F172
:101C30008881823079F08430C1F0813001F588E10B
:101C400090E0B2D15C01009711F0BE0149D3AF869C
:101C5000B88A15C08BE090E0A7D15C01009711F025
:101C6000BE0114D5AF86B88A0AC086E190E09CD147
:101C70005C01009711F0BE0173D3AF86B88A0E15D0
:101C80001F0571F684E492E08FD1EC01009729F0F2
:101C900041E052E266E070E232DDF601C087D187B2
:101CA000CDB7DEB7EAE00C94EC16089582E292E23A
:101CB000ECD588E192E296CF089582E292E2C4C523
:101CC0000895A8E0B0E0E7E6FEE00C94D7168C019A
:101CD0007B0186E0F80111928A95E9F7BE01695F00
:101CE0007F4FC70197DE811108C08F819885F80169
:101CF0008283938381E0818331C0BE016B5F7F4F1C
:101D0000C701C2DE811108C08D819E81F8018283E6
:101D1000938383E0818322C0BE016D5F7F4FC70143
:101D2000EDDE811108C08B819C81F8018283938351
:101D300084E0818313C0BE016F5F7F4FC70118DF4E
:101D4000811108C089819A81F8018283938382E09E
:101D5000818304C0F8011182128213822896E6E082
:101D60000C94F016FC011182128213820895FC017A
:101D700082819381009741F02181222339F0213023
:101D800039F470E06AC108958FEE08958FEE0895DA
:101D900088EF0895A6E0B0E0E0EDFEE00C94DA16DE
:101DA000162FBC01CE0101968CDF612FCE0101966A
:101DB000DEDF182FCE010196D5DF812F2696E3E0D6
:101DC0000C94F316A4E0B0E0E7EEFEE0F2C7FC01ED
:101DD0008B01828193810097C1F021812223B9F088
:101DE0002130B9F4BE016F5F7F4FD3D149815A8151
:101DF0006B817C81452B462B472B21F091E0F8012C
:101E0000908308C0F801108205C08FEE03C08FEEEA
:101E100001C088EF2496E4E0E5C7A6E0B0E0E2E187
:101E2000FFE0C7C78B01BC01CE0101964ADFB801B4
:101E3000CE010196C7DF182FCE01019693DF812FC7
:101E40002696E4E0CFC7AF92BF92CF92DF92EF9297
:101E5000FF920F931F93FC01662319F12091272213
:101E6000309128224091292250912A2260912B22E0
:101E700070912C2280912D2290912E22A080B180F1
:101E8000C280D380E480F58006811781B5D79F7723
:101E9000208731874287538764877587868797872E
:101EA00003C08785806887871F910F91FF90EF900F
:101EB000DF90CF90BF90AF9008950F931F93FC01D8
:101EC00080E1DF011D928A95E9F77F770083118316
:101ED00022833383448355836683778361E0CF0114
:101EE000B2DF1F910F9108950F931F93FC017F772D
:101EF00000831183228333834483558366837783EE
:101F000061E0A1DF1F910F910895A0E0B0E0EAE841
:101F1000FFE044C7FC01508461847284838494840C
:101F2000D585C685B785252D362D472D582D692D8C
:101F30007D2F8C2F9B2FA0E086D72CF1A0902722FD
:101F4000B0902822C0902922D0902A22E0902B2203
:101F5000F0902C2200912D2210912E229F77AFEF2E
:101F600054D71F775ED720E030E040E050E060E0DB
:101F700070E080E09078A0E066D739F061E0CF01B2
:101F800062DF81E003C080E001C080E0CDB7DEB752
:101F9000EFE01DC7A2C4089583E292E21BC008953A
:101FA00083E292E228C0089588C708950C94F5173B
:101FB0000895CF93DF93EC0188819981009711F008
:101FC0000E94F51788E0FE0111928A95E9F7DF91EA
:101FD000CF910895CF93DF93EC01188219821A8272
:101FE0001B8262E070E081E090E04DD788839983A6
:101FF000DF91CF9108950F931F93CF93DF93EC015F
:1020000088819981892B21F12A813B812115310514
:10201000D1F021503048220F331FE881F981E20FBF
:10202000F31F008111810115110521F0C801C1DFE5
:10203000C801BCDF2A813B81215031092A833B83BF
:102040002115310531F788819981CFD718821982FE
:10205000DF91CF911F910F910895CF93DF93009758
:1020600009F445C0DC011196ED91FC911297A5850C
:10207000B6851C96ED91FC911D97EF01D695C795FD
:10208000D295C295CF70CD27DF70CD27CC0FDD1F45
:10209000C658DE4D0990D881C02D50968C9150972E
:1020A000882349F08C81E7706E23E095E8236E2B3E
:1020B0006C8380E01DC01E968C91882331F0CB018B
:1020C000B1E08B27682F617070E0672B41F0E770FB
:1020D000FF27E050FD4FE491ED8380E009C0E770F9
:1020E000FF27E050FD4FE491EE8380E001C08EEFCA
:1020F000DF91CF910895CF93DF93009709F444C007
:10210000DC011196ED91FC911297A585B6851C9680
:10211000ED91FC911D97EF01D695C795D295C2958B
:10212000CF70CD27DF70CD27CC0FDD1FC658DE4D19
:102130000990D881C02D50968C915097882341F0FA
:10214000888590E0E823F923CF01877099271EC086
:102150001E968C91882371F08885E770FF27E050E8
:10216000FD4FE4918E2331E020E009F030E0832F31
:10217000922F0CC09885E770FF27E050FD4F8491A7
:102180009823892F90E002C08FEF9FEFDF91CF91CE
:102190000895CF93DF93EB01009749F0ACDFA0E007
:1021A000B0E088839983AA83BB8380E001C08EEF6F
:1021B000DF91CF910895CF93DF93009709F488C002
:1021C000DC011196ED91FC9112970584F685E02DC6
:1021D00024853585D901B695A795B295A295AF709E
:1021E000AB27BF70AB27AA0FBB1FA658BE4D0D90E3
:1021F000BC91A02D408941116DC02770332741E06B
:1022000050E0EA0102C0CC0FDD1F2A95E2F79E01E3
:10221000EC012E833F83CD014096613089F108F4B3
:1022200043C06230C1F0633009F056C02485358563
:1022300027703327EC01C20FD31F28E128830484C1
:10224000F585E02DE770FF27E050FD4FE4911296F1
:10225000EC9380E042C02485358527703327EC015C
:10226000C20FD31F20E128830484F585E02DE77099
:10227000FF27E050FD4FE4911296EC9380E02DC0D3
:102280002485358527703327EC01C20FD31F1882B0
:102290000484F585E02DE770FF27E050FD4FE491C1
:1022A0001296EC9380E019C024853585277033277A
:1022B000EC01C20FD31F18820484F585E02DE7706E
:1022C000FF27E050FD4FE4911196EC9380E005C0AC
:1022D0008EEF03C08BEF01C08BEFDF91CF9108959C
:1022E0000F931F93CF93DF93EC0188E1DE011D92E2
:1022F0008A95E9F7FB018081813069F569837A83EA
:1023000005851685D80150968C915097811109C08A
:102310001F966C91CE014FDFF80161897289CE0161
:102320009CDED8011C968C911C9787708D831C961F
:10233000ED91FC911D97F695E795F295E295EF707A
:10234000EF27FF70EF27EE0FFF1FE658FE4D80814D
:1023500091818B839C83DF91CF911F910F91089581
:10236000A4E0B0E0E5EBF1E11CC58C017B0186E166
:10237000D8011D928A95E9F7FB018081843009F02C
:1023800026C16B01FFEFCF1ADF0A44E050E069E09D
:1023900072E2C601D4D6892B21F085EFD8018C9347
:1023A00016C18FEF9FEF8B839C8389839A836DE2A5
:1023B00070E0C601B0D65C016EE270E0C601ABD63B
:1023C0004C01A114B10411F0009721F485EFF8013C
:1023D0008083FDC0CE0103969F938F930F2EFEE066
:1023E000CF2EF2E2DF2EF02DDF92CF92FFEFAF1A69
:1023F000BF0ABF92AF92B1D65C01CE0101969F9306
:102400008F93DF92CF922FEF821A920A9F928F9230
:10241000A4D68A0D9B1DCDBFDEBF029749F48B81E8
:102420009C81892B29F489819A818430910520F03F
:1024300085EFF8018083CBC0D80115961C921597C3
:1024400016968C93169780919E2190919F21549679
:102450008D939C9355971196ED92FC921297F701EC
:1024600025853685D90152968D919C915397FC0113
:10247000F695E795F295E295EF70EF27FF70EF275D
:10248000EE0FFF1FE658FE4DA081B181877099279E
:10249000FC01E050FD4FE4911596EC931597F9017E
:1024A00082899389FC01E770FF27E050FD4FE4919A
:1024B0001196EC93D9015896EC915897EE0FEE0FC8
:1024C000EC7054964D915D916D917C9157978091F0
:1024D000B6219091B721A091B821B091B9216C019A
:1024E0007D01F694E794D794C794C416D506E60602
:1024F000F70608F44BC06C017D01F694E794D7947D
:10250000C794F694E794D794C794C416D506E60604
:10251000F706F0F16C017D01689412F8F694E794E7
:10252000D794C7941694D1F7C416D506E606F706D5
:1025300088F16C017D01689413F8F694E794D794C0
:10254000C7941694D1F7C416D506E606F70620F10F
:102550006C017D01689414F8F694E794D794C794BD
:102560001694D1F7C416D506E606F706B8F06894B7
:1025700015F8B695A795979587951694D1F7841772
:102580009507A607B70760F482E00BC080E809C092
:1025900080E007C081E805C081E003C082E801C097
:1025A00083E08E2BF901918D91118062D8011596EF
:1025B0009C9191110CC0E0E4F6E090EB918395833F
:1025C00098E1968B90E4928380658093E00824964E
:1025D000ECE000C4CF93DF93EC01009721F48EEF81
:1025E00080B99FEF50C0E981FA81858596852B815E
:1025F00021111AC0FC0122893389F901F695E7956A
:10260000F295E295EF70EF27FF70EF27EE0FFF1FB7
:10261000E658FE4DA081B18127703327F901E050C3
:10262000FD4FE4911696EC93EC89FD894115510517
:1026300059F0DB01640F751F2D9123832281222322
:10264000ECF7A617B707C1F72B8121111AC0FC01BF
:1026500082899389FC01F695E795F295E295EF70F2
:10266000EF27FF70EF27EE0FFF1FE658FE4DA0810A
:10267000B18187709927FC01E050FD4FE4911596D8
:10268000EC93842F952FDF91CF9108950F931F9393
:10269000CF93DF93EC018B018BE0FE0111928A95C1
:1026A000E9F7FB018081823009F0C9C045E050E0C4
:1026B00061E172E2C801019642D5892B19F085EFDC
:1026C0008883BDC0F80186818053843018F085EF7F
:1026D0008883B5C09BE0FE0111929A95E9F788873F
:1026E00009831A83F801058516858130C9F028F021
:1026F000823049F18330D1F1A2C0E0E4F6E0868572
:102700008F7E868788E1828B84E0828388E0818364
:1027100085838091A6219091A7218D839E8338C0C7
:10272000E0E4F6E086858061868788E1868B80E438
:10273000828380E8818385838091A6219091A7215F
:102740008D839E8325C0E0E6F6E086858F7E8687B2
:1027500088E1828B84E0828388E081838583809115
:10276000AA219091AB218D839E8312C0E0E6F6E012
:1027700086858061868788E1868B80E4828380E815
:10278000818385838091AA219091AB218D839E8343
:102790008091B6219091B721A091B821B091B92133
:1027A000BC01CD01689412F8969587957795679549
:1027B0001694D1F7F8012089318942895389C3D20F
:1027C00021503109ED81FE812683ED81FE81832F29
:1027D0008F708783F8018489882341F0813041F02C
:1027E000823041F0843041F487E007C080E005C0CA
:1027F00081E003C082E001C083E0F8019689923055
:1028000011F4806203C0913009F48063F801958966
:10281000913009F48860ED81FE818483F80186851A
:102820009785892B11F424E001C024E1F801848507
:102830009585892B09F02860ED81FE812383DF9146
:10284000CF911F910F9108950895E0E5F0E0808108
:1028500082608083818181FFFDCF91E088ED84BF1C
:102860009093400084BFE0E5F0E080818E7F80831C
:1028700080E098E4A8EEB1E08093B6219093B72170
:10288000A093B821B093B92108956091B6217091B9
:10289000B7218091B8219091B921D7CF089578942C
:1028A000E0EAF0E09281946088ED84BF9093A2000A
:1028B000E0E0F4E089E090E0828793878487958761
:1028C00081E0808393E09283838385E0E0E4F0E01D
:1028D00083830895109200040895A0E0B0E0E2E739
:1028E000F4E161C2A0902722B0902822C090292252
:1028F000D0902A22E0902B22F0902C2200912D22C1
:1029000010912E22DC01CB01282F392F4A2F5B2F6B
:1029100060E070E080E090E06FD22093BA213093C5
:10292000BB214093BC215093BD216093BE21709385
:10293000BF218093C0219093C1212091BA21309171
:10294000BB214091BC215091BD216091BE2170916D
:10295000BF218091C0219091C121A0902722B090E9
:102960002822C0902922D0902A22E0902B22F09099
:102970002C2200912D2210912E225CD2F0F6CDB7A0
:10298000DEB7EAE029C21F920F920FB60F92112410
:102990002F933F934F935F936F937F938F939F9367
:1029A000AF932091272230912822409129225091E3
:1029B0002A2260912B2270912C2280912D229091BD
:1029C0002E22AAE022D2209327223093282240935D
:1029D000292250932A2260932B2270932C228093D9
:1029E0002D2290932E22AF919F918F917F916F9185
:1029F0005F914F913F912F910F900FBE0F901F90BD
:102A000018958FE292E24BCF08958FE292E262CF67
:102A100008955058BB27AA270ED0E5C0D6D030F075
:102A2000DBD020F031F49F3F11F41EF4CBC00EF444
:102A3000E095E7FBC1C0E92FE7D080F3BA17620742
:102A400073078407950718F071F49EF5FFC00EF424
:102A5000E0950B2EBA2FA02D0B01B90190010C01AE
:102A6000CA01A0011124FF27591B99F0593F50F4C6
:102A7000503E68F11A16F040A22F232F342F44271E
:102A8000585FF3CF469537952795A795F040539516
:102A9000C9F77EF41F16BA0B620B730B840BBAF0E6
:102AA0009150A1F0FF0FBB1F661F771F881FC2F751
:102AB0000EC0BA0F621F731F841F48F48795779565
:102AC0006795B795F7959E3F08F0B3CF9395880F1C
:102AD00008F09927EE0F97958795089504D068948C
:102AE000B111B5C0089598D088F09F5790F0B92FD4
:102AF0009927B751A0F0D1F0660F771F881F991F53
:102B00001AF0BA95C9F712C0B13081F09FD0B1E088
:102B100008959CC0672F782F8827B85F39F0B93F98
:102B2000CCF3869577956795B395D9F73EF4909554
:102B30008095709561957F4F8F4F9F4F0895E894D2
:102B400009C097FB3EF490958095709561957F4FF5
:102B50008F4F9F4F9923A9F0F92F96E9BB279395A3
:102B6000F695879577956795B795F111F8CFFAF4B3
:102B7000BB0F11F460FF1BC06F5F7F4F8F4F9F4FE4
:102B800016C0882311F096E911C0772321F09EE842
:102B9000872F762F05C0662371F096E8862F70E0A8
:102BA00060E02AF09A95660F771F881FDAF7880F82
:102BB0009695879597F9089597F99F6780E870E053
:102BC00060E008959FEF80EC089500240A941616A3
:102BD000170618060906089500240A94121613060B
:102BE000140605060895092E0394000C11F4882399
:102BF00052F0BB0F40F4BF2B11F460FF04C06F5FB5
:102C00007F4F8F4F9F4F089557FD9058440F551F8A
:102C100059F05F3F71F04795880F97FB991F61F05E
:102C20009F3F79F087950895121613061406551FD5
:102C3000F2CF4695F1DF08C0161617061806991F41
:102C4000F1CF86957105610508940895E894BB2736
:102C500066277727CB0197F908950BD0C4CFB5DF4E
:102C600028F0BADF18F0952309F0A6CFABCF1124D6
:102C7000EECFCADFA0F3959FD1F3950F50E0551F1B
:102C8000629FF001729FBB27F00DB11D639FAA27C1
:102C9000F00DB11DAA1F649F6627B00DA11D661F10
:102CA000829F2227B00DA11D621F739FB00DA11D31
:102CB000621F839FA00D611D221F749F3327A00DEB
:102CC000611D231F849F600D211D822F762F6A2F87
:102CD00011249F5750408AF0E1F088234AF0EE0F0C
:102CE000FF1FBB1F661F771F881F91505040A9F719
:102CF0009E3F510570F060CFAACF5F3FECF3983E46
:102D0000DCF3869577956795B795F795E7959F5F7F
:102D1000C1F7FE2B880F911D9695879597F9089519
:102D200097FB072E16F4009406D077FD08D097D0B5
:102D300007FC05D03EF4909581959F4F08957095BE
:102D400061957F4F0895A1E21A2EAA1BBB1BFD01BE
:102D50000DC0AA1FBB1FEE1FFF1FA217B307E4077A
:102D6000F50720F0A21BB30BE40BF50B661F771FD2
:102D7000881F991F1A9469F76095709580959095B2
:102D80009B01AC01BD01CF010895EE0FFF1F05901F
:102D9000F491E02D09942F923F924F925F926F929F
:102DA0007F928F929F92AF92BF92CF92DF92EF92DB
:102DB000FF920F931F93CF93DF93CDB7DEB7CA1B5C
:102DC000DB0BCDBFDEBF09942A88398848885F8431
:102DD0006E847D848C849B84AA84B984C884DF80BB
:102DE000EE80FD800C811B81AA81B981CE0FD11D9F
:102DF000CDBFDEBFED0108952A0D3B1D4C1D5D1DAD
:102E00006E1D7F1D801F911F08950024A7FD009453
:102E10002A0F301D401D501D601D701D801D901D0E
:102E200008952A193B094C095D096E097F09800B39
:102E3000910B08952A153B054C055D056E057F0530
:102E40008007910708950024A7FD00942A173005F4
:102E50004005500560057005800590050895AA1B82
:102E6000BB1B51E107C0AA1FBB1FA617B70710F075
:102E7000A61BB70B881F991F5A95A9F780959095A7
:102E8000BC01CD0108950F931F93CF93DF93869FCD
:102E90008001879F100D969F100D1124C8010DD041
:102EA000EC01009721F0A80160E070E02DD1CE0187
:102EB000DF91CF911F910F910895CF93DF938230CF
:102EC000910510F482E090E0E0913222F0913322FB
:102ED00020E030E0A0E0B0E0309739F1408151814E
:102EE00048175907B8F04817590771F48281938140
:102EF000109729F012968D939C9313972CC0809372
:102F000032229093332227C02115310531F0421728
:102F1000530718F0A901DB0101C0EF019A01BD01BF
:102F2000DF010280F381E02DD7CF21153105F9F0C3
:102F3000281B390B2430310580F48A819B8161156F
:102F4000710521F0FB018283938304C080933222B8
:102F500090933322FE01329644C0FE01E20FF31F2C
:102F60008193919322503109288339833AC020916B
:102F7000302230913122232B41F4209102203091D4
:102F80000320209330223093312220910020309171
:102F900001202115310541F42DB73EB740910420A1
:102FA00050910520241B350BE0913022F091312205
:102FB000E217F307A0F42E1B3F0B2817390778F010
:102FC000AC014E5F5F4F2417350748F04E0F5F1F6F
:102FD00040933022509331228193919302C0E0E0DC
:102FE000F0E0CF01DF91CF910895CF93DF93009769
:102FF00009F487C0FC01329712821382C0913222F9
:10300000D0913322209781F420813181280F391FFC
:1030100080913022909131228217930779F5E093C5
:103020003022F09331226DC0DE0120E030E0AE1797
:10303000BF0750F412964D915C9113979D01411575
:10304000510509F1DA01F3CFA283B38340815181A5
:10305000840F951F8A179B0771F48D919C9111978E
:10306000840F951F02968083918312968D919C9177
:103070001397828393832115310529F4E09332223B
:10308000F09333223EC0D9011296ED93FC9313972F
:103090004D915D91A40FB51FEA17FB0779F480816C
:1030A0009181840F951F0296D9018D939C9311975E
:1030B0008281938112968D939C931397E0E0F0E0C8
:1030C0008A819B81009719F0FE01EC01F9CFCE01B6
:1030D000029628813981820F931F209130223091EE
:1030E00031222817390769F4309729F410923222D7
:1030F0001092332202C012821382C0933022D093E6
:103100003122DF91CF910895DC0101C06D934150D0
:103110005040E0F70895FC018191861721F0882343
:10312000D9F7992708953197CF010895FB01DC0164
:103130008D91019080190110D9F3990B0895FB012D
:10314000DC014150504030F08D910190801919F40C
:103150000020B9F7881B990B0895AEE0B0E0E2EBD0
:10316000F8E129CE85E08C838B899C8989839A83B9
:10317000AE01495E5F4F6D897E89CE01019672D1A5
:103180002E96E2E031CE20FD09C0FC0123FD05C0F2
:1031900022FF02C07383628351834083089544FDFC
:1031A00010C046FD10C0DB01FC01AA0FBB1FEE1FC3
:1031B000FF1F1094D1F76A0F7B1F8E1F9F1F31E0F6
:1031C00003C033E001C034E0660F771F881F991FEA
:1031D0003150D1F7620F711D811D911D08950F931C
:1031E0001F93CF93DF938C01C80178D2EC0197FD38
:1031F00006C061D2892BC1F7B801CE01ADD2CE0194
:10320000DF91CF911F910F9108958F929F92AF926E
:10321000CF92DF92EF92FF920F931F93CF93DF93A2
:10322000EC01A62E4A01022F59D2AC0155274B3290
:10323000510521F04D32510549F40068AA9411F46A
:1032400080E060C0CE014AD297FDFACF102F1D7FDB
:10325000302F3073F1F48033E1F4FF24FA94FA0C48
:1032600009F43DC0CE013AD297FD39C0382F3F7DD9
:10327000383549F41264AA94AA9489F1CE012ED269
:1032800097FF07C02CC006FF02C0126001C0126188
:10329000AF2CC12CD12C760120ED280F283078F0EE
:1032A00014FF03C0BE0158D217C02A3040F016FFE9
:1032B000F9CF2F7D3FEE320F3630A0F72750412F48
:1032C000C701B6016CDF6B017C011260AA9451F05A
:1032D000CE0104D297FFE0CF11FD04C0B1CFC12CC5
:1032E000D12C760117FF08C0F094E094D094C094DC
:1032F000C11CD11CE11CF11C212FB701A601C40186
:1033000042DF81E0DF91CF911F910F91FF90EF900D
:10331000DF90CF90AF909F908F900895A1E2B0E0A2
:10332000E3E9F9E13DCD5C017A018E010F5F1F4FAA
:10333000680180E2D8011D928A95E9F7F501738052
:1033400040E050E0812CB0E0912C81E090E0F90168
:1033500073FCA59173FEA1918F017A2F9F01A1119A
:1033600003C080E090E07BC0AE3519F441155105F3
:1033700059F1E92DF0E0E417F5073CF4AD3569F1BA
:10338000AD3219F4BB2319F103C0B11101C08A2E6B
:10339000E72FE695E695E69586010E0F111DF801DB
:1033A000A72FA7708C0102C0000F111FAA95E2F78A
:1033B000D801B081BA2BB083781559F0781510F484
:1033C0007F5FE6CF7150E4CF9924939403C0B1E0BE
:1033D00001C0B0E04F5F5F4FBACFBB2319F08E81C1
:1033E00080628E83911003C09924939415C0F601D6
:1033F000CE018196208120952193E817F907D1F716
:10340000F3CFE114F10429F0D7018C93F701319641
:103410007F016150F1F0912CC50169A35FD169A1D1
:1034200097FD15C0282F269526952695F601E20FC3
:10343000F11D208130E0AC014770552702C0359561
:1034400027954A95E2F720FDDCCFB50185D1911093
:1034500088CFE114F10411F0D7011C92C801A196A4
:10346000EDE0B7CC4F925F927F928F929F92AF9296
:10347000BF92CF92DF92EF92FF920F931F93CF9361
:10348000DF931F92CDB7DEB78C012B017A01FC01CF
:1034900016821782A12CF801D380F201D3FC85910A
:1034A000D3FE8191382F2F01882309F4EEC090E0DC
:1034B000398301D13981892B19F0C80190DEEBCF16
:1034C000353241F4F201D3FC3591D3FE31912F0115
:1034D000353259F4C801398301D1398197FDD3C000
:1034E0003817C9F2B80138D1D0C03A3241F4D3FC10
:1034F0003591D3FE31912F01BB24B39401C0B12C7F
:10350000712C20ED230F2A3088F4FB2DF260BF2EA2
:10351000672D70E080E090E040E241DE762EF2011F
:10352000D3FC3591D3FE31912F01EBCFB1FE03C017
:10353000711003C0AAC077247A94383619F03C364B
:1035400061F014C0F201D3FC3591D3FE31912F010B
:10355000383661F4FB2DF860BF2E8B2D8460B82EB9
:10356000F201D3FC3591D3FE31912F01332309F4BD
:103570008CC0632F70E088E093E03983A4D0398158
:10358000892B09F482C0B0FC07C0F701C080D1804C
:10359000C70102967C0102C0C12CD12C3E3649F4F1
:1035A000F8014681578160E070E02B2DC601EBDD0C
:1035B00072CF333699F4B1FC02C077247394C801FA
:1035C0008DD097FD60C0C114D10429F0F60180832D
:1035D000C60101966C017A9491F751C03B3551F4C4
:1035E0009201A601672DC80199DE2C01009709F010
:1035F00046C040C0C8013983F2DD398197FD43C020
:103600003F3651F128F4343619F1393661F128C0CA
:10361000333769F03537E1F023C0C114D10429F004
:10362000F6018082C60101966C017A9459F0C801B6
:1036300055D04C0197FD06C03ED0892B71F3B801DF
:10364000C4018AD0C114D104D1F0F601108217C090
:10365000FB2DF062BF2E07C08B2D8061B82E03C0FA
:103660009B2D9064B92E2B2DA601672DC801CDDDB1
:10367000811105C0F8018381807329F406C0B0FC74
:103680000ACFA39408CFAA2019F08A2D90E002C097
:103690008FEF9FEF0F90DF91CF911F910F91FF90D0
:1036A000EF90DF90CF90BF90AF909F908F907F90E2
:1036B0005F904F900895911168C0803219F0895041
:1036C0008550D0F70895FC010590061621F00020E2
:1036D000D9F7C00108953197CF010895CF93DF93B3
:1036E000EC012B8120FF33C026FF0AC02F7B2B83E8
:1036F0008E819F8101968E839F838A8190E029C06D
:1037000022FF0FC0E881F9818081992787FD90957C
:10371000009719F420622B831AC03196E883F9834D
:103720000EC0EA85FB85099597FF09C02B8101969C
:1037300011F480E101C080E2822B8B8308C02E81CE
:103740003F812F5F3F4F2E833F83992702C08FEF2A
:103750009FEFDF91CF910895FB01238120FF12C0DD
:1037600026FD10C08F3F3FEF930761F082832F7DCE
:1037700020642383268137812150310926833783B2
:10378000992708958FEF9FEF089599278827089527
:1037900013E0CAE1D3E003C0FE01F9DA2296C03299
:0837A000D107D1F7F894FFCF27
:1037A80000003422200080002000000000000000FB
:1037B8000000000000000000000000000000000001
:1037C800000000000000000003562132210E21EA0B
:1037D80020C620A22079204E203D20FFFF00696FDF
:1037E8005461626C65456E6400000000000004735B
:1037F80070692D302E3000000000005F200000733B
:1038080070692D302E30000000000045004700464A
:10381800002102404B4C00000002756172742D3388
:103828000000000000008A200000756172742D33CA
:103838000000000000000100010000C201000300B8
:103848000000016C63642D6364000000000000B395
:103858002000006C63642D636400000000000020F9
:10386800020000000000016C63642D727374000094
:10387800000000D72000006C63642D727374000090
:1038880000000063000000000000016862746E2DF3
:1038980031000000000000FB2000006862746E2DFB
:1038A8003100000000000062000101000000016812
:1038B80062746E2D300000000000001F21000068B7
:1038C80062746E2D300000000000006000010100ED
:1038D8000000016C65642D31000000000000004309
:1038E8002100006C65642D310000000000000065B7
:1038F800000100000000016C65642D30000000002C
:10390800000000672100006C65642D300000000095
:1039180000000064000100000000000600004006EE
:103928006006000000000000000000000000000029
:10393800000000000000000000000000E007E008B0
:10394800000000000000C0080000C00900000000DE
:103958000000000000000048E8010100000000002D
:1039680000006C63642D727374006C63642D63646F
:1039780000756172742D33004D6F72676F74682023
:1039880043707053444B206578616D706C6520619D
:1039980070706C69636174696F6E006C65642D305A
:1039A800007370692D302E30007370692D002575F5
:0839B80000756172742D00001E
:00000001FF
