S02000004578616D706C65586D6567615F45355F58706C61696E65642E73726563D9
S11300005FC0000082C0000080C000007EC000000D
S11300107CC000007AC0000078C00000BBC50000AE
S113002074C0000072C0000070C000006EC0000008
S11300306CC000006AC0000068C0000066C0000018
S113004064C0000062C0000060C000005EC0000028
S11300505CC000005AC0000058C0000056C0000038
S113006054C0000052C0000050C000004EC0000048
S11300704CC000004AC0000048C0000046C0000058
S113008044C0000042C0000040C000003EC0000068
S11300903CC000003AC0000038C0000036C0000078
S11300A034C0000032C0000030C000000102040867
S11300B010204080D70124030806DE0128030C0623
S11300C011241FBECFEFCDBFDFE2DEBF11E2A0E0FF
S11300D0B0E2EAEFFFE002C005900D92A832B1074A
S11300E0D9F721E2A8E2B1E201C01D92A234B2071D
S11300F0E1F710E0CAEBD0E003C02297FE01B3D5CC
S1130100C43BD107D1F702D06CC77ACF03D080E0CB
S113011090E00895A7E2B0E0EFE8F0E0B5C504E1AF
S113012010E020E030E040E050E060E070E0CE011C
S1130130419623D204E620E030E040E050E060E065
S113014070E0CE01019619D264E171E2CE0181968C
S113015039D1F12C88E291E229D1CE01419633D2F2
S1130160CE01019630D28823A9F3BE01695D7F4F89
S11301708BE191E2BDD18FA18823F1F0FF2069F0DA
S11301800CE013E020E030E040E050E060E070E09C
S1130190CE01019608D2F12C0DC004EB10E020E052
S11301A030E040E050E060E070E0CE010196FBD129
S11301B0FF24F39460E00CC004E110E020E030E0A0
S11301C040E050E060E070E0CE010196ECD161E0E7
S11301D08BE191E254D1BECFA0E0B0E0E1EFF0E0DA
S11301E050C56C018B0186E0E82E80E2F82EF70101
S11301F0C191D1917F01209721F08D859E85892B16
S113020029F4F8011082118285EF0FC088818130B2
S113021071F7B601CE010196CDD6892B41F78F85B2
S11302209889F8018083918380E0CDB7DEB7E8E058
S113023041C5A0E0B0E0EEE1F1E023C56C018B0123
S113024096E0E92E90E2F92EF701C191D1917F0158
S1130250209721F08D859E85892B29F4F801108241
S1130260118285EF0FC08881833071F7B601CE010A
S11302700196A0D6892B41F78F859889F801808350
S1130280918380E0CDB7DEB7E8E014C5A0E0B0E02C
S1130290EBE4F1E0F6C46C018B0126E0E22E20E2EF
S11302A0F22EF701C191D1917F01209721F08D8524
S11302B09E85892B29F4F8011082118285EF0FC0E5
S11302C08881843071F7B601CE01019673D6892BEB
S11302D041F78F859889F8018083918380E0CDB7B9
S11302E0DEB7E8E0E7C4A0E0B0E0E8E7F1E0C9C4C5
S11302F06C018B0136E0E32E30E2F32EF701C1915D
S1130300D1917F01209721F08D859E85892B29F439
S1130310F8011082118285EF0FC08881823071F755
S1130320B601CE01019646D6892B41F78F8598896F
S1130330F8018083918380E0CDB7DEB7E8E0BAC4EA
S1130340EF92FF920F931F93CF93DF9328E0FC016A
S113035011922A95E9F706E010E2F801C191D191D2
S11303608F018D859E85892BE9F08881813019F074
S1130370823051F013C088E190E06ED17C01009787
S113038059F0BE01BAD208C08BE090E065D17C017F
S1130390009711F0BE01EED2EF86F88AF8E206303B
S11303A01F07D9F6CDB7DEB7E6E086C4089580E32B
S11303B091E2D2D388E291E2C3CF089580E391E23F
S11303C0CDC30895A8E0B0E0E7EEF1E05CC48C0191
S11303D07B0186E0F80111928A95E9F7BE01695F15
S11303E07F4FC701F9DE811107C08F819885F8011D
S11303F08283938381E029C0BE016B5F7F4FC70175
S113040018DF811107C08D819E81F8018283938357
S113041083E01BC0BE016D5F7F4FC70137DF8111D1
S113042007C08B819C81F8018283938384E00DC093
S1130430BE016F5F7F4FC70156DF811108C08981FC
S11304409A81F8018283938382E0818304C0F80156
S11304501182128213822896E6E02EC4FC01828166
S11304609381009741F02181222329F0213029F43E
S113047070E043C108958FEE089588EF0895A6E0D3
S1130480B0E0E4E4F2E002C4162FBC01CE01019610
S113049099DF612FCE010196E1DF2696E3E00FC4D8
S11304A0A4E0B0E0E5E5F2E0EFC3FC018B0182815A
S11304B093810097B9F0F180FF20A1F021E0F212BE
S11304C013C0BE016F5F7F4FA1D149815A816B81F7
S11304D07C81F801452B462B472B11F0F08205C097
S11304E0108203C08FEE01C088EF2496E5E0E5C3D7
S11304F0A6E0B0E0EDE7F2E0C8C38B01BC01CE0199
S1130500019660DFB801CE010196CADF2696E4E0C9
S1130510D5C3AF92BF92CF92DF92EF92FF920F9327
S11305201F93FC01209135213091362140913721D0
S1130530509138216091392170913A2180913B2169
S113054090913C21A080B180C280D380E480F5806A
S113055006811781BDD39F772087318742875387D0
S113056064877587868797871F910F91FF90EF9017
S1130570DF90CF90BF90AF9008950F931F93FC012D
S113058080E1DF011D928A95E9F77F77008311836B
S1130590228333834483558366837783CF01B9DF12
S11305A01F910F9108950F931F93FC017F77008390
S11305B01183228333834483558366837783A9DF3E
S11305C01F910F910895A0E0B0E0E8EEF2E052C36D
S11305D0FC0150846184728483849484D585C685A7
S11305E0B785252D362D472D582D692D7D2F8C2F20
S11305F09B2FA0E08BD31CF1A0903521B090362125
S1130600C0903721D0903821E0903921F0903A21E0
S113061000913B2110913C21AFEF63D31F776DD341
S113062020E030E040E050E060E070E080E090786E
S1130630A0E06CD321F0CF016CDF81E001C080E049
S1130640CDB7DEB7EFE02FC381E391E219C008957F
S113065081E391E226C008957FC3089515C40895E7
S1130660CF93DF93EC0188819981009709F00CD432
S113067088E0FE0111928A95E9F7DF91CF91089500
S1130680CF93DF93EC01188219821A821B8262E0F5
S113069070E081E090E046D388839983DF91CF9125
S11306A008950F931F93CF93DF93EC018881998171
S11306B0892BF1F0EA81FB81888199813097A9F037
S11306C0E150F048EE0FFF1FE80FF91F0081118180
S11306D00115110521F0C801C3DFC801BFDF8A81FC
S11306E09B8101978A839B83E5CFCED3188219829D
S11306F0DF91CF911F910F910895CF93DF930097CE
S113070009F43AC0DC011196ED91FC911297C5856C
S1130710D685EC85FD85DF0185E0B695A7958A959C
S1130720E1F7AA0FBB1FA252BF4D0D90BC91A02DA3
S11307308889882359F014968C911497E7706E2356
S1130740E095E8236E2B14966C9310C08E85882355
S113075021F06170772781E06827E770FF27E4556F
S1130760FF4F672B29F0E4911596EC9380E005C0C8
S1130770E4911696EC93FACF8EEFDF91CF91089522
S1130780CF93DF93009709F43CC0DC011196ED91FF
S1130790FC911297C585D685EC85FD85DF0125E0A2
S11307A0B695A7952A95E1F7AA0FBB1FA252BF4D94
S11307B00D90BC91A02D8889882341F018968C91C6
S11307C090E08E239F23877099271DC08E85E77044
S11307D0FF27882369F018968C91E455FF4FE49124
S11307E0E82331E020E009F030E0832F922F0BC0A2
S11307F018968C91E455FF4FE491E8238E2F90E0F6
S113080002C08FEF9FEFDF91CF910895CF93DF93D5
S1130810EB01009749F0B4DFA0E0B0E0888399834E
S1130820AA83BB8380E001C08EEFDF91CF9108954E
S1130830CF93DF93009709F45AC0DC011196ED9130
S1130840FC9112970584F685E02D24853585D90120
S113085045E0B695A7954A95E1F7AA0FBB1FA252AA
S1130860BF4D0D90BC91A02D4089411142C027700D
S1130870332741E050E0022E02C0440F551F0A9472
S1130880E2F7EC014E835F83CD014096613081F045
S1130890F0F0623039F0633061F5EC01C20FD31F20
S11308A088E104C0EC01C20FD31F80E1888304C037
S11308B0EC01C20FD31F18820484F585E02DE77084
S11308C0FF27E455FF4FE4911296EC930EC0EC0120
S11308D0C20FD31F18820484F585E02DE770FF272B
S11308E0E455FF4FE4911196EC9380E003C08EEF42
S11308F001C08BEFDF91CF9108950F931F93CF9396
S1130900DF93EC0188E1DE011D928A95E9F7FB0192
S11309108081813051F569837A8305851685D801F4
S113092050968C915097811109C01F966C91CE01FD
S11309307FDFF80161897289CE01DFDED8011C9660
S11309408C911C9787708D831C96ED91FC911D975B
S113095065E0F695E7956A95E1F7EE0FFF1FE25221
S1130960FF4D808191818B839C83DF91CF911F9177
S11309700F910895FF920F931F93CF93DF93EC0190
S11309808B013BE0F32EFC018F2D11928A95E9F740
S1130990FB018081823009F0BAC045E050E061E299
S11309A071E2C80101960FD3892B19F085EF888372
S11309B0AEC0F801868180538430C0F7FE011192E5
S11309C0FA94E9F7888709831A83F801058516855F
S11309D0823031F1833089F1813069F080914E06A3
S11309E08F7E80934E0688E18093520684E0809344
S11309F0420688E00CC080914E06806180934E06CA
S1130A0088E18093560680E48093420680E88093D0
S1130A10410680934506809100219091012121C0D7
S1130A2080916E068F7E80936E0688E180937206B5
S1130A3084E08093620688E00CC080916E06806139
S1130A4080936E0688E18093760680E48093620644
S1130A5080E88093610680936506809104219091DB
S1130A6005218D839E8360911021709111218091C5
S1130A7012219091132123E0969587957795679598
S1130A802A95D1F7F8012089318942895389C7D041
S1130A9021503109ED81FE812683ED81FE81832F72
S1130AA08F708783F8018489882341F0813041F075
S1130AB0823041F0843041F487E007C080E005C013
S1130AC081E003C082E001C083E0F801968992309E
S1130AD011F4806203C0913009F48063F8019589B0
S1130AE0913009F48860ED81FE818483F801868564
S1130AF09785892B11F424E001C024E1F801848551
S1130B009585892B09F02860ED81FE812383CDB77B
S1130B10DEB7E5E0D2C0809150008260809350003F
S1130B208091510081FFFCCF91E088ED84BF9093C8
S1130B30400084BF809150008E7F8093500080E0FD
S1130B4098E4A8EEB1E08093102190931121A09332
S1130B501221B09313210895DECF08950895789457
S1130B60E0EAF0E08281846098ED94BF8093A20073
S1130B70E0E0F4E089E090E08287938784879587BA
S1130B8081E0808393E09283838385E0E0E4F0E076
S1130B90838308951F920F920FB60F9211242F93FF
S1130BA03F934F935F936F937F938F939F93AF93F1
S1130BB020913521309136214091372150913821AF
S1130BC06091392170913A2180913B2190913C218F
S1130BD0AAE087D0209335213093362140933721E2
S1130BE0509338216093392170933A2180933B21AB
S1130BF090933C21AF919F918F917F916F915F91E1
S1130C004F913F912F910F900FBE0F901F90189509
S1130C108DE391E2A4CF0895109200040895A1E217
S1130C201A2EAA1BBB1BFD010DC0AA1FBB1FEE1F62
S1130C30FF1FA217B307E407F50720F0A21BB30BAD
S1130C40E40BF50B661F771F881F991F1A9469F729
S1130C5060957095809590959B01AC01BD01CF0185
S1130C600895EE0FFF1F0590F491E02D09942F9243
S1130C703F924F925F926F927F928F929F92AF9228
S1130C80BF92CF92DF92EF92FF920F931F93CF9375
S1130C90DF93CDB7DEB7CA1BDB0BCDBFDEBF099434
S1130CA02A88398848885F846E847D848C849B84F8
S1130CB0AA84B984C884DF80EE80FD800C811B8106
S1130CC0AA81B981CE0FD11DCDBFDEBFED0108953C
S1130CD02A0D3B1D4C1D5D1D6E1D7F1D801F911F28
S1130CE008950024A7FD00942A0F301D401D501DB7
S1130CF0601D701D801D901D08952A193B094C0923
S1130D005D096E097F09800B910B08950024A7FDEE
S1130D1000942A17300540055005600570058005CC
S1130D20900508950F931F93CF93DF93869F8001BF
S1130D30879F100D969F100D1124C8010DD0EC0152
S1130D40009721F0A80160E070E02DD1CE01DF9181
S1130D50CF911F910F910895CF93DF938230910526
S1130D6010F482E090E0E0914021F091412120E0F4
S1130D7030E0A0E0B0E0309739F14081518148176C
S1130D805907B8F04817590771F482819381109775
S1130D9029F012968D939C9313972CC08093402135
S1130DA09093412127C02115310531F04217530793
S1130DB018F0A901DB0101C0EF019A01BD01DF01B7
S1130DC00280F381E02DD7CF21153105F9F0281BDE
S1130DD0390B2430310580F48A819B8161157105BA
S1130DE021F0FB018283938304C08093402190937C
S1130DF04121FE01329644C0FE01E20FF31F8193AC
S1130E00919322503109288339833AC020913E219D
S1130E1030913F21232B41F4209102203091032073
S1130E2020933E2130933F212091002030910120D6
S1130E302115310541F42DB73EB74091042050915E
S1130E400520241B350BE0913E21F0913F21E21750
S1130E50F307A0F42E1B3F0B2817390778F0AC01D9
S1130E604E5F5F4F2417350748F04E0F5F1F4093C6
S1130E703E2150933F218193919302C0E0E0F0E042
S1130E80CF01DF91CF910895CF93DF93009709F4B9
S1130E9087C0FC01329712821382C0914021D09105
S1130EA04121209781F420813181280F391F8091BD
S1130EB03E2190913F218217930779F5E0933E21DB
S1130EC0F0933F216DC0DE0120E030E0AE17BF0794
S1130ED050F412964D915C9113979D014115510563
S1130EE009F1DA01F3CFA283B38340815181840FE6
S1130EF0951F8A179B0771F48D919C911197840F0C
S1130F00951F02968083918312968D919C911397DD
S1130F10828393832115310529F4E0934021F093D2
S1130F2041213EC0D9011296ED93FC9313974D9144
S1130F305D91A40FB51FEA17FB0779F480819181B5
S1130F40840F951F0296D9018D939C9311978281EA
S1130F50938112968D939C931397E0E0F0E08A813D
S1130F609B81009719F0FE01EC01F9CFCE010296A6
S1130F7028813981820F931F20913E2130913F2196
S1130F802817390769F4309729F4109240211092F8
S1130F90412102C012821382C0933E21D0933F218B
S1130FA0DF91CF910895DC0101C06D934150504011
S1130FB0E0F70895FB01DC018D9101908019011087
S1130FC0D9F3990B0895FB01DC014150504030F0F6
S1130FD08D910190801919F40020B9F7881B990BA1
S1130FE0089510E0CAEBD0E003C0FE013CDE229677
S10D0FF0C03CD107D1F7F894FFCFFD
S1130FFA000042212000BA20962072204E2025208B
S113100A1420FFFF00696F5461626C65456E6400C9
S113101A000000000002756172742D3300000000A4
S113102A000036200000756172742D330000000040
S113103A00000100010000C2010003000000016871
S113104A62746E2D310000000000005F2000006809
S113105A62746E2D3100000000000062000101007C
S113106A0000016862746E2D3000000000000083E5
S113107A2000006862746E2D3000000000000060D9
S113108A000101000000016C65642D3100000000BC
S113109A000000A72000006C65642D3100000000E8
S11310AA00000065000100000000016C65642D3039
S11310BA00000000000000CB2000006C65642D30A5
S11310CA00000000000000640001000000000006A7
S11310DA0000400660060000000000000000000056
S11310EA0000000000000000000000000000E0070B
S11310FAC0080000C0090000000000000000000051
S113110A0048E801756172742D33006C65642D30F2
S10B111A00756172742D0000E0
S9030000FC
