:1000000010B5064C2378002B07D1054B002B02D0EE
:10001000044800E000BF0123237010BD0000002051
:10002000000000008000000008B5084B002B03D042
:100030000748084900E000BF07480368002B03D0C9
:10004000064B002B00D0984708BDC04600000000BA
:10005000800000000400002080000000000000007C
:10006000F8B5C046F8BC08BC9E46704729000000A1
:10007000F8B5C046F8BC08BC9E46704701000000B9
:00000001FF
